{
  "_format": "hh-sol-artifact-1",
  "contractName": "TokenContract1155",
  "sourceName": "contracts/TokenContract1155.sol",
  "abi": [
    {
      "inputs": [
        {
          "internalType": "string",
          "name": "_name",
          "type": "string"
        },
        {
          "internalType": "string",
          "name": "_symbol",
          "type": "string"
        }
      ],
      "stateMutability": "nonpayable",
      "type": "constructor"
    },
    {
      "anonymous": false,
      "inputs": [
        {
          "indexed": true,
          "internalType": "address",
          "name": "account",
          "type": "address"
        },
        {
          "indexed": true,
          "internalType": "address",
          "name": "operator",
          "type": "address"
        },
        {
          "indexed": false,
          "internalType": "bool",
          "name": "approved",
          "type": "bool"
        }
      ],
      "name": "ApprovalForAll",
      "type": "event"
    },
    {
      "anonymous": false,
      "inputs": [
        {
          "indexed": true,
          "internalType": "address",
          "name": "previousOwner",
          "type": "address"
        },
        {
          "indexed": true,
          "internalType": "address",
          "name": "newOwner",
          "type": "address"
        }
      ],
      "name": "OwnershipTransferred",
      "type": "event"
    },
    {
      "anonymous": false,
      "inputs": [
        {
          "indexed": true,
          "internalType": "address",
          "name": "operator",
          "type": "address"
        },
        {
          "indexed": true,
          "internalType": "address",
          "name": "from",
          "type": "address"
        },
        {
          "indexed": true,
          "internalType": "address",
          "name": "to",
          "type": "address"
        },
        {
          "indexed": false,
          "internalType": "uint256[]",
          "name": "ids",
          "type": "uint256[]"
        },
        {
          "indexed": false,
          "internalType": "uint256[]",
          "name": "values",
          "type": "uint256[]"
        }
      ],
      "name": "TransferBatch",
      "type": "event"
    },
    {
      "anonymous": false,
      "inputs": [
        {
          "indexed": true,
          "internalType": "address",
          "name": "operator",
          "type": "address"
        },
        {
          "indexed": true,
          "internalType": "address",
          "name": "from",
          "type": "address"
        },
        {
          "indexed": true,
          "internalType": "address",
          "name": "to",
          "type": "address"
        },
        {
          "indexed": false,
          "internalType": "uint256",
          "name": "id",
          "type": "uint256"
        },
        {
          "indexed": false,
          "internalType": "uint256",
          "name": "value",
          "type": "uint256"
        }
      ],
      "name": "TransferSingle",
      "type": "event"
    },
    {
      "anonymous": false,
      "inputs": [
        {
          "indexed": false,
          "internalType": "string",
          "name": "value",
          "type": "string"
        },
        {
          "indexed": true,
          "internalType": "uint256",
          "name": "id",
          "type": "uint256"
        }
      ],
      "name": "URI",
      "type": "event"
    },
    {
      "inputs": [
        {
          "internalType": "address",
          "name": "account",
          "type": "address"
        },
        {
          "internalType": "uint256",
          "name": "id",
          "type": "uint256"
        }
      ],
      "name": "balanceOf",
      "outputs": [
        {
          "internalType": "uint256",
          "name": "",
          "type": "uint256"
        }
      ],
      "stateMutability": "view",
      "type": "function"
    },
    {
      "inputs": [
        {
          "internalType": "address[]",
          "name": "accounts",
          "type": "address[]"
        },
        {
          "internalType": "uint256[]",
          "name": "ids",
          "type": "uint256[]"
        }
      ],
      "name": "balanceOfBatch",
      "outputs": [
        {
          "internalType": "uint256[]",
          "name": "",
          "type": "uint256[]"
        }
      ],
      "stateMutability": "view",
      "type": "function"
    },
    {
      "inputs": [
        {
          "internalType": "address",
          "name": "account",
          "type": "address"
        },
        {
          "internalType": "uint256",
          "name": "id",
          "type": "uint256"
        },
        {
          "internalType": "uint256",
          "name": "amount",
          "type": "uint256"
        }
      ],
      "name": "burn",
      "outputs": [],
      "stateMutability": "nonpayable",
      "type": "function"
    },
    {
      "inputs": [
        {
          "internalType": "address",
          "name": "account",
          "type": "address"
        },
        {
          "internalType": "uint256[]",
          "name": "ids",
          "type": "uint256[]"
        },
        {
          "internalType": "uint256[]",
          "name": "values",
          "type": "uint256[]"
        }
      ],
      "name": "burnBatch",
      "outputs": [],
      "stateMutability": "nonpayable",
      "type": "function"
    },
    {
      "inputs": [
        {
          "internalType": "uint256",
          "name": "id",
          "type": "uint256"
        }
      ],
      "name": "exists",
      "outputs": [
        {
          "internalType": "bool",
          "name": "",
          "type": "bool"
        }
      ],
      "stateMutability": "view",
      "type": "function"
    },
    {
      "inputs": [
        {
          "internalType": "address",
          "name": "contractAddress",
          "type": "address"
        }
      ],
      "name": "getApprovalForContract",
      "outputs": [],
      "stateMutability": "nonpayable",
      "type": "function"
    },
    {
      "inputs": [
        {
          "internalType": "address",
          "name": "account",
          "type": "address"
        },
        {
          "internalType": "address",
          "name": "operator",
          "type": "address"
        }
      ],
      "name": "isApprovedForAll",
      "outputs": [
        {
          "internalType": "bool",
          "name": "",
          "type": "bool"
        }
      ],
      "stateMutability": "view",
      "type": "function"
    },
    {
      "inputs": [
        {
          "internalType": "address",
          "name": "account",
          "type": "address"
        },
        {
          "internalType": "string",
          "name": "tokenUri",
          "type": "string"
        },
        {
          "internalType": "uint256",
          "name": "askingPrice",
          "type": "uint256"
        },
        {
          "internalType": "address",
          "name": "creator",
          "type": "address"
        }
      ],
      "name": "lazyMint",
      "outputs": [
        {
          "internalType": "uint256",
          "name": "",
          "type": "uint256"
        }
      ],
      "stateMutability": "payable",
      "type": "function"
    },
    {
      "inputs": [
        {
          "internalType": "address",
          "name": "account",
          "type": "address"
        },
        {
          "internalType": "string",
          "name": "tokenUri",
          "type": "string"
        },
        {
          "internalType": "uint256",
          "name": "askingPrice",
          "type": "uint256"
        },
        {
          "internalType": "address",
          "name": "creator",
          "type": "address"
        },
        {
          "internalType": "address",
          "name": "payToken",
          "type": "address"
        }
      ],
      "name": "lazyMintCustom",
      "outputs": [
        {
          "internalType": "uint256",
          "name": "",
          "type": "uint256"
        }
      ],
      "stateMutability": "payable",
      "type": "function"
    },
    {
      "inputs": [
        {
          "internalType": "address",
          "name": "account",
          "type": "address"
        },
        {
          "internalType": "uint256",
          "name": "amount",
          "type": "uint256"
        },
        {
          "internalType": "string",
          "name": "tokenUri",
          "type": "string"
        }
      ],
      "name": "mintNft",
      "outputs": [
        {
          "internalType": "uint256",
          "name": "",
          "type": "uint256"
        }
      ],
      "stateMutability": "nonpayable",
      "type": "function"
    },
    {
      "inputs": [],
      "name": "name",
      "outputs": [
        {
          "internalType": "string",
          "name": "",
          "type": "string"
        }
      ],
      "stateMutability": "view",
      "type": "function"
    },
    {
      "inputs": [],
      "name": "owner",
      "outputs": [
        {
          "internalType": "address",
          "name": "",
          "type": "address"
        }
      ],
      "stateMutability": "view",
      "type": "function"
    },
    {
      "inputs": [],
      "name": "renounceOwnership",
      "outputs": [],
      "stateMutability": "nonpayable",
      "type": "function"
    },
    {
      "inputs": [
        {
          "internalType": "address",
          "name": "from",
          "type": "address"
        },
        {
          "internalType": "address",
          "name": "to",
          "type": "address"
        },
        {
          "internalType": "uint256[]",
          "name": "ids",
          "type": "uint256[]"
        },
        {
          "internalType": "uint256[]",
          "name": "amounts",
          "type": "uint256[]"
        },
        {
          "internalType": "bytes",
          "name": "data",
          "type": "bytes"
        }
      ],
      "name": "safeBatchTransferFrom",
      "outputs": [],
      "stateMutability": "nonpayable",
      "type": "function"
    },
    {
      "inputs": [
        {
          "internalType": "address",
          "name": "from",
          "type": "address"
        },
        {
          "internalType": "address",
          "name": "to",
          "type": "address"
        },
        {
          "internalType": "uint256",
          "name": "id",
          "type": "uint256"
        },
        {
          "internalType": "uint256",
          "name": "amount",
          "type": "uint256"
        },
        {
          "internalType": "bytes",
          "name": "data",
          "type": "bytes"
        }
      ],
      "name": "safeTransferFrom",
      "outputs": [],
      "stateMutability": "nonpayable",
      "type": "function"
    },
    {
      "inputs": [
        {
          "internalType": "address",
          "name": "operator",
          "type": "address"
        },
        {
          "internalType": "bool",
          "name": "approved",
          "type": "bool"
        }
      ],
      "name": "setApprovalForAll",
      "outputs": [],
      "stateMutability": "nonpayable",
      "type": "function"
    },
    {
      "inputs": [
        {
          "internalType": "uint256",
          "name": "tokenId",
          "type": "uint256"
        },
        {
          "internalType": "string",
          "name": "tokenUri",
          "type": "string"
        }
      ],
      "name": "setUri",
      "outputs": [],
      "stateMutability": "nonpayable",
      "type": "function"
    },
    {
      "inputs": [
        {
          "internalType": "bytes4",
          "name": "interfaceId",
          "type": "bytes4"
        }
      ],
      "name": "supportsInterface",
      "outputs": [
        {
          "internalType": "bool",
          "name": "",
          "type": "bool"
        }
      ],
      "stateMutability": "view",
      "type": "function"
    },
    {
      "inputs": [],
      "name": "symbol",
      "outputs": [
        {
          "internalType": "string",
          "name": "",
          "type": "string"
        }
      ],
      "stateMutability": "view",
      "type": "function"
    },
    {
      "inputs": [
        {
          "internalType": "uint256",
          "name": "id",
          "type": "uint256"
        }
      ],
      "name": "totalSupply",
      "outputs": [
        {
          "internalType": "uint256",
          "name": "",
          "type": "uint256"
        }
      ],
      "stateMutability": "view",
      "type": "function"
    },
    {
      "inputs": [
        {
          "internalType": "address",
          "name": "newOwner",
          "type": "address"
        }
      ],
      "name": "transferOwnership",
      "outputs": [],
      "stateMutability": "nonpayable",
      "type": "function"
    },
    {
      "inputs": [
        {
          "internalType": "uint256",
          "name": "tokenId",
          "type": "uint256"
        }
      ],
      "name": "uri",
      "outputs": [
        {
          "internalType": "string",
          "name": "",
          "type": "string"
        }
      ],
      "stateMutability": "view",
      "type": "function"
    }
  ],
  "bytecode": "0x60806040523480156200001157600080fd5b506040516200489f3803806200489f8339818101604052810190620000379190620003ea565b604051806020016040528060008152506200005881620000b360201b60201c565b50620000796200006d620000cf60201b60201c565b620000d760201b60201c565b8160059080519060200190620000919291906200019d565b508060069080519060200190620000aa9291906200019d565b505050620004d4565b8060029080519060200190620000cb9291906200019d565b5050565b600033905090565b6000600360009054906101000a900473ffffffffffffffffffffffffffffffffffffffff16905081600360006101000a81548173ffffffffffffffffffffffffffffffffffffffff021916908373ffffffffffffffffffffffffffffffffffffffff1602179055508173ffffffffffffffffffffffffffffffffffffffff168173ffffffffffffffffffffffffffffffffffffffff167f8be0079c531659141344cd1fd0a4f28419497f9722a3daafe3b4186f6b6457e060405160405180910390a35050565b828054620001ab906200049e565b90600052602060002090601f016020900481019282620001cf57600085556200021b565b82601f10620001ea57805160ff19168380011785556200021b565b828001600101855582156200021b579182015b828111156200021a578251825591602001919060010190620001fd565b5b5090506200022a91906200022e565b5090565b5b80821115620002495760008160009055506001016200022f565b5090565b6000604051905090565b600080fd5b600080fd5b600080fd5b600080fd5b6000601f19601f8301169050919050565b7f4e487b7100000000000000000000000000000000000000000000000000000000600052604160045260246000fd5b620002b6826200026b565b810181811067ffffffffffffffff82111715620002d857620002d76200027c565b5b80604052505050565b6000620002ed6200024d565b9050620002fb8282620002ab565b919050565b600067ffffffffffffffff8211156200031e576200031d6200027c565b5b62000329826200026b565b9050602081019050919050565b60005b838110156200035657808201518184015260208101905062000339565b8381111562000366576000848401525b50505050565b6000620003836200037d8462000300565b620002e1565b905082815260208101848484011115620003a257620003a162000266565b5b620003af84828562000336565b509392505050565b600082601f830112620003cf57620003ce62000261565b5b8151620003e18482602086016200036c565b91505092915050565b6000806040838503121562000404576200040362000257565b5b600083015167ffffffffffffffff8111156200042557620004246200025c565b5b6200043385828601620003b7565b925050602083015167ffffffffffffffff8111156200045757620004566200025c565b5b6200046585828601620003b7565b9150509250929050565b7f4e487b7100000000000000000000000000000000000000000000000000000000600052602260045260246000fd5b60006002820490506001821680620004b757607f821691505b60208210811415620004ce57620004cd6200046f565b5b50919050565b6143bb80620004e46000396000f3fe6080604052600436106101345760003560e01c80638da5cb5b116100ab578063caf279391161006f578063caf2793914610450578063e985e9c514610479578063f242432a146104b6578063f2fde38b146104df578063f51735be14610508578063f5298aca1461053857610134565b80638da5cb5b1461035757806395d89b41146103825780639a6a009b146103ad578063a22cb465146103ea578063bd85b0391461041357610134565b80634e1273f4116100fd5780634e1273f4146102445780634f558e79146102815780636b20c454146102be578063715018a6146102e7578063782f08ae146102fe5780638ba4adf31461032757610134565b8062fdd58e1461013957806301ffc9a71461017657806306fdde03146101b35780630e89341c146101de5780632eb2c2d61461021b575b600080fd5b34801561014557600080fd5b50610160600480360381019061015b91906128a2565b610561565b60405161016d91906128f1565b60405180910390f35b34801561018257600080fd5b5061019d60048036038101906101989190612964565b61062a565b6040516101aa91906129ac565b60405180910390f35b3480156101bf57600080fd5b506101c861070c565b6040516101d59190612a60565b60405180910390f35b3480156101ea57600080fd5b5061020560048036038101906102009190612a82565b61079a565b6040516102129190612a60565b60405180910390f35b34801561022757600080fd5b50610242600480360381019061023d9190612cac565b61083f565b005b34801561025057600080fd5b5061026b60048036038101906102669190612e3e565b6108e0565b6040516102789190612f74565b60405180910390f35b34801561028d57600080fd5b506102a860048036038101906102a39190612a82565b6109f9565b6040516102b591906129ac565b60405180910390f35b3480156102ca57600080fd5b506102e560048036038101906102e09190612f96565b610a0d565b005b3480156102f357600080fd5b506102fc610aaa565b005b34801561030a57600080fd5b50610325600480360381019061032091906130c2565b610abe565b005b610341600480360381019061033c919061311e565b610c20565b60405161034e91906128f1565b60405180910390f35b34801561036357600080fd5b5061036c610d08565b60405161037991906131c4565b60405180910390f35b34801561038e57600080fd5b50610397610d32565b6040516103a49190612a60565b60405180910390f35b3480156103b957600080fd5b506103d460048036038101906103cf91906131df565b610dc0565b6040516103e191906128f1565b60405180910390f35b3480156103f657600080fd5b50610411600480360381019061040c919061327a565b610e0a565b005b34801561041f57600080fd5b5061043a60048036038101906104359190612a82565b610e20565b60405161044791906128f1565b60405180910390f35b34801561045c57600080fd5b50610477600480360381019061047291906132ba565b610e3d565b005b34801561048557600080fd5b506104a0600480360381019061049b91906132e7565b610e4b565b6040516104ad91906129ac565b60405180910390f35b3480156104c257600080fd5b506104dd60048036038101906104d89190613327565b610edf565b005b3480156104eb57600080fd5b50610506600480360381019061050191906132ba565b610f80565b005b610522600480360381019061051d91906133be565b611004565b60405161052f91906128f1565b60405180910390f35b34801561054457600080fd5b5061055f600480360381019061055a9190613441565b6110e0565b005b60008073ffffffffffffffffffffffffffffffffffffffff168373ffffffffffffffffffffffffffffffffffffffff1614156105d2576040517f08c379a00000000000000000000000000000000000000000000000000000000081526004016105c990613506565b60405180910390fd5b60008083815260200190815260200160002060008473ffffffffffffffffffffffffffffffffffffffff1673ffffffffffffffffffffffffffffffffffffffff16815260200190815260200160002054905092915050565b60007fd9b67a26000000000000000000000000000000000000000000000000000000007bffffffffffffffffffffffffffffffffffffffffffffffffffffffff1916827bffffffffffffffffffffffffffffffffffffffffffffffffffffffff191614806106f557507f0e89341c000000000000000000000000000000000000000000000000000000007bffffffffffffffffffffffffffffffffffffffffffffffffffffffff1916827bffffffffffffffffffffffffffffffffffffffffffffffffffffffff1916145b80610705575061070482611128565b5b9050919050565b6005805461071990613555565b80601f016020809104026020016040519081016040528092919081815260200182805461074590613555565b80156107925780601f1061076757610100808354040283529160200191610792565b820191906000526020600020905b81548152906001019060200180831161077557829003601f168201915b505050505081565b60606008600083815260200190815260200160002080546107ba90613555565b80601f01602080910402602001604051908101604052809291908181526020018280546107e690613555565b80156108335780601f1061080857610100808354040283529160200191610833565b820191906000526020600020905b81548152906001019060200180831161081657829003601f168201915b50505050509050919050565b610847611192565b73ffffffffffffffffffffffffffffffffffffffff168573ffffffffffffffffffffffffffffffffffffffff16148061088d575061088c85610887611192565b610e4b565b5b6108cc576040517f08c379a00000000000000000000000000000000000000000000000000000000081526004016108c3906135f9565b60405180910390fd5b6108d9858585858561119a565b5050505050565b60608151835114610926576040517f08c379a000000000000000000000000000000000000000000000000000000000815260040161091d9061368b565b60405180910390fd5b6000835167ffffffffffffffff81111561094357610942612ab4565b5b6040519080825280602002602001820160405280156109715781602001602082028036833780820191505090505b50905060005b84518110156109ee576109be858281518110610996576109956136ab565b5b60200260200101518583815181106109b1576109b06136ab565b5b6020026020010151610561565b8282815181106109d1576109d06136ab565b5b602002602001018181525050806109e790613709565b9050610977565b508091505092915050565b600080610a0583610e20565b119050919050565b610a15611192565b73ffffffffffffffffffffffffffffffffffffffff168373ffffffffffffffffffffffffffffffffffffffff161480610a5b5750610a5a83610a55611192565b610e4b565b5b610a9a576040517f08c379a0000000000000000000000000000000000000000000000000000000008152600401610a91906135f9565b60405180910390fd5b610aa58383836114bc565b505050565b610ab261178b565b610abc6000611809565b565b81600030905060008173ffffffffffffffffffffffffffffffffffffffff1662fdd58e33856040518363ffffffff1660e01b8152600401610b00929190613752565b60206040518083038186803b158015610b1857600080fd5b505afa158015610b2c573d6000803e3d6000fd5b505050506040513d601f19601f82011682018060405250810190610b509190613790565b11610b90576040517f08c379a0000000000000000000000000000000000000000000000000000000008152600401610b8790613809565b60405180910390fd5b6000600860008681526020019081526020016000208054610bb090613555565b905014610bf2576040517f08c379a0000000000000000000000000000000000000000000000000000000008152600401610be990613875565b60405180910390fd5b82600860008681526020019081526020016000209080519060200190610c19929190612757565b5050505050565b60008083905060008390508073ffffffffffffffffffffffffffffffffffffffff166323b872dd3384896040518463ffffffff1660e01b8152600401610c68939291906138f4565b602060405180830381600087803b158015610c8257600080fd5b505af1158015610c96573d6000803e3d6000fd5b505050506040513d601f19601f82011682018060405250810190610cba9190613940565b50610cc560076118cf565b6000610cd160076118e5565b9050610cef89826001604051806020016040528060008152506118f3565b610cf98189610abe565b80935050505095945050505050565b6000600360009054906101000a900473ffffffffffffffffffffffffffffffffffffffff16905090565b60068054610d3f90613555565b80601f0160208091040260200160405190810160405280929190818152602001828054610d6b90613555565b8015610db85780601f10610d8d57610100808354040283529160200191610db8565b820191906000526020600020905b815481529060010190602001808311610d9b57829003601f168201915b505050505081565b6000610dcc60076118cf565b6000610dd860076118e5565b9050610df5858286604051806020016040528060008152506118f3565b610dff8184610abe565b809150509392505050565b610e1c610e15611192565b8383611aa4565b5050565b600060046000838152602001908152602001600020549050919050565b610e48816001610e0a565b50565b6000600160008473ffffffffffffffffffffffffffffffffffffffff1673ffffffffffffffffffffffffffffffffffffffff16815260200190815260200160002060008373ffffffffffffffffffffffffffffffffffffffff1673ffffffffffffffffffffffffffffffffffffffff16815260200190815260200160002060009054906101000a900460ff16905092915050565b610ee7611192565b73ffffffffffffffffffffffffffffffffffffffff168573ffffffffffffffffffffffffffffffffffffffff161480610f2d5750610f2c85610f27611192565b610e4b565b5b610f6c576040517f08c379a0000000000000000000000000000000000000000000000000000000008152600401610f63906135f9565b60405180910390fd5b610f798585858585611c11565b5050505050565b610f8861178b565b600073ffffffffffffffffffffffffffffffffffffffff168173ffffffffffffffffffffffffffffffffffffffff161415610ff8576040517f08c379a0000000000000000000000000000000000000000000000000000000008152600401610fef906139df565b60405180910390fd5b61100181611809565b50565b600082341015611049576040517f08c379a000000000000000000000000000000000000000000000000000000000815260040161104090613a71565b60405180910390fd5b60008290508073ffffffffffffffffffffffffffffffffffffffff166108fc859081150290604051600060405180830381858888f19350505050158015611094573d6000803e3d6000fd5b5061109f60076118cf565b60006110ab60076118e5565b90506110c987826001604051806020016040528060008152506118f3565b6110d38187610abe565b8092505050949350505050565b8273ffffffffffffffffffffffffffffffffffffffff163373ffffffffffffffffffffffffffffffffffffffff161461111857600080fd5b611123838383611ead565b505050565b60007f01ffc9a7000000000000000000000000000000000000000000000000000000007bffffffffffffffffffffffffffffffffffffffffffffffffffffffff1916827bffffffffffffffffffffffffffffffffffffffffffffffffffffffff1916149050919050565b600033905090565b81518351146111de576040517f08c379a00000000000000000000000000000000000000000000000000000000081526004016111d590613b03565b60405180910390fd5b600073ffffffffffffffffffffffffffffffffffffffff168473ffffffffffffffffffffffffffffffffffffffff16141561124e576040517f08c379a000000000000000000000000000000000000000000000000000000000815260040161124590613b95565b60405180910390fd5b6000611258611192565b90506112688187878787876120f4565b60005b8451811015611419576000858281518110611289576112886136ab565b5b6020026020010151905060008583815181106112a8576112a76136ab565b5b60200260200101519050600080600084815260200190815260200160002060008b73ffffffffffffffffffffffffffffffffffffffff1673ffffffffffffffffffffffffffffffffffffffff16815260200190815260200160002054905081811015611349576040517f08c379a000000000000000000000000000000000000000000000000000000000815260040161134090613c27565b60405180910390fd5b81810360008085815260200190815260200160002060008c73ffffffffffffffffffffffffffffffffffffffff1673ffffffffffffffffffffffffffffffffffffffff168152602001908152602001600020819055508160008085815260200190815260200160002060008b73ffffffffffffffffffffffffffffffffffffffff1673ffffffffffffffffffffffffffffffffffffffff16815260200190815260200160002060008282546113fe9190613c47565b925050819055505050508061141290613709565b905061126b565b508473ffffffffffffffffffffffffffffffffffffffff168673ffffffffffffffffffffffffffffffffffffffff168273ffffffffffffffffffffffffffffffffffffffff167f4a39dc06d4c0dbc64b70af90fd698a233a518aa5d07e595d983b8c0526c8f7fb8787604051611490929190613c9d565b60405180910390a46114a681878787878761210a565b6114b4818787878787612112565b505050505050565b600073ffffffffffffffffffffffffffffffffffffffff168373ffffffffffffffffffffffffffffffffffffffff16141561152c576040517f08c379a000000000000000000000000000000000000000000000000000000000815260040161152390613d46565b60405180910390fd5b8051825114611570576040517f08c379a000000000000000000000000000000000000000000000000000000000815260040161156790613b03565b60405180910390fd5b600061157a611192565b905061159a818560008686604051806020016040528060008152506120f4565b60005b83518110156116e75760008482815181106115bb576115ba6136ab565b5b6020026020010151905060008483815181106115da576115d96136ab565b5b60200260200101519050600080600084815260200190815260200160002060008973ffffffffffffffffffffffffffffffffffffffff1673ffffffffffffffffffffffffffffffffffffffff1681526020019081526020016000205490508181101561167b576040517f08c379a000000000000000000000000000000000000000000000000000000000815260040161167290613dd8565b60405180910390fd5b81810360008085815260200190815260200160002060008a73ffffffffffffffffffffffffffffffffffffffff1673ffffffffffffffffffffffffffffffffffffffff1681526020019081526020016000208190555050505080806116df90613709565b91505061159d565b50600073ffffffffffffffffffffffffffffffffffffffff168473ffffffffffffffffffffffffffffffffffffffff168273ffffffffffffffffffffffffffffffffffffffff167f4a39dc06d4c0dbc64b70af90fd698a233a518aa5d07e595d983b8c0526c8f7fb868660405161175f929190613c9d565b60405180910390a46117858185600086866040518060200160405280600081525061210a565b50505050565b611793611192565b73ffffffffffffffffffffffffffffffffffffffff166117b1610d08565b73ffffffffffffffffffffffffffffffffffffffff1614611807576040517f08c379a00000000000000000000000000000000000000000000000000000000081526004016117fe90613e44565b60405180910390fd5b565b6000600360009054906101000a900473ffffffffffffffffffffffffffffffffffffffff16905081600360006101000a81548173ffffffffffffffffffffffffffffffffffffffff021916908373ffffffffffffffffffffffffffffffffffffffff1602179055508173ffffffffffffffffffffffffffffffffffffffff168173ffffffffffffffffffffffffffffffffffffffff167f8be0079c531659141344cd1fd0a4f28419497f9722a3daafe3b4186f6b6457e060405160405180910390a35050565b6001816000016000828254019250508190555050565b600081600001549050919050565b600073ffffffffffffffffffffffffffffffffffffffff168473ffffffffffffffffffffffffffffffffffffffff161415611963576040517f08c379a000000000000000000000000000000000000000000000000000000000815260040161195a90613ed6565b60405180910390fd5b600061196d611192565b9050600061197a856122f9565b90506000611987856122f9565b9050611998836000898585896120f4565b8460008088815260200190815260200160002060008973ffffffffffffffffffffffffffffffffffffffff1673ffffffffffffffffffffffffffffffffffffffff16815260200190815260200160002060008282546119f79190613c47565b925050819055508673ffffffffffffffffffffffffffffffffffffffff16600073ffffffffffffffffffffffffffffffffffffffff168473ffffffffffffffffffffffffffffffffffffffff167fc3d58168c5ae7397731d063d5bbf3d657854427343f4c083240f7aacaa2d0f628989604051611a75929190613ef6565b60405180910390a4611a8c8360008985858961210a565b611a9b83600089898989612373565b50505050505050565b8173ffffffffffffffffffffffffffffffffffffffff168373ffffffffffffffffffffffffffffffffffffffff161415611b13576040517f08c379a0000000000000000000000000000000000000000000000000000000008152600401611b0a90613f91565b60405180910390fd5b80600160008573ffffffffffffffffffffffffffffffffffffffff1673ffffffffffffffffffffffffffffffffffffffff16815260200190815260200160002060008473ffffffffffffffffffffffffffffffffffffffff1673ffffffffffffffffffffffffffffffffffffffff16815260200190815260200160002060006101000a81548160ff0219169083151502179055508173ffffffffffffffffffffffffffffffffffffffff168373ffffffffffffffffffffffffffffffffffffffff167f17307eab39ab6107e8899845ad3d59bd9653f200f220920489ca2b5937696c3183604051611c0491906129ac565b60405180910390a3505050565b600073ffffffffffffffffffffffffffffffffffffffff168473ffffffffffffffffffffffffffffffffffffffff161415611c81576040517f08c379a0000000000000000000000000000000000000000000000000000000008152600401611c7890613b95565b60405180910390fd5b6000611c8b611192565b90506000611c98856122f9565b90506000611ca5856122f9565b9050611cb58389898585896120f4565b600080600088815260200190815260200160002060008a73ffffffffffffffffffffffffffffffffffffffff1673ffffffffffffffffffffffffffffffffffffffff16815260200190815260200160002054905085811015611d4c576040517f08c379a0000000000000000000000000000000000000000000000000000000008152600401611d4390613c27565b60405180910390fd5b85810360008089815260200190815260200160002060008b73ffffffffffffffffffffffffffffffffffffffff1673ffffffffffffffffffffffffffffffffffffffff168152602001908152602001600020819055508560008089815260200190815260200160002060008a73ffffffffffffffffffffffffffffffffffffffff1673ffffffffffffffffffffffffffffffffffffffff1681526020019081526020016000206000828254611e019190613c47565b925050819055508773ffffffffffffffffffffffffffffffffffffffff168973ffffffffffffffffffffffffffffffffffffffff168573ffffffffffffffffffffffffffffffffffffffff167fc3d58168c5ae7397731d063d5bbf3d657854427343f4c083240f7aacaa2d0f628a8a604051611e7e929190613ef6565b60405180910390a4611e94848a8a86868a61210a565b611ea2848a8a8a8a8a612373565b505050505050505050565b600073ffffffffffffffffffffffffffffffffffffffff168373ffffffffffffffffffffffffffffffffffffffff161415611f1d576040517f08c379a0000000000000000000000000000000000000000000000000000000008152600401611f1490613d46565b60405180910390fd5b6000611f27611192565b90506000611f34846122f9565b90506000611f41846122f9565b9050611f61838760008585604051806020016040528060008152506120f4565b600080600087815260200190815260200160002060008873ffffffffffffffffffffffffffffffffffffffff1673ffffffffffffffffffffffffffffffffffffffff16815260200190815260200160002054905084811015611ff8576040517f08c379a0000000000000000000000000000000000000000000000000000000008152600401611fef90613dd8565b60405180910390fd5b84810360008088815260200190815260200160002060008973ffffffffffffffffffffffffffffffffffffffff1673ffffffffffffffffffffffffffffffffffffffff16815260200190815260200160002081905550600073ffffffffffffffffffffffffffffffffffffffff168773ffffffffffffffffffffffffffffffffffffffff168573ffffffffffffffffffffffffffffffffffffffff167fc3d58168c5ae7397731d063d5bbf3d657854427343f4c083240f7aacaa2d0f6289896040516120c5929190613ef6565b60405180910390a46120eb8488600086866040518060200160405280600081525061210a565b50505050505050565b61210286868686868661255a565b505050505050565b505050505050565b6121318473ffffffffffffffffffffffffffffffffffffffff1661272c565b156122f1578373ffffffffffffffffffffffffffffffffffffffff1663bc197c8187878686866040518663ffffffff1660e01b8152600401612177959493929190614006565b602060405180830381600087803b15801561219157600080fd5b505af19250505080156121c257506040513d601f19601f820116820180604052508101906121bf9190614083565b60015b612268576121ce6140bd565b806308c379a0141561222b57506121e36140df565b806121ee575061222d565b806040517f08c379a00000000000000000000000000000000000000000000000000000000081526004016122229190612a60565b60405180910390fd5b505b6040517f08c379a000000000000000000000000000000000000000000000000000000000815260040161225f906141e7565b60405180910390fd5b63bc197c8160e01b7bffffffffffffffffffffffffffffffffffffffffffffffffffffffff1916817bffffffffffffffffffffffffffffffffffffffffffffffffffffffff1916146122ef576040517f08c379a00000000000000000000000000000000000000000000000000000000081526004016122e690614279565b60405180910390fd5b505b505050505050565b60606000600167ffffffffffffffff81111561231857612317612ab4565b5b6040519080825280602002602001820160405280156123465781602001602082028036833780820191505090505b509050828160008151811061235e5761235d6136ab565b5b60200260200101818152505080915050919050565b6123928473ffffffffffffffffffffffffffffffffffffffff1661272c565b15612552578373ffffffffffffffffffffffffffffffffffffffff1663f23a6e6187878686866040518663ffffffff1660e01b81526004016123d8959493929190614299565b602060405180830381600087803b1580156123f257600080fd5b505af192505050801561242357506040513d601f19601f820116820180604052508101906124209190614083565b60015b6124c95761242f6140bd565b806308c379a0141561248c57506124446140df565b8061244f575061248e565b806040517f08c379a00000000000000000000000000000000000000000000000000000000081526004016124839190612a60565b60405180910390fd5b505b6040517f08c379a00000000000000000000000000000000000000000000000000000000081526004016124c0906141e7565b60405180910390fd5b63f23a6e6160e01b7bffffffffffffffffffffffffffffffffffffffffffffffffffffffff1916817bffffffffffffffffffffffffffffffffffffffffffffffffffffffff191614612550576040517f08c379a000000000000000000000000000000000000000000000000000000000815260040161254790614279565b60405180910390fd5b505b505050505050565b61256886868686868661274f565b600073ffffffffffffffffffffffffffffffffffffffff168573ffffffffffffffffffffffffffffffffffffffff16141561261a5760005b8351811015612618578281815181106125bc576125bb6136ab565b5b6020026020010151600460008684815181106125db576125da6136ab565b5b6020026020010151815260200190815260200160002060008282546126009190613c47565b925050819055508061261190613709565b90506125a0565b505b600073ffffffffffffffffffffffffffffffffffffffff168473ffffffffffffffffffffffffffffffffffffffff1614156127245760005b83518110156127225760008482815181106126705761266f6136ab565b5b60200260200101519050600084838151811061268f5761268e6136ab565b5b60200260200101519050600060046000848152602001908152602001600020549050818110156126f4576040517f08c379a00000000000000000000000000000000000000000000000000000000081526004016126eb90614365565b60405180910390fd5b81810360046000858152602001908152602001600020819055505050508061271b90613709565b9050612652565b505b505050505050565b6000808273ffffffffffffffffffffffffffffffffffffffff163b119050919050565b505050505050565b82805461276390613555565b90600052602060002090601f01602090048101928261278557600085556127cc565b82601f1061279e57805160ff19168380011785556127cc565b828001600101855582156127cc579182015b828111156127cb5782518255916020019190600101906127b0565b5b5090506127d991906127dd565b5090565b5b808211156127f65760008160009055506001016127de565b5090565b6000604051905090565b600080fd5b600080fd5b600073ffffffffffffffffffffffffffffffffffffffff82169050919050565b60006128398261280e565b9050919050565b6128498161282e565b811461285457600080fd5b50565b60008135905061286681612840565b92915050565b6000819050919050565b61287f8161286c565b811461288a57600080fd5b50565b60008135905061289c81612876565b92915050565b600080604083850312156128b9576128b8612804565b5b60006128c785828601612857565b92505060206128d88582860161288d565b9150509250929050565b6128eb8161286c565b82525050565b600060208201905061290660008301846128e2565b92915050565b60007fffffffff0000000000000000000000000000000000000000000000000000000082169050919050565b6129418161290c565b811461294c57600080fd5b50565b60008135905061295e81612938565b92915050565b60006020828403121561297a57612979612804565b5b60006129888482850161294f565b91505092915050565b60008115159050919050565b6129a681612991565b82525050565b60006020820190506129c1600083018461299d565b92915050565b600081519050919050565b600082825260208201905092915050565b60005b83811015612a015780820151818401526020810190506129e6565b83811115612a10576000848401525b50505050565b6000601f19601f8301169050919050565b6000612a32826129c7565b612a3c81856129d2565b9350612a4c8185602086016129e3565b612a5581612a16565b840191505092915050565b60006020820190508181036000830152612a7a8184612a27565b905092915050565b600060208284031215612a9857612a97612804565b5b6000612aa68482850161288d565b91505092915050565b600080fd5b7f4e487b7100000000000000000000000000000000000000000000000000000000600052604160045260246000fd5b612aec82612a16565b810181811067ffffffffffffffff82111715612b0b57612b0a612ab4565b5b80604052505050565b6000612b1e6127fa565b9050612b2a8282612ae3565b919050565b600067ffffffffffffffff821115612b4a57612b49612ab4565b5b602082029050602081019050919050565b600080fd5b6000612b73612b6e84612b2f565b612b14565b90508083825260208201905060208402830185811115612b9657612b95612b5b565b5b835b81811015612bbf5780612bab888261288d565b845260208401935050602081019050612b98565b5050509392505050565b600082601f830112612bde57612bdd612aaf565b5b8135612bee848260208601612b60565b91505092915050565b600080fd5b600067ffffffffffffffff821115612c1757612c16612ab4565b5b612c2082612a16565b9050602081019050919050565b82818337600083830152505050565b6000612c4f612c4a84612bfc565b612b14565b905082815260208101848484011115612c6b57612c6a612bf7565b5b612c76848285612c2d565b509392505050565b600082601f830112612c9357612c92612aaf565b5b8135612ca3848260208601612c3c565b91505092915050565b600080600080600060a08688031215612cc857612cc7612804565b5b6000612cd688828901612857565b9550506020612ce788828901612857565b945050604086013567ffffffffffffffff811115612d0857612d07612809565b5b612d1488828901612bc9565b935050606086013567ffffffffffffffff811115612d3557612d34612809565b5b612d4188828901612bc9565b925050608086013567ffffffffffffffff811115612d6257612d61612809565b5b612d6e88828901612c7e565b9150509295509295909350565b600067ffffffffffffffff821115612d9657612d95612ab4565b5b602082029050602081019050919050565b6000612dba612db584612d7b565b612b14565b90508083825260208201905060208402830185811115612ddd57612ddc612b5b565b5b835b81811015612e065780612df28882612857565b845260208401935050602081019050612ddf565b5050509392505050565b600082601f830112612e2557612e24612aaf565b5b8135612e35848260208601612da7565b91505092915050565b60008060408385031215612e5557612e54612804565b5b600083013567ffffffffffffffff811115612e7357612e72612809565b5b612e7f85828601612e10565b925050602083013567ffffffffffffffff811115612ea057612e9f612809565b5b612eac85828601612bc9565b9150509250929050565b600081519050919050565b600082825260208201905092915050565b6000819050602082019050919050565b612eeb8161286c565b82525050565b6000612efd8383612ee2565b60208301905092915050565b6000602082019050919050565b6000612f2182612eb6565b612f2b8185612ec1565b9350612f3683612ed2565b8060005b83811015612f67578151612f4e8882612ef1565b9750612f5983612f09565b925050600181019050612f3a565b5085935050505092915050565b60006020820190508181036000830152612f8e8184612f16565b905092915050565b600080600060608486031215612faf57612fae612804565b5b6000612fbd86828701612857565b935050602084013567ffffffffffffffff811115612fde57612fdd612809565b5b612fea86828701612bc9565b925050604084013567ffffffffffffffff81111561300b5761300a612809565b5b61301786828701612bc9565b9150509250925092565b600067ffffffffffffffff82111561303c5761303b612ab4565b5b61304582612a16565b9050602081019050919050565b600061306561306084613021565b612b14565b90508281526020810184848401111561308157613080612bf7565b5b61308c848285612c2d565b509392505050565b600082601f8301126130a9576130a8612aaf565b5b81356130b9848260208601613052565b91505092915050565b600080604083850312156130d9576130d8612804565b5b60006130e78582860161288d565b925050602083013567ffffffffffffffff81111561310857613107612809565b5b61311485828601613094565b9150509250929050565b600080600080600060a0868803121561313a57613139612804565b5b600061314888828901612857565b955050602086013567ffffffffffffffff81111561316957613168612809565b5b61317588828901613094565b94505060406131868882890161288d565b935050606061319788828901612857565b92505060806131a888828901612857565b9150509295509295909350565b6131be8161282e565b82525050565b60006020820190506131d960008301846131b5565b92915050565b6000806000606084860312156131f8576131f7612804565b5b600061320686828701612857565b93505060206132178682870161288d565b925050604084013567ffffffffffffffff81111561323857613237612809565b5b61324486828701613094565b9150509250925092565b61325781612991565b811461326257600080fd5b50565b6000813590506132748161324e565b92915050565b6000806040838503121561329157613290612804565b5b600061329f85828601612857565b92505060206132b085828601613265565b9150509250929050565b6000602082840312156132d0576132cf612804565b5b60006132de84828501612857565b91505092915050565b600080604083850312156132fe576132fd612804565b5b600061330c85828601612857565b925050602061331d85828601612857565b9150509250929050565b600080600080600060a0868803121561334357613342612804565b5b600061335188828901612857565b955050602061336288828901612857565b94505060406133738882890161288d565b93505060606133848882890161288d565b925050608086013567ffffffffffffffff8111156133a5576133a4612809565b5b6133b188828901612c7e565b9150509295509295909350565b600080600080608085870312156133d8576133d7612804565b5b60006133e687828801612857565b945050602085013567ffffffffffffffff81111561340757613406612809565b5b61341387828801613094565b93505060406134248782880161288d565b925050606061343587828801612857565b91505092959194509250565b60008060006060848603121561345a57613459612804565b5b600061346886828701612857565b93505060206134798682870161288d565b925050604061348a8682870161288d565b9150509250925092565b7f455243313135353a2061646472657373207a65726f206973206e6f742061207660008201527f616c6964206f776e657200000000000000000000000000000000000000000000602082015250565b60006134f0602a836129d2565b91506134fb82613494565b604082019050919050565b6000602082019050818103600083015261351f816134e3565b9050919050565b7f4e487b7100000000000000000000000000000000000000000000000000000000600052602260045260246000fd5b6000600282049050600182168061356d57607f821691505b6020821081141561358157613580613526565b5b50919050565b7f455243313135353a2063616c6c6572206973206e6f7420746f6b656e206f776e60008201527f6572206e6f7220617070726f7665640000000000000000000000000000000000602082015250565b60006135e3602f836129d2565b91506135ee82613587565b604082019050919050565b60006020820190508181036000830152613612816135d6565b9050919050565b7f455243313135353a206163636f756e747320616e6420696473206c656e67746860008201527f206d69736d617463680000000000000000000000000000000000000000000000602082015250565b60006136756029836129d2565b915061368082613619565b604082019050919050565b600060208201905081810360008301526136a481613668565b9050919050565b7f4e487b7100000000000000000000000000000000000000000000000000000000600052603260045260246000fd5b7f4e487b7100000000000000000000000000000000000000000000000000000000600052601160045260246000fd5b60006137148261286c565b91507fffffffffffffffffffffffffffffffffffffffffffffffffffffffffffffffff821415613747576137466136da565b5b600182019050919050565b600060408201905061376760008301856131b5565b61377460208301846128e2565b9392505050565b60008151905061378a81612876565b92915050565b6000602082840312156137a6576137a5612804565b5b60006137b48482850161377b565b91505092915050565b7f4e4654206d757374206265206f776e6564206279207468652063616c6c657200600082015250565b60006137f3601f836129d2565b91506137fe826137bd565b602082019050919050565b60006020820190508181036000830152613822816137e6565b9050919050565b7f43616e6e6f742073657420757269207477696365000000000000000000000000600082015250565b600061385f6014836129d2565b915061386a82613829565b602082019050919050565b6000602082019050818103600083015261388e81613852565b9050919050565b6000819050919050565b60006138ba6138b56138b08461280e565b613895565b61280e565b9050919050565b60006138cc8261389f565b9050919050565b60006138de826138c1565b9050919050565b6138ee816138d3565b82525050565b600060608201905061390960008301866131b5565b61391660208301856138e5565b61392360408301846128e2565b949350505050565b60008151905061393a8161324e565b92915050565b60006020828403121561395657613955612804565b5b60006139648482850161392b565b91505092915050565b7f4f776e61626c653a206e6577206f776e657220697320746865207a65726f206160008201527f6464726573730000000000000000000000000000000000000000000000000000602082015250565b60006139c96026836129d2565b91506139d48261396d565b604082019050919050565b600060208201905081810360008301526139f8816139bc565b9050919050565b7f416d6f756e74206f662065746865722073656e74206e6f7420636f727265637460008201527f2e00000000000000000000000000000000000000000000000000000000000000602082015250565b6000613a5b6021836129d2565b9150613a66826139ff565b604082019050919050565b60006020820190508181036000830152613a8a81613a4e565b9050919050565b7f455243313135353a2069647320616e6420616d6f756e7473206c656e6774682060008201527f6d69736d61746368000000000000000000000000000000000000000000000000602082015250565b6000613aed6028836129d2565b9150613af882613a91565b604082019050919050565b60006020820190508181036000830152613b1c81613ae0565b9050919050565b7f455243313135353a207472616e7366657220746f20746865207a65726f20616460008201527f6472657373000000000000000000000000000000000000000000000000000000602082015250565b6000613b7f6025836129d2565b9150613b8a82613b23565b604082019050919050565b60006020820190508181036000830152613bae81613b72565b9050919050565b7f455243313135353a20696e73756666696369656e742062616c616e636520666f60008201527f72207472616e7366657200000000000000000000000000000000000000000000602082015250565b6000613c11602a836129d2565b9150613c1c82613bb5565b604082019050919050565b60006020820190508181036000830152613c4081613c04565b9050919050565b6000613c528261286c565b9150613c5d8361286c565b9250827fffffffffffffffffffffffffffffffffffffffffffffffffffffffffffffffff03821115613c9257613c916136da565b5b828201905092915050565b60006040820190508181036000830152613cb78185612f16565b90508181036020830152613ccb8184612f16565b90509392505050565b7f455243313135353a206275726e2066726f6d20746865207a65726f206164647260008201527f6573730000000000000000000000000000000000000000000000000000000000602082015250565b6000613d306023836129d2565b9150613d3b82613cd4565b604082019050919050565b60006020820190508181036000830152613d5f81613d23565b9050919050565b7f455243313135353a206275726e20616d6f756e7420657863656564732062616c60008201527f616e636500000000000000000000000000000000000000000000000000000000602082015250565b6000613dc26024836129d2565b9150613dcd82613d66565b604082019050919050565b60006020820190508181036000830152613df181613db5565b9050919050565b7f4f776e61626c653a2063616c6c6572206973206e6f7420746865206f776e6572600082015250565b6000613e2e6020836129d2565b9150613e3982613df8565b602082019050919050565b60006020820190508181036000830152613e5d81613e21565b9050919050565b7f455243313135353a206d696e7420746f20746865207a65726f2061646472657360008201527f7300000000000000000000000000000000000000000000000000000000000000602082015250565b6000613ec06021836129d2565b9150613ecb82613e64565b604082019050919050565b60006020820190508181036000830152613eef81613eb3565b9050919050565b6000604082019050613f0b60008301856128e2565b613f1860208301846128e2565b9392505050565b7f455243313135353a2073657474696e6720617070726f76616c2073746174757360008201527f20666f722073656c660000000000000000000000000000000000000000000000602082015250565b6000613f7b6029836129d2565b9150613f8682613f1f565b604082019050919050565b60006020820190508181036000830152613faa81613f6e565b9050919050565b600081519050919050565b600082825260208201905092915050565b6000613fd882613fb1565b613fe28185613fbc565b9350613ff28185602086016129e3565b613ffb81612a16565b840191505092915050565b600060a08201905061401b60008301886131b5565b61402860208301876131b5565b818103604083015261403a8186612f16565b9050818103606083015261404e8185612f16565b905081810360808301526140628184613fcd565b90509695505050505050565b60008151905061407d81612938565b92915050565b60006020828403121561409957614098612804565b5b60006140a78482850161406e565b91505092915050565b60008160e01c9050919050565b600060033d11156140dc5760046000803e6140d96000516140b0565b90505b90565b600060443d10156140ef57614172565b6140f76127fa565b60043d036004823e80513d602482011167ffffffffffffffff8211171561411f575050614172565b808201805167ffffffffffffffff81111561413d5750505050614172565b80602083010160043d03850181111561415a575050505050614172565b61416982602001850186612ae3565b82955050505050505b90565b7f455243313135353a207472616e7366657220746f206e6f6e204552433131353560008201527f526563656976657220696d706c656d656e746572000000000000000000000000602082015250565b60006141d16034836129d2565b91506141dc82614175565b604082019050919050565b60006020820190508181036000830152614200816141c4565b9050919050565b7f455243313135353a204552433131353552656365697665722072656a6563746560008201527f6420746f6b656e73000000000000000000000000000000000000000000000000602082015250565b60006142636028836129d2565b915061426e82614207565b604082019050919050565b6000602082019050818103600083015261429281614256565b9050919050565b600060a0820190506142ae60008301886131b5565b6142bb60208301876131b5565b6142c860408301866128e2565b6142d560608301856128e2565b81810360808301526142e78184613fcd565b90509695505050505050565b7f455243313135353a206275726e20616d6f756e74206578636565647320746f7460008201527f616c537570706c79000000000000000000000000000000000000000000000000602082015250565b600061434f6028836129d2565b915061435a826142f3565b604082019050919050565b6000602082019050818103600083015261437e81614342565b905091905056fea2646970667358221220bd5e8e891533bda2d17873ba2bef8670b94a48a87ca4053ecfa81e27256be48864736f6c63430008090033",
  "linkReferences": {},
  "deployedLinkReferences": {}
}