{
  "_format": "hh-sol-artifact-1",
  "contractName": "TokenContract1155",
  "sourceName": "contracts/TokenContract1155.sol",
  "abi": [
    {
      "inputs": [
        {
          "internalType": "string",
          "name": "_name",
          "type": "string"
        },
        {
          "internalType": "string",
          "name": "_symbol",
          "type": "string"
        }
      ],
      "stateMutability": "nonpayable",
      "type": "constructor"
    },
    {
      "anonymous": false,
      "inputs": [
        {
          "indexed": true,
          "internalType": "address",
          "name": "account",
          "type": "address"
        },
        {
          "indexed": true,
          "internalType": "address",
          "name": "operator",
          "type": "address"
        },
        {
          "indexed": false,
          "internalType": "bool",
          "name": "approved",
          "type": "bool"
        }
      ],
      "name": "ApprovalForAll",
      "type": "event"
    },
    {
      "anonymous": false,
      "inputs": [
        {
          "indexed": true,
          "internalType": "address",
          "name": "previousOwner",
          "type": "address"
        },
        {
          "indexed": true,
          "internalType": "address",
          "name": "newOwner",
          "type": "address"
        }
      ],
      "name": "OwnershipTransferred",
      "type": "event"
    },
    {
      "anonymous": false,
      "inputs": [
        {
          "indexed": true,
          "internalType": "address",
          "name": "operator",
          "type": "address"
        },
        {
          "indexed": true,
          "internalType": "address",
          "name": "from",
          "type": "address"
        },
        {
          "indexed": true,
          "internalType": "address",
          "name": "to",
          "type": "address"
        },
        {
          "indexed": false,
          "internalType": "uint256[]",
          "name": "ids",
          "type": "uint256[]"
        },
        {
          "indexed": false,
          "internalType": "uint256[]",
          "name": "values",
          "type": "uint256[]"
        }
      ],
      "name": "TransferBatch",
      "type": "event"
    },
    {
      "anonymous": false,
      "inputs": [
        {
          "indexed": true,
          "internalType": "address",
          "name": "operator",
          "type": "address"
        },
        {
          "indexed": true,
          "internalType": "address",
          "name": "from",
          "type": "address"
        },
        {
          "indexed": true,
          "internalType": "address",
          "name": "to",
          "type": "address"
        },
        {
          "indexed": false,
          "internalType": "uint256",
          "name": "id",
          "type": "uint256"
        },
        {
          "indexed": false,
          "internalType": "uint256",
          "name": "value",
          "type": "uint256"
        }
      ],
      "name": "TransferSingle",
      "type": "event"
    },
    {
      "anonymous": false,
      "inputs": [
        {
          "indexed": false,
          "internalType": "string",
          "name": "value",
          "type": "string"
        },
        {
          "indexed": true,
          "internalType": "uint256",
          "name": "id",
          "type": "uint256"
        }
      ],
      "name": "URI",
      "type": "event"
    },
    {
      "inputs": [
        {
          "internalType": "address",
          "name": "account",
          "type": "address"
        },
        {
          "internalType": "uint256",
          "name": "id",
          "type": "uint256"
        }
      ],
      "name": "balanceOf",
      "outputs": [
        {
          "internalType": "uint256",
          "name": "",
          "type": "uint256"
        }
      ],
      "stateMutability": "view",
      "type": "function"
    },
    {
      "inputs": [
        {
          "internalType": "address[]",
          "name": "accounts",
          "type": "address[]"
        },
        {
          "internalType": "uint256[]",
          "name": "ids",
          "type": "uint256[]"
        }
      ],
      "name": "balanceOfBatch",
      "outputs": [
        {
          "internalType": "uint256[]",
          "name": "",
          "type": "uint256[]"
        }
      ],
      "stateMutability": "view",
      "type": "function"
    },
    {
      "inputs": [
        {
          "internalType": "address",
          "name": "account",
          "type": "address"
        },
        {
          "internalType": "uint256",
          "name": "id",
          "type": "uint256"
        },
        {
          "internalType": "uint256",
          "name": "amount",
          "type": "uint256"
        }
      ],
      "name": "burn",
      "outputs": [],
      "stateMutability": "nonpayable",
      "type": "function"
    },
    {
      "inputs": [
        {
          "internalType": "address",
          "name": "account",
          "type": "address"
        },
        {
          "internalType": "uint256[]",
          "name": "ids",
          "type": "uint256[]"
        },
        {
          "internalType": "uint256[]",
          "name": "values",
          "type": "uint256[]"
        }
      ],
      "name": "burnBatch",
      "outputs": [],
      "stateMutability": "nonpayable",
      "type": "function"
    },
    {
      "inputs": [
        {
          "internalType": "uint256",
          "name": "id",
          "type": "uint256"
        }
      ],
      "name": "exists",
      "outputs": [
        {
          "internalType": "bool",
          "name": "",
          "type": "bool"
        }
      ],
      "stateMutability": "view",
      "type": "function"
    },
    {
      "inputs": [
        {
          "internalType": "address",
          "name": "contractAddress",
          "type": "address"
        }
      ],
      "name": "getApprovalForContract",
      "outputs": [],
      "stateMutability": "nonpayable",
      "type": "function"
    },
    {
      "inputs": [
        {
          "internalType": "address",
          "name": "account",
          "type": "address"
        },
        {
          "internalType": "address",
          "name": "operator",
          "type": "address"
        }
      ],
      "name": "isApprovedForAll",
      "outputs": [
        {
          "internalType": "bool",
          "name": "",
          "type": "bool"
        }
      ],
      "stateMutability": "view",
      "type": "function"
    },
    {
      "inputs": [
        {
          "internalType": "address",
          "name": "account",
          "type": "address"
        },
        {
          "internalType": "string",
          "name": "tokenUri",
          "type": "string"
        },
        {
          "internalType": "uint256",
          "name": "askingPrice",
          "type": "uint256"
        },
        {
          "internalType": "address",
          "name": "creator",
          "type": "address"
        }
      ],
      "name": "lazyMint",
      "outputs": [
        {
          "internalType": "uint256",
          "name": "",
          "type": "uint256"
        }
      ],
      "stateMutability": "payable",
      "type": "function"
    },
    {
      "inputs": [
        {
          "internalType": "address",
          "name": "account",
          "type": "address"
        },
        {
          "internalType": "uint256",
          "name": "amount",
          "type": "uint256"
        },
        {
          "internalType": "string",
          "name": "tokenUri",
          "type": "string"
        }
      ],
      "name": "mintNft",
      "outputs": [
        {
          "internalType": "uint256",
          "name": "",
          "type": "uint256"
        }
      ],
      "stateMutability": "nonpayable",
      "type": "function"
    },
    {
      "inputs": [],
      "name": "name",
      "outputs": [
        {
          "internalType": "string",
          "name": "",
          "type": "string"
        }
      ],
      "stateMutability": "view",
      "type": "function"
    },
    {
      "inputs": [],
      "name": "owner",
      "outputs": [
        {
          "internalType": "address",
          "name": "",
          "type": "address"
        }
      ],
      "stateMutability": "view",
      "type": "function"
    },
    {
      "inputs": [],
      "name": "renounceOwnership",
      "outputs": [],
      "stateMutability": "nonpayable",
      "type": "function"
    },
    {
      "inputs": [
        {
          "internalType": "address",
          "name": "from",
          "type": "address"
        },
        {
          "internalType": "address",
          "name": "to",
          "type": "address"
        },
        {
          "internalType": "uint256[]",
          "name": "ids",
          "type": "uint256[]"
        },
        {
          "internalType": "uint256[]",
          "name": "amounts",
          "type": "uint256[]"
        },
        {
          "internalType": "bytes",
          "name": "data",
          "type": "bytes"
        }
      ],
      "name": "safeBatchTransferFrom",
      "outputs": [],
      "stateMutability": "nonpayable",
      "type": "function"
    },
    {
      "inputs": [
        {
          "internalType": "address",
          "name": "from",
          "type": "address"
        },
        {
          "internalType": "address",
          "name": "to",
          "type": "address"
        },
        {
          "internalType": "uint256",
          "name": "id",
          "type": "uint256"
        },
        {
          "internalType": "uint256",
          "name": "amount",
          "type": "uint256"
        },
        {
          "internalType": "bytes",
          "name": "data",
          "type": "bytes"
        }
      ],
      "name": "safeTransferFrom",
      "outputs": [],
      "stateMutability": "nonpayable",
      "type": "function"
    },
    {
      "inputs": [
        {
          "internalType": "address",
          "name": "operator",
          "type": "address"
        },
        {
          "internalType": "bool",
          "name": "approved",
          "type": "bool"
        }
      ],
      "name": "setApprovalForAll",
      "outputs": [],
      "stateMutability": "nonpayable",
      "type": "function"
    },
    {
      "inputs": [
        {
          "internalType": "uint256",
          "name": "tokenId",
          "type": "uint256"
        },
        {
          "internalType": "string",
          "name": "tokenUri",
          "type": "string"
        }
      ],
      "name": "setUri",
      "outputs": [],
      "stateMutability": "nonpayable",
      "type": "function"
    },
    {
      "inputs": [
        {
          "internalType": "bytes4",
          "name": "interfaceId",
          "type": "bytes4"
        }
      ],
      "name": "supportsInterface",
      "outputs": [
        {
          "internalType": "bool",
          "name": "",
          "type": "bool"
        }
      ],
      "stateMutability": "view",
      "type": "function"
    },
    {
      "inputs": [],
      "name": "symbol",
      "outputs": [
        {
          "internalType": "string",
          "name": "",
          "type": "string"
        }
      ],
      "stateMutability": "view",
      "type": "function"
    },
    {
      "inputs": [
        {
          "internalType": "uint256",
          "name": "id",
          "type": "uint256"
        }
      ],
      "name": "totalSupply",
      "outputs": [
        {
          "internalType": "uint256",
          "name": "",
          "type": "uint256"
        }
      ],
      "stateMutability": "view",
      "type": "function"
    },
    {
      "inputs": [
        {
          "internalType": "address",
          "name": "newOwner",
          "type": "address"
        }
      ],
      "name": "transferOwnership",
      "outputs": [],
      "stateMutability": "nonpayable",
      "type": "function"
    },
    {
      "inputs": [
        {
          "internalType": "uint256",
          "name": "tokenId",
          "type": "uint256"
        }
      ],
      "name": "uri",
      "outputs": [
        {
          "internalType": "string",
          "name": "",
          "type": "string"
        }
      ],
      "stateMutability": "view",
      "type": "function"
    }
  ],
  "bytecode": "0x60806040523480156200001157600080fd5b506040516200460d3803806200460d8339818101604052810190620000379190620003ea565b604051806020016040528060008152506200005881620000b360201b60201c565b50620000796200006d620000cf60201b60201c565b620000d760201b60201c565b8160059080519060200190620000919291906200019d565b508060069080519060200190620000aa9291906200019d565b505050620004d4565b8060029080519060200190620000cb9291906200019d565b5050565b600033905090565b6000600360009054906101000a900473ffffffffffffffffffffffffffffffffffffffff16905081600360006101000a81548173ffffffffffffffffffffffffffffffffffffffff021916908373ffffffffffffffffffffffffffffffffffffffff1602179055508173ffffffffffffffffffffffffffffffffffffffff168173ffffffffffffffffffffffffffffffffffffffff167f8be0079c531659141344cd1fd0a4f28419497f9722a3daafe3b4186f6b6457e060405160405180910390a35050565b828054620001ab906200049e565b90600052602060002090601f016020900481019282620001cf57600085556200021b565b82601f10620001ea57805160ff19168380011785556200021b565b828001600101855582156200021b579182015b828111156200021a578251825591602001919060010190620001fd565b5b5090506200022a91906200022e565b5090565b5b80821115620002495760008160009055506001016200022f565b5090565b6000604051905090565b600080fd5b600080fd5b600080fd5b600080fd5b6000601f19601f8301169050919050565b7f4e487b7100000000000000000000000000000000000000000000000000000000600052604160045260246000fd5b620002b6826200026b565b810181811067ffffffffffffffff82111715620002d857620002d76200027c565b5b80604052505050565b6000620002ed6200024d565b9050620002fb8282620002ab565b919050565b600067ffffffffffffffff8211156200031e576200031d6200027c565b5b62000329826200026b565b9050602081019050919050565b60005b838110156200035657808201518184015260208101905062000339565b8381111562000366576000848401525b50505050565b6000620003836200037d8462000300565b620002e1565b905082815260208101848484011115620003a257620003a162000266565b5b620003af84828562000336565b509392505050565b600082601f830112620003cf57620003ce62000261565b5b8151620003e18482602086016200036c565b91505092915050565b6000806040838503121562000404576200040362000257565b5b600083015167ffffffffffffffff8111156200042557620004246200025c565b5b6200043385828601620003b7565b925050602083015167ffffffffffffffff8111156200045757620004566200025c565b5b6200046585828601620003b7565b9150509250929050565b7f4e487b7100000000000000000000000000000000000000000000000000000000600052602260045260246000fd5b60006002820490506001821680620004b757607f821691505b60208210811415620004ce57620004cd6200046f565b5b50919050565b61412980620004e46000396000f3fe6080604052600436106101295760003560e01c80638da5cb5b116100ab578063caf279391161006f578063caf2793914610415578063e985e9c51461043e578063f242432a1461047b578063f2fde38b146104a4578063f51735be146104cd578063f5298aca146104fd57610129565b80638da5cb5b1461031c57806395d89b41146103475780639a6a009b14610372578063a22cb465146103af578063bd85b039146103d857610129565b80634e1273f4116100f25780634e1273f4146102395780634f558e79146102765780636b20c454146102b3578063715018a6146102dc578063782f08ae146102f357610129565b8062fdd58e1461012e57806301ffc9a71461016b57806306fdde03146101a85780630e89341c146101d35780632eb2c2d614610210575b600080fd5b34801561013a57600080fd5b506101556004803603810190610150919061277f565b610526565b60405161016291906127ce565b60405180910390f35b34801561017757600080fd5b50610192600480360381019061018d9190612841565b6105ef565b60405161019f9190612889565b60405180910390f35b3480156101b457600080fd5b506101bd6106d1565b6040516101ca919061293d565b60405180910390f35b3480156101df57600080fd5b506101fa60048036038101906101f5919061295f565b61075f565b604051610207919061293d565b60405180910390f35b34801561021c57600080fd5b5061023760048036038101906102329190612b89565b610804565b005b34801561024557600080fd5b50610260600480360381019061025b9190612d1b565b6108a5565b60405161026d9190612e51565b60405180910390f35b34801561028257600080fd5b5061029d6004803603810190610298919061295f565b6109be565b6040516102aa9190612889565b60405180910390f35b3480156102bf57600080fd5b506102da60048036038101906102d59190612e73565b6109d2565b005b3480156102e857600080fd5b506102f1610a6f565b005b3480156102ff57600080fd5b5061031a60048036038101906103159190612f9f565b610a83565b005b34801561032857600080fd5b50610331610be5565b60405161033e919061300a565b60405180910390f35b34801561035357600080fd5b5061035c610c0f565b604051610369919061293d565b60405180910390f35b34801561037e57600080fd5b5061039960048036038101906103949190613025565b610c9d565b6040516103a691906127ce565b60405180910390f35b3480156103bb57600080fd5b506103d660048036038101906103d191906130c0565b610ce7565b005b3480156103e457600080fd5b506103ff60048036038101906103fa919061295f565b610cfd565b60405161040c91906127ce565b60405180910390f35b34801561042157600080fd5b5061043c60048036038101906104379190613100565b610d1a565b005b34801561044a57600080fd5b506104656004803603810190610460919061312d565b610d28565b6040516104729190612889565b60405180910390f35b34801561048757600080fd5b506104a2600480360381019061049d919061316d565b610dbc565b005b3480156104b057600080fd5b506104cb60048036038101906104c69190613100565b610e5d565b005b6104e760048036038101906104e29190613204565b610ee1565b6040516104f491906127ce565b60405180910390f35b34801561050957600080fd5b50610524600480360381019061051f9190613287565b610fbd565b005b60008073ffffffffffffffffffffffffffffffffffffffff168373ffffffffffffffffffffffffffffffffffffffff161415610597576040517f08c379a000000000000000000000000000000000000000000000000000000000815260040161058e9061334c565b60405180910390fd5b60008083815260200190815260200160002060008473ffffffffffffffffffffffffffffffffffffffff1673ffffffffffffffffffffffffffffffffffffffff16815260200190815260200160002054905092915050565b60007fd9b67a26000000000000000000000000000000000000000000000000000000007bffffffffffffffffffffffffffffffffffffffffffffffffffffffff1916827bffffffffffffffffffffffffffffffffffffffffffffffffffffffff191614806106ba57507f0e89341c000000000000000000000000000000000000000000000000000000007bffffffffffffffffffffffffffffffffffffffffffffffffffffffff1916827bffffffffffffffffffffffffffffffffffffffffffffffffffffffff1916145b806106ca57506106c982611005565b5b9050919050565b600580546106de9061339b565b80601f016020809104026020016040519081016040528092919081815260200182805461070a9061339b565b80156107575780601f1061072c57610100808354040283529160200191610757565b820191906000526020600020905b81548152906001019060200180831161073a57829003601f168201915b505050505081565b606060086000838152602001908152602001600020805461077f9061339b565b80601f01602080910402602001604051908101604052809291908181526020018280546107ab9061339b565b80156107f85780601f106107cd576101008083540402835291602001916107f8565b820191906000526020600020905b8154815290600101906020018083116107db57829003601f168201915b50505050509050919050565b61080c61106f565b73ffffffffffffffffffffffffffffffffffffffff168573ffffffffffffffffffffffffffffffffffffffff16148061085257506108518561084c61106f565b610d28565b5b610891576040517f08c379a00000000000000000000000000000000000000000000000000000000081526004016108889061343f565b60405180910390fd5b61089e8585858585611077565b5050505050565b606081518351146108eb576040517f08c379a00000000000000000000000000000000000000000000000000000000081526004016108e2906134d1565b60405180910390fd5b6000835167ffffffffffffffff81111561090857610907612991565b5b6040519080825280602002602001820160405280156109365781602001602082028036833780820191505090505b50905060005b84518110156109b35761098385828151811061095b5761095a6134f1565b5b6020026020010151858381518110610976576109756134f1565b5b6020026020010151610526565b828281518110610996576109956134f1565b5b602002602001018181525050806109ac9061354f565b905061093c565b508091505092915050565b6000806109ca83610cfd565b119050919050565b6109da61106f565b73ffffffffffffffffffffffffffffffffffffffff168373ffffffffffffffffffffffffffffffffffffffff161480610a205750610a1f83610a1a61106f565b610d28565b5b610a5f576040517f08c379a0000000000000000000000000000000000000000000000000000000008152600401610a569061343f565b60405180910390fd5b610a6a838383611399565b505050565b610a77611668565b610a8160006116e6565b565b81600030905060008173ffffffffffffffffffffffffffffffffffffffff1662fdd58e33856040518363ffffffff1660e01b8152600401610ac5929190613598565b60206040518083038186803b158015610add57600080fd5b505afa158015610af1573d6000803e3d6000fd5b505050506040513d601f19601f82011682018060405250810190610b1591906135d6565b11610b55576040517f08c379a0000000000000000000000000000000000000000000000000000000008152600401610b4c9061364f565b60405180910390fd5b6000600860008681526020019081526020016000208054610b759061339b565b905014610bb7576040517f08c379a0000000000000000000000000000000000000000000000000000000008152600401610bae906136bb565b60405180910390fd5b82600860008681526020019081526020016000209080519060200190610bde929190612634565b5050505050565b6000600360009054906101000a900473ffffffffffffffffffffffffffffffffffffffff16905090565b60068054610c1c9061339b565b80601f0160208091040260200160405190810160405280929190818152602001828054610c489061339b565b8015610c955780601f10610c6a57610100808354040283529160200191610c95565b820191906000526020600020905b815481529060010190602001808311610c7857829003601f168201915b505050505081565b6000610ca960076117ac565b6000610cb560076117c2565b9050610cd2858286604051806020016040528060008152506117d0565b610cdc8184610a83565b809150509392505050565b610cf9610cf261106f565b8383611981565b5050565b600060046000838152602001908152602001600020549050919050565b610d25816001610ce7565b50565b6000600160008473ffffffffffffffffffffffffffffffffffffffff1673ffffffffffffffffffffffffffffffffffffffff16815260200190815260200160002060008373ffffffffffffffffffffffffffffffffffffffff1673ffffffffffffffffffffffffffffffffffffffff16815260200190815260200160002060009054906101000a900460ff16905092915050565b610dc461106f565b73ffffffffffffffffffffffffffffffffffffffff168573ffffffffffffffffffffffffffffffffffffffff161480610e0a5750610e0985610e0461106f565b610d28565b5b610e49576040517f08c379a0000000000000000000000000000000000000000000000000000000008152600401610e409061343f565b60405180910390fd5b610e568585858585611aee565b5050505050565b610e65611668565b600073ffffffffffffffffffffffffffffffffffffffff168173ffffffffffffffffffffffffffffffffffffffff161415610ed5576040517f08c379a0000000000000000000000000000000000000000000000000000000008152600401610ecc9061374d565b60405180910390fd5b610ede816116e6565b50565b600082341015610f26576040517f08c379a0000000000000000000000000000000000000000000000000000000008152600401610f1d906137df565b60405180910390fd5b60008290508073ffffffffffffffffffffffffffffffffffffffff166108fc859081150290604051600060405180830381858888f19350505050158015610f71573d6000803e3d6000fd5b50610f7c60076117ac565b6000610f8860076117c2565b9050610fa687826001604051806020016040528060008152506117d0565b610fb08187610a83565b8092505050949350505050565b8273ffffffffffffffffffffffffffffffffffffffff163373ffffffffffffffffffffffffffffffffffffffff1614610ff557600080fd5b611000838383611d8a565b505050565b60007f01ffc9a7000000000000000000000000000000000000000000000000000000007bffffffffffffffffffffffffffffffffffffffffffffffffffffffff1916827bffffffffffffffffffffffffffffffffffffffffffffffffffffffff1916149050919050565b600033905090565b81518351146110bb576040517f08c379a00000000000000000000000000000000000000000000000000000000081526004016110b290613871565b60405180910390fd5b600073ffffffffffffffffffffffffffffffffffffffff168473ffffffffffffffffffffffffffffffffffffffff16141561112b576040517f08c379a000000000000000000000000000000000000000000000000000000000815260040161112290613903565b60405180910390fd5b600061113561106f565b9050611145818787878787611fd1565b60005b84518110156112f6576000858281518110611166576111656134f1565b5b602002602001015190506000858381518110611185576111846134f1565b5b60200260200101519050600080600084815260200190815260200160002060008b73ffffffffffffffffffffffffffffffffffffffff1673ffffffffffffffffffffffffffffffffffffffff16815260200190815260200160002054905081811015611226576040517f08c379a000000000000000000000000000000000000000000000000000000000815260040161121d90613995565b60405180910390fd5b81810360008085815260200190815260200160002060008c73ffffffffffffffffffffffffffffffffffffffff1673ffffffffffffffffffffffffffffffffffffffff168152602001908152602001600020819055508160008085815260200190815260200160002060008b73ffffffffffffffffffffffffffffffffffffffff1673ffffffffffffffffffffffffffffffffffffffff16815260200190815260200160002060008282546112db91906139b5565b92505081905550505050806112ef9061354f565b9050611148565b508473ffffffffffffffffffffffffffffffffffffffff168673ffffffffffffffffffffffffffffffffffffffff168273ffffffffffffffffffffffffffffffffffffffff167f4a39dc06d4c0dbc64b70af90fd698a233a518aa5d07e595d983b8c0526c8f7fb878760405161136d929190613a0b565b60405180910390a4611383818787878787611fe7565b611391818787878787611fef565b505050505050565b600073ffffffffffffffffffffffffffffffffffffffff168373ffffffffffffffffffffffffffffffffffffffff161415611409576040517f08c379a000000000000000000000000000000000000000000000000000000000815260040161140090613ab4565b60405180910390fd5b805182511461144d576040517f08c379a000000000000000000000000000000000000000000000000000000000815260040161144490613871565b60405180910390fd5b600061145761106f565b905061147781856000868660405180602001604052806000815250611fd1565b60005b83518110156115c4576000848281518110611498576114976134f1565b5b6020026020010151905060008483815181106114b7576114b66134f1565b5b60200260200101519050600080600084815260200190815260200160002060008973ffffffffffffffffffffffffffffffffffffffff1673ffffffffffffffffffffffffffffffffffffffff16815260200190815260200160002054905081811015611558576040517f08c379a000000000000000000000000000000000000000000000000000000000815260040161154f90613b46565b60405180910390fd5b81810360008085815260200190815260200160002060008a73ffffffffffffffffffffffffffffffffffffffff1673ffffffffffffffffffffffffffffffffffffffff1681526020019081526020016000208190555050505080806115bc9061354f565b91505061147a565b50600073ffffffffffffffffffffffffffffffffffffffff168473ffffffffffffffffffffffffffffffffffffffff168273ffffffffffffffffffffffffffffffffffffffff167f4a39dc06d4c0dbc64b70af90fd698a233a518aa5d07e595d983b8c0526c8f7fb868660405161163c929190613a0b565b60405180910390a461166281856000868660405180602001604052806000815250611fe7565b50505050565b61167061106f565b73ffffffffffffffffffffffffffffffffffffffff1661168e610be5565b73ffffffffffffffffffffffffffffffffffffffff16146116e4576040517f08c379a00000000000000000000000000000000000000000000000000000000081526004016116db90613bb2565b60405180910390fd5b565b6000600360009054906101000a900473ffffffffffffffffffffffffffffffffffffffff16905081600360006101000a81548173ffffffffffffffffffffffffffffffffffffffff021916908373ffffffffffffffffffffffffffffffffffffffff1602179055508173ffffffffffffffffffffffffffffffffffffffff168173ffffffffffffffffffffffffffffffffffffffff167f8be0079c531659141344cd1fd0a4f28419497f9722a3daafe3b4186f6b6457e060405160405180910390a35050565b6001816000016000828254019250508190555050565b600081600001549050919050565b600073ffffffffffffffffffffffffffffffffffffffff168473ffffffffffffffffffffffffffffffffffffffff161415611840576040517f08c379a000000000000000000000000000000000000000000000000000000000815260040161183790613c44565b60405180910390fd5b600061184a61106f565b90506000611857856121d6565b90506000611864856121d6565b905061187583600089858589611fd1565b8460008088815260200190815260200160002060008973ffffffffffffffffffffffffffffffffffffffff1673ffffffffffffffffffffffffffffffffffffffff16815260200190815260200160002060008282546118d491906139b5565b925050819055508673ffffffffffffffffffffffffffffffffffffffff16600073ffffffffffffffffffffffffffffffffffffffff168473ffffffffffffffffffffffffffffffffffffffff167fc3d58168c5ae7397731d063d5bbf3d657854427343f4c083240f7aacaa2d0f628989604051611952929190613c64565b60405180910390a461196983600089858589611fe7565b61197883600089898989612250565b50505050505050565b8173ffffffffffffffffffffffffffffffffffffffff168373ffffffffffffffffffffffffffffffffffffffff1614156119f0576040517f08c379a00000000000000000000000000000000000000000000000000000000081526004016119e790613cff565b60405180910390fd5b80600160008573ffffffffffffffffffffffffffffffffffffffff1673ffffffffffffffffffffffffffffffffffffffff16815260200190815260200160002060008473ffffffffffffffffffffffffffffffffffffffff1673ffffffffffffffffffffffffffffffffffffffff16815260200190815260200160002060006101000a81548160ff0219169083151502179055508173ffffffffffffffffffffffffffffffffffffffff168373ffffffffffffffffffffffffffffffffffffffff167f17307eab39ab6107e8899845ad3d59bd9653f200f220920489ca2b5937696c3183604051611ae19190612889565b60405180910390a3505050565b600073ffffffffffffffffffffffffffffffffffffffff168473ffffffffffffffffffffffffffffffffffffffff161415611b5e576040517f08c379a0000000000000000000000000000000000000000000000000000000008152600401611b5590613903565b60405180910390fd5b6000611b6861106f565b90506000611b75856121d6565b90506000611b82856121d6565b9050611b92838989858589611fd1565b600080600088815260200190815260200160002060008a73ffffffffffffffffffffffffffffffffffffffff1673ffffffffffffffffffffffffffffffffffffffff16815260200190815260200160002054905085811015611c29576040517f08c379a0000000000000000000000000000000000000000000000000000000008152600401611c2090613995565b60405180910390fd5b85810360008089815260200190815260200160002060008b73ffffffffffffffffffffffffffffffffffffffff1673ffffffffffffffffffffffffffffffffffffffff168152602001908152602001600020819055508560008089815260200190815260200160002060008a73ffffffffffffffffffffffffffffffffffffffff1673ffffffffffffffffffffffffffffffffffffffff1681526020019081526020016000206000828254611cde91906139b5565b925050819055508773ffffffffffffffffffffffffffffffffffffffff168973ffffffffffffffffffffffffffffffffffffffff168573ffffffffffffffffffffffffffffffffffffffff167fc3d58168c5ae7397731d063d5bbf3d657854427343f4c083240f7aacaa2d0f628a8a604051611d5b929190613c64565b60405180910390a4611d71848a8a86868a611fe7565b611d7f848a8a8a8a8a612250565b505050505050505050565b600073ffffffffffffffffffffffffffffffffffffffff168373ffffffffffffffffffffffffffffffffffffffff161415611dfa576040517f08c379a0000000000000000000000000000000000000000000000000000000008152600401611df190613ab4565b60405180910390fd5b6000611e0461106f565b90506000611e11846121d6565b90506000611e1e846121d6565b9050611e3e83876000858560405180602001604052806000815250611fd1565b600080600087815260200190815260200160002060008873ffffffffffffffffffffffffffffffffffffffff1673ffffffffffffffffffffffffffffffffffffffff16815260200190815260200160002054905084811015611ed5576040517f08c379a0000000000000000000000000000000000000000000000000000000008152600401611ecc90613b46565b60405180910390fd5b84810360008088815260200190815260200160002060008973ffffffffffffffffffffffffffffffffffffffff1673ffffffffffffffffffffffffffffffffffffffff16815260200190815260200160002081905550600073ffffffffffffffffffffffffffffffffffffffff168773ffffffffffffffffffffffffffffffffffffffff168573ffffffffffffffffffffffffffffffffffffffff167fc3d58168c5ae7397731d063d5bbf3d657854427343f4c083240f7aacaa2d0f628989604051611fa2929190613c64565b60405180910390a4611fc884886000868660405180602001604052806000815250611fe7565b50505050505050565b611fdf868686868686612437565b505050505050565b505050505050565b61200e8473ffffffffffffffffffffffffffffffffffffffff16612609565b156121ce578373ffffffffffffffffffffffffffffffffffffffff1663bc197c8187878686866040518663ffffffff1660e01b8152600401612054959493929190613d74565b602060405180830381600087803b15801561206e57600080fd5b505af192505050801561209f57506040513d601f19601f8201168201806040525081019061209c9190613df1565b60015b612145576120ab613e2b565b806308c379a0141561210857506120c0613e4d565b806120cb575061210a565b806040517f08c379a00000000000000000000000000000000000000000000000000000000081526004016120ff919061293d565b60405180910390fd5b505b6040517f08c379a000000000000000000000000000000000000000000000000000000000815260040161213c90613f55565b60405180910390fd5b63bc197c8160e01b7bffffffffffffffffffffffffffffffffffffffffffffffffffffffff1916817bffffffffffffffffffffffffffffffffffffffffffffffffffffffff1916146121cc576040517f08c379a00000000000000000000000000000000000000000000000000000000081526004016121c390613fe7565b60405180910390fd5b505b505050505050565b60606000600167ffffffffffffffff8111156121f5576121f4612991565b5b6040519080825280602002602001820160405280156122235781602001602082028036833780820191505090505b509050828160008151811061223b5761223a6134f1565b5b60200260200101818152505080915050919050565b61226f8473ffffffffffffffffffffffffffffffffffffffff16612609565b1561242f578373ffffffffffffffffffffffffffffffffffffffff1663f23a6e6187878686866040518663ffffffff1660e01b81526004016122b5959493929190614007565b602060405180830381600087803b1580156122cf57600080fd5b505af192505050801561230057506040513d601f19601f820116820180604052508101906122fd9190613df1565b60015b6123a65761230c613e2b565b806308c379a014156123695750612321613e4d565b8061232c575061236b565b806040517f08c379a0000000000000000000000000000000000000000000000000000000008152600401612360919061293d565b60405180910390fd5b505b6040517f08c379a000000000000000000000000000000000000000000000000000000000815260040161239d90613f55565b60405180910390fd5b63f23a6e6160e01b7bffffffffffffffffffffffffffffffffffffffffffffffffffffffff1916817bffffffffffffffffffffffffffffffffffffffffffffffffffffffff19161461242d576040517f08c379a000000000000000000000000000000000000000000000000000000000815260040161242490613fe7565b60405180910390fd5b505b505050505050565b61244586868686868661262c565b600073ffffffffffffffffffffffffffffffffffffffff168573ffffffffffffffffffffffffffffffffffffffff1614156124f75760005b83518110156124f557828181518110612499576124986134f1565b5b6020026020010151600460008684815181106124b8576124b76134f1565b5b6020026020010151815260200190815260200160002060008282546124dd91906139b5565b92505081905550806124ee9061354f565b905061247d565b505b600073ffffffffffffffffffffffffffffffffffffffff168473ffffffffffffffffffffffffffffffffffffffff1614156126015760005b83518110156125ff57600084828151811061254d5761254c6134f1565b5b60200260200101519050600084838151811061256c5761256b6134f1565b5b60200260200101519050600060046000848152602001908152602001600020549050818110156125d1576040517f08c379a00000000000000000000000000000000000000000000000000000000081526004016125c8906140d3565b60405180910390fd5b8181036004600085815260200190815260200160002081905550505050806125f89061354f565b905061252f565b505b505050505050565b6000808273ffffffffffffffffffffffffffffffffffffffff163b119050919050565b505050505050565b8280546126409061339b565b90600052602060002090601f01602090048101928261266257600085556126a9565b82601f1061267b57805160ff19168380011785556126a9565b828001600101855582156126a9579182015b828111156126a857825182559160200191906001019061268d565b5b5090506126b691906126ba565b5090565b5b808211156126d35760008160009055506001016126bb565b5090565b6000604051905090565b600080fd5b600080fd5b600073ffffffffffffffffffffffffffffffffffffffff82169050919050565b6000612716826126eb565b9050919050565b6127268161270b565b811461273157600080fd5b50565b6000813590506127438161271d565b92915050565b6000819050919050565b61275c81612749565b811461276757600080fd5b50565b60008135905061277981612753565b92915050565b60008060408385031215612796576127956126e1565b5b60006127a485828601612734565b92505060206127b58582860161276a565b9150509250929050565b6127c881612749565b82525050565b60006020820190506127e360008301846127bf565b92915050565b60007fffffffff0000000000000000000000000000000000000000000000000000000082169050919050565b61281e816127e9565b811461282957600080fd5b50565b60008135905061283b81612815565b92915050565b600060208284031215612857576128566126e1565b5b60006128658482850161282c565b91505092915050565b60008115159050919050565b6128838161286e565b82525050565b600060208201905061289e600083018461287a565b92915050565b600081519050919050565b600082825260208201905092915050565b60005b838110156128de5780820151818401526020810190506128c3565b838111156128ed576000848401525b50505050565b6000601f19601f8301169050919050565b600061290f826128a4565b61291981856128af565b93506129298185602086016128c0565b612932816128f3565b840191505092915050565b600060208201905081810360008301526129578184612904565b905092915050565b600060208284031215612975576129746126e1565b5b60006129838482850161276a565b91505092915050565b600080fd5b7f4e487b7100000000000000000000000000000000000000000000000000000000600052604160045260246000fd5b6129c9826128f3565b810181811067ffffffffffffffff821117156129e8576129e7612991565b5b80604052505050565b60006129fb6126d7565b9050612a0782826129c0565b919050565b600067ffffffffffffffff821115612a2757612a26612991565b5b602082029050602081019050919050565b600080fd5b6000612a50612a4b84612a0c565b6129f1565b90508083825260208201905060208402830185811115612a7357612a72612a38565b5b835b81811015612a9c5780612a88888261276a565b845260208401935050602081019050612a75565b5050509392505050565b600082601f830112612abb57612aba61298c565b5b8135612acb848260208601612a3d565b91505092915050565b600080fd5b600067ffffffffffffffff821115612af457612af3612991565b5b612afd826128f3565b9050602081019050919050565b82818337600083830152505050565b6000612b2c612b2784612ad9565b6129f1565b905082815260208101848484011115612b4857612b47612ad4565b5b612b53848285612b0a565b509392505050565b600082601f830112612b7057612b6f61298c565b5b8135612b80848260208601612b19565b91505092915050565b600080600080600060a08688031215612ba557612ba46126e1565b5b6000612bb388828901612734565b9550506020612bc488828901612734565b945050604086013567ffffffffffffffff811115612be557612be46126e6565b5b612bf188828901612aa6565b935050606086013567ffffffffffffffff811115612c1257612c116126e6565b5b612c1e88828901612aa6565b925050608086013567ffffffffffffffff811115612c3f57612c3e6126e6565b5b612c4b88828901612b5b565b9150509295509295909350565b600067ffffffffffffffff821115612c7357612c72612991565b5b602082029050602081019050919050565b6000612c97612c9284612c58565b6129f1565b90508083825260208201905060208402830185811115612cba57612cb9612a38565b5b835b81811015612ce35780612ccf8882612734565b845260208401935050602081019050612cbc565b5050509392505050565b600082601f830112612d0257612d0161298c565b5b8135612d12848260208601612c84565b91505092915050565b60008060408385031215612d3257612d316126e1565b5b600083013567ffffffffffffffff811115612d5057612d4f6126e6565b5b612d5c85828601612ced565b925050602083013567ffffffffffffffff811115612d7d57612d7c6126e6565b5b612d8985828601612aa6565b9150509250929050565b600081519050919050565b600082825260208201905092915050565b6000819050602082019050919050565b612dc881612749565b82525050565b6000612dda8383612dbf565b60208301905092915050565b6000602082019050919050565b6000612dfe82612d93565b612e088185612d9e565b9350612e1383612daf565b8060005b83811015612e44578151612e2b8882612dce565b9750612e3683612de6565b925050600181019050612e17565b5085935050505092915050565b60006020820190508181036000830152612e6b8184612df3565b905092915050565b600080600060608486031215612e8c57612e8b6126e1565b5b6000612e9a86828701612734565b935050602084013567ffffffffffffffff811115612ebb57612eba6126e6565b5b612ec786828701612aa6565b925050604084013567ffffffffffffffff811115612ee857612ee76126e6565b5b612ef486828701612aa6565b9150509250925092565b600067ffffffffffffffff821115612f1957612f18612991565b5b612f22826128f3565b9050602081019050919050565b6000612f42612f3d84612efe565b6129f1565b905082815260208101848484011115612f5e57612f5d612ad4565b5b612f69848285612b0a565b509392505050565b600082601f830112612f8657612f8561298c565b5b8135612f96848260208601612f2f565b91505092915050565b60008060408385031215612fb657612fb56126e1565b5b6000612fc48582860161276a565b925050602083013567ffffffffffffffff811115612fe557612fe46126e6565b5b612ff185828601612f71565b9150509250929050565b6130048161270b565b82525050565b600060208201905061301f6000830184612ffb565b92915050565b60008060006060848603121561303e5761303d6126e1565b5b600061304c86828701612734565b935050602061305d8682870161276a565b925050604084013567ffffffffffffffff81111561307e5761307d6126e6565b5b61308a86828701612f71565b9150509250925092565b61309d8161286e565b81146130a857600080fd5b50565b6000813590506130ba81613094565b92915050565b600080604083850312156130d7576130d66126e1565b5b60006130e585828601612734565b92505060206130f6858286016130ab565b9150509250929050565b600060208284031215613116576131156126e1565b5b600061312484828501612734565b91505092915050565b60008060408385031215613144576131436126e1565b5b600061315285828601612734565b925050602061316385828601612734565b9150509250929050565b600080600080600060a08688031215613189576131886126e1565b5b600061319788828901612734565b95505060206131a888828901612734565b94505060406131b98882890161276a565b93505060606131ca8882890161276a565b925050608086013567ffffffffffffffff8111156131eb576131ea6126e6565b5b6131f788828901612b5b565b9150509295509295909350565b6000806000806080858703121561321e5761321d6126e1565b5b600061322c87828801612734565b945050602085013567ffffffffffffffff81111561324d5761324c6126e6565b5b61325987828801612f71565b935050604061326a8782880161276a565b925050606061327b87828801612734565b91505092959194509250565b6000806000606084860312156132a05761329f6126e1565b5b60006132ae86828701612734565b93505060206132bf8682870161276a565b92505060406132d08682870161276a565b9150509250925092565b7f455243313135353a2061646472657373207a65726f206973206e6f742061207660008201527f616c6964206f776e657200000000000000000000000000000000000000000000602082015250565b6000613336602a836128af565b9150613341826132da565b604082019050919050565b6000602082019050818103600083015261336581613329565b9050919050565b7f4e487b7100000000000000000000000000000000000000000000000000000000600052602260045260246000fd5b600060028204905060018216806133b357607f821691505b602082108114156133c7576133c661336c565b5b50919050565b7f455243313135353a2063616c6c6572206973206e6f7420746f6b656e206f776e60008201527f6572206e6f7220617070726f7665640000000000000000000000000000000000602082015250565b6000613429602f836128af565b9150613434826133cd565b604082019050919050565b600060208201905081810360008301526134588161341c565b9050919050565b7f455243313135353a206163636f756e747320616e6420696473206c656e67746860008201527f206d69736d617463680000000000000000000000000000000000000000000000602082015250565b60006134bb6029836128af565b91506134c68261345f565b604082019050919050565b600060208201905081810360008301526134ea816134ae565b9050919050565b7f4e487b7100000000000000000000000000000000000000000000000000000000600052603260045260246000fd5b7f4e487b7100000000000000000000000000000000000000000000000000000000600052601160045260246000fd5b600061355a82612749565b91507fffffffffffffffffffffffffffffffffffffffffffffffffffffffffffffffff82141561358d5761358c613520565b5b600182019050919050565b60006040820190506135ad6000830185612ffb565b6135ba60208301846127bf565b9392505050565b6000815190506135d081612753565b92915050565b6000602082840312156135ec576135eb6126e1565b5b60006135fa848285016135c1565b91505092915050565b7f4e4654206d757374206265206f776e6564206279207468652063616c6c657200600082015250565b6000613639601f836128af565b915061364482613603565b602082019050919050565b600060208201905081810360008301526136688161362c565b9050919050565b7f43616e6e6f742073657420757269207477696365000000000000000000000000600082015250565b60006136a56014836128af565b91506136b08261366f565b602082019050919050565b600060208201905081810360008301526136d481613698565b9050919050565b7f4f776e61626c653a206e6577206f776e657220697320746865207a65726f206160008201527f6464726573730000000000000000000000000000000000000000000000000000602082015250565b60006137376026836128af565b9150613742826136db565b604082019050919050565b600060208201905081810360008301526137668161372a565b9050919050565b7f416d6f756e74206f662065746865722073656e74206e6f7420636f727265637460008201527f2e00000000000000000000000000000000000000000000000000000000000000602082015250565b60006137c96021836128af565b91506137d48261376d565b604082019050919050565b600060208201905081810360008301526137f8816137bc565b9050919050565b7f455243313135353a2069647320616e6420616d6f756e7473206c656e6774682060008201527f6d69736d61746368000000000000000000000000000000000000000000000000602082015250565b600061385b6028836128af565b9150613866826137ff565b604082019050919050565b6000602082019050818103600083015261388a8161384e565b9050919050565b7f455243313135353a207472616e7366657220746f20746865207a65726f20616460008201527f6472657373000000000000000000000000000000000000000000000000000000602082015250565b60006138ed6025836128af565b91506138f882613891565b604082019050919050565b6000602082019050818103600083015261391c816138e0565b9050919050565b7f455243313135353a20696e73756666696369656e742062616c616e636520666f60008201527f72207472616e7366657200000000000000000000000000000000000000000000602082015250565b600061397f602a836128af565b915061398a82613923565b604082019050919050565b600060208201905081810360008301526139ae81613972565b9050919050565b60006139c082612749565b91506139cb83612749565b9250827fffffffffffffffffffffffffffffffffffffffffffffffffffffffffffffffff03821115613a00576139ff613520565b5b828201905092915050565b60006040820190508181036000830152613a258185612df3565b90508181036020830152613a398184612df3565b90509392505050565b7f455243313135353a206275726e2066726f6d20746865207a65726f206164647260008201527f6573730000000000000000000000000000000000000000000000000000000000602082015250565b6000613a9e6023836128af565b9150613aa982613a42565b604082019050919050565b60006020820190508181036000830152613acd81613a91565b9050919050565b7f455243313135353a206275726e20616d6f756e7420657863656564732062616c60008201527f616e636500000000000000000000000000000000000000000000000000000000602082015250565b6000613b306024836128af565b9150613b3b82613ad4565b604082019050919050565b60006020820190508181036000830152613b5f81613b23565b9050919050565b7f4f776e61626c653a2063616c6c6572206973206e6f7420746865206f776e6572600082015250565b6000613b9c6020836128af565b9150613ba782613b66565b602082019050919050565b60006020820190508181036000830152613bcb81613b8f565b9050919050565b7f455243313135353a206d696e7420746f20746865207a65726f2061646472657360008201527f7300000000000000000000000000000000000000000000000000000000000000602082015250565b6000613c2e6021836128af565b9150613c3982613bd2565b604082019050919050565b60006020820190508181036000830152613c5d81613c21565b9050919050565b6000604082019050613c7960008301856127bf565b613c8660208301846127bf565b9392505050565b7f455243313135353a2073657474696e6720617070726f76616c2073746174757360008201527f20666f722073656c660000000000000000000000000000000000000000000000602082015250565b6000613ce96029836128af565b9150613cf482613c8d565b604082019050919050565b60006020820190508181036000830152613d1881613cdc565b9050919050565b600081519050919050565b600082825260208201905092915050565b6000613d4682613d1f565b613d508185613d2a565b9350613d608185602086016128c0565b613d69816128f3565b840191505092915050565b600060a082019050613d896000830188612ffb565b613d966020830187612ffb565b8181036040830152613da88186612df3565b90508181036060830152613dbc8185612df3565b90508181036080830152613dd08184613d3b565b90509695505050505050565b600081519050613deb81612815565b92915050565b600060208284031215613e0757613e066126e1565b5b6000613e1584828501613ddc565b91505092915050565b60008160e01c9050919050565b600060033d1115613e4a5760046000803e613e47600051613e1e565b90505b90565b600060443d1015613e5d57613ee0565b613e656126d7565b60043d036004823e80513d602482011167ffffffffffffffff82111715613e8d575050613ee0565b808201805167ffffffffffffffff811115613eab5750505050613ee0565b80602083010160043d038501811115613ec8575050505050613ee0565b613ed7826020018501866129c0565b82955050505050505b90565b7f455243313135353a207472616e7366657220746f206e6f6e204552433131353560008201527f526563656976657220696d706c656d656e746572000000000000000000000000602082015250565b6000613f3f6034836128af565b9150613f4a82613ee3565b604082019050919050565b60006020820190508181036000830152613f6e81613f32565b9050919050565b7f455243313135353a204552433131353552656365697665722072656a6563746560008201527f6420746f6b656e73000000000000000000000000000000000000000000000000602082015250565b6000613fd16028836128af565b9150613fdc82613f75565b604082019050919050565b6000602082019050818103600083015261400081613fc4565b9050919050565b600060a08201905061401c6000830188612ffb565b6140296020830187612ffb565b61403660408301866127bf565b61404360608301856127bf565b81810360808301526140558184613d3b565b90509695505050505050565b7f455243313135353a206275726e20616d6f756e74206578636565647320746f7460008201527f616c537570706c79000000000000000000000000000000000000000000000000602082015250565b60006140bd6028836128af565b91506140c882614061565b604082019050919050565b600060208201905081810360008301526140ec816140b0565b905091905056fea2646970667358221220c107f6ee384d67c69b6b1803a1e42cd58e391a9c0cea5d340ac7e97c889b001964736f6c63430008090033",
  "linkReferences": {},
  "deployedLinkReferences": {}
}