{
  "_format": "hh-sol-artifact-1",
  "contractName": "TokenContract1155",
  "sourceName": "contracts/TokenContract1155.sol",
  "abi": [
    {
      "inputs": [
        {
          "internalType": "string",
          "name": "_name",
          "type": "string"
        },
        {
          "internalType": "string",
          "name": "_symbol",
          "type": "string"
        }
      ],
      "stateMutability": "nonpayable",
      "type": "constructor"
    },
    {
      "anonymous": false,
      "inputs": [
        {
          "indexed": true,
          "internalType": "address",
          "name": "account",
          "type": "address"
        },
        {
          "indexed": true,
          "internalType": "address",
          "name": "operator",
          "type": "address"
        },
        {
          "indexed": false,
          "internalType": "bool",
          "name": "approved",
          "type": "bool"
        }
      ],
      "name": "ApprovalForAll",
      "type": "event"
    },
    {
      "anonymous": false,
      "inputs": [
        {
          "indexed": true,
          "internalType": "address",
          "name": "previousOwner",
          "type": "address"
        },
        {
          "indexed": true,
          "internalType": "address",
          "name": "newOwner",
          "type": "address"
        }
      ],
      "name": "OwnershipTransferred",
      "type": "event"
    },
    {
      "anonymous": false,
      "inputs": [
        {
          "indexed": true,
          "internalType": "address",
          "name": "operator",
          "type": "address"
        },
        {
          "indexed": true,
          "internalType": "address",
          "name": "from",
          "type": "address"
        },
        {
          "indexed": true,
          "internalType": "address",
          "name": "to",
          "type": "address"
        },
        {
          "indexed": false,
          "internalType": "uint256[]",
          "name": "ids",
          "type": "uint256[]"
        },
        {
          "indexed": false,
          "internalType": "uint256[]",
          "name": "values",
          "type": "uint256[]"
        }
      ],
      "name": "TransferBatch",
      "type": "event"
    },
    {
      "anonymous": false,
      "inputs": [
        {
          "indexed": true,
          "internalType": "address",
          "name": "operator",
          "type": "address"
        },
        {
          "indexed": true,
          "internalType": "address",
          "name": "from",
          "type": "address"
        },
        {
          "indexed": true,
          "internalType": "address",
          "name": "to",
          "type": "address"
        },
        {
          "indexed": false,
          "internalType": "uint256",
          "name": "id",
          "type": "uint256"
        },
        {
          "indexed": false,
          "internalType": "uint256",
          "name": "value",
          "type": "uint256"
        }
      ],
      "name": "TransferSingle",
      "type": "event"
    },
    {
      "anonymous": false,
      "inputs": [
        {
          "indexed": false,
          "internalType": "string",
          "name": "value",
          "type": "string"
        },
        {
          "indexed": true,
          "internalType": "uint256",
          "name": "id",
          "type": "uint256"
        }
      ],
      "name": "URI",
      "type": "event"
    },
    {
      "inputs": [
        {
          "internalType": "address",
          "name": "account",
          "type": "address"
        },
        {
          "internalType": "uint256",
          "name": "id",
          "type": "uint256"
        }
      ],
      "name": "balanceOf",
      "outputs": [
        {
          "internalType": "uint256",
          "name": "",
          "type": "uint256"
        }
      ],
      "stateMutability": "view",
      "type": "function"
    },
    {
      "inputs": [
        {
          "internalType": "address[]",
          "name": "accounts",
          "type": "address[]"
        },
        {
          "internalType": "uint256[]",
          "name": "ids",
          "type": "uint256[]"
        }
      ],
      "name": "balanceOfBatch",
      "outputs": [
        {
          "internalType": "uint256[]",
          "name": "",
          "type": "uint256[]"
        }
      ],
      "stateMutability": "view",
      "type": "function"
    },
    {
      "inputs": [
        {
          "internalType": "address",
          "name": "account",
          "type": "address"
        },
        {
          "internalType": "uint256",
          "name": "id",
          "type": "uint256"
        },
        {
          "internalType": "uint256",
          "name": "amount",
          "type": "uint256"
        }
      ],
      "name": "burn",
      "outputs": [],
      "stateMutability": "nonpayable",
      "type": "function"
    },
    {
      "inputs": [
        {
          "internalType": "address",
          "name": "account",
          "type": "address"
        },
        {
          "internalType": "uint256[]",
          "name": "ids",
          "type": "uint256[]"
        },
        {
          "internalType": "uint256[]",
          "name": "values",
          "type": "uint256[]"
        }
      ],
      "name": "burnBatch",
      "outputs": [],
      "stateMutability": "nonpayable",
      "type": "function"
    },
    {
      "inputs": [
        {
          "internalType": "address",
          "name": "account",
          "type": "address"
        },
        {
          "internalType": "uint256",
          "name": "amount",
          "type": "uint256"
        },
        {
          "internalType": "string",
          "name": "tokenUri",
          "type": "string"
        }
      ],
      "name": "createItem",
      "outputs": [
        {
          "internalType": "uint256",
          "name": "",
          "type": "uint256"
        }
      ],
      "stateMutability": "nonpayable",
      "type": "function"
    },
    {
      "inputs": [
        {
          "internalType": "uint256",
          "name": "id",
          "type": "uint256"
        }
      ],
      "name": "exists",
      "outputs": [
        {
          "internalType": "bool",
          "name": "",
          "type": "bool"
        }
      ],
      "stateMutability": "view",
      "type": "function"
    },
    {
      "inputs": [
        {
          "internalType": "address",
          "name": "contractAddress",
          "type": "address"
        }
      ],
      "name": "getApprovalForContract",
      "outputs": [],
      "stateMutability": "nonpayable",
      "type": "function"
    },
    {
      "inputs": [
        {
          "internalType": "address",
          "name": "account",
          "type": "address"
        },
        {
          "internalType": "address",
          "name": "operator",
          "type": "address"
        }
      ],
      "name": "isApprovedForAll",
      "outputs": [
        {
          "internalType": "bool",
          "name": "",
          "type": "bool"
        }
      ],
      "stateMutability": "view",
      "type": "function"
    },
    {
      "inputs": [],
      "name": "name",
      "outputs": [
        {
          "internalType": "string",
          "name": "",
          "type": "string"
        }
      ],
      "stateMutability": "view",
      "type": "function"
    },
    {
      "inputs": [],
      "name": "owner",
      "outputs": [
        {
          "internalType": "address",
          "name": "",
          "type": "address"
        }
      ],
      "stateMutability": "view",
      "type": "function"
    },
    {
      "inputs": [],
      "name": "renounceOwnership",
      "outputs": [],
      "stateMutability": "nonpayable",
      "type": "function"
    },
    {
      "inputs": [
        {
          "internalType": "address",
          "name": "from",
          "type": "address"
        },
        {
          "internalType": "address",
          "name": "to",
          "type": "address"
        },
        {
          "internalType": "uint256[]",
          "name": "ids",
          "type": "uint256[]"
        },
        {
          "internalType": "uint256[]",
          "name": "amounts",
          "type": "uint256[]"
        },
        {
          "internalType": "bytes",
          "name": "data",
          "type": "bytes"
        }
      ],
      "name": "safeBatchTransferFrom",
      "outputs": [],
      "stateMutability": "nonpayable",
      "type": "function"
    },
    {
      "inputs": [
        {
          "internalType": "address",
          "name": "from",
          "type": "address"
        },
        {
          "internalType": "address",
          "name": "to",
          "type": "address"
        },
        {
          "internalType": "uint256",
          "name": "id",
          "type": "uint256"
        },
        {
          "internalType": "uint256",
          "name": "amount",
          "type": "uint256"
        },
        {
          "internalType": "bytes",
          "name": "data",
          "type": "bytes"
        }
      ],
      "name": "safeTransferFrom",
      "outputs": [],
      "stateMutability": "nonpayable",
      "type": "function"
    },
    {
      "inputs": [
        {
          "internalType": "address",
          "name": "operator",
          "type": "address"
        },
        {
          "internalType": "bool",
          "name": "approved",
          "type": "bool"
        }
      ],
      "name": "setApprovalForAll",
      "outputs": [],
      "stateMutability": "nonpayable",
      "type": "function"
    },
    {
      "inputs": [
        {
          "internalType": "uint256",
          "name": "tokenId",
          "type": "uint256"
        },
        {
          "internalType": "string",
          "name": "tokenUri",
          "type": "string"
        }
      ],
      "name": "setUri",
      "outputs": [],
      "stateMutability": "nonpayable",
      "type": "function"
    },
    {
      "inputs": [
        {
          "internalType": "bytes4",
          "name": "interfaceId",
          "type": "bytes4"
        }
      ],
      "name": "supportsInterface",
      "outputs": [
        {
          "internalType": "bool",
          "name": "",
          "type": "bool"
        }
      ],
      "stateMutability": "view",
      "type": "function"
    },
    {
      "inputs": [],
      "name": "symbol",
      "outputs": [
        {
          "internalType": "string",
          "name": "",
          "type": "string"
        }
      ],
      "stateMutability": "view",
      "type": "function"
    },
    {
      "inputs": [
        {
          "internalType": "uint256",
          "name": "id",
          "type": "uint256"
        }
      ],
      "name": "totalSupply",
      "outputs": [
        {
          "internalType": "uint256",
          "name": "",
          "type": "uint256"
        }
      ],
      "stateMutability": "view",
      "type": "function"
    },
    {
      "inputs": [
        {
          "internalType": "address",
          "name": "newOwner",
          "type": "address"
        }
      ],
      "name": "transferOwnership",
      "outputs": [],
      "stateMutability": "nonpayable",
      "type": "function"
    },
    {
      "inputs": [
        {
          "internalType": "uint256",
          "name": "tokenId",
          "type": "uint256"
        }
      ],
      "name": "uri",
      "outputs": [
        {
          "internalType": "string",
          "name": "",
          "type": "string"
        }
      ],
      "stateMutability": "view",
      "type": "function"
    }
  ],
  "bytecode": "0x60806040523480156200001157600080fd5b50604051620043c1380380620043c18339818101604052810190620000379190620002bf565b604051806020016040528060008152506200005881620000b360201b60201c565b50620000796200006d620000cf60201b60201c565b620000d760201b60201c565b8160059080519060200190620000919291906200019d565b508060069080519060200190620000aa9291906200019d565b505050620004a2565b8060029080519060200190620000cb9291906200019d565b5050565b600033905090565b6000600360009054906101000a900473ffffffffffffffffffffffffffffffffffffffff16905081600360006101000a81548173ffffffffffffffffffffffffffffffffffffffff021916908373ffffffffffffffffffffffffffffffffffffffff1602179055508173ffffffffffffffffffffffffffffffffffffffff168173ffffffffffffffffffffffffffffffffffffffff167f8be0079c531659141344cd1fd0a4f28419497f9722a3daafe3b4186f6b6457e060405160405180910390a35050565b828054620001ab90620003c7565b90600052602060002090601f016020900481019282620001cf57600085556200021b565b82601f10620001ea57805160ff19168380011785556200021b565b828001600101855582156200021b579182015b828111156200021a578251825591602001919060010190620001fd565b5b5090506200022a91906200022e565b5090565b5b80821115620002495760008160009055506001016200022f565b5090565b6000620002646200025e846200035b565b62000332565b9050828152602081018484840111156200027d57600080fd5b6200028a84828562000391565b509392505050565b600082601f830112620002a457600080fd5b8151620002b68482602086016200024d565b91505092915050565b60008060408385031215620002d357600080fd5b600083015167ffffffffffffffff811115620002ee57600080fd5b620002fc8582860162000292565b925050602083015167ffffffffffffffff8111156200031a57600080fd5b620003288582860162000292565b9150509250929050565b60006200033e62000351565b90506200034c8282620003fd565b919050565b6000604051905090565b600067ffffffffffffffff82111562000379576200037862000462565b5b620003848262000491565b9050602081019050919050565b60005b83811015620003b157808201518184015260208101905062000394565b83811115620003c1576000848401525b50505050565b60006002820490506001821680620003e057607f821691505b60208210811415620003f757620003f662000433565b5b50919050565b620004088262000491565b810181811067ffffffffffffffff821117156200042a576200042962000462565b5b80604052505050565b7f4e487b7100000000000000000000000000000000000000000000000000000000600052602260045260246000fd5b7f4e487b7100000000000000000000000000000000000000000000000000000000600052604160045260246000fd5b6000601f19601f8301169050919050565b613f0f80620004b26000396000f3fe608060405234801561001057600080fd5b506004361061012b5760003560e01c80638da5cb5b116100ad578063caf2793911610071578063caf2793914610354578063e985e9c514610370578063f242432a146103a0578063f2fde38b146103bc578063f5298aca146103d85761012b565b80638da5cb5b1461029c57806395d89b41146102ba578063a22cb465146102d8578063a7806320146102f4578063bd85b039146103245761012b565b80634e1273f4116100f45780634e1273f4146101fa5780634f558e791461022a5780636b20c4541461025a578063715018a614610276578063782f08ae146102805761012b565b8062fdd58e1461013057806301ffc9a71461016057806306fdde03146101905780630e89341c146101ae5780632eb2c2d6146101de575b600080fd5b61014a60048036038101906101459190612b44565b6103f4565b60405161015791906134cd565b60405180910390f35b61017a60048036038101906101759190612ca2565b6104bd565b6040516101879190613270565b60405180910390f35b61019861059f565b6040516101a5919061328b565b60405180910390f35b6101c860048036038101906101c39190612cf4565b61062d565b6040516101d5919061328b565b60405180910390f35b6101f860048036038101906101f3919061293b565b6106d2565b005b610214600480360381019061020f9190612c36565b610773565b6040516102219190613217565b60405180910390f35b610244600480360381019061023f9190612cf4565b610924565b6040516102519190613270565b60405180910390f35b610274600480360381019061026f9190612a89565b610938565b005b61027e6109d5565b005b61029a60048036038101906102959190612d46565b610a5d565b005b6102a4610bbf565b6040516102b19190613111565b60405180910390f35b6102c2610be9565b6040516102cf919061328b565b60405180910390f35b6102f260048036038101906102ed9190612b08565b610c77565b005b61030e60048036038101906103099190612b80565b610c8d565b60405161031b91906134cd565b60405180910390f35b61033e60048036038101906103399190612cf4565b610cd7565b60405161034b91906134cd565b60405180910390f35b61036e600480360381019061036991906128d6565b610cf4565b005b61038a600480360381019061038591906128ff565b610d02565b6040516103979190613270565b60405180910390f35b6103ba60048036038101906103b591906129fa565b610d96565b005b6103d660048036038101906103d191906128d6565b610e37565b005b6103f260048036038101906103ed9190612be7565b610f2f565b005b60008073ffffffffffffffffffffffffffffffffffffffff168373ffffffffffffffffffffffffffffffffffffffff161415610465576040517f08c379a000000000000000000000000000000000000000000000000000000000815260040161045c906132ed565b60405180910390fd5b60008083815260200190815260200160002060008473ffffffffffffffffffffffffffffffffffffffff1673ffffffffffffffffffffffffffffffffffffffff16815260200190815260200160002054905092915050565b60007fd9b67a26000000000000000000000000000000000000000000000000000000007bffffffffffffffffffffffffffffffffffffffffffffffffffffffff1916827bffffffffffffffffffffffffffffffffffffffffffffffffffffffff1916148061058857507f0e89341c000000000000000000000000000000000000000000000000000000007bffffffffffffffffffffffffffffffffffffffffffffffffffffffff1916827bffffffffffffffffffffffffffffffffffffffffffffffffffffffff1916145b80610598575061059782610f77565b5b9050919050565b600580546105ac906137a1565b80601f01602080910402602001604051908101604052809291908181526020018280546105d8906137a1565b80156106255780601f106105fa57610100808354040283529160200191610625565b820191906000526020600020905b81548152906001019060200180831161060857829003601f168201915b505050505081565b606060086000838152602001908152602001600020805461064d906137a1565b80601f0160208091040260200160405190810160405280929190818152602001828054610679906137a1565b80156106c65780601f1061069b576101008083540402835291602001916106c6565b820191906000526020600020905b8154815290600101906020018083116106a957829003601f168201915b50505050509050919050565b6106da610fe1565b73ffffffffffffffffffffffffffffffffffffffff168573ffffffffffffffffffffffffffffffffffffffff161480610720575061071f8561071a610fe1565b610d02565b5b61075f576040517f08c379a00000000000000000000000000000000000000000000000000000000081526004016107569061338d565b60405180910390fd5b61076c8585858585610fe9565b5050505050565b606081518351146107b9576040517f08c379a00000000000000000000000000000000000000000000000000000000081526004016107b09061344d565b60405180910390fd5b6000835167ffffffffffffffff8111156107fc577f4e487b7100000000000000000000000000000000000000000000000000000000600052604160045260246000fd5b60405190808252806020026020018201604052801561082a5781602001602082028036833780820191505090505b50905060005b8451811015610919576108c3858281518110610875577f4e487b7100000000000000000000000000000000000000000000000000000000600052603260045260246000fd5b60200260200101518583815181106108b6577f4e487b7100000000000000000000000000000000000000000000000000000000600052603260045260246000fd5b60200260200101516103f4565b8282815181106108fc577f4e487b7100000000000000000000000000000000000000000000000000000000600052603260045260246000fd5b6020026020010181815250508061091290613804565b9050610830565b508091505092915050565b60008061093083610cd7565b119050919050565b610940610fe1565b73ffffffffffffffffffffffffffffffffffffffff168373ffffffffffffffffffffffffffffffffffffffff161480610986575061098583610980610fe1565b610d02565b5b6109c5576040517f08c379a00000000000000000000000000000000000000000000000000000000081526004016109bc9061334d565b60405180910390fd5b6109d0838383611349565b505050565b6109dd610fe1565b73ffffffffffffffffffffffffffffffffffffffff166109fb610bbf565b73ffffffffffffffffffffffffffffffffffffffff1614610a51576040517f08c379a0000000000000000000000000000000000000000000000000000000008152600401610a489061340d565b60405180910390fd5b610a5b6000611646565b565b81600030905060008173ffffffffffffffffffffffffffffffffffffffff1662fdd58e33856040518363ffffffff1660e01b8152600401610a9f9291906131ee565b60206040518083038186803b158015610ab757600080fd5b505afa158015610acb573d6000803e3d6000fd5b505050506040513d601f19601f82011682018060405250810190610aef9190612d1d565b11610b2f576040517f08c379a0000000000000000000000000000000000000000000000000000000008152600401610b269061346d565b60405180910390fd5b6000600860008681526020019081526020016000208054610b4f906137a1565b905014610b91576040517f08c379a0000000000000000000000000000000000000000000000000000000008152600401610b88906133ad565b60405180910390fd5b82600860008681526020019081526020016000209080519060200190610bb89291906125b9565b5050505050565b6000600360009054906101000a900473ffffffffffffffffffffffffffffffffffffffff16905090565b60068054610bf6906137a1565b80601f0160208091040260200160405190810160405280929190818152602001828054610c22906137a1565b8015610c6f5780601f10610c4457610100808354040283529160200191610c6f565b820191906000526020600020905b815481529060010190602001808311610c5257829003601f168201915b505050505081565b610c89610c82610fe1565b838361170c565b5050565b6000610c996007611879565b6000610ca5600761188f565b9050610cc28582866040518060200160405280600081525061189d565b610ccc8184610a5d565b809150509392505050565b600060046000838152602001908152602001600020549050919050565b610cff816001610c77565b50565b6000600160008473ffffffffffffffffffffffffffffffffffffffff1673ffffffffffffffffffffffffffffffffffffffff16815260200190815260200160002060008373ffffffffffffffffffffffffffffffffffffffff1673ffffffffffffffffffffffffffffffffffffffff16815260200190815260200160002060009054906101000a900460ff16905092915050565b610d9e610fe1565b73ffffffffffffffffffffffffffffffffffffffff168573ffffffffffffffffffffffffffffffffffffffff161480610de45750610de385610dde610fe1565b610d02565b5b610e23576040517f08c379a0000000000000000000000000000000000000000000000000000000008152600401610e1a9061334d565b60405180910390fd5b610e308585858585611a33565b5050505050565b610e3f610fe1565b73ffffffffffffffffffffffffffffffffffffffff16610e5d610bbf565b73ffffffffffffffffffffffffffffffffffffffff1614610eb3576040517f08c379a0000000000000000000000000000000000000000000000000000000008152600401610eaa9061340d565b60405180910390fd5b600073ffffffffffffffffffffffffffffffffffffffff168173ffffffffffffffffffffffffffffffffffffffff161415610f23576040517f08c379a0000000000000000000000000000000000000000000000000000000008152600401610f1a9061330d565b60405180910390fd5b610f2c81611646565b50565b8273ffffffffffffffffffffffffffffffffffffffff163373ffffffffffffffffffffffffffffffffffffffff1614610f6757600080fd5b610f72838383611cb5565b505050565b60007f01ffc9a7000000000000000000000000000000000000000000000000000000007bffffffffffffffffffffffffffffffffffffffffffffffffffffffff1916827bffffffffffffffffffffffffffffffffffffffffffffffffffffffff1916149050919050565b600033905090565b815183511461102d576040517f08c379a00000000000000000000000000000000000000000000000000000000081526004016110249061348d565b60405180910390fd5b600073ffffffffffffffffffffffffffffffffffffffff168473ffffffffffffffffffffffffffffffffffffffff16141561109d576040517f08c379a00000000000000000000000000000000000000000000000000000000081526004016110949061336d565b60405180910390fd5b60006110a7610fe1565b90506110b7818787878787611ed2565b60005b84518110156112b45760008582815181106110fe577f4e487b7100000000000000000000000000000000000000000000000000000000600052603260045260246000fd5b602002602001015190506000858381518110611143577f4e487b7100000000000000000000000000000000000000000000000000000000600052603260045260246000fd5b60200260200101519050600080600084815260200190815260200160002060008b73ffffffffffffffffffffffffffffffffffffffff1673ffffffffffffffffffffffffffffffffffffffff168152602001908152602001600020549050818110156111e4576040517f08c379a00000000000000000000000000000000000000000000000000000000081526004016111db906133ed565b60405180910390fd5b81810360008085815260200190815260200160002060008c73ffffffffffffffffffffffffffffffffffffffff1673ffffffffffffffffffffffffffffffffffffffff168152602001908152602001600020819055508160008085815260200190815260200160002060008b73ffffffffffffffffffffffffffffffffffffffff1673ffffffffffffffffffffffffffffffffffffffff16815260200190815260200160002060008282546112999190613661565b92505081905550505050806112ad90613804565b90506110ba565b508473ffffffffffffffffffffffffffffffffffffffff168673ffffffffffffffffffffffffffffffffffffffff168273ffffffffffffffffffffffffffffffffffffffff167f4a39dc06d4c0dbc64b70af90fd698a233a518aa5d07e595d983b8c0526c8f7fb878760405161132b929190613239565b60405180910390a4611341818787878787611ee8565b505050505050565b600073ffffffffffffffffffffffffffffffffffffffff168373ffffffffffffffffffffffffffffffffffffffff1614156113b9576040517f08c379a00000000000000000000000000000000000000000000000000000000081526004016113b0906133cd565b60405180910390fd5b80518251146113fd576040517f08c379a00000000000000000000000000000000000000000000000000000000081526004016113f49061348d565b60405180910390fd5b6000611407610fe1565b905061142781856000868660405180602001604052806000815250611ed2565b60005b83518110156115c057600084828151811061146e577f4e487b7100000000000000000000000000000000000000000000000000000000600052603260045260246000fd5b6020026020010151905060008483815181106114b3577f4e487b7100000000000000000000000000000000000000000000000000000000600052603260045260246000fd5b60200260200101519050600080600084815260200190815260200160002060008973ffffffffffffffffffffffffffffffffffffffff1673ffffffffffffffffffffffffffffffffffffffff16815260200190815260200160002054905081811015611554576040517f08c379a000000000000000000000000000000000000000000000000000000000815260040161154b9061332d565b60405180910390fd5b81810360008085815260200190815260200160002060008a73ffffffffffffffffffffffffffffffffffffffff1673ffffffffffffffffffffffffffffffffffffffff1681526020019081526020016000208190555050505080806115b890613804565b91505061142a565b50600073ffffffffffffffffffffffffffffffffffffffff168473ffffffffffffffffffffffffffffffffffffffff168273ffffffffffffffffffffffffffffffffffffffff167f4a39dc06d4c0dbc64b70af90fd698a233a518aa5d07e595d983b8c0526c8f7fb8686604051611638929190613239565b60405180910390a450505050565b6000600360009054906101000a900473ffffffffffffffffffffffffffffffffffffffff16905081600360006101000a81548173ffffffffffffffffffffffffffffffffffffffff021916908373ffffffffffffffffffffffffffffffffffffffff1602179055508173ffffffffffffffffffffffffffffffffffffffff168173ffffffffffffffffffffffffffffffffffffffff167f8be0079c531659141344cd1fd0a4f28419497f9722a3daafe3b4186f6b6457e060405160405180910390a35050565b8173ffffffffffffffffffffffffffffffffffffffff168373ffffffffffffffffffffffffffffffffffffffff16141561177b576040517f08c379a00000000000000000000000000000000000000000000000000000000081526004016117729061342d565b60405180910390fd5b80600160008573ffffffffffffffffffffffffffffffffffffffff1673ffffffffffffffffffffffffffffffffffffffff16815260200190815260200160002060008473ffffffffffffffffffffffffffffffffffffffff1673ffffffffffffffffffffffffffffffffffffffff16815260200190815260200160002060006101000a81548160ff0219169083151502179055508173ffffffffffffffffffffffffffffffffffffffff168373ffffffffffffffffffffffffffffffffffffffff167f17307eab39ab6107e8899845ad3d59bd9653f200f220920489ca2b5937696c318360405161186c9190613270565b60405180910390a3505050565b6001816000016000828254019250508190555050565b600081600001549050919050565b600073ffffffffffffffffffffffffffffffffffffffff168473ffffffffffffffffffffffffffffffffffffffff16141561190d576040517f08c379a0000000000000000000000000000000000000000000000000000000008152600401611904906134ad565b60405180910390fd5b6000611917610fe1565b905061193881600087611929886120cf565b611932886120cf565b87611ed2565b8260008086815260200190815260200160002060008773ffffffffffffffffffffffffffffffffffffffff1673ffffffffffffffffffffffffffffffffffffffff16815260200190815260200160002060008282546119979190613661565b925050819055508473ffffffffffffffffffffffffffffffffffffffff16600073ffffffffffffffffffffffffffffffffffffffff168273ffffffffffffffffffffffffffffffffffffffff167fc3d58168c5ae7397731d063d5bbf3d657854427343f4c083240f7aacaa2d0f628787604051611a159291906134e8565b60405180910390a4611a2c81600087878787612195565b5050505050565b600073ffffffffffffffffffffffffffffffffffffffff168473ffffffffffffffffffffffffffffffffffffffff161415611aa3576040517f08c379a0000000000000000000000000000000000000000000000000000000008152600401611a9a9061336d565b60405180910390fd5b6000611aad610fe1565b9050611acd818787611abe886120cf565b611ac7886120cf565b87611ed2565b600080600086815260200190815260200160002060008873ffffffffffffffffffffffffffffffffffffffff1673ffffffffffffffffffffffffffffffffffffffff16815260200190815260200160002054905083811015611b64576040517f08c379a0000000000000000000000000000000000000000000000000000000008152600401611b5b906133ed565b60405180910390fd5b83810360008087815260200190815260200160002060008973ffffffffffffffffffffffffffffffffffffffff1673ffffffffffffffffffffffffffffffffffffffff168152602001908152602001600020819055508360008087815260200190815260200160002060008873ffffffffffffffffffffffffffffffffffffffff1673ffffffffffffffffffffffffffffffffffffffff1681526020019081526020016000206000828254611c199190613661565b925050819055508573ffffffffffffffffffffffffffffffffffffffff168773ffffffffffffffffffffffffffffffffffffffff168373ffffffffffffffffffffffffffffffffffffffff167fc3d58168c5ae7397731d063d5bbf3d657854427343f4c083240f7aacaa2d0f628888604051611c969291906134e8565b60405180910390a4611cac828888888888612195565b50505050505050565b600073ffffffffffffffffffffffffffffffffffffffff168373ffffffffffffffffffffffffffffffffffffffff161415611d25576040517f08c379a0000000000000000000000000000000000000000000000000000000008152600401611d1c906133cd565b60405180910390fd5b6000611d2f610fe1565b9050611d5f81856000611d41876120cf565b611d4a876120cf565b60405180602001604052806000815250611ed2565b600080600085815260200190815260200160002060008673ffffffffffffffffffffffffffffffffffffffff1673ffffffffffffffffffffffffffffffffffffffff16815260200190815260200160002054905082811015611df6576040517f08c379a0000000000000000000000000000000000000000000000000000000008152600401611ded9061332d565b60405180910390fd5b82810360008086815260200190815260200160002060008773ffffffffffffffffffffffffffffffffffffffff1673ffffffffffffffffffffffffffffffffffffffff16815260200190815260200160002081905550600073ffffffffffffffffffffffffffffffffffffffff168573ffffffffffffffffffffffffffffffffffffffff168373ffffffffffffffffffffffffffffffffffffffff167fc3d58168c5ae7397731d063d5bbf3d657854427343f4c083240f7aacaa2d0f628787604051611ec39291906134e8565b60405180910390a45050505050565b611ee086868686868661237c565b505050505050565b611f078473ffffffffffffffffffffffffffffffffffffffff1661258e565b156120c7578373ffffffffffffffffffffffffffffffffffffffff1663bc197c8187878686866040518663ffffffff1660e01b8152600401611f4d95949392919061312c565b602060405180830381600087803b158015611f6757600080fd5b505af1925050508015611f9857506040513d601f19601f82011682018060405250810190611f959190612ccb565b60015b61203e57611fa46138da565b806308c379a014156120015750611fb9613de7565b80611fc45750612003565b806040517f08c379a0000000000000000000000000000000000000000000000000000000008152600401611ff8919061328b565b60405180910390fd5b505b6040517f08c379a0000000000000000000000000000000000000000000000000000000008152600401612035906132ad565b60405180910390fd5b63bc197c8160e01b7bffffffffffffffffffffffffffffffffffffffffffffffffffffffff1916817bffffffffffffffffffffffffffffffffffffffffffffffffffffffff1916146120c5576040517f08c379a00000000000000000000000000000000000000000000000000000000081526004016120bc906132cd565b60405180910390fd5b505b505050505050565b60606000600167ffffffffffffffff811115612114577f4e487b7100000000000000000000000000000000000000000000000000000000600052604160045260246000fd5b6040519080825280602002602001820160405280156121425781602001602082028036833780820191505090505b5090508281600081518110612180577f4e487b7100000000000000000000000000000000000000000000000000000000600052603260045260246000fd5b60200260200101818152505080915050919050565b6121b48473ffffffffffffffffffffffffffffffffffffffff1661258e565b15612374578373ffffffffffffffffffffffffffffffffffffffff1663f23a6e6187878686866040518663ffffffff1660e01b81526004016121fa959493929190613194565b602060405180830381600087803b15801561221457600080fd5b505af192505050801561224557506040513d601f19601f820116820180604052508101906122429190612ccb565b60015b6122eb576122516138da565b806308c379a014156122ae5750612266613de7565b8061227157506122b0565b806040517f08c379a00000000000000000000000000000000000000000000000000000000081526004016122a5919061328b565b60405180910390fd5b505b6040517f08c379a00000000000000000000000000000000000000000000000000000000081526004016122e2906132ad565b60405180910390fd5b63f23a6e6160e01b7bffffffffffffffffffffffffffffffffffffffffffffffffffffffff1916817bffffffffffffffffffffffffffffffffffffffffffffffffffffffff191614612372576040517f08c379a0000000000000000000000000000000000000000000000000000000008152600401612369906132cd565b60405180910390fd5b505b505050505050565b61238a8686868686866125b1565b600073ffffffffffffffffffffffffffffffffffffffff168573ffffffffffffffffffffffffffffffffffffffff1614156124885760005b835181101561248657828181518110612404577f4e487b7100000000000000000000000000000000000000000000000000000000600052603260045260246000fd5b602002602001015160046000868481518110612449577f4e487b7100000000000000000000000000000000000000000000000000000000600052603260045260246000fd5b60200260200101518152602001908152602001600020600082825461246e9190613661565b925050819055508061247f90613804565b90506123c2565b505b600073ffffffffffffffffffffffffffffffffffffffff168473ffffffffffffffffffffffffffffffffffffffff1614156125865760005b835181101561258457828181518110612502577f4e487b7100000000000000000000000000000000000000000000000000000000600052603260045260246000fd5b602002602001015160046000868481518110612547577f4e487b7100000000000000000000000000000000000000000000000000000000600052603260045260246000fd5b60200260200101518152602001908152602001600020600082825461256c91906136b7565b925050819055508061257d90613804565b90506124c0565b505b505050505050565b6000808273ffffffffffffffffffffffffffffffffffffffff163b119050919050565b505050505050565b8280546125c5906137a1565b90600052602060002090601f0160209004810192826125e7576000855561262e565b82601f1061260057805160ff191683800117855561262e565b8280016001018555821561262e579182015b8281111561262d578251825591602001919060010190612612565b5b50905061263b919061263f565b5090565b5b80821115612658576000816000905550600101612640565b5090565b600061266f61266a84613536565b613511565b9050808382526020820190508285602086028201111561268e57600080fd5b60005b858110156126be57816126a488826127b0565b845260208401935060208301925050600181019050612691565b5050509392505050565b60006126db6126d684613562565b613511565b905080838252602082019050828560208602820111156126fa57600080fd5b60005b8581101561272a578161271088826128ac565b8452602084019350602083019250506001810190506126fd565b5050509392505050565b60006127476127428461358e565b613511565b90508281526020810184848401111561275f57600080fd5b61276a84828561375f565b509392505050565b6000612785612780846135bf565b613511565b90508281526020810184848401111561279d57600080fd5b6127a884828561375f565b509392505050565b6000813590506127bf81613e7d565b92915050565b600082601f8301126127d657600080fd5b81356127e684826020860161265c565b91505092915050565b600082601f83011261280057600080fd5b81356128108482602086016126c8565b91505092915050565b60008135905061282881613e94565b92915050565b60008135905061283d81613eab565b92915050565b60008151905061285281613eab565b92915050565b600082601f83011261286957600080fd5b8135612879848260208601612734565b91505092915050565b600082601f83011261289357600080fd5b81356128a3848260208601612772565b91505092915050565b6000813590506128bb81613ec2565b92915050565b6000815190506128d081613ec2565b92915050565b6000602082840312156128e857600080fd5b60006128f6848285016127b0565b91505092915050565b6000806040838503121561291257600080fd5b6000612920858286016127b0565b9250506020612931858286016127b0565b9150509250929050565b600080600080600060a0868803121561295357600080fd5b6000612961888289016127b0565b9550506020612972888289016127b0565b945050604086013567ffffffffffffffff81111561298f57600080fd5b61299b888289016127ef565b935050606086013567ffffffffffffffff8111156129b857600080fd5b6129c4888289016127ef565b925050608086013567ffffffffffffffff8111156129e157600080fd5b6129ed88828901612858565b9150509295509295909350565b600080600080600060a08688031215612a1257600080fd5b6000612a20888289016127b0565b9550506020612a31888289016127b0565b9450506040612a42888289016128ac565b9350506060612a53888289016128ac565b925050608086013567ffffffffffffffff811115612a7057600080fd5b612a7c88828901612858565b9150509295509295909350565b600080600060608486031215612a9e57600080fd5b6000612aac868287016127b0565b935050602084013567ffffffffffffffff811115612ac957600080fd5b612ad5868287016127ef565b925050604084013567ffffffffffffffff811115612af257600080fd5b612afe868287016127ef565b9150509250925092565b60008060408385031215612b1b57600080fd5b6000612b29858286016127b0565b9250506020612b3a85828601612819565b9150509250929050565b60008060408385031215612b5757600080fd5b6000612b65858286016127b0565b9250506020612b76858286016128ac565b9150509250929050565b600080600060608486031215612b9557600080fd5b6000612ba3868287016127b0565b9350506020612bb4868287016128ac565b925050604084013567ffffffffffffffff811115612bd157600080fd5b612bdd86828701612882565b9150509250925092565b600080600060608486031215612bfc57600080fd5b6000612c0a868287016127b0565b9350506020612c1b868287016128ac565b9250506040612c2c868287016128ac565b9150509250925092565b60008060408385031215612c4957600080fd5b600083013567ffffffffffffffff811115612c6357600080fd5b612c6f858286016127c5565b925050602083013567ffffffffffffffff811115612c8c57600080fd5b612c98858286016127ef565b9150509250929050565b600060208284031215612cb457600080fd5b6000612cc28482850161282e565b91505092915050565b600060208284031215612cdd57600080fd5b6000612ceb84828501612843565b91505092915050565b600060208284031215612d0657600080fd5b6000612d14848285016128ac565b91505092915050565b600060208284031215612d2f57600080fd5b6000612d3d848285016128c1565b91505092915050565b60008060408385031215612d5957600080fd5b6000612d67858286016128ac565b925050602083013567ffffffffffffffff811115612d8457600080fd5b612d9085828601612882565b9150509250929050565b6000612da683836130f3565b60208301905092915050565b612dbb816136eb565b82525050565b6000612dcc82613600565b612dd6818561362e565b9350612de1836135f0565b8060005b83811015612e12578151612df98882612d9a565b9750612e0483613621565b925050600181019050612de5565b5085935050505092915050565b612e28816136fd565b82525050565b6000612e398261360b565b612e43818561363f565b9350612e5381856020860161376e565b612e5c816138fc565b840191505092915050565b6000612e7282613616565b612e7c8185613650565b9350612e8c81856020860161376e565b612e95816138fc565b840191505092915050565b6000612ead603483613650565b9150612eb88261391a565b604082019050919050565b6000612ed0602883613650565b9150612edb82613969565b604082019050919050565b6000612ef3602b83613650565b9150612efe826139b8565b604082019050919050565b6000612f16602683613650565b9150612f2182613a07565b604082019050919050565b6000612f39602483613650565b9150612f4482613a56565b604082019050919050565b6000612f5c602983613650565b9150612f6782613aa5565b604082019050919050565b6000612f7f602583613650565b9150612f8a82613af4565b604082019050919050565b6000612fa2603283613650565b9150612fad82613b43565b604082019050919050565b6000612fc5601483613650565b9150612fd082613b92565b602082019050919050565b6000612fe8602383613650565b9150612ff382613bbb565b604082019050919050565b600061300b602a83613650565b915061301682613c0a565b604082019050919050565b600061302e602083613650565b915061303982613c59565b602082019050919050565b6000613051602983613650565b915061305c82613c82565b604082019050919050565b6000613074602983613650565b915061307f82613cd1565b604082019050919050565b6000613097601f83613650565b91506130a282613d20565b602082019050919050565b60006130ba602883613650565b91506130c582613d49565b604082019050919050565b60006130dd602183613650565b91506130e882613d98565b604082019050919050565b6130fc81613755565b82525050565b61310b81613755565b82525050565b60006020820190506131266000830184612db2565b92915050565b600060a0820190506131416000830188612db2565b61314e6020830187612db2565b81810360408301526131608186612dc1565b905081810360608301526131748185612dc1565b905081810360808301526131888184612e2e565b90509695505050505050565b600060a0820190506131a96000830188612db2565b6131b66020830187612db2565b6131c36040830186613102565b6131d06060830185613102565b81810360808301526131e28184612e2e565b90509695505050505050565b60006040820190506132036000830185612db2565b6132106020830184613102565b9392505050565b600060208201905081810360008301526132318184612dc1565b905092915050565b600060408201905081810360008301526132538185612dc1565b905081810360208301526132678184612dc1565b90509392505050565b60006020820190506132856000830184612e1f565b92915050565b600060208201905081810360008301526132a58184612e67565b905092915050565b600060208201905081810360008301526132c681612ea0565b9050919050565b600060208201905081810360008301526132e681612ec3565b9050919050565b6000602082019050818103600083015261330681612ee6565b9050919050565b6000602082019050818103600083015261332681612f09565b9050919050565b6000602082019050818103600083015261334681612f2c565b9050919050565b6000602082019050818103600083015261336681612f4f565b9050919050565b6000602082019050818103600083015261338681612f72565b9050919050565b600060208201905081810360008301526133a681612f95565b9050919050565b600060208201905081810360008301526133c681612fb8565b9050919050565b600060208201905081810360008301526133e681612fdb565b9050919050565b6000602082019050818103600083015261340681612ffe565b9050919050565b6000602082019050818103600083015261342681613021565b9050919050565b6000602082019050818103600083015261344681613044565b9050919050565b6000602082019050818103600083015261346681613067565b9050919050565b600060208201905081810360008301526134868161308a565b9050919050565b600060208201905081810360008301526134a6816130ad565b9050919050565b600060208201905081810360008301526134c6816130d0565b9050919050565b60006020820190506134e26000830184613102565b92915050565b60006040820190506134fd6000830185613102565b61350a6020830184613102565b9392505050565b600061351b61352c565b905061352782826137d3565b919050565b6000604051905090565b600067ffffffffffffffff821115613551576135506138ab565b5b602082029050602081019050919050565b600067ffffffffffffffff82111561357d5761357c6138ab565b5b602082029050602081019050919050565b600067ffffffffffffffff8211156135a9576135a86138ab565b5b6135b2826138fc565b9050602081019050919050565b600067ffffffffffffffff8211156135da576135d96138ab565b5b6135e3826138fc565b9050602081019050919050565b6000819050602082019050919050565b600081519050919050565b600081519050919050565b600081519050919050565b6000602082019050919050565b600082825260208201905092915050565b600082825260208201905092915050565b600082825260208201905092915050565b600061366c82613755565b915061367783613755565b9250827fffffffffffffffffffffffffffffffffffffffffffffffffffffffffffffffff038211156136ac576136ab61384d565b5b828201905092915050565b60006136c282613755565b91506136cd83613755565b9250828210156136e0576136df61384d565b5b828203905092915050565b60006136f682613735565b9050919050565b60008115159050919050565b60007fffffffff0000000000000000000000000000000000000000000000000000000082169050919050565b600073ffffffffffffffffffffffffffffffffffffffff82169050919050565b6000819050919050565b82818337600083830152505050565b60005b8381101561378c578082015181840152602081019050613771565b8381111561379b576000848401525b50505050565b600060028204905060018216806137b957607f821691505b602082108114156137cd576137cc61387c565b5b50919050565b6137dc826138fc565b810181811067ffffffffffffffff821117156137fb576137fa6138ab565b5b80604052505050565b600061380f82613755565b91507fffffffffffffffffffffffffffffffffffffffffffffffffffffffffffffffff8214156138425761384161384d565b5b600182019050919050565b7f4e487b7100000000000000000000000000000000000000000000000000000000600052601160045260246000fd5b7f4e487b7100000000000000000000000000000000000000000000000000000000600052602260045260246000fd5b7f4e487b7100000000000000000000000000000000000000000000000000000000600052604160045260246000fd5b600060033d11156138f95760046000803e6138f660005161390d565b90505b90565b6000601f19601f8301169050919050565b60008160e01c9050919050565b7f455243313135353a207472616e7366657220746f206e6f6e204552433131353560008201527f526563656976657220696d706c656d656e746572000000000000000000000000602082015250565b7f455243313135353a204552433131353552656365697665722072656a6563746560008201527f6420746f6b656e73000000000000000000000000000000000000000000000000602082015250565b7f455243313135353a2062616c616e636520717565727920666f7220746865207a60008201527f65726f2061646472657373000000000000000000000000000000000000000000602082015250565b7f4f776e61626c653a206e6577206f776e657220697320746865207a65726f206160008201527f6464726573730000000000000000000000000000000000000000000000000000602082015250565b7f455243313135353a206275726e20616d6f756e7420657863656564732062616c60008201527f616e636500000000000000000000000000000000000000000000000000000000602082015250565b7f455243313135353a2063616c6c6572206973206e6f74206f776e6572206e6f7260008201527f20617070726f7665640000000000000000000000000000000000000000000000602082015250565b7f455243313135353a207472616e7366657220746f20746865207a65726f20616460008201527f6472657373000000000000000000000000000000000000000000000000000000602082015250565b7f455243313135353a207472616e736665722063616c6c6572206973206e6f742060008201527f6f776e6572206e6f7220617070726f7665640000000000000000000000000000602082015250565b7f43616e6e6f742073657420757269207477696365000000000000000000000000600082015250565b7f455243313135353a206275726e2066726f6d20746865207a65726f206164647260008201527f6573730000000000000000000000000000000000000000000000000000000000602082015250565b7f455243313135353a20696e73756666696369656e742062616c616e636520666f60008201527f72207472616e7366657200000000000000000000000000000000000000000000602082015250565b7f4f776e61626c653a2063616c6c6572206973206e6f7420746865206f776e6572600082015250565b7f455243313135353a2073657474696e6720617070726f76616c2073746174757360008201527f20666f722073656c660000000000000000000000000000000000000000000000602082015250565b7f455243313135353a206163636f756e747320616e6420696473206c656e67746860008201527f206d69736d617463680000000000000000000000000000000000000000000000602082015250565b7f4e4654206d757374206265206f776e6564206279207468652063616c6c657200600082015250565b7f455243313135353a2069647320616e6420616d6f756e7473206c656e6774682060008201527f6d69736d61746368000000000000000000000000000000000000000000000000602082015250565b7f455243313135353a206d696e7420746f20746865207a65726f2061646472657360008201527f7300000000000000000000000000000000000000000000000000000000000000602082015250565b600060443d1015613df757613e7a565b613dff61352c565b60043d036004823e80513d602482011167ffffffffffffffff82111715613e27575050613e7a565b808201805167ffffffffffffffff811115613e455750505050613e7a565b80602083010160043d038501811115613e62575050505050613e7a565b613e71826020018501866137d3565b82955050505050505b90565b613e86816136eb565b8114613e9157600080fd5b50565b613e9d816136fd565b8114613ea857600080fd5b50565b613eb481613709565b8114613ebf57600080fd5b50565b613ecb81613755565b8114613ed657600080fd5b5056fea26469706673582212207cb2dbc72fd58802f4072440298733b5cd88c3c60ecc170d7f6ed6e13ba1f7c864736f6c63430008040033",
  "linkReferences": {},
  "deployedLinkReferences": {}
}