{
  "_format": "hh-sol-artifact-1",
  "contractName": "TokenContract721",
  "sourceName": "contracts/TokenContract721.sol",
  "abi": [
    {
      "inputs": [
        {
          "internalType": "string",
          "name": "name",
          "type": "string"
        },
        {
          "internalType": "string",
          "name": "symbol",
          "type": "string"
        }
      ],
      "stateMutability": "nonpayable",
      "type": "constructor"
    },
    {
      "anonymous": false,
      "inputs": [
        {
          "indexed": true,
          "internalType": "address",
          "name": "owner",
          "type": "address"
        },
        {
          "indexed": true,
          "internalType": "address",
          "name": "approved",
          "type": "address"
        },
        {
          "indexed": true,
          "internalType": "uint256",
          "name": "tokenId",
          "type": "uint256"
        }
      ],
      "name": "Approval",
      "type": "event"
    },
    {
      "anonymous": false,
      "inputs": [
        {
          "indexed": true,
          "internalType": "address",
          "name": "owner",
          "type": "address"
        },
        {
          "indexed": true,
          "internalType": "address",
          "name": "operator",
          "type": "address"
        },
        {
          "indexed": false,
          "internalType": "bool",
          "name": "approved",
          "type": "bool"
        }
      ],
      "name": "ApprovalForAll",
      "type": "event"
    },
    {
      "anonymous": false,
      "inputs": [
        {
          "indexed": true,
          "internalType": "address",
          "name": "previousOwner",
          "type": "address"
        },
        {
          "indexed": true,
          "internalType": "address",
          "name": "newOwner",
          "type": "address"
        }
      ],
      "name": "OwnershipTransferred",
      "type": "event"
    },
    {
      "anonymous": false,
      "inputs": [
        {
          "indexed": true,
          "internalType": "address",
          "name": "from",
          "type": "address"
        },
        {
          "indexed": true,
          "internalType": "address",
          "name": "to",
          "type": "address"
        },
        {
          "indexed": true,
          "internalType": "uint256",
          "name": "tokenId",
          "type": "uint256"
        }
      ],
      "name": "Transfer",
      "type": "event"
    },
    {
      "inputs": [
        {
          "internalType": "uint256",
          "name": "",
          "type": "uint256"
        }
      ],
      "name": "Items",
      "outputs": [
        {
          "internalType": "uint256",
          "name": "id",
          "type": "uint256"
        },
        {
          "internalType": "address",
          "name": "creator",
          "type": "address"
        },
        {
          "internalType": "string",
          "name": "uri",
          "type": "string"
        }
      ],
      "stateMutability": "view",
      "type": "function"
    },
    {
      "inputs": [
        {
          "internalType": "address",
          "name": "to",
          "type": "address"
        },
        {
          "internalType": "uint256",
          "name": "tokenId",
          "type": "uint256"
        }
      ],
      "name": "approve",
      "outputs": [],
      "stateMutability": "nonpayable",
      "type": "function"
    },
    {
      "inputs": [
        {
          "internalType": "address",
          "name": "owner",
          "type": "address"
        }
      ],
      "name": "balanceOf",
      "outputs": [
        {
          "internalType": "uint256",
          "name": "",
          "type": "uint256"
        }
      ],
      "stateMutability": "view",
      "type": "function"
    },
    {
      "inputs": [
        {
          "internalType": "uint256",
          "name": "tokenId",
          "type": "uint256"
        }
      ],
      "name": "burn",
      "outputs": [],
      "stateMutability": "nonpayable",
      "type": "function"
    },
    {
      "inputs": [
        {
          "internalType": "string",
          "name": "uri",
          "type": "string"
        }
      ],
      "name": "directMint",
      "outputs": [
        {
          "internalType": "uint256",
          "name": "",
          "type": "uint256"
        }
      ],
      "stateMutability": "nonpayable",
      "type": "function"
    },
    {
      "inputs": [
        {
          "internalType": "uint256",
          "name": "tokenId",
          "type": "uint256"
        }
      ],
      "name": "getApproved",
      "outputs": [
        {
          "internalType": "address",
          "name": "",
          "type": "address"
        }
      ],
      "stateMutability": "view",
      "type": "function"
    },
    {
      "inputs": [
        {
          "internalType": "address",
          "name": "owner",
          "type": "address"
        },
        {
          "internalType": "address",
          "name": "operator",
          "type": "address"
        }
      ],
      "name": "isApprovedForAll",
      "outputs": [
        {
          "internalType": "bool",
          "name": "",
          "type": "bool"
        }
      ],
      "stateMutability": "view",
      "type": "function"
    },
    {
      "inputs": [
        {
          "internalType": "address",
          "name": "creator",
          "type": "address"
        },
        {
          "internalType": "uint256",
          "name": "askingPrice",
          "type": "uint256"
        },
        {
          "internalType": "string",
          "name": "uri",
          "type": "string"
        }
      ],
      "name": "lazyMint",
      "outputs": [
        {
          "internalType": "uint256",
          "name": "",
          "type": "uint256"
        }
      ],
      "stateMutability": "payable",
      "type": "function"
    },
    {
      "inputs": [],
      "name": "name",
      "outputs": [
        {
          "internalType": "string",
          "name": "",
          "type": "string"
        }
      ],
      "stateMutability": "view",
      "type": "function"
    },
    {
      "inputs": [],
      "name": "owner",
      "outputs": [
        {
          "internalType": "address",
          "name": "",
          "type": "address"
        }
      ],
      "stateMutability": "view",
      "type": "function"
    },
    {
      "inputs": [
        {
          "internalType": "uint256",
          "name": "tokenId",
          "type": "uint256"
        }
      ],
      "name": "ownerOf",
      "outputs": [
        {
          "internalType": "address",
          "name": "",
          "type": "address"
        }
      ],
      "stateMutability": "view",
      "type": "function"
    },
    {
      "inputs": [],
      "name": "renounceOwnership",
      "outputs": [],
      "stateMutability": "nonpayable",
      "type": "function"
    },
    {
      "inputs": [
        {
          "internalType": "address",
          "name": "from",
          "type": "address"
        },
        {
          "internalType": "address",
          "name": "to",
          "type": "address"
        },
        {
          "internalType": "uint256",
          "name": "tokenId",
          "type": "uint256"
        }
      ],
      "name": "safeTransferFrom",
      "outputs": [],
      "stateMutability": "nonpayable",
      "type": "function"
    },
    {
      "inputs": [
        {
          "internalType": "address",
          "name": "from",
          "type": "address"
        },
        {
          "internalType": "address",
          "name": "to",
          "type": "address"
        },
        {
          "internalType": "uint256",
          "name": "tokenId",
          "type": "uint256"
        },
        {
          "internalType": "bytes",
          "name": "data",
          "type": "bytes"
        }
      ],
      "name": "safeTransferFrom",
      "outputs": [],
      "stateMutability": "nonpayable",
      "type": "function"
    },
    {
      "inputs": [
        {
          "internalType": "address",
          "name": "operator",
          "type": "address"
        },
        {
          "internalType": "bool",
          "name": "approved",
          "type": "bool"
        }
      ],
      "name": "setApprovalForAll",
      "outputs": [],
      "stateMutability": "nonpayable",
      "type": "function"
    },
    {
      "inputs": [
        {
          "internalType": "bytes4",
          "name": "interfaceId",
          "type": "bytes4"
        }
      ],
      "name": "supportsInterface",
      "outputs": [
        {
          "internalType": "bool",
          "name": "",
          "type": "bool"
        }
      ],
      "stateMutability": "view",
      "type": "function"
    },
    {
      "inputs": [],
      "name": "symbol",
      "outputs": [
        {
          "internalType": "string",
          "name": "",
          "type": "string"
        }
      ],
      "stateMutability": "view",
      "type": "function"
    },
    {
      "inputs": [
        {
          "internalType": "uint256",
          "name": "index",
          "type": "uint256"
        }
      ],
      "name": "tokenByIndex",
      "outputs": [
        {
          "internalType": "uint256",
          "name": "",
          "type": "uint256"
        }
      ],
      "stateMutability": "view",
      "type": "function"
    },
    {
      "inputs": [
        {
          "internalType": "address",
          "name": "owner",
          "type": "address"
        },
        {
          "internalType": "uint256",
          "name": "index",
          "type": "uint256"
        }
      ],
      "name": "tokenOfOwnerByIndex",
      "outputs": [
        {
          "internalType": "uint256",
          "name": "",
          "type": "uint256"
        }
      ],
      "stateMutability": "view",
      "type": "function"
    },
    {
      "inputs": [
        {
          "internalType": "uint256",
          "name": "tokenId",
          "type": "uint256"
        }
      ],
      "name": "tokenURI",
      "outputs": [
        {
          "internalType": "string",
          "name": "",
          "type": "string"
        }
      ],
      "stateMutability": "view",
      "type": "function"
    },
    {
      "inputs": [],
      "name": "totalSupply",
      "outputs": [
        {
          "internalType": "uint256",
          "name": "",
          "type": "uint256"
        }
      ],
      "stateMutability": "view",
      "type": "function"
    },
    {
      "inputs": [
        {
          "internalType": "address",
          "name": "from",
          "type": "address"
        },
        {
          "internalType": "address",
          "name": "to",
          "type": "address"
        },
        {
          "internalType": "uint256",
          "name": "tokenId",
          "type": "uint256"
        }
      ],
      "name": "transferFrom",
      "outputs": [],
      "stateMutability": "nonpayable",
      "type": "function"
    },
    {
      "inputs": [
        {
          "internalType": "address",
          "name": "newOwner",
          "type": "address"
        }
      ],
      "name": "transferOwnership",
      "outputs": [],
      "stateMutability": "nonpayable",
      "type": "function"
    }
  ],
  "bytecode": "0x60806040523480156200001157600080fd5b5060405162003c9338038062003c938339818101604052810190620000379190620003b0565b818181600090805190602001906200005192919062000163565b5080600190805190602001906200006a92919062000163565b5050506200008d620000816200009560201b60201c565b6200009d60201b60201c565b50506200049a565b600033905090565b6000600660009054906101000a900473ffffffffffffffffffffffffffffffffffffffff16905081600660006101000a81548173ffffffffffffffffffffffffffffffffffffffff021916908373ffffffffffffffffffffffffffffffffffffffff1602179055508173ffffffffffffffffffffffffffffffffffffffff168173ffffffffffffffffffffffffffffffffffffffff167f8be0079c531659141344cd1fd0a4f28419497f9722a3daafe3b4186f6b6457e060405160405180910390a35050565b828054620001719062000464565b90600052602060002090601f016020900481019282620001955760008555620001e1565b82601f10620001b057805160ff1916838001178555620001e1565b82800160010185558215620001e1579182015b82811115620001e0578251825591602001919060010190620001c3565b5b509050620001f09190620001f4565b5090565b5b808211156200020f576000816000905550600101620001f5565b5090565b6000604051905090565b600080fd5b600080fd5b600080fd5b600080fd5b6000601f19601f8301169050919050565b7f4e487b7100000000000000000000000000000000000000000000000000000000600052604160045260246000fd5b6200027c8262000231565b810181811067ffffffffffffffff821117156200029e576200029d62000242565b5b80604052505050565b6000620002b362000213565b9050620002c1828262000271565b919050565b600067ffffffffffffffff821115620002e457620002e362000242565b5b620002ef8262000231565b9050602081019050919050565b60005b838110156200031c578082015181840152602081019050620002ff565b838111156200032c576000848401525b50505050565b6000620003496200034384620002c6565b620002a7565b9050828152602081018484840111156200036857620003676200022c565b5b62000375848285620002fc565b509392505050565b600082601f83011262000395576200039462000227565b5b8151620003a784826020860162000332565b91505092915050565b60008060408385031215620003ca57620003c96200021d565b5b600083015167ffffffffffffffff811115620003eb57620003ea62000222565b5b620003f9858286016200037d565b925050602083015167ffffffffffffffff8111156200041d576200041c62000222565b5b6200042b858286016200037d565b9150509250929050565b7f4e487b7100000000000000000000000000000000000000000000000000000000600052602260045260246000fd5b600060028204905060018216806200047d57607f821691505b6020821081141562000494576200049362000435565b5b50919050565b6137e980620004aa6000396000f3fe6080604052600436106101405760003560e01c80635b1ac0ee116100b6578063a22cb4651161006f578063a22cb46514610496578063b88d4fde146104bf578063c87b56dd146104e8578063ce969d6d14610525578063e985e9c514610555578063f2fde38b1461059257610140565b80635b1ac0ee146103725780636352211e146103af57806370a08231146103ec578063715018a6146104295780638da5cb5b1461044057806395d89b411461046b57610140565b806318160ddd1161010857806318160ddd1461025257806323b872dd1461027d5780632f745c59146102a657806342842e0e146102e357806342966c681461030c5780634f6ccce71461033557610140565b806301ffc9a71461014557806306fdde0314610182578063081812fc146101ad578063095ea7b3146101ea57806317b47cc414610213575b600080fd5b34801561015157600080fd5b5061016c60048036038101906101679190612576565b6105bb565b60405161017991906125be565b60405180910390f35b34801561018e57600080fd5b506101976105cd565b6040516101a49190612672565b60405180910390f35b3480156101b957600080fd5b506101d460048036038101906101cf91906126ca565b61065f565b6040516101e19190612738565b60405180910390f35b3480156101f657600080fd5b50610211600480360381019061020c919061277f565b6106a5565b005b34801561021f57600080fd5b5061023a600480360381019061023591906126ca565b6107bd565b604051610249939291906127ce565b60405180910390f35b34801561025e57600080fd5b5061026761088f565b604051610274919061280c565b60405180910390f35b34801561028957600080fd5b506102a4600480360381019061029f9190612827565b61089c565b005b3480156102b257600080fd5b506102cd60048036038101906102c8919061277f565b6108fc565b6040516102da919061280c565b60405180910390f35b3480156102ef57600080fd5b5061030a60048036038101906103059190612827565b6109a1565b005b34801561031857600080fd5b50610333600480360381019061032e91906126ca565b6109c1565b005b34801561034157600080fd5b5061035c600480360381019061035791906126ca565b610a1d565b604051610369919061280c565b60405180910390f35b34801561037e57600080fd5b50610399600480360381019061039491906129af565b610a8e565b6040516103a6919061280c565b60405180910390f35b3480156103bb57600080fd5b506103d660048036038101906103d191906126ca565b610b70565b6040516103e39190612738565b60405180910390f35b3480156103f857600080fd5b50610413600480360381019061040e91906129f8565b610c22565b604051610420919061280c565b60405180910390f35b34801561043557600080fd5b5061043e610cda565b005b34801561044c57600080fd5b50610455610cee565b6040516104629190612738565b60405180910390f35b34801561047757600080fd5b50610480610d18565b60405161048d9190612672565b60405180910390f35b3480156104a257600080fd5b506104bd60048036038101906104b89190612a51565b610daa565b005b3480156104cb57600080fd5b506104e660048036038101906104e19190612b32565b610dc0565b005b3480156104f457600080fd5b5061050f600480360381019061050a91906126ca565b610e22565b60405161051c9190612672565b60405180910390f35b61053f600480360381019061053a9190612bb5565b610f12565b60405161054c919061280c565b60405180910390f35b34801561056157600080fd5b5061057c60048036038101906105779190612c24565b611086565b60405161058991906125be565b60405180910390f35b34801561059e57600080fd5b506105b960048036038101906105b491906129f8565b61111a565b005b60006105c68261119e565b9050919050565b6060600080546105dc90612c93565b80601f016020809104026020016040519081016040528092919081815260200182805461060890612c93565b80156106555780601f1061062a57610100808354040283529160200191610655565b820191906000526020600020905b81548152906001019060200180831161063857829003601f168201915b5050505050905090565b600061066a82611218565b6004600083815260200190815260200160002060009054906101000a900473ffffffffffffffffffffffffffffffffffffffff169050919050565b60006106b082610b70565b90508073ffffffffffffffffffffffffffffffffffffffff168373ffffffffffffffffffffffffffffffffffffffff161415610721576040517f08c379a000000000000000000000000000000000000000000000000000000000815260040161071890612d37565b60405180910390fd5b8073ffffffffffffffffffffffffffffffffffffffff16610740611263565b73ffffffffffffffffffffffffffffffffffffffff16148061076f575061076e81610769611263565b611086565b5b6107ae576040517f08c379a00000000000000000000000000000000000000000000000000000000081526004016107a590612dc9565b60405180910390fd5b6107b8838361126b565b505050565b600d6020528060005260406000206000915090508060000154908060010160009054906101000a900473ffffffffffffffffffffffffffffffffffffffff169080600201805461080c90612c93565b80601f016020809104026020016040519081016040528092919081815260200182805461083890612c93565b80156108855780601f1061085a57610100808354040283529160200191610885565b820191906000526020600020905b81548152906001019060200180831161086857829003601f168201915b5050505050905083565b6000600980549050905090565b6108ad6108a7611263565b82611324565b6108ec576040517f08c379a00000000000000000000000000000000000000000000000000000000081526004016108e390612e5b565b60405180910390fd5b6108f78383836113b9565b505050565b600061090783610c22565b8210610948576040517f08c379a000000000000000000000000000000000000000000000000000000000815260040161093f90612eed565b60405180910390fd5b600760008473ffffffffffffffffffffffffffffffffffffffff1673ffffffffffffffffffffffffffffffffffffffff168152602001908152602001600020600083815260200190815260200160002054905092915050565b6109bc83838360405180602001604052806000815250610dc0565b505050565b6109d26109cc611263565b82611324565b610a11576040517f08c379a0000000000000000000000000000000000000000000000000000000008152600401610a0890612e5b565b60405180910390fd5b610a1a81611620565b50565b6000610a2761088f565b8210610a68576040517f08c379a0000000000000000000000000000000000000000000000000000000008152600401610a5f90612f7f565b60405180910390fd5b60098281548110610a7c57610a7b612f9f565b5b90600052602060002001549050919050565b6000610a9a600b61173d565b6000610aa6600b611753565b9050610ab23382611761565b60405180606001604052808281526020013373ffffffffffffffffffffffffffffffffffffffff16815260200184815250600d60008381526020019081526020016000206000820151816000015560208201518160010160006101000a81548173ffffffffffffffffffffffffffffffffffffffff021916908373ffffffffffffffffffffffffffffffffffffffff1602179055506040820151816002019080519060200190610b63929190612467565b5090505080915050919050565b6000806002600084815260200190815260200160002060009054906101000a900473ffffffffffffffffffffffffffffffffffffffff169050600073ffffffffffffffffffffffffffffffffffffffff168173ffffffffffffffffffffffffffffffffffffffff161415610c19576040517f08c379a0000000000000000000000000000000000000000000000000000000008152600401610c109061301a565b60405180910390fd5b80915050919050565b60008073ffffffffffffffffffffffffffffffffffffffff168273ffffffffffffffffffffffffffffffffffffffff161415610c93576040517f08c379a0000000000000000000000000000000000000000000000000000000008152600401610c8a906130ac565b60405180910390fd5b600360008373ffffffffffffffffffffffffffffffffffffffff1673ffffffffffffffffffffffffffffffffffffffff168152602001908152602001600020549050919050565b610ce261177f565b610cec60006117fd565b565b6000600660009054906101000a900473ffffffffffffffffffffffffffffffffffffffff16905090565b606060018054610d2790612c93565b80601f0160208091040260200160405190810160405280929190818152602001828054610d5390612c93565b8015610da05780601f10610d7557610100808354040283529160200191610da0565b820191906000526020600020905b815481529060010190602001808311610d8357829003601f168201915b5050505050905090565b610dbc610db5611263565b83836118c3565b5050565b610dd1610dcb611263565b83611324565b610e10576040517f08c379a0000000000000000000000000000000000000000000000000000000008152600401610e0790612e5b565b60405180910390fd5b610e1c84848484611a30565b50505050565b6060610e2d82611a8c565b610e6c576040517f08c379a0000000000000000000000000000000000000000000000000000000008152600401610e639061313e565b60405180910390fd5b600d60008381526020019081526020016000206002018054610e8d90612c93565b80601f0160208091040260200160405190810160405280929190818152602001828054610eb990612c93565b8015610f065780601f10610edb57610100808354040283529160200191610f06565b820191906000526020600020905b815481529060010190602001808311610ee957829003601f168201915b50505050509050919050565b600082341015610f57576040517f08c379a0000000000000000000000000000000000000000000000000000000008152600401610f4e906131d0565b60405180910390fd5b60008490508073ffffffffffffffffffffffffffffffffffffffff166108fc859081150290604051600060405180830381858888f19350505050158015610fa2573d6000803e3d6000fd5b50610fad600b61173d565b6000610fb9600b611753565b9050610fc53382611761565b60405180606001604052808281526020013373ffffffffffffffffffffffffffffffffffffffff16815260200185815250600d60008381526020019081526020016000206000820151816000015560208201518160010160006101000a81548173ffffffffffffffffffffffffffffffffffffffff021916908373ffffffffffffffffffffffffffffffffffffffff1602179055506040820151816002019080519060200190611076929190612467565b5090505080925050509392505050565b6000600560008473ffffffffffffffffffffffffffffffffffffffff1673ffffffffffffffffffffffffffffffffffffffff16815260200190815260200160002060008373ffffffffffffffffffffffffffffffffffffffff1673ffffffffffffffffffffffffffffffffffffffff16815260200190815260200160002060009054906101000a900460ff16905092915050565b61112261177f565b600073ffffffffffffffffffffffffffffffffffffffff168173ffffffffffffffffffffffffffffffffffffffff161415611192576040517f08c379a000000000000000000000000000000000000000000000000000000000815260040161118990613262565b60405180910390fd5b61119b816117fd565b50565b60007f780e9d63000000000000000000000000000000000000000000000000000000007bffffffffffffffffffffffffffffffffffffffffffffffffffffffff1916827bffffffffffffffffffffffffffffffffffffffffffffffffffffffff19161480611211575061121082611af8565b5b9050919050565b61122181611a8c565b611260576040517f08c379a00000000000000000000000000000000000000000000000000000000081526004016112579061301a565b60405180910390fd5b50565b600033905090565b816004600083815260200190815260200160002060006101000a81548173ffffffffffffffffffffffffffffffffffffffff021916908373ffffffffffffffffffffffffffffffffffffffff160217905550808273ffffffffffffffffffffffffffffffffffffffff166112de83610b70565b73ffffffffffffffffffffffffffffffffffffffff167f8c5be1e5ebec7d5bd14f71427d1e84f3dd0314c0f7b2291e5b200ac8c7c3b92560405160405180910390a45050565b60008061133083610b70565b90508073ffffffffffffffffffffffffffffffffffffffff168473ffffffffffffffffffffffffffffffffffffffff16148061137257506113718185611086565b5b806113b057508373ffffffffffffffffffffffffffffffffffffffff166113988461065f565b73ffffffffffffffffffffffffffffffffffffffff16145b91505092915050565b8273ffffffffffffffffffffffffffffffffffffffff166113d982610b70565b73ffffffffffffffffffffffffffffffffffffffff161461142f576040517f08c379a0000000000000000000000000000000000000000000000000000000008152600401611426906132f4565b60405180910390fd5b600073ffffffffffffffffffffffffffffffffffffffff168273ffffffffffffffffffffffffffffffffffffffff16141561149f576040517f08c379a000000000000000000000000000000000000000000000000000000000815260040161149690613386565b60405180910390fd5b6114aa838383611bda565b6114b560008261126b565b6001600360008573ffffffffffffffffffffffffffffffffffffffff1673ffffffffffffffffffffffffffffffffffffffff168152602001908152602001600020600082825461150591906133d5565b925050819055506001600360008473ffffffffffffffffffffffffffffffffffffffff1673ffffffffffffffffffffffffffffffffffffffff168152602001908152602001600020600082825461155c9190613409565b92505081905550816002600083815260200190815260200160002060006101000a81548173ffffffffffffffffffffffffffffffffffffffff021916908373ffffffffffffffffffffffffffffffffffffffff160217905550808273ffffffffffffffffffffffffffffffffffffffff168473ffffffffffffffffffffffffffffffffffffffff167fddf252ad1be2c89b69c2b068fc378daa952ba7f163c4a11628f55a4df523b3ef60405160405180910390a461161b838383611bea565b505050565b600061162b82610b70565b905061163981600084611bda565b61164460008361126b565b6001600360008373ffffffffffffffffffffffffffffffffffffffff1673ffffffffffffffffffffffffffffffffffffffff168152602001908152602001600020600082825461169491906133d5565b925050819055506002600083815260200190815260200160002060006101000a81549073ffffffffffffffffffffffffffffffffffffffff021916905581600073ffffffffffffffffffffffffffffffffffffffff168273ffffffffffffffffffffffffffffffffffffffff167fddf252ad1be2c89b69c2b068fc378daa952ba7f163c4a11628f55a4df523b3ef60405160405180910390a461173981600084611bea565b5050565b6001816000016000828254019250508190555050565b600081600001549050919050565b61177b828260405180602001604052806000815250611bef565b5050565b611787611263565b73ffffffffffffffffffffffffffffffffffffffff166117a5610cee565b73ffffffffffffffffffffffffffffffffffffffff16146117fb576040517f08c379a00000000000000000000000000000000000000000000000000000000081526004016117f2906134ab565b60405180910390fd5b565b6000600660009054906101000a900473ffffffffffffffffffffffffffffffffffffffff16905081600660006101000a81548173ffffffffffffffffffffffffffffffffffffffff021916908373ffffffffffffffffffffffffffffffffffffffff1602179055508173ffffffffffffffffffffffffffffffffffffffff168173ffffffffffffffffffffffffffffffffffffffff167f8be0079c531659141344cd1fd0a4f28419497f9722a3daafe3b4186f6b6457e060405160405180910390a35050565b8173ffffffffffffffffffffffffffffffffffffffff168373ffffffffffffffffffffffffffffffffffffffff161415611932576040517f08c379a000000000000000000000000000000000000000000000000000000000815260040161192990613517565b60405180910390fd5b80600560008573ffffffffffffffffffffffffffffffffffffffff1673ffffffffffffffffffffffffffffffffffffffff16815260200190815260200160002060008473ffffffffffffffffffffffffffffffffffffffff1673ffffffffffffffffffffffffffffffffffffffff16815260200190815260200160002060006101000a81548160ff0219169083151502179055508173ffffffffffffffffffffffffffffffffffffffff168373ffffffffffffffffffffffffffffffffffffffff167f17307eab39ab6107e8899845ad3d59bd9653f200f220920489ca2b5937696c3183604051611a2391906125be565b60405180910390a3505050565b611a3b8484846113b9565b611a4784848484611c4a565b611a86576040517f08c379a0000000000000000000000000000000000000000000000000000000008152600401611a7d906135a9565b60405180910390fd5b50505050565b60008073ffffffffffffffffffffffffffffffffffffffff166002600084815260200190815260200160002060009054906101000a900473ffffffffffffffffffffffffffffffffffffffff1673ffffffffffffffffffffffffffffffffffffffff1614159050919050565b60007f80ac58cd000000000000000000000000000000000000000000000000000000007bffffffffffffffffffffffffffffffffffffffffffffffffffffffff1916827bffffffffffffffffffffffffffffffffffffffffffffffffffffffff19161480611bc357507f5b5e139f000000000000000000000000000000000000000000000000000000007bffffffffffffffffffffffffffffffffffffffffffffffffffffffff1916827bffffffffffffffffffffffffffffffffffffffffffffffffffffffff1916145b80611bd35750611bd282611de1565b5b9050919050565b611be5838383611e4b565b505050565b505050565b611bf98383611f5f565b611c066000848484611c4a565b611c45576040517f08c379a0000000000000000000000000000000000000000000000000000000008152600401611c3c906135a9565b60405180910390fd5b505050565b6000611c6b8473ffffffffffffffffffffffffffffffffffffffff16612139565b15611dd4578373ffffffffffffffffffffffffffffffffffffffff1663150b7a02611c94611263565b8786866040518563ffffffff1660e01b8152600401611cb6949392919061361e565b602060405180830381600087803b158015611cd057600080fd5b505af1925050508015611d0157506040513d601f19601f82011682018060405250810190611cfe919061367f565b60015b611d84573d8060008114611d31576040519150601f19603f3d011682016040523d82523d6000602084013e611d36565b606091505b50600081511415611d7c576040517f08c379a0000000000000000000000000000000000000000000000000000000008152600401611d73906135a9565b60405180910390fd5b805181602001fd5b63150b7a0260e01b7bffffffffffffffffffffffffffffffffffffffffffffffffffffffff1916817bffffffffffffffffffffffffffffffffffffffffffffffffffffffff191614915050611dd9565b600190505b949350505050565b60007f01ffc9a7000000000000000000000000000000000000000000000000000000007bffffffffffffffffffffffffffffffffffffffffffffffffffffffff1916827bffffffffffffffffffffffffffffffffffffffffffffffffffffffff1916149050919050565b611e5683838361215c565b600073ffffffffffffffffffffffffffffffffffffffff168373ffffffffffffffffffffffffffffffffffffffff161415611e9957611e9481612161565b611ed8565b8173ffffffffffffffffffffffffffffffffffffffff168373ffffffffffffffffffffffffffffffffffffffff1614611ed757611ed683826121aa565b5b5b600073ffffffffffffffffffffffffffffffffffffffff168273ffffffffffffffffffffffffffffffffffffffff161415611f1b57611f1681612317565b611f5a565b8273ffffffffffffffffffffffffffffffffffffffff168273ffffffffffffffffffffffffffffffffffffffff1614611f5957611f5882826123e8565b5b5b505050565b600073ffffffffffffffffffffffffffffffffffffffff168273ffffffffffffffffffffffffffffffffffffffff161415611fcf576040517f08c379a0000000000000000000000000000000000000000000000000000000008152600401611fc6906136f8565b60405180910390fd5b611fd881611a8c565b15612018576040517f08c379a000000000000000000000000000000000000000000000000000000000815260040161200f90613764565b60405180910390fd5b61202460008383611bda565b6001600360008473ffffffffffffffffffffffffffffffffffffffff1673ffffffffffffffffffffffffffffffffffffffff16815260200190815260200160002060008282546120749190613409565b92505081905550816002600083815260200190815260200160002060006101000a81548173ffffffffffffffffffffffffffffffffffffffff021916908373ffffffffffffffffffffffffffffffffffffffff160217905550808273ffffffffffffffffffffffffffffffffffffffff16600073ffffffffffffffffffffffffffffffffffffffff167fddf252ad1be2c89b69c2b068fc378daa952ba7f163c4a11628f55a4df523b3ef60405160405180910390a461213560008383611bea565b5050565b6000808273ffffffffffffffffffffffffffffffffffffffff163b119050919050565b505050565b600980549050600a600083815260200190815260200160002081905550600981908060018154018082558091505060019003906000526020600020016000909190919091505550565b600060016121b784610c22565b6121c191906133d5565b90506000600860008481526020019081526020016000205490508181146122a6576000600760008673ffffffffffffffffffffffffffffffffffffffff1673ffffffffffffffffffffffffffffffffffffffff168152602001908152602001600020600084815260200190815260200160002054905080600760008773ffffffffffffffffffffffffffffffffffffffff1673ffffffffffffffffffffffffffffffffffffffff168152602001908152602001600020600084815260200190815260200160002081905550816008600083815260200190815260200160002081905550505b6008600084815260200190815260200160002060009055600760008573ffffffffffffffffffffffffffffffffffffffff1673ffffffffffffffffffffffffffffffffffffffff16815260200190815260200160002060008381526020019081526020016000206000905550505050565b6000600160098054905061232b91906133d5565b90506000600a600084815260200190815260200160002054905060006009838154811061235b5761235a612f9f565b5b90600052602060002001549050806009838154811061237d5761237c612f9f565b5b906000526020600020018190555081600a600083815260200190815260200160002081905550600a60008581526020019081526020016000206000905560098054806123cc576123cb613784565b5b6001900381819060005260206000200160009055905550505050565b60006123f383610c22565b905081600760008573ffffffffffffffffffffffffffffffffffffffff1673ffffffffffffffffffffffffffffffffffffffff168152602001908152602001600020600083815260200190815260200160002081905550806008600084815260200190815260200160002081905550505050565b82805461247390612c93565b90600052602060002090601f01602090048101928261249557600085556124dc565b82601f106124ae57805160ff19168380011785556124dc565b828001600101855582156124dc579182015b828111156124db5782518255916020019190600101906124c0565b5b5090506124e991906124ed565b5090565b5b808211156125065760008160009055506001016124ee565b5090565b6000604051905090565b600080fd5b600080fd5b60007fffffffff0000000000000000000000000000000000000000000000000000000082169050919050565b6125538161251e565b811461255e57600080fd5b50565b6000813590506125708161254a565b92915050565b60006020828403121561258c5761258b612514565b5b600061259a84828501612561565b91505092915050565b60008115159050919050565b6125b8816125a3565b82525050565b60006020820190506125d360008301846125af565b92915050565b600081519050919050565b600082825260208201905092915050565b60005b838110156126135780820151818401526020810190506125f8565b83811115612622576000848401525b50505050565b6000601f19601f8301169050919050565b6000612644826125d9565b61264e81856125e4565b935061265e8185602086016125f5565b61266781612628565b840191505092915050565b6000602082019050818103600083015261268c8184612639565b905092915050565b6000819050919050565b6126a781612694565b81146126b257600080fd5b50565b6000813590506126c48161269e565b92915050565b6000602082840312156126e0576126df612514565b5b60006126ee848285016126b5565b91505092915050565b600073ffffffffffffffffffffffffffffffffffffffff82169050919050565b6000612722826126f7565b9050919050565b61273281612717565b82525050565b600060208201905061274d6000830184612729565b92915050565b61275c81612717565b811461276757600080fd5b50565b60008135905061277981612753565b92915050565b6000806040838503121561279657612795612514565b5b60006127a48582860161276a565b92505060206127b5858286016126b5565b9150509250929050565b6127c881612694565b82525050565b60006060820190506127e360008301866127bf565b6127f06020830185612729565b81810360408301526128028184612639565b9050949350505050565b600060208201905061282160008301846127bf565b92915050565b6000806000606084860312156128405761283f612514565b5b600061284e8682870161276a565b935050602061285f8682870161276a565b9250506040612870868287016126b5565b9150509250925092565b600080fd5b600080fd5b7f4e487b7100000000000000000000000000000000000000000000000000000000600052604160045260246000fd5b6128bc82612628565b810181811067ffffffffffffffff821117156128db576128da612884565b5b80604052505050565b60006128ee61250a565b90506128fa82826128b3565b919050565b600067ffffffffffffffff82111561291a57612919612884565b5b61292382612628565b9050602081019050919050565b82818337600083830152505050565b600061295261294d846128ff565b6128e4565b90508281526020810184848401111561296e5761296d61287f565b5b612979848285612930565b509392505050565b600082601f8301126129965761299561287a565b5b81356129a684826020860161293f565b91505092915050565b6000602082840312156129c5576129c4612514565b5b600082013567ffffffffffffffff8111156129e3576129e2612519565b5b6129ef84828501612981565b91505092915050565b600060208284031215612a0e57612a0d612514565b5b6000612a1c8482850161276a565b91505092915050565b612a2e816125a3565b8114612a3957600080fd5b50565b600081359050612a4b81612a25565b92915050565b60008060408385031215612a6857612a67612514565b5b6000612a768582860161276a565b9250506020612a8785828601612a3c565b9150509250929050565b600067ffffffffffffffff821115612aac57612aab612884565b5b612ab582612628565b9050602081019050919050565b6000612ad5612ad084612a91565b6128e4565b905082815260208101848484011115612af157612af061287f565b5b612afc848285612930565b509392505050565b600082601f830112612b1957612b1861287a565b5b8135612b29848260208601612ac2565b91505092915050565b60008060008060808587031215612b4c57612b4b612514565b5b6000612b5a8782880161276a565b9450506020612b6b8782880161276a565b9350506040612b7c878288016126b5565b925050606085013567ffffffffffffffff811115612b9d57612b9c612519565b5b612ba987828801612b04565b91505092959194509250565b600080600060608486031215612bce57612bcd612514565b5b6000612bdc8682870161276a565b9350506020612bed868287016126b5565b925050604084013567ffffffffffffffff811115612c0e57612c0d612519565b5b612c1a86828701612981565b9150509250925092565b60008060408385031215612c3b57612c3a612514565b5b6000612c498582860161276a565b9250506020612c5a8582860161276a565b9150509250929050565b7f4e487b7100000000000000000000000000000000000000000000000000000000600052602260045260246000fd5b60006002820490506001821680612cab57607f821691505b60208210811415612cbf57612cbe612c64565b5b50919050565b7f4552433732313a20617070726f76616c20746f2063757272656e74206f776e6560008201527f7200000000000000000000000000000000000000000000000000000000000000602082015250565b6000612d216021836125e4565b9150612d2c82612cc5565b604082019050919050565b60006020820190508181036000830152612d5081612d14565b9050919050565b7f4552433732313a20617070726f76652063616c6c6572206973206e6f7420746f60008201527f6b656e206f776e6572206e6f7220617070726f76656420666f7220616c6c0000602082015250565b6000612db3603e836125e4565b9150612dbe82612d57565b604082019050919050565b60006020820190508181036000830152612de281612da6565b9050919050565b7f4552433732313a2063616c6c6572206973206e6f7420746f6b656e206f776e6560008201527f72206e6f7220617070726f766564000000000000000000000000000000000000602082015250565b6000612e45602e836125e4565b9150612e5082612de9565b604082019050919050565b60006020820190508181036000830152612e7481612e38565b9050919050565b7f455243373231456e756d657261626c653a206f776e657220696e646578206f7560008201527f74206f6620626f756e6473000000000000000000000000000000000000000000602082015250565b6000612ed7602b836125e4565b9150612ee282612e7b565b604082019050919050565b60006020820190508181036000830152612f0681612eca565b9050919050565b7f455243373231456e756d657261626c653a20676c6f62616c20696e646578206f60008201527f7574206f6620626f756e64730000000000000000000000000000000000000000602082015250565b6000612f69602c836125e4565b9150612f7482612f0d565b604082019050919050565b60006020820190508181036000830152612f9881612f5c565b9050919050565b7f4e487b7100000000000000000000000000000000000000000000000000000000600052603260045260246000fd5b7f4552433732313a20696e76616c696420746f6b656e2049440000000000000000600082015250565b60006130046018836125e4565b915061300f82612fce565b602082019050919050565b6000602082019050818103600083015261303381612ff7565b9050919050565b7f4552433732313a2061646472657373207a65726f206973206e6f74206120766160008201527f6c6964206f776e65720000000000000000000000000000000000000000000000602082015250565b60006130966029836125e4565b91506130a18261303a565b604082019050919050565b600060208201905081810360008301526130c581613089565b9050919050565b7f4552433732314d657461646174613a2055524920717565727920666f72206e6f60008201527f6e6578697374656e7420746f6b656e0000000000000000000000000000000000602082015250565b6000613128602f836125e4565b9150613133826130cc565b604082019050919050565b600060208201905081810360008301526131578161311b565b9050919050565b7f416d6f756e74206f662065746865722073656e74206e6f7420636f727265637460008201527f2e00000000000000000000000000000000000000000000000000000000000000602082015250565b60006131ba6021836125e4565b91506131c58261315e565b604082019050919050565b600060208201905081810360008301526131e9816131ad565b9050919050565b7f4f776e61626c653a206e6577206f776e657220697320746865207a65726f206160008201527f6464726573730000000000000000000000000000000000000000000000000000602082015250565b600061324c6026836125e4565b9150613257826131f0565b604082019050919050565b6000602082019050818103600083015261327b8161323f565b9050919050565b7f4552433732313a207472616e736665722066726f6d20696e636f72726563742060008201527f6f776e6572000000000000000000000000000000000000000000000000000000602082015250565b60006132de6025836125e4565b91506132e982613282565b604082019050919050565b6000602082019050818103600083015261330d816132d1565b9050919050565b7f4552433732313a207472616e7366657220746f20746865207a65726f2061646460008201527f7265737300000000000000000000000000000000000000000000000000000000602082015250565b60006133706024836125e4565b915061337b82613314565b604082019050919050565b6000602082019050818103600083015261339f81613363565b9050919050565b7f4e487b7100000000000000000000000000000000000000000000000000000000600052601160045260246000fd5b60006133e082612694565b91506133eb83612694565b9250828210156133fe576133fd6133a6565b5b828203905092915050565b600061341482612694565b915061341f83612694565b9250827fffffffffffffffffffffffffffffffffffffffffffffffffffffffffffffffff03821115613454576134536133a6565b5b828201905092915050565b7f4f776e61626c653a2063616c6c6572206973206e6f7420746865206f776e6572600082015250565b60006134956020836125e4565b91506134a08261345f565b602082019050919050565b600060208201905081810360008301526134c481613488565b9050919050565b7f4552433732313a20617070726f766520746f2063616c6c657200000000000000600082015250565b60006135016019836125e4565b915061350c826134cb565b602082019050919050565b60006020820190508181036000830152613530816134f4565b9050919050565b7f4552433732313a207472616e7366657220746f206e6f6e20455243373231526560008201527f63656976657220696d706c656d656e7465720000000000000000000000000000602082015250565b60006135936032836125e4565b915061359e82613537565b604082019050919050565b600060208201905081810360008301526135c281613586565b9050919050565b600081519050919050565b600082825260208201905092915050565b60006135f0826135c9565b6135fa81856135d4565b935061360a8185602086016125f5565b61361381612628565b840191505092915050565b60006080820190506136336000830187612729565b6136406020830186612729565b61364d60408301856127bf565b818103606083015261365f81846135e5565b905095945050505050565b6000815190506136798161254a565b92915050565b60006020828403121561369557613694612514565b5b60006136a38482850161366a565b91505092915050565b7f4552433732313a206d696e7420746f20746865207a65726f2061646472657373600082015250565b60006136e26020836125e4565b91506136ed826136ac565b602082019050919050565b60006020820190508181036000830152613711816136d5565b9050919050565b7f4552433732313a20746f6b656e20616c7265616479206d696e74656400000000600082015250565b600061374e601c836125e4565b915061375982613718565b602082019050919050565b6000602082019050818103600083015261377d81613741565b9050919050565b7f4e487b7100000000000000000000000000000000000000000000000000000000600052603160045260246000fdfea2646970667358221220960ad36c0a21c550811bd0d746e25daf04569d12f0cff0e19cc93327e74d55dd64736f6c63430008090033",
  "linkReferences": {},
  "deployedLinkReferences": {}
}