{
  "_format": "hh-sol-artifact-1",
  "contractName": "TokenContract721",
  "sourceName": "contracts/TokenContract721.sol",
  "abi": [
    {
      "inputs": [
        {
          "internalType": "string",
          "name": "name",
          "type": "string"
        },
        {
          "internalType": "string",
          "name": "symbol",
          "type": "string"
        }
      ],
      "stateMutability": "nonpayable",
      "type": "constructor"
    },
    {
      "anonymous": false,
      "inputs": [
        {
          "indexed": true,
          "internalType": "address",
          "name": "owner",
          "type": "address"
        },
        {
          "indexed": true,
          "internalType": "address",
          "name": "approved",
          "type": "address"
        },
        {
          "indexed": true,
          "internalType": "uint256",
          "name": "tokenId",
          "type": "uint256"
        }
      ],
      "name": "Approval",
      "type": "event"
    },
    {
      "anonymous": false,
      "inputs": [
        {
          "indexed": true,
          "internalType": "address",
          "name": "owner",
          "type": "address"
        },
        {
          "indexed": true,
          "internalType": "address",
          "name": "operator",
          "type": "address"
        },
        {
          "indexed": false,
          "internalType": "bool",
          "name": "approved",
          "type": "bool"
        }
      ],
      "name": "ApprovalForAll",
      "type": "event"
    },
    {
      "anonymous": false,
      "inputs": [
        {
          "indexed": true,
          "internalType": "address",
          "name": "previousOwner",
          "type": "address"
        },
        {
          "indexed": true,
          "internalType": "address",
          "name": "newOwner",
          "type": "address"
        }
      ],
      "name": "OwnershipTransferred",
      "type": "event"
    },
    {
      "anonymous": false,
      "inputs": [
        {
          "indexed": true,
          "internalType": "address",
          "name": "from",
          "type": "address"
        },
        {
          "indexed": true,
          "internalType": "address",
          "name": "to",
          "type": "address"
        },
        {
          "indexed": true,
          "internalType": "uint256",
          "name": "tokenId",
          "type": "uint256"
        }
      ],
      "name": "Transfer",
      "type": "event"
    },
    {
      "inputs": [
        {
          "internalType": "uint256",
          "name": "",
          "type": "uint256"
        }
      ],
      "name": "Items",
      "outputs": [
        {
          "internalType": "uint256",
          "name": "id",
          "type": "uint256"
        },
        {
          "internalType": "address",
          "name": "creator",
          "type": "address"
        },
        {
          "internalType": "string",
          "name": "uri",
          "type": "string"
        }
      ],
      "stateMutability": "view",
      "type": "function"
    },
    {
      "inputs": [
        {
          "internalType": "address",
          "name": "to",
          "type": "address"
        },
        {
          "internalType": "uint256",
          "name": "tokenId",
          "type": "uint256"
        }
      ],
      "name": "approve",
      "outputs": [],
      "stateMutability": "nonpayable",
      "type": "function"
    },
    {
      "inputs": [
        {
          "internalType": "address",
          "name": "owner",
          "type": "address"
        }
      ],
      "name": "balanceOf",
      "outputs": [
        {
          "internalType": "uint256",
          "name": "",
          "type": "uint256"
        }
      ],
      "stateMutability": "view",
      "type": "function"
    },
    {
      "inputs": [
        {
          "internalType": "uint256",
          "name": "tokenId",
          "type": "uint256"
        }
      ],
      "name": "burn",
      "outputs": [],
      "stateMutability": "nonpayable",
      "type": "function"
    },
    {
      "inputs": [
        {
          "internalType": "string",
          "name": "uri",
          "type": "string"
        },
        {
          "internalType": "uint256",
          "name": "askingPrice",
          "type": "uint256"
        },
        {
          "internalType": "bool",
          "name": "isLazy",
          "type": "bool"
        }
      ],
      "name": "createItem",
      "outputs": [
        {
          "internalType": "uint256",
          "name": "",
          "type": "uint256"
        }
      ],
      "stateMutability": "nonpayable",
      "type": "function"
    },
    {
      "inputs": [
        {
          "internalType": "string",
          "name": "uri",
          "type": "string"
        }
      ],
      "name": "directMint",
      "outputs": [
        {
          "internalType": "uint256",
          "name": "",
          "type": "uint256"
        }
      ],
      "stateMutability": "nonpayable",
      "type": "function"
    },
    {
      "inputs": [
        {
          "internalType": "uint256",
          "name": "tokenId",
          "type": "uint256"
        }
      ],
      "name": "getApproved",
      "outputs": [
        {
          "internalType": "address",
          "name": "",
          "type": "address"
        }
      ],
      "stateMutability": "view",
      "type": "function"
    },
    {
      "inputs": [],
      "name": "getId",
      "outputs": [
        {
          "internalType": "uint256",
          "name": "",
          "type": "uint256"
        }
      ],
      "stateMutability": "view",
      "type": "function"
    },
    {
      "inputs": [
        {
          "internalType": "address",
          "name": "owner",
          "type": "address"
        },
        {
          "internalType": "address",
          "name": "operator",
          "type": "address"
        }
      ],
      "name": "isApprovedForAll",
      "outputs": [
        {
          "internalType": "bool",
          "name": "",
          "type": "bool"
        }
      ],
      "stateMutability": "view",
      "type": "function"
    },
    {
      "inputs": [
        {
          "internalType": "uint256",
          "name": "",
          "type": "uint256"
        }
      ],
      "name": "itemsForSale",
      "outputs": [
        {
          "internalType": "uint256",
          "name": "id",
          "type": "uint256"
        },
        {
          "internalType": "string",
          "name": "uri",
          "type": "string"
        },
        {
          "internalType": "uint256",
          "name": "askingPrice",
          "type": "uint256"
        },
        {
          "internalType": "address payable",
          "name": "creator",
          "type": "address"
        },
        {
          "internalType": "bool",
          "name": "inMinted",
          "type": "bool"
        }
      ],
      "stateMutability": "view",
      "type": "function"
    },
    {
      "inputs": [
        {
          "internalType": "uint256",
          "name": "_id",
          "type": "uint256"
        }
      ],
      "name": "lazyMint",
      "outputs": [
        {
          "internalType": "uint256",
          "name": "",
          "type": "uint256"
        }
      ],
      "stateMutability": "payable",
      "type": "function"
    },
    {
      "inputs": [],
      "name": "name",
      "outputs": [
        {
          "internalType": "string",
          "name": "",
          "type": "string"
        }
      ],
      "stateMutability": "view",
      "type": "function"
    },
    {
      "inputs": [],
      "name": "owner",
      "outputs": [
        {
          "internalType": "address",
          "name": "",
          "type": "address"
        }
      ],
      "stateMutability": "view",
      "type": "function"
    },
    {
      "inputs": [
        {
          "internalType": "uint256",
          "name": "tokenId",
          "type": "uint256"
        }
      ],
      "name": "ownerOf",
      "outputs": [
        {
          "internalType": "address",
          "name": "",
          "type": "address"
        }
      ],
      "stateMutability": "view",
      "type": "function"
    },
    {
      "inputs": [],
      "name": "renounceOwnership",
      "outputs": [],
      "stateMutability": "nonpayable",
      "type": "function"
    },
    {
      "inputs": [
        {
          "internalType": "address",
          "name": "from",
          "type": "address"
        },
        {
          "internalType": "address",
          "name": "to",
          "type": "address"
        },
        {
          "internalType": "uint256",
          "name": "tokenId",
          "type": "uint256"
        }
      ],
      "name": "safeTransferFrom",
      "outputs": [],
      "stateMutability": "nonpayable",
      "type": "function"
    },
    {
      "inputs": [
        {
          "internalType": "address",
          "name": "from",
          "type": "address"
        },
        {
          "internalType": "address",
          "name": "to",
          "type": "address"
        },
        {
          "internalType": "uint256",
          "name": "tokenId",
          "type": "uint256"
        },
        {
          "internalType": "bytes",
          "name": "data",
          "type": "bytes"
        }
      ],
      "name": "safeTransferFrom",
      "outputs": [],
      "stateMutability": "nonpayable",
      "type": "function"
    },
    {
      "inputs": [
        {
          "internalType": "address",
          "name": "operator",
          "type": "address"
        },
        {
          "internalType": "bool",
          "name": "approved",
          "type": "bool"
        }
      ],
      "name": "setApprovalForAll",
      "outputs": [],
      "stateMutability": "nonpayable",
      "type": "function"
    },
    {
      "inputs": [
        {
          "internalType": "bytes4",
          "name": "interfaceId",
          "type": "bytes4"
        }
      ],
      "name": "supportsInterface",
      "outputs": [
        {
          "internalType": "bool",
          "name": "",
          "type": "bool"
        }
      ],
      "stateMutability": "view",
      "type": "function"
    },
    {
      "inputs": [],
      "name": "symbol",
      "outputs": [
        {
          "internalType": "string",
          "name": "",
          "type": "string"
        }
      ],
      "stateMutability": "view",
      "type": "function"
    },
    {
      "inputs": [
        {
          "internalType": "uint256",
          "name": "index",
          "type": "uint256"
        }
      ],
      "name": "tokenByIndex",
      "outputs": [
        {
          "internalType": "uint256",
          "name": "",
          "type": "uint256"
        }
      ],
      "stateMutability": "view",
      "type": "function"
    },
    {
      "inputs": [
        {
          "internalType": "address",
          "name": "owner",
          "type": "address"
        },
        {
          "internalType": "uint256",
          "name": "index",
          "type": "uint256"
        }
      ],
      "name": "tokenOfOwnerByIndex",
      "outputs": [
        {
          "internalType": "uint256",
          "name": "",
          "type": "uint256"
        }
      ],
      "stateMutability": "view",
      "type": "function"
    },
    {
      "inputs": [
        {
          "internalType": "uint256",
          "name": "tokenId",
          "type": "uint256"
        }
      ],
      "name": "tokenURI",
      "outputs": [
        {
          "internalType": "string",
          "name": "",
          "type": "string"
        }
      ],
      "stateMutability": "view",
      "type": "function"
    },
    {
      "inputs": [],
      "name": "totalSupply",
      "outputs": [
        {
          "internalType": "uint256",
          "name": "",
          "type": "uint256"
        }
      ],
      "stateMutability": "view",
      "type": "function"
    },
    {
      "inputs": [
        {
          "internalType": "address",
          "name": "from",
          "type": "address"
        },
        {
          "internalType": "address",
          "name": "to",
          "type": "address"
        },
        {
          "internalType": "uint256",
          "name": "tokenId",
          "type": "uint256"
        }
      ],
      "name": "transferFrom",
      "outputs": [],
      "stateMutability": "nonpayable",
      "type": "function"
    },
    {
      "inputs": [
        {
          "internalType": "address",
          "name": "newOwner",
          "type": "address"
        }
      ],
      "name": "transferOwnership",
      "outputs": [],
      "stateMutability": "nonpayable",
      "type": "function"
    }
  ],
  "bytecode": "0x60806040523480156200001157600080fd5b50604051620042c9380380620042c98339818101604052810190620000379190620003b0565b818181600090805190602001906200005192919062000163565b5080600190805190602001906200006a92919062000163565b5050506200008d620000816200009560201b60201c565b6200009d60201b60201c565b50506200049a565b600033905090565b6000600660009054906101000a900473ffffffffffffffffffffffffffffffffffffffff16905081600660006101000a81548173ffffffffffffffffffffffffffffffffffffffff021916908373ffffffffffffffffffffffffffffffffffffffff1602179055508173ffffffffffffffffffffffffffffffffffffffff168173ffffffffffffffffffffffffffffffffffffffff167f8be0079c531659141344cd1fd0a4f28419497f9722a3daafe3b4186f6b6457e060405160405180910390a35050565b828054620001719062000464565b90600052602060002090601f016020900481019282620001955760008555620001e1565b82601f10620001b057805160ff1916838001178555620001e1565b82800160010185558215620001e1579182015b82811115620001e0578251825591602001919060010190620001c3565b5b509050620001f09190620001f4565b5090565b5b808211156200020f576000816000905550600101620001f5565b5090565b6000604051905090565b600080fd5b600080fd5b600080fd5b600080fd5b6000601f19601f8301169050919050565b7f4e487b7100000000000000000000000000000000000000000000000000000000600052604160045260246000fd5b6200027c8262000231565b810181811067ffffffffffffffff821117156200029e576200029d62000242565b5b80604052505050565b6000620002b362000213565b9050620002c1828262000271565b919050565b600067ffffffffffffffff821115620002e457620002e362000242565b5b620002ef8262000231565b9050602081019050919050565b60005b838110156200031c578082015181840152602081019050620002ff565b838111156200032c576000848401525b50505050565b6000620003496200034384620002c6565b620002a7565b9050828152602081018484840111156200036857620003676200022c565b5b62000375848285620002fc565b509392505050565b600082601f83011262000395576200039462000227565b5b8151620003a784826020860162000332565b91505092915050565b60008060408385031215620003ca57620003c96200021d565b5b600083015167ffffffffffffffff811115620003eb57620003ea62000222565b5b620003f9858286016200037d565b925050602083015167ffffffffffffffff8111156200041d576200041c62000222565b5b6200042b858286016200037d565b9150509250929050565b7f4e487b7100000000000000000000000000000000000000000000000000000000600052602260045260246000fd5b600060028204905060018216806200047d57607f821691505b6020821081141562000494576200049362000435565b5b50919050565b613e1f80620004aa6000396000f3fe6080604052600436106101815760003560e01c80635b1ac0ee116100d157806395d89b411161008a578063b88d4fde11610064578063b88d4fde146105d9578063c87b56dd14610602578063e985e9c51461063f578063f2fde38b1461067c57610181565b806395d89b4114610548578063a07b281e14610573578063a22cb465146105b057610181565b80635b1ac0ee146104245780635d1ca631146104615780636352211e1461048c57806370a08231146104c9578063715018a6146105065780638da5cb5b1461051d57610181565b806318160ddd1161013e5780632f745c59116101185780632f745c591461035857806342842e0e1461039557806342966c68146103be5780634f6ccce7146103e757610181565b806318160ddd146102d457806323b872dd146102ff5780632919bd5b1461032857610181565b806301ffc9a71461018657806306fdde03146101c3578063081812fc146101ee578063092d0afc1461022b578063095ea7b31461026c57806317b47cc414610295575b600080fd5b34801561019257600080fd5b506101ad60048036038101906101a89190612b01565b6106a5565b6040516101ba9190612b49565b60405180910390f35b3480156101cf57600080fd5b506101d86106b7565b6040516101e59190612bfd565b60405180910390f35b3480156101fa57600080fd5b5061021560048036038101906102109190612c55565b610749565b6040516102229190612cc3565b60405180910390f35b34801561023757600080fd5b50610252600480360381019061024d9190612c55565b61078f565b604051610263959493929190612d0e565b60405180910390f35b34801561027857600080fd5b50610293600480360381019061028e9190612d94565b61088a565b005b3480156102a157600080fd5b506102bc60048036038101906102b79190612c55565b6109a2565b6040516102cb93929190612dd4565b60405180910390f35b3480156102e057600080fd5b506102e9610a74565b6040516102f69190612e12565b60405180910390f35b34801561030b57600080fd5b5061032660048036038101906103219190612e2d565b610a81565b005b610342600480360381019061033d9190612c55565b610ae1565b60405161034f9190612e12565b60405180910390f35b34801561036457600080fd5b5061037f600480360381019061037a9190612d94565b610c27565b60405161038c9190612e12565b60405180910390f35b3480156103a157600080fd5b506103bc60048036038101906103b79190612e2d565b610ccc565b005b3480156103ca57600080fd5b506103e560048036038101906103e09190612c55565b610cec565b005b3480156103f357600080fd5b5061040e60048036038101906104099190612c55565b610d48565b60405161041b9190612e12565b60405180910390f35b34801561043057600080fd5b5061044b60048036038101906104469190612fb5565b610db9565b6040516104589190612e12565b60405180910390f35b34801561046d57600080fd5b50610476610e9b565b6040516104839190612e12565b60405180910390f35b34801561049857600080fd5b506104b360048036038101906104ae9190612c55565b610ea5565b6040516104c09190612cc3565b60405180910390f35b3480156104d557600080fd5b506104f060048036038101906104eb9190612ffe565b610f57565b6040516104fd9190612e12565b60405180910390f35b34801561051257600080fd5b5061051b61100f565b005b34801561052957600080fd5b50610532611023565b60405161053f9190612cc3565b60405180910390f35b34801561055457600080fd5b5061055d61104d565b60405161056a9190612bfd565b60405180910390f35b34801561057f57600080fd5b5061059a60048036038101906105959190613057565b6110df565b6040516105a79190612e12565b60405180910390f35b3480156105bc57600080fd5b506105d760048036038101906105d291906130c6565b6113e4565b005b3480156105e557600080fd5b5061060060048036038101906105fb91906131a7565b6113fa565b005b34801561060e57600080fd5b5061062960048036038101906106249190612c55565b61145c565b6040516106369190612bfd565b60405180910390f35b34801561064b57600080fd5b506106666004803603810190610661919061322a565b61154c565b6040516106739190612b49565b60405180910390f35b34801561068857600080fd5b506106a3600480360381019061069e9190612ffe565b6115e0565b005b60006106b082611664565b9050919050565b6060600080546106c690613299565b80601f01602080910402602001604051908101604052809291908181526020018280546106f290613299565b801561073f5780601f106107145761010080835404028352916020019161073f565b820191906000526020600020905b81548152906001019060200180831161072257829003601f168201915b5050505050905090565b6000610754826116de565b6004600083815260200190815260200160002060009054906101000a900473ffffffffffffffffffffffffffffffffffffffff169050919050565b600d818154811061079f57600080fd5b90600052602060002090600402016000915090508060000154908060010180546107c890613299565b80601f01602080910402602001604051908101604052809291908181526020018280546107f490613299565b80156108415780601f1061081657610100808354040283529160200191610841565b820191906000526020600020905b81548152906001019060200180831161082457829003601f168201915b5050505050908060020154908060030160009054906101000a900473ffffffffffffffffffffffffffffffffffffffff16908060030160149054906101000a900460ff16905085565b600061089582610ea5565b90508073ffffffffffffffffffffffffffffffffffffffff168373ffffffffffffffffffffffffffffffffffffffff161415610906576040517f08c379a00000000000000000000000000000000000000000000000000000000081526004016108fd9061333d565b60405180910390fd5b8073ffffffffffffffffffffffffffffffffffffffff16610925611729565b73ffffffffffffffffffffffffffffffffffffffff16148061095457506109538161094e611729565b61154c565b5b610993576040517f08c379a000000000000000000000000000000000000000000000000000000000815260040161098a906133cf565b60405180910390fd5b61099d8383611731565b505050565b600e6020528060005260406000206000915090508060000154908060010160009054906101000a900473ffffffffffffffffffffffffffffffffffffffff16908060020180546109f190613299565b80601f0160208091040260200160405190810160405280929190818152602001828054610a1d90613299565b8015610a6a5780601f10610a3f57610100808354040283529160200191610a6a565b820191906000526020600020905b815481529060010190602001808311610a4d57829003601f168201915b5050505050905083565b6000600980549050905090565b610a92610a8c611729565b826117ea565b610ad1576040517f08c379a0000000000000000000000000000000000000000000000000000000008152600401610ac890613461565b60405180910390fd5b610adc83838361187f565b505050565b6000600d8281548110610af757610af6613481565b5b906000526020600020906004020160020154341015610b4b576040517f08c379a0000000000000000000000000000000000000000000000000000000008152600401610b4290613522565b60405180910390fd5b600d8281548110610b5f57610b5e613481565b5b906000526020600020906004020160030160009054906101000a900473ffffffffffffffffffffffffffffffffffffffff1673ffffffffffffffffffffffffffffffffffffffff166108fc600d8481548110610bbe57610bbd613481565b5b9060005260206000209060040201600201549081150290604051600060405180830381858888f19350505050158015610bfb573d6000803e3d6000fd5b50610c06600b611ae6565b6000610c12600b611afc565b9050610c1e3382611b0a565b80915050919050565b6000610c3283610f57565b8210610c73576040517f08c379a0000000000000000000000000000000000000000000000000000000008152600401610c6a906135b4565b60405180910390fd5b600760008473ffffffffffffffffffffffffffffffffffffffff1673ffffffffffffffffffffffffffffffffffffffff168152602001908152602001600020600083815260200190815260200160002054905092915050565b610ce7838383604051806020016040528060008152506113fa565b505050565b610cfd610cf7611729565b826117ea565b610d3c576040517f08c379a0000000000000000000000000000000000000000000000000000000008152600401610d3390613461565b60405180910390fd5b610d4581611b28565b50565b6000610d52610a74565b8210610d93576040517f08c379a0000000000000000000000000000000000000000000000000000000008152600401610d8a90613646565b60405180910390fd5b60098281548110610da757610da6613481565b5b90600052602060002001549050919050565b6000610dc5600b611ae6565b6000610dd1600b611afc565b9050610ddd3382611b0a565b60405180606001604052808281526020013373ffffffffffffffffffffffffffffffffffffffff16815260200184815250600e60008381526020019081526020016000206000820151816000015560208201518160010160006101000a81548173ffffffffffffffffffffffffffffffffffffffff021916908373ffffffffffffffffffffffffffffffffffffffff1602179055506040820151816002019080519060200190610e8e9291906129f2565b5090505080915050919050565b6000600c54905090565b6000806002600084815260200190815260200160002060009054906101000a900473ffffffffffffffffffffffffffffffffffffffff169050600073ffffffffffffffffffffffffffffffffffffffff168173ffffffffffffffffffffffffffffffffffffffff161415610f4e576040517f08c379a0000000000000000000000000000000000000000000000000000000008152600401610f45906136b2565b60405180910390fd5b80915050919050565b60008073ffffffffffffffffffffffffffffffffffffffff168273ffffffffffffffffffffffffffffffffffffffff161415610fc8576040517f08c379a0000000000000000000000000000000000000000000000000000000008152600401610fbf90613744565b60405180910390fd5b600360008373ffffffffffffffffffffffffffffffffffffffff1673ffffffffffffffffffffffffffffffffffffffff168152602001908152602001600020549050919050565b611017611c45565b6110216000611cc3565b565b6000600660009054906101000a900473ffffffffffffffffffffffffffffffffffffffff16905090565b60606001805461105c90613299565b80601f016020809104026020016040519081016040528092919081815260200182805461108890613299565b80156110d55780601f106110aa576101008083540402835291602001916110d5565b820191906000526020600020905b8154815290600101906020018083116110b857829003601f168201915b5050505050905090565b6000600d80549050600c819055508161128f57600d6040518060a00160405280600c5481526020018681526020018581526020013373ffffffffffffffffffffffffffffffffffffffff1681526020016000151581525090806001815401808255809150506001900390600052602060002090600402016000909190919091506000820151816000015560208201518160010190805190602001906111859291906129f2565b506040820151816002015560608201518160030160006101000a81548173ffffffffffffffffffffffffffffffffffffffff021916908373ffffffffffffffffffffffffffffffffffffffff16021790555060808201518160030160146101000a81548160ff0219169083151502179055505050600061120485610db9565b90506112476040518060400160405280600981526020017f6372656174652069640000000000000000000000000000000000000000000000815250600c54611d89565b6112866040518060400160405280600b81526020017f72657475726e656420696400000000000000000000000000000000000000000081525082611d89565b809150506113dd565b600d6040518060a00160405280600c5481526020018681526020018581526020013373ffffffffffffffffffffffffffffffffffffffff1681526020016000151581525090806001815401808255809150506001900390600052602060002090600402016000909190919091506000820151816000015560208201518160010190805190602001906113229291906129f2565b506040820151816002015560608201518160030160006101000a81548173ffffffffffffffffffffffffffffffffffffffff021916908373ffffffffffffffffffffffffffffffffffffffff16021790555060808201518160030160146101000a81548160ff02191690831515021790555050506113d76040518060400160405280600981526020017f6372656174652069640000000000000000000000000000000000000000000000815250600c54611d89565b600c5490505b9392505050565b6113f66113ef611729565b8383611e25565b5050565b61140b611405611729565b836117ea565b61144a576040517f08c379a000000000000000000000000000000000000000000000000000000000815260040161144190613461565b60405180910390fd5b61145684848484611f92565b50505050565b606061146782611fee565b6114a6576040517f08c379a000000000000000000000000000000000000000000000000000000000815260040161149d906137d6565b60405180910390fd5b600e600083815260200190815260200160002060020180546114c790613299565b80601f01602080910402602001604051908101604052809291908181526020018280546114f390613299565b80156115405780601f1061151557610100808354040283529160200191611540565b820191906000526020600020905b81548152906001019060200180831161152357829003601f168201915b50505050509050919050565b6000600560008473ffffffffffffffffffffffffffffffffffffffff1673ffffffffffffffffffffffffffffffffffffffff16815260200190815260200160002060008373ffffffffffffffffffffffffffffffffffffffff1673ffffffffffffffffffffffffffffffffffffffff16815260200190815260200160002060009054906101000a900460ff16905092915050565b6115e8611c45565b600073ffffffffffffffffffffffffffffffffffffffff168173ffffffffffffffffffffffffffffffffffffffff161415611658576040517f08c379a000000000000000000000000000000000000000000000000000000000815260040161164f90613868565b60405180910390fd5b61166181611cc3565b50565b60007f780e9d63000000000000000000000000000000000000000000000000000000007bffffffffffffffffffffffffffffffffffffffffffffffffffffffff1916827bffffffffffffffffffffffffffffffffffffffffffffffffffffffff191614806116d757506116d68261205a565b5b9050919050565b6116e781611fee565b611726576040517f08c379a000000000000000000000000000000000000000000000000000000000815260040161171d906136b2565b60405180910390fd5b50565b600033905090565b816004600083815260200190815260200160002060006101000a81548173ffffffffffffffffffffffffffffffffffffffff021916908373ffffffffffffffffffffffffffffffffffffffff160217905550808273ffffffffffffffffffffffffffffffffffffffff166117a483610ea5565b73ffffffffffffffffffffffffffffffffffffffff167f8c5be1e5ebec7d5bd14f71427d1e84f3dd0314c0f7b2291e5b200ac8c7c3b92560405160405180910390a45050565b6000806117f683610ea5565b90508073ffffffffffffffffffffffffffffffffffffffff168473ffffffffffffffffffffffffffffffffffffffff1614806118385750611837818561154c565b5b8061187657508373ffffffffffffffffffffffffffffffffffffffff1661185e84610749565b73ffffffffffffffffffffffffffffffffffffffff16145b91505092915050565b8273ffffffffffffffffffffffffffffffffffffffff1661189f82610ea5565b73ffffffffffffffffffffffffffffffffffffffff16146118f5576040517f08c379a00000000000000000000000000000000000000000000000000000000081526004016118ec906138fa565b60405180910390fd5b600073ffffffffffffffffffffffffffffffffffffffff168273ffffffffffffffffffffffffffffffffffffffff161415611965576040517f08c379a000000000000000000000000000000000000000000000000000000000815260040161195c9061398c565b60405180910390fd5b61197083838361213c565b61197b600082611731565b6001600360008573ffffffffffffffffffffffffffffffffffffffff1673ffffffffffffffffffffffffffffffffffffffff16815260200190815260200160002060008282546119cb91906139db565b925050819055506001600360008473ffffffffffffffffffffffffffffffffffffffff1673ffffffffffffffffffffffffffffffffffffffff1681526020019081526020016000206000828254611a229190613a0f565b92505081905550816002600083815260200190815260200160002060006101000a81548173ffffffffffffffffffffffffffffffffffffffff021916908373ffffffffffffffffffffffffffffffffffffffff160217905550808273ffffffffffffffffffffffffffffffffffffffff168473ffffffffffffffffffffffffffffffffffffffff167fddf252ad1be2c89b69c2b068fc378daa952ba7f163c4a11628f55a4df523b3ef60405160405180910390a4611ae183838361214c565b505050565b6001816000016000828254019250508190555050565b600081600001549050919050565b611b24828260405180602001604052806000815250612151565b5050565b6000611b3382610ea5565b9050611b418160008461213c565b611b4c600083611731565b6001600360008373ffffffffffffffffffffffffffffffffffffffff1673ffffffffffffffffffffffffffffffffffffffff1681526020019081526020016000206000828254611b9c91906139db565b925050819055506002600083815260200190815260200160002060006101000a81549073ffffffffffffffffffffffffffffffffffffffff021916905581600073ffffffffffffffffffffffffffffffffffffffff168273ffffffffffffffffffffffffffffffffffffffff167fddf252ad1be2c89b69c2b068fc378daa952ba7f163c4a11628f55a4df523b3ef60405160405180910390a4611c418160008461214c565b5050565b611c4d611729565b73ffffffffffffffffffffffffffffffffffffffff16611c6b611023565b73ffffffffffffffffffffffffffffffffffffffff1614611cc1576040517f08c379a0000000000000000000000000000000000000000000000000000000008152600401611cb890613ab1565b60405180910390fd5b565b6000600660009054906101000a900473ffffffffffffffffffffffffffffffffffffffff16905081600660006101000a81548173ffffffffffffffffffffffffffffffffffffffff021916908373ffffffffffffffffffffffffffffffffffffffff1602179055508173ffffffffffffffffffffffffffffffffffffffff168173ffffffffffffffffffffffffffffffffffffffff167f8be0079c531659141344cd1fd0a4f28419497f9722a3daafe3b4186f6b6457e060405160405180910390a35050565b611e218282604051602401611d9f929190613ad1565b6040516020818303038152906040527fb60e72cc000000000000000000000000000000000000000000000000000000007bffffffffffffffffffffffffffffffffffffffffffffffffffffffff19166020820180517bffffffffffffffffffffffffffffffffffffffffffffffffffffffff83818316178352505050506121ac565b5050565b8173ffffffffffffffffffffffffffffffffffffffff168373ffffffffffffffffffffffffffffffffffffffff161415611e94576040517f08c379a0000000000000000000000000000000000000000000000000000000008152600401611e8b90613b4d565b60405180910390fd5b80600560008573ffffffffffffffffffffffffffffffffffffffff1673ffffffffffffffffffffffffffffffffffffffff16815260200190815260200160002060008473ffffffffffffffffffffffffffffffffffffffff1673ffffffffffffffffffffffffffffffffffffffff16815260200190815260200160002060006101000a81548160ff0219169083151502179055508173ffffffffffffffffffffffffffffffffffffffff168373ffffffffffffffffffffffffffffffffffffffff167f17307eab39ab6107e8899845ad3d59bd9653f200f220920489ca2b5937696c3183604051611f859190612b49565b60405180910390a3505050565b611f9d84848461187f565b611fa9848484846121d5565b611fe8576040517f08c379a0000000000000000000000000000000000000000000000000000000008152600401611fdf90613bdf565b60405180910390fd5b50505050565b60008073ffffffffffffffffffffffffffffffffffffffff166002600084815260200190815260200160002060009054906101000a900473ffffffffffffffffffffffffffffffffffffffff1673ffffffffffffffffffffffffffffffffffffffff1614159050919050565b60007f80ac58cd000000000000000000000000000000000000000000000000000000007bffffffffffffffffffffffffffffffffffffffffffffffffffffffff1916827bffffffffffffffffffffffffffffffffffffffffffffffffffffffff1916148061212557507f5b5e139f000000000000000000000000000000000000000000000000000000007bffffffffffffffffffffffffffffffffffffffffffffffffffffffff1916827bffffffffffffffffffffffffffffffffffffffffffffffffffffffff1916145b8061213557506121348261236c565b5b9050919050565b6121478383836123d6565b505050565b505050565b61215b83836124ea565b61216860008484846121d5565b6121a7576040517f08c379a000000000000000000000000000000000000000000000000000000000815260040161219e90613bdf565b60405180910390fd5b505050565b60008151905060006a636f6e736f6c652e6c6f679050602083016000808483855afa5050505050565b60006121f68473ffffffffffffffffffffffffffffffffffffffff166126c4565b1561235f578373ffffffffffffffffffffffffffffffffffffffff1663150b7a0261221f611729565b8786866040518563ffffffff1660e01b81526004016122419493929190613c54565b602060405180830381600087803b15801561225b57600080fd5b505af192505050801561228c57506040513d601f19601f820116820180604052508101906122899190613cb5565b60015b61230f573d80600081146122bc576040519150601f19603f3d011682016040523d82523d6000602084013e6122c1565b606091505b50600081511415612307576040517f08c379a00000000000000000000000000000000000000000000000000000000081526004016122fe90613bdf565b60405180910390fd5b805181602001fd5b63150b7a0260e01b7bffffffffffffffffffffffffffffffffffffffffffffffffffffffff1916817bffffffffffffffffffffffffffffffffffffffffffffffffffffffff191614915050612364565b600190505b949350505050565b60007f01ffc9a7000000000000000000000000000000000000000000000000000000007bffffffffffffffffffffffffffffffffffffffffffffffffffffffff1916827bffffffffffffffffffffffffffffffffffffffffffffffffffffffff1916149050919050565b6123e18383836126e7565b600073ffffffffffffffffffffffffffffffffffffffff168373ffffffffffffffffffffffffffffffffffffffff1614156124245761241f816126ec565b612463565b8173ffffffffffffffffffffffffffffffffffffffff168373ffffffffffffffffffffffffffffffffffffffff1614612462576124618382612735565b5b5b600073ffffffffffffffffffffffffffffffffffffffff168273ffffffffffffffffffffffffffffffffffffffff1614156124a6576124a1816128a2565b6124e5565b8273ffffffffffffffffffffffffffffffffffffffff168273ffffffffffffffffffffffffffffffffffffffff16146124e4576124e38282612973565b5b5b505050565b600073ffffffffffffffffffffffffffffffffffffffff168273ffffffffffffffffffffffffffffffffffffffff16141561255a576040517f08c379a000000000000000000000000000000000000000000000000000000000815260040161255190613d2e565b60405180910390fd5b61256381611fee565b156125a3576040517f08c379a000000000000000000000000000000000000000000000000000000000815260040161259a90613d9a565b60405180910390fd5b6125af6000838361213c565b6001600360008473ffffffffffffffffffffffffffffffffffffffff1673ffffffffffffffffffffffffffffffffffffffff16815260200190815260200160002060008282546125ff9190613a0f565b92505081905550816002600083815260200190815260200160002060006101000a81548173ffffffffffffffffffffffffffffffffffffffff021916908373ffffffffffffffffffffffffffffffffffffffff160217905550808273ffffffffffffffffffffffffffffffffffffffff16600073ffffffffffffffffffffffffffffffffffffffff167fddf252ad1be2c89b69c2b068fc378daa952ba7f163c4a11628f55a4df523b3ef60405160405180910390a46126c06000838361214c565b5050565b6000808273ffffffffffffffffffffffffffffffffffffffff163b119050919050565b505050565b600980549050600a600083815260200190815260200160002081905550600981908060018154018082558091505060019003906000526020600020016000909190919091505550565b6000600161274284610f57565b61274c91906139db565b9050600060086000848152602001908152602001600020549050818114612831576000600760008673ffffffffffffffffffffffffffffffffffffffff1673ffffffffffffffffffffffffffffffffffffffff168152602001908152602001600020600084815260200190815260200160002054905080600760008773ffffffffffffffffffffffffffffffffffffffff1673ffffffffffffffffffffffffffffffffffffffff168152602001908152602001600020600084815260200190815260200160002081905550816008600083815260200190815260200160002081905550505b6008600084815260200190815260200160002060009055600760008573ffffffffffffffffffffffffffffffffffffffff1673ffffffffffffffffffffffffffffffffffffffff16815260200190815260200160002060008381526020019081526020016000206000905550505050565b600060016009805490506128b691906139db565b90506000600a60008481526020019081526020016000205490506000600983815481106128e6576128e5613481565b5b90600052602060002001549050806009838154811061290857612907613481565b5b906000526020600020018190555081600a600083815260200190815260200160002081905550600a600085815260200190815260200160002060009055600980548061295757612956613dba565b5b6001900381819060005260206000200160009055905550505050565b600061297e83610f57565b905081600760008573ffffffffffffffffffffffffffffffffffffffff1673ffffffffffffffffffffffffffffffffffffffff168152602001908152602001600020600083815260200190815260200160002081905550806008600084815260200190815260200160002081905550505050565b8280546129fe90613299565b90600052602060002090601f016020900481019282612a205760008555612a67565b82601f10612a3957805160ff1916838001178555612a67565b82800160010185558215612a67579182015b82811115612a66578251825591602001919060010190612a4b565b5b509050612a749190612a78565b5090565b5b80821115612a91576000816000905550600101612a79565b5090565b6000604051905090565b600080fd5b600080fd5b60007fffffffff0000000000000000000000000000000000000000000000000000000082169050919050565b612ade81612aa9565b8114612ae957600080fd5b50565b600081359050612afb81612ad5565b92915050565b600060208284031215612b1757612b16612a9f565b5b6000612b2584828501612aec565b91505092915050565b60008115159050919050565b612b4381612b2e565b82525050565b6000602082019050612b5e6000830184612b3a565b92915050565b600081519050919050565b600082825260208201905092915050565b60005b83811015612b9e578082015181840152602081019050612b83565b83811115612bad576000848401525b50505050565b6000601f19601f8301169050919050565b6000612bcf82612b64565b612bd98185612b6f565b9350612be9818560208601612b80565b612bf281612bb3565b840191505092915050565b60006020820190508181036000830152612c178184612bc4565b905092915050565b6000819050919050565b612c3281612c1f565b8114612c3d57600080fd5b50565b600081359050612c4f81612c29565b92915050565b600060208284031215612c6b57612c6a612a9f565b5b6000612c7984828501612c40565b91505092915050565b600073ffffffffffffffffffffffffffffffffffffffff82169050919050565b6000612cad82612c82565b9050919050565b612cbd81612ca2565b82525050565b6000602082019050612cd86000830184612cb4565b92915050565b612ce781612c1f565b82525050565b6000612cf882612c82565b9050919050565b612d0881612ced565b82525050565b600060a082019050612d236000830188612cde565b8181036020830152612d358187612bc4565b9050612d446040830186612cde565b612d516060830185612cff565b612d5e6080830184612b3a565b9695505050505050565b612d7181612ca2565b8114612d7c57600080fd5b50565b600081359050612d8e81612d68565b92915050565b60008060408385031215612dab57612daa612a9f565b5b6000612db985828601612d7f565b9250506020612dca85828601612c40565b9150509250929050565b6000606082019050612de96000830186612cde565b612df66020830185612cb4565b8181036040830152612e088184612bc4565b9050949350505050565b6000602082019050612e276000830184612cde565b92915050565b600080600060608486031215612e4657612e45612a9f565b5b6000612e5486828701612d7f565b9350506020612e6586828701612d7f565b9250506040612e7686828701612c40565b9150509250925092565b600080fd5b600080fd5b7f4e487b7100000000000000000000000000000000000000000000000000000000600052604160045260246000fd5b612ec282612bb3565b810181811067ffffffffffffffff82111715612ee157612ee0612e8a565b5b80604052505050565b6000612ef4612a95565b9050612f008282612eb9565b919050565b600067ffffffffffffffff821115612f2057612f1f612e8a565b5b612f2982612bb3565b9050602081019050919050565b82818337600083830152505050565b6000612f58612f5384612f05565b612eea565b905082815260208101848484011115612f7457612f73612e85565b5b612f7f848285612f36565b509392505050565b600082601f830112612f9c57612f9b612e80565b5b8135612fac848260208601612f45565b91505092915050565b600060208284031215612fcb57612fca612a9f565b5b600082013567ffffffffffffffff811115612fe957612fe8612aa4565b5b612ff584828501612f87565b91505092915050565b60006020828403121561301457613013612a9f565b5b600061302284828501612d7f565b91505092915050565b61303481612b2e565b811461303f57600080fd5b50565b6000813590506130518161302b565b92915050565b6000806000606084860312156130705761306f612a9f565b5b600084013567ffffffffffffffff81111561308e5761308d612aa4565b5b61309a86828701612f87565b93505060206130ab86828701612c40565b92505060406130bc86828701613042565b9150509250925092565b600080604083850312156130dd576130dc612a9f565b5b60006130eb85828601612d7f565b92505060206130fc85828601613042565b9150509250929050565b600067ffffffffffffffff82111561312157613120612e8a565b5b61312a82612bb3565b9050602081019050919050565b600061314a61314584613106565b612eea565b90508281526020810184848401111561316657613165612e85565b5b613171848285612f36565b509392505050565b600082601f83011261318e5761318d612e80565b5b813561319e848260208601613137565b91505092915050565b600080600080608085870312156131c1576131c0612a9f565b5b60006131cf87828801612d7f565b94505060206131e087828801612d7f565b93505060406131f187828801612c40565b925050606085013567ffffffffffffffff81111561321257613211612aa4565b5b61321e87828801613179565b91505092959194509250565b6000806040838503121561324157613240612a9f565b5b600061324f85828601612d7f565b925050602061326085828601612d7f565b9150509250929050565b7f4e487b7100000000000000000000000000000000000000000000000000000000600052602260045260246000fd5b600060028204905060018216806132b157607f821691505b602082108114156132c5576132c461326a565b5b50919050565b7f4552433732313a20617070726f76616c20746f2063757272656e74206f776e6560008201527f7200000000000000000000000000000000000000000000000000000000000000602082015250565b6000613327602183612b6f565b9150613332826132cb565b604082019050919050565b600060208201905081810360008301526133568161331a565b9050919050565b7f4552433732313a20617070726f76652063616c6c6572206973206e6f7420746f60008201527f6b656e206f776e6572206e6f7220617070726f76656420666f7220616c6c0000602082015250565b60006133b9603e83612b6f565b91506133c48261335d565b604082019050919050565b600060208201905081810360008301526133e8816133ac565b9050919050565b7f4552433732313a2063616c6c6572206973206e6f7420746f6b656e206f776e6560008201527f72206e6f7220617070726f766564000000000000000000000000000000000000602082015250565b600061344b602e83612b6f565b9150613456826133ef565b604082019050919050565b6000602082019050818103600083015261347a8161343e565b9050919050565b7f4e487b7100000000000000000000000000000000000000000000000000000000600052603260045260246000fd5b7f416d6f756e74206f662065746865722073656e74206e6f7420636f727265637460008201527f2e00000000000000000000000000000000000000000000000000000000000000602082015250565b600061350c602183612b6f565b9150613517826134b0565b604082019050919050565b6000602082019050818103600083015261353b816134ff565b9050919050565b7f455243373231456e756d657261626c653a206f776e657220696e646578206f7560008201527f74206f6620626f756e6473000000000000000000000000000000000000000000602082015250565b600061359e602b83612b6f565b91506135a982613542565b604082019050919050565b600060208201905081810360008301526135cd81613591565b9050919050565b7f455243373231456e756d657261626c653a20676c6f62616c20696e646578206f60008201527f7574206f6620626f756e64730000000000000000000000000000000000000000602082015250565b6000613630602c83612b6f565b915061363b826135d4565b604082019050919050565b6000602082019050818103600083015261365f81613623565b9050919050565b7f4552433732313a20696e76616c696420746f6b656e2049440000000000000000600082015250565b600061369c601883612b6f565b91506136a782613666565b602082019050919050565b600060208201905081810360008301526136cb8161368f565b9050919050565b7f4552433732313a2061646472657373207a65726f206973206e6f74206120766160008201527f6c6964206f776e65720000000000000000000000000000000000000000000000602082015250565b600061372e602983612b6f565b9150613739826136d2565b604082019050919050565b6000602082019050818103600083015261375d81613721565b9050919050565b7f4552433732314d657461646174613a2055524920717565727920666f72206e6f60008201527f6e6578697374656e7420746f6b656e0000000000000000000000000000000000602082015250565b60006137c0602f83612b6f565b91506137cb82613764565b604082019050919050565b600060208201905081810360008301526137ef816137b3565b9050919050565b7f4f776e61626c653a206e6577206f776e657220697320746865207a65726f206160008201527f6464726573730000000000000000000000000000000000000000000000000000602082015250565b6000613852602683612b6f565b915061385d826137f6565b604082019050919050565b6000602082019050818103600083015261388181613845565b9050919050565b7f4552433732313a207472616e736665722066726f6d20696e636f72726563742060008201527f6f776e6572000000000000000000000000000000000000000000000000000000602082015250565b60006138e4602583612b6f565b91506138ef82613888565b604082019050919050565b60006020820190508181036000830152613913816138d7565b9050919050565b7f4552433732313a207472616e7366657220746f20746865207a65726f2061646460008201527f7265737300000000000000000000000000000000000000000000000000000000602082015250565b6000613976602483612b6f565b91506139818261391a565b604082019050919050565b600060208201905081810360008301526139a581613969565b9050919050565b7f4e487b7100000000000000000000000000000000000000000000000000000000600052601160045260246000fd5b60006139e682612c1f565b91506139f183612c1f565b925082821015613a0457613a036139ac565b5b828203905092915050565b6000613a1a82612c1f565b9150613a2583612c1f565b9250827fffffffffffffffffffffffffffffffffffffffffffffffffffffffffffffffff03821115613a5a57613a596139ac565b5b828201905092915050565b7f4f776e61626c653a2063616c6c6572206973206e6f7420746865206f776e6572600082015250565b6000613a9b602083612b6f565b9150613aa682613a65565b602082019050919050565b60006020820190508181036000830152613aca81613a8e565b9050919050565b60006040820190508181036000830152613aeb8185612bc4565b9050613afa6020830184612cde565b9392505050565b7f4552433732313a20617070726f766520746f2063616c6c657200000000000000600082015250565b6000613b37601983612b6f565b9150613b4282613b01565b602082019050919050565b60006020820190508181036000830152613b6681613b2a565b9050919050565b7f4552433732313a207472616e7366657220746f206e6f6e20455243373231526560008201527f63656976657220696d706c656d656e7465720000000000000000000000000000602082015250565b6000613bc9603283612b6f565b9150613bd482613b6d565b604082019050919050565b60006020820190508181036000830152613bf881613bbc565b9050919050565b600081519050919050565b600082825260208201905092915050565b6000613c2682613bff565b613c308185613c0a565b9350613c40818560208601612b80565b613c4981612bb3565b840191505092915050565b6000608082019050613c696000830187612cb4565b613c766020830186612cb4565b613c836040830185612cde565b8181036060830152613c958184613c1b565b905095945050505050565b600081519050613caf81612ad5565b92915050565b600060208284031215613ccb57613cca612a9f565b5b6000613cd984828501613ca0565b91505092915050565b7f4552433732313a206d696e7420746f20746865207a65726f2061646472657373600082015250565b6000613d18602083612b6f565b9150613d2382613ce2565b602082019050919050565b60006020820190508181036000830152613d4781613d0b565b9050919050565b7f4552433732313a20746f6b656e20616c7265616479206d696e74656400000000600082015250565b6000613d84601c83612b6f565b9150613d8f82613d4e565b602082019050919050565b60006020820190508181036000830152613db381613d77565b9050919050565b7f4e487b7100000000000000000000000000000000000000000000000000000000600052603160045260246000fdfea2646970667358221220c52ec50ec58b3b0bd5e44f7abd986a4a00b216e3fa284498f6cd4c5cc353fc8d64736f6c63430008090033",
  "linkReferences": {},
  "deployedLinkReferences": {}
}