{
  "_format": "hh-sol-artifact-1",
  "contractName": "TokenContract721",
  "sourceName": "contracts/TokenContract721.sol",
  "abi": [
    {
      "inputs": [
        {
          "internalType": "string",
          "name": "name",
          "type": "string"
        },
        {
          "internalType": "string",
          "name": "symbol",
          "type": "string"
        }
      ],
      "stateMutability": "nonpayable",
      "type": "constructor"
    },
    {
      "anonymous": false,
      "inputs": [
        {
          "indexed": true,
          "internalType": "address",
          "name": "owner",
          "type": "address"
        },
        {
          "indexed": true,
          "internalType": "address",
          "name": "approved",
          "type": "address"
        },
        {
          "indexed": true,
          "internalType": "uint256",
          "name": "tokenId",
          "type": "uint256"
        }
      ],
      "name": "Approval",
      "type": "event"
    },
    {
      "anonymous": false,
      "inputs": [
        {
          "indexed": true,
          "internalType": "address",
          "name": "owner",
          "type": "address"
        },
        {
          "indexed": true,
          "internalType": "address",
          "name": "operator",
          "type": "address"
        },
        {
          "indexed": false,
          "internalType": "bool",
          "name": "approved",
          "type": "bool"
        }
      ],
      "name": "ApprovalForAll",
      "type": "event"
    },
    {
      "anonymous": false,
      "inputs": [
        {
          "indexed": true,
          "internalType": "address",
          "name": "previousOwner",
          "type": "address"
        },
        {
          "indexed": true,
          "internalType": "address",
          "name": "newOwner",
          "type": "address"
        }
      ],
      "name": "OwnershipTransferred",
      "type": "event"
    },
    {
      "anonymous": false,
      "inputs": [
        {
          "indexed": true,
          "internalType": "address",
          "name": "from",
          "type": "address"
        },
        {
          "indexed": true,
          "internalType": "address",
          "name": "to",
          "type": "address"
        },
        {
          "indexed": true,
          "internalType": "uint256",
          "name": "tokenId",
          "type": "uint256"
        }
      ],
      "name": "Transfer",
      "type": "event"
    },
    {
      "inputs": [
        {
          "internalType": "uint256",
          "name": "",
          "type": "uint256"
        }
      ],
      "name": "Items",
      "outputs": [
        {
          "internalType": "uint256",
          "name": "id",
          "type": "uint256"
        },
        {
          "internalType": "address",
          "name": "creator",
          "type": "address"
        },
        {
          "internalType": "string",
          "name": "uri",
          "type": "string"
        }
      ],
      "stateMutability": "view",
      "type": "function"
    },
    {
      "inputs": [
        {
          "internalType": "address",
          "name": "to",
          "type": "address"
        },
        {
          "internalType": "uint256",
          "name": "tokenId",
          "type": "uint256"
        }
      ],
      "name": "approve",
      "outputs": [],
      "stateMutability": "nonpayable",
      "type": "function"
    },
    {
      "inputs": [
        {
          "internalType": "address",
          "name": "owner",
          "type": "address"
        }
      ],
      "name": "balanceOf",
      "outputs": [
        {
          "internalType": "uint256",
          "name": "",
          "type": "uint256"
        }
      ],
      "stateMutability": "view",
      "type": "function"
    },
    {
      "inputs": [
        {
          "internalType": "uint256",
          "name": "tokenId",
          "type": "uint256"
        }
      ],
      "name": "burn",
      "outputs": [],
      "stateMutability": "nonpayable",
      "type": "function"
    },
    {
      "inputs": [
        {
          "internalType": "string",
          "name": "uri",
          "type": "string"
        }
      ],
      "name": "createItem",
      "outputs": [
        {
          "internalType": "uint256",
          "name": "",
          "type": "uint256"
        },
        {
          "internalType": "address",
          "name": "",
          "type": "address"
        }
      ],
      "stateMutability": "nonpayable",
      "type": "function"
    },
    {
      "inputs": [
        {
          "internalType": "uint256",
          "name": "tokenId",
          "type": "uint256"
        }
      ],
      "name": "getApproved",
      "outputs": [
        {
          "internalType": "address",
          "name": "",
          "type": "address"
        }
      ],
      "stateMutability": "view",
      "type": "function"
    },
    {
      "inputs": [
        {
          "internalType": "address",
          "name": "owner",
          "type": "address"
        },
        {
          "internalType": "address",
          "name": "operator",
          "type": "address"
        }
      ],
      "name": "isApprovedForAll",
      "outputs": [
        {
          "internalType": "bool",
          "name": "",
          "type": "bool"
        }
      ],
      "stateMutability": "view",
      "type": "function"
    },
    {
      "inputs": [],
      "name": "name",
      "outputs": [
        {
          "internalType": "string",
          "name": "",
          "type": "string"
        }
      ],
      "stateMutability": "view",
      "type": "function"
    },
    {
      "inputs": [],
      "name": "owner",
      "outputs": [
        {
          "internalType": "address",
          "name": "",
          "type": "address"
        }
      ],
      "stateMutability": "view",
      "type": "function"
    },
    {
      "inputs": [
        {
          "internalType": "uint256",
          "name": "tokenId",
          "type": "uint256"
        }
      ],
      "name": "ownerOf",
      "outputs": [
        {
          "internalType": "address",
          "name": "",
          "type": "address"
        }
      ],
      "stateMutability": "view",
      "type": "function"
    },
    {
      "inputs": [],
      "name": "renounceOwnership",
      "outputs": [],
      "stateMutability": "nonpayable",
      "type": "function"
    },
    {
      "inputs": [
        {
          "internalType": "address",
          "name": "from",
          "type": "address"
        },
        {
          "internalType": "address",
          "name": "to",
          "type": "address"
        },
        {
          "internalType": "uint256",
          "name": "tokenId",
          "type": "uint256"
        }
      ],
      "name": "safeTransferFrom",
      "outputs": [],
      "stateMutability": "nonpayable",
      "type": "function"
    },
    {
      "inputs": [
        {
          "internalType": "address",
          "name": "from",
          "type": "address"
        },
        {
          "internalType": "address",
          "name": "to",
          "type": "address"
        },
        {
          "internalType": "uint256",
          "name": "tokenId",
          "type": "uint256"
        },
        {
          "internalType": "bytes",
          "name": "_data",
          "type": "bytes"
        }
      ],
      "name": "safeTransferFrom",
      "outputs": [],
      "stateMutability": "nonpayable",
      "type": "function"
    },
    {
      "inputs": [
        {
          "internalType": "address",
          "name": "operator",
          "type": "address"
        },
        {
          "internalType": "bool",
          "name": "approved",
          "type": "bool"
        }
      ],
      "name": "setApprovalForAll",
      "outputs": [],
      "stateMutability": "nonpayable",
      "type": "function"
    },
    {
      "inputs": [
        {
          "internalType": "bytes4",
          "name": "interfaceId",
          "type": "bytes4"
        }
      ],
      "name": "supportsInterface",
      "outputs": [
        {
          "internalType": "bool",
          "name": "",
          "type": "bool"
        }
      ],
      "stateMutability": "view",
      "type": "function"
    },
    {
      "inputs": [],
      "name": "symbol",
      "outputs": [
        {
          "internalType": "string",
          "name": "",
          "type": "string"
        }
      ],
      "stateMutability": "view",
      "type": "function"
    },
    {
      "inputs": [
        {
          "internalType": "uint256",
          "name": "index",
          "type": "uint256"
        }
      ],
      "name": "tokenByIndex",
      "outputs": [
        {
          "internalType": "uint256",
          "name": "",
          "type": "uint256"
        }
      ],
      "stateMutability": "view",
      "type": "function"
    },
    {
      "inputs": [
        {
          "internalType": "address",
          "name": "owner",
          "type": "address"
        },
        {
          "internalType": "uint256",
          "name": "index",
          "type": "uint256"
        }
      ],
      "name": "tokenOfOwnerByIndex",
      "outputs": [
        {
          "internalType": "uint256",
          "name": "",
          "type": "uint256"
        }
      ],
      "stateMutability": "view",
      "type": "function"
    },
    {
      "inputs": [
        {
          "internalType": "uint256",
          "name": "tokenId",
          "type": "uint256"
        }
      ],
      "name": "tokenURI",
      "outputs": [
        {
          "internalType": "string",
          "name": "",
          "type": "string"
        }
      ],
      "stateMutability": "view",
      "type": "function"
    },
    {
      "inputs": [],
      "name": "totalSupply",
      "outputs": [
        {
          "internalType": "uint256",
          "name": "",
          "type": "uint256"
        }
      ],
      "stateMutability": "view",
      "type": "function"
    },
    {
      "inputs": [
        {
          "internalType": "address",
          "name": "from",
          "type": "address"
        },
        {
          "internalType": "address",
          "name": "to",
          "type": "address"
        },
        {
          "internalType": "uint256",
          "name": "tokenId",
          "type": "uint256"
        }
      ],
      "name": "transferFrom",
      "outputs": [],
      "stateMutability": "nonpayable",
      "type": "function"
    },
    {
      "inputs": [
        {
          "internalType": "address",
          "name": "newOwner",
          "type": "address"
        }
      ],
      "name": "transferOwnership",
      "outputs": [],
      "stateMutability": "nonpayable",
      "type": "function"
    }
  ],
  "bytecode": "0x60806040523480156200001157600080fd5b5060405162003b3738038062003b37833981810160405281019062000037919062000285565b818181600090805190602001906200005192919062000163565b5080600190805190602001906200006a92919062000163565b5050506200008d620000816200009560201b60201c565b6200009d60201b60201c565b505062000468565b600033905090565b6000600660009054906101000a900473ffffffffffffffffffffffffffffffffffffffff16905081600660006101000a81548173ffffffffffffffffffffffffffffffffffffffff021916908373ffffffffffffffffffffffffffffffffffffffff1602179055508173ffffffffffffffffffffffffffffffffffffffff168173ffffffffffffffffffffffffffffffffffffffff167f8be0079c531659141344cd1fd0a4f28419497f9722a3daafe3b4186f6b6457e060405160405180910390a35050565b82805462000171906200038d565b90600052602060002090601f016020900481019282620001955760008555620001e1565b82601f10620001b057805160ff1916838001178555620001e1565b82800160010185558215620001e1579182015b82811115620001e0578251825591602001919060010190620001c3565b5b509050620001f09190620001f4565b5090565b5b808211156200020f576000816000905550600101620001f5565b5090565b60006200022a620002248462000321565b620002f8565b9050828152602081018484840111156200024357600080fd5b6200025084828562000357565b509392505050565b600082601f8301126200026a57600080fd5b81516200027c84826020860162000213565b91505092915050565b600080604083850312156200029957600080fd5b600083015167ffffffffffffffff811115620002b457600080fd5b620002c28582860162000258565b925050602083015167ffffffffffffffff811115620002e057600080fd5b620002ee8582860162000258565b9150509250929050565b60006200030462000317565b9050620003128282620003c3565b919050565b6000604051905090565b600067ffffffffffffffff8211156200033f576200033e62000428565b5b6200034a8262000457565b9050602081019050919050565b60005b83811015620003775780820151818401526020810190506200035a565b8381111562000387576000848401525b50505050565b60006002820490506001821680620003a657607f821691505b60208210811415620003bd57620003bc620003f9565b5b50919050565b620003ce8262000457565b810181811067ffffffffffffffff82111715620003f057620003ef62000428565b5b80604052505050565b7f4e487b7100000000000000000000000000000000000000000000000000000000600052602260045260246000fd5b7f4e487b7100000000000000000000000000000000000000000000000000000000600052604160045260246000fd5b6000601f19601f8301169050919050565b6136bf80620004786000396000f3fe608060405234801561001057600080fd5b50600436106101425760003560e01c80634f6ccce7116100b857806395d89b411161007c57806395d89b411461039e578063a22cb465146103bc578063b88d4fde146103d8578063c87b56dd146103f4578063e985e9c514610424578063f2fde38b1461045457610142565b80634f6ccce7146102e65780636352211e1461031657806370a0823114610346578063715018a6146103765780638da5cb5b1461038057610142565b806318160ddd1161010a57806318160ddd1461021357806323b872dd146102315780632f745c591461024d5780633d54eebb1461027d57806342842e0e146102ae57806342966c68146102ca57610142565b806301ffc9a71461014757806306fdde0314610177578063081812fc14610195578063095ea7b3146101c557806317b47cc4146101e1575b600080fd5b610161600480360381019061015c919061266e565b610470565b60405161016e9190612ac9565b60405180910390f35b61017f610482565b60405161018c9190612ae4565b60405180910390f35b6101af60048036038101906101aa9190612701565b610514565b6040516101bc9190612a62565b60405180910390f35b6101df60048036038101906101da9190612632565b610599565b005b6101fb60048036038101906101f69190612701565b6106b1565b60405161020a93929190612daa565b60405180910390f35b61021b610783565b6040516102289190612d66565b60405180910390f35b61024b6004803603810190610246919061252c565b610790565b005b61026760048036038101906102629190612632565b6107f0565b6040516102749190612d66565b60405180910390f35b610297600480360381019061029291906126c0565b610895565b6040516102a5929190612d81565b60405180910390f35b6102c860048036038101906102c3919061252c565b61097b565b005b6102e460048036038101906102df9190612701565b61099b565b005b61030060048036038101906102fb9190612701565b6109f7565b60405161030d9190612d66565b60405180910390f35b610330600480360381019061032b9190612701565b610a8e565b60405161033d9190612a62565b60405180910390f35b610360600480360381019061035b91906124c7565b610b40565b60405161036d9190612d66565b60405180910390f35b61037e610bf8565b005b610388610c80565b6040516103959190612a62565b60405180910390f35b6103a6610caa565b6040516103b39190612ae4565b60405180910390f35b6103d660048036038101906103d191906125f6565b610d3c565b005b6103f260048036038101906103ed919061257b565b610d52565b005b61040e60048036038101906104099190612701565b610db4565b60405161041b9190612ae4565b60405180910390f35b61043e600480360381019061043991906124f0565b610ea4565b60405161044b9190612ac9565b60405180910390f35b61046e600480360381019061046991906124c7565b610f38565b005b600061047b82611030565b9050919050565b60606000805461049190612fe7565b80601f01602080910402602001604051908101604052809291908181526020018280546104bd90612fe7565b801561050a5780601f106104df5761010080835404028352916020019161050a565b820191906000526020600020905b8154815290600101906020018083116104ed57829003601f168201915b5050505050905090565b600061051f826110aa565b61055e576040517f08c379a000000000000000000000000000000000000000000000000000000000815260040161055590612c86565b60405180910390fd5b6004600083815260200190815260200160002060009054906101000a900473ffffffffffffffffffffffffffffffffffffffff169050919050565b60006105a482610a8e565b90508073ffffffffffffffffffffffffffffffffffffffff168373ffffffffffffffffffffffffffffffffffffffff161415610615576040517f08c379a000000000000000000000000000000000000000000000000000000000815260040161060c90612ce6565b60405180910390fd5b8073ffffffffffffffffffffffffffffffffffffffff16610634611116565b73ffffffffffffffffffffffffffffffffffffffff16148061066357506106628161065d611116565b610ea4565b5b6106a2576040517f08c379a000000000000000000000000000000000000000000000000000000000815260040161069990612c06565b60405180910390fd5b6106ac838361111e565b505050565b600c6020528060005260406000206000915090508060000154908060010160009054906101000a900473ffffffffffffffffffffffffffffffffffffffff169080600201805461070090612fe7565b80601f016020809104026020016040519081016040528092919081815260200182805461072c90612fe7565b80156107795780601f1061074e57610100808354040283529160200191610779565b820191906000526020600020905b81548152906001019060200180831161075c57829003601f168201915b5050505050905083565b6000600980549050905090565b6107a161079b611116565b826111d7565b6107e0576040517f08c379a00000000000000000000000000000000000000000000000000000000081526004016107d790612d06565b60405180910390fd5b6107eb8383836112b5565b505050565b60006107fb83610b40565b821061083c576040517f08c379a000000000000000000000000000000000000000000000000000000000815260040161083390612b06565b60405180910390fd5b600760008473ffffffffffffffffffffffffffffffffffffffff1673ffffffffffffffffffffffffffffffffffffffff168152602001908152602001600020600083815260200190815260200160002054905092915050565b6000806108a2600b61151c565b60006108ae600b611532565b90506108ba3382611540565b60405180606001604052808281526020013373ffffffffffffffffffffffffffffffffffffffff16815260200185815250600c60008381526020019081526020016000206000820151816000015560208201518160010160006101000a81548173ffffffffffffffffffffffffffffffffffffffff021916908373ffffffffffffffffffffffffffffffffffffffff160217905550604082015181600201908051906020019061096b9291906122eb565b5090505080339250925050915091565b61099683838360405180602001604052806000815250610d52565b505050565b6109ac6109a6611116565b826111d7565b6109eb576040517f08c379a00000000000000000000000000000000000000000000000000000000081526004016109e290612d46565b60405180910390fd5b6109f48161155e565b50565b6000610a01610783565b8210610a42576040517f08c379a0000000000000000000000000000000000000000000000000000000008152600401610a3990612d26565b60405180910390fd5b60098281548110610a7c577f4e487b7100000000000000000000000000000000000000000000000000000000600052603260045260246000fd5b90600052602060002001549050919050565b6000806002600084815260200190815260200160002060009054906101000a900473ffffffffffffffffffffffffffffffffffffffff169050600073ffffffffffffffffffffffffffffffffffffffff168173ffffffffffffffffffffffffffffffffffffffff161415610b37576040517f08c379a0000000000000000000000000000000000000000000000000000000008152600401610b2e90612c46565b60405180910390fd5b80915050919050565b60008073ffffffffffffffffffffffffffffffffffffffff168273ffffffffffffffffffffffffffffffffffffffff161415610bb1576040517f08c379a0000000000000000000000000000000000000000000000000000000008152600401610ba890612c26565b60405180910390fd5b600360008373ffffffffffffffffffffffffffffffffffffffff1673ffffffffffffffffffffffffffffffffffffffff168152602001908152602001600020549050919050565b610c00611116565b73ffffffffffffffffffffffffffffffffffffffff16610c1e610c80565b73ffffffffffffffffffffffffffffffffffffffff1614610c74576040517f08c379a0000000000000000000000000000000000000000000000000000000008152600401610c6b90612ca6565b60405180910390fd5b610c7e600061167b565b565b6000600660009054906101000a900473ffffffffffffffffffffffffffffffffffffffff16905090565b606060018054610cb990612fe7565b80601f0160208091040260200160405190810160405280929190818152602001828054610ce590612fe7565b8015610d325780601f10610d0757610100808354040283529160200191610d32565b820191906000526020600020905b815481529060010190602001808311610d1557829003601f168201915b5050505050905090565b610d4e610d47611116565b8383611741565b5050565b610d63610d5d611116565b836111d7565b610da2576040517f08c379a0000000000000000000000000000000000000000000000000000000008152600401610d9990612d06565b60405180910390fd5b610dae848484846118ae565b50505050565b6060610dbf826110aa565b610dfe576040517f08c379a0000000000000000000000000000000000000000000000000000000008152600401610df590612cc6565b60405180910390fd5b600c60008381526020019081526020016000206002018054610e1f90612fe7565b80601f0160208091040260200160405190810160405280929190818152602001828054610e4b90612fe7565b8015610e985780601f10610e6d57610100808354040283529160200191610e98565b820191906000526020600020905b815481529060010190602001808311610e7b57829003601f168201915b50505050509050919050565b6000600560008473ffffffffffffffffffffffffffffffffffffffff1673ffffffffffffffffffffffffffffffffffffffff16815260200190815260200160002060008373ffffffffffffffffffffffffffffffffffffffff1673ffffffffffffffffffffffffffffffffffffffff16815260200190815260200160002060009054906101000a900460ff16905092915050565b610f40611116565b73ffffffffffffffffffffffffffffffffffffffff16610f5e610c80565b73ffffffffffffffffffffffffffffffffffffffff1614610fb4576040517f08c379a0000000000000000000000000000000000000000000000000000000008152600401610fab90612ca6565b60405180910390fd5b600073ffffffffffffffffffffffffffffffffffffffff168173ffffffffffffffffffffffffffffffffffffffff161415611024576040517f08c379a000000000000000000000000000000000000000000000000000000000815260040161101b90612b46565b60405180910390fd5b61102d8161167b565b50565b60007f780e9d63000000000000000000000000000000000000000000000000000000007bffffffffffffffffffffffffffffffffffffffffffffffffffffffff1916827bffffffffffffffffffffffffffffffffffffffffffffffffffffffff191614806110a357506110a28261190a565b5b9050919050565b60008073ffffffffffffffffffffffffffffffffffffffff166002600084815260200190815260200160002060009054906101000a900473ffffffffffffffffffffffffffffffffffffffff1673ffffffffffffffffffffffffffffffffffffffff1614159050919050565b600033905090565b816004600083815260200190815260200160002060006101000a81548173ffffffffffffffffffffffffffffffffffffffff021916908373ffffffffffffffffffffffffffffffffffffffff160217905550808273ffffffffffffffffffffffffffffffffffffffff1661119183610a8e565b73ffffffffffffffffffffffffffffffffffffffff167f8c5be1e5ebec7d5bd14f71427d1e84f3dd0314c0f7b2291e5b200ac8c7c3b92560405160405180910390a45050565b60006111e2826110aa565b611221576040517f08c379a000000000000000000000000000000000000000000000000000000000815260040161121890612be6565b60405180910390fd5b600061122c83610a8e565b90508073ffffffffffffffffffffffffffffffffffffffff168473ffffffffffffffffffffffffffffffffffffffff16148061129b57508373ffffffffffffffffffffffffffffffffffffffff1661128384610514565b73ffffffffffffffffffffffffffffffffffffffff16145b806112ac57506112ab8185610ea4565b5b91505092915050565b8273ffffffffffffffffffffffffffffffffffffffff166112d582610a8e565b73ffffffffffffffffffffffffffffffffffffffff161461132b576040517f08c379a000000000000000000000000000000000000000000000000000000000815260040161132290612b66565b60405180910390fd5b600073ffffffffffffffffffffffffffffffffffffffff168273ffffffffffffffffffffffffffffffffffffffff16141561139b576040517f08c379a000000000000000000000000000000000000000000000000000000000815260040161139290612ba6565b60405180910390fd5b6113a68383836119ec565b6113b160008261111e565b6001600360008573ffffffffffffffffffffffffffffffffffffffff1673ffffffffffffffffffffffffffffffffffffffff16815260200190815260200160002060008282546114019190612efd565b925050819055506001600360008473ffffffffffffffffffffffffffffffffffffffff1673ffffffffffffffffffffffffffffffffffffffff16815260200190815260200160002060008282546114589190612ea7565b92505081905550816002600083815260200190815260200160002060006101000a81548173ffffffffffffffffffffffffffffffffffffffff021916908373ffffffffffffffffffffffffffffffffffffffff160217905550808273ffffffffffffffffffffffffffffffffffffffff168473ffffffffffffffffffffffffffffffffffffffff167fddf252ad1be2c89b69c2b068fc378daa952ba7f163c4a11628f55a4df523b3ef60405160405180910390a46115178383836119fc565b505050565b6001816000016000828254019250508190555050565b600081600001549050919050565b61155a828260405180602001604052806000815250611a01565b5050565b600061156982610a8e565b9050611577816000846119ec565b61158260008361111e565b6001600360008373ffffffffffffffffffffffffffffffffffffffff1673ffffffffffffffffffffffffffffffffffffffff16815260200190815260200160002060008282546115d29190612efd565b925050819055506002600083815260200190815260200160002060006101000a81549073ffffffffffffffffffffffffffffffffffffffff021916905581600073ffffffffffffffffffffffffffffffffffffffff168273ffffffffffffffffffffffffffffffffffffffff167fddf252ad1be2c89b69c2b068fc378daa952ba7f163c4a11628f55a4df523b3ef60405160405180910390a4611677816000846119fc565b5050565b6000600660009054906101000a900473ffffffffffffffffffffffffffffffffffffffff16905081600660006101000a81548173ffffffffffffffffffffffffffffffffffffffff021916908373ffffffffffffffffffffffffffffffffffffffff1602179055508173ffffffffffffffffffffffffffffffffffffffff168173ffffffffffffffffffffffffffffffffffffffff167f8be0079c531659141344cd1fd0a4f28419497f9722a3daafe3b4186f6b6457e060405160405180910390a35050565b8173ffffffffffffffffffffffffffffffffffffffff168373ffffffffffffffffffffffffffffffffffffffff1614156117b0576040517f08c379a00000000000000000000000000000000000000000000000000000000081526004016117a790612bc6565b60405180910390fd5b80600560008573ffffffffffffffffffffffffffffffffffffffff1673ffffffffffffffffffffffffffffffffffffffff16815260200190815260200160002060008473ffffffffffffffffffffffffffffffffffffffff1673ffffffffffffffffffffffffffffffffffffffff16815260200190815260200160002060006101000a81548160ff0219169083151502179055508173ffffffffffffffffffffffffffffffffffffffff168373ffffffffffffffffffffffffffffffffffffffff167f17307eab39ab6107e8899845ad3d59bd9653f200f220920489ca2b5937696c31836040516118a19190612ac9565b60405180910390a3505050565b6118b98484846112b5565b6118c584848484611a5c565b611904576040517f08c379a00000000000000000000000000000000000000000000000000000000081526004016118fb90612b26565b60405180910390fd5b50505050565b60007f80ac58cd000000000000000000000000000000000000000000000000000000007bffffffffffffffffffffffffffffffffffffffffffffffffffffffff1916827bffffffffffffffffffffffffffffffffffffffffffffffffffffffff191614806119d557507f5b5e139f000000000000000000000000000000000000000000000000000000007bffffffffffffffffffffffffffffffffffffffffffffffffffffffff1916827bffffffffffffffffffffffffffffffffffffffffffffffffffffffff1916145b806119e557506119e482611bf3565b5b9050919050565b6119f7838383611c5d565b505050565b505050565b611a0b8383611d71565b611a186000848484611a5c565b611a57576040517f08c379a0000000000000000000000000000000000000000000000000000000008152600401611a4e90612b26565b60405180910390fd5b505050565b6000611a7d8473ffffffffffffffffffffffffffffffffffffffff16611f4b565b15611be6578373ffffffffffffffffffffffffffffffffffffffff1663150b7a02611aa6611116565b8786866040518563ffffffff1660e01b8152600401611ac89493929190612a7d565b602060405180830381600087803b158015611ae257600080fd5b505af1925050508015611b1357506040513d601f19601f82011682018060405250810190611b109190612697565b60015b611b96573d8060008114611b43576040519150601f19603f3d011682016040523d82523d6000602084013e611b48565b606091505b50600081511415611b8e576040517f08c379a0000000000000000000000000000000000000000000000000000000008152600401611b8590612b26565b60405180910390fd5b805181602001fd5b63150b7a0260e01b7bffffffffffffffffffffffffffffffffffffffffffffffffffffffff1916817bffffffffffffffffffffffffffffffffffffffffffffffffffffffff191614915050611beb565b600190505b949350505050565b60007f01ffc9a7000000000000000000000000000000000000000000000000000000007bffffffffffffffffffffffffffffffffffffffffffffffffffffffff1916827bffffffffffffffffffffffffffffffffffffffffffffffffffffffff1916149050919050565b611c68838383611f6e565b600073ffffffffffffffffffffffffffffffffffffffff168373ffffffffffffffffffffffffffffffffffffffff161415611cab57611ca681611f73565b611cea565b8173ffffffffffffffffffffffffffffffffffffffff168373ffffffffffffffffffffffffffffffffffffffff1614611ce957611ce88382611fbc565b5b5b600073ffffffffffffffffffffffffffffffffffffffff168273ffffffffffffffffffffffffffffffffffffffff161415611d2d57611d2881612129565b611d6c565b8273ffffffffffffffffffffffffffffffffffffffff168273ffffffffffffffffffffffffffffffffffffffff1614611d6b57611d6a828261226c565b5b5b505050565b600073ffffffffffffffffffffffffffffffffffffffff168273ffffffffffffffffffffffffffffffffffffffff161415611de1576040517f08c379a0000000000000000000000000000000000000000000000000000000008152600401611dd890612c66565b60405180910390fd5b611dea816110aa565b15611e2a576040517f08c379a0000000000000000000000000000000000000000000000000000000008152600401611e2190612b86565b60405180910390fd5b611e36600083836119ec565b6001600360008473ffffffffffffffffffffffffffffffffffffffff1673ffffffffffffffffffffffffffffffffffffffff1681526020019081526020016000206000828254611e869190612ea7565b92505081905550816002600083815260200190815260200160002060006101000a81548173ffffffffffffffffffffffffffffffffffffffff021916908373ffffffffffffffffffffffffffffffffffffffff160217905550808273ffffffffffffffffffffffffffffffffffffffff16600073ffffffffffffffffffffffffffffffffffffffff167fddf252ad1be2c89b69c2b068fc378daa952ba7f163c4a11628f55a4df523b3ef60405160405180910390a4611f47600083836119fc565b5050565b6000808273ffffffffffffffffffffffffffffffffffffffff163b119050919050565b505050565b600980549050600a600083815260200190815260200160002081905550600981908060018154018082558091505060019003906000526020600020016000909190919091505550565b60006001611fc984610b40565b611fd39190612efd565b90506000600860008481526020019081526020016000205490508181146120b8576000600760008673ffffffffffffffffffffffffffffffffffffffff1673ffffffffffffffffffffffffffffffffffffffff168152602001908152602001600020600084815260200190815260200160002054905080600760008773ffffffffffffffffffffffffffffffffffffffff1673ffffffffffffffffffffffffffffffffffffffff168152602001908152602001600020600084815260200190815260200160002081905550816008600083815260200190815260200160002081905550505b6008600084815260200190815260200160002060009055600760008573ffffffffffffffffffffffffffffffffffffffff1673ffffffffffffffffffffffffffffffffffffffff16815260200190815260200160002060008381526020019081526020016000206000905550505050565b6000600160098054905061213d9190612efd565b90506000600a6000848152602001908152602001600020549050600060098381548110612193577f4e487b7100000000000000000000000000000000000000000000000000000000600052603260045260246000fd5b9060005260206000200154905080600983815481106121db577f4e487b7100000000000000000000000000000000000000000000000000000000600052603260045260246000fd5b906000526020600020018190555081600a600083815260200190815260200160002081905550600a6000858152602001908152602001600020600090556009805480612250577f4e487b7100000000000000000000000000000000000000000000000000000000600052603160045260246000fd5b6001900381819060005260206000200160009055905550505050565b600061227783610b40565b905081600760008573ffffffffffffffffffffffffffffffffffffffff1673ffffffffffffffffffffffffffffffffffffffff168152602001908152602001600020600083815260200190815260200160002081905550806008600084815260200190815260200160002081905550505050565b8280546122f790612fe7565b90600052602060002090601f0160209004810192826123195760008555612360565b82601f1061233257805160ff1916838001178555612360565b82800160010185558215612360579182015b8281111561235f578251825591602001919060010190612344565b5b50905061236d9190612371565b5090565b5b8082111561238a576000816000905550600101612372565b5090565b60006123a161239c84612e0d565b612de8565b9050828152602081018484840111156123b957600080fd5b6123c4848285612fa5565b509392505050565b60006123df6123da84612e3e565b612de8565b9050828152602081018484840111156123f757600080fd5b612402848285612fa5565b509392505050565b6000813590506124198161362d565b92915050565b60008135905061242e81613644565b92915050565b6000813590506124438161365b565b92915050565b6000815190506124588161365b565b92915050565b600082601f83011261246f57600080fd5b813561247f84826020860161238e565b91505092915050565b600082601f83011261249957600080fd5b81356124a98482602086016123cc565b91505092915050565b6000813590506124c181613672565b92915050565b6000602082840312156124d957600080fd5b60006124e78482850161240a565b91505092915050565b6000806040838503121561250357600080fd5b60006125118582860161240a565b92505060206125228582860161240a565b9150509250929050565b60008060006060848603121561254157600080fd5b600061254f8682870161240a565b93505060206125608682870161240a565b9250506040612571868287016124b2565b9150509250925092565b6000806000806080858703121561259157600080fd5b600061259f8782880161240a565b94505060206125b08782880161240a565b93505060406125c1878288016124b2565b925050606085013567ffffffffffffffff8111156125de57600080fd5b6125ea8782880161245e565b91505092959194509250565b6000806040838503121561260957600080fd5b60006126178582860161240a565b92505060206126288582860161241f565b9150509250929050565b6000806040838503121561264557600080fd5b60006126538582860161240a565b9250506020612664858286016124b2565b9150509250929050565b60006020828403121561268057600080fd5b600061268e84828501612434565b91505092915050565b6000602082840312156126a957600080fd5b60006126b784828501612449565b91505092915050565b6000602082840312156126d257600080fd5b600082013567ffffffffffffffff8111156126ec57600080fd5b6126f884828501612488565b91505092915050565b60006020828403121561271357600080fd5b6000612721848285016124b2565b91505092915050565b61273381612f31565b82525050565b61274281612f43565b82525050565b600061275382612e6f565b61275d8185612e85565b935061276d818560208601612fb4565b612776816130d7565b840191505092915050565b600061278c82612e7a565b6127968185612e96565b93506127a6818560208601612fb4565b6127af816130d7565b840191505092915050565b60006127c7602b83612e96565b91506127d2826130e8565b604082019050919050565b60006127ea603283612e96565b91506127f582613137565b604082019050919050565b600061280d602683612e96565b915061281882613186565b604082019050919050565b6000612830602583612e96565b915061283b826131d5565b604082019050919050565b6000612853601c83612e96565b915061285e82613224565b602082019050919050565b6000612876602483612e96565b91506128818261324d565b604082019050919050565b6000612899601983612e96565b91506128a48261329c565b602082019050919050565b60006128bc602c83612e96565b91506128c7826132c5565b604082019050919050565b60006128df603883612e96565b91506128ea82613314565b604082019050919050565b6000612902602a83612e96565b915061290d82613363565b604082019050919050565b6000612925602983612e96565b9150612930826133b2565b604082019050919050565b6000612948602083612e96565b915061295382613401565b602082019050919050565b600061296b602c83612e96565b91506129768261342a565b604082019050919050565b600061298e602083612e96565b915061299982613479565b602082019050919050565b60006129b1602f83612e96565b91506129bc826134a2565b604082019050919050565b60006129d4602183612e96565b91506129df826134f1565b604082019050919050565b60006129f7603183612e96565b9150612a0282613540565b604082019050919050565b6000612a1a602c83612e96565b9150612a258261358f565b604082019050919050565b6000612a3d603083612e96565b9150612a48826135de565b604082019050919050565b612a5c81612f9b565b82525050565b6000602082019050612a77600083018461272a565b92915050565b6000608082019050612a92600083018761272a565b612a9f602083018661272a565b612aac6040830185612a53565b8181036060830152612abe8184612748565b905095945050505050565b6000602082019050612ade6000830184612739565b92915050565b60006020820190508181036000830152612afe8184612781565b905092915050565b60006020820190508181036000830152612b1f816127ba565b9050919050565b60006020820190508181036000830152612b3f816127dd565b9050919050565b60006020820190508181036000830152612b5f81612800565b9050919050565b60006020820190508181036000830152612b7f81612823565b9050919050565b60006020820190508181036000830152612b9f81612846565b9050919050565b60006020820190508181036000830152612bbf81612869565b9050919050565b60006020820190508181036000830152612bdf8161288c565b9050919050565b60006020820190508181036000830152612bff816128af565b9050919050565b60006020820190508181036000830152612c1f816128d2565b9050919050565b60006020820190508181036000830152612c3f816128f5565b9050919050565b60006020820190508181036000830152612c5f81612918565b9050919050565b60006020820190508181036000830152612c7f8161293b565b9050919050565b60006020820190508181036000830152612c9f8161295e565b9050919050565b60006020820190508181036000830152612cbf81612981565b9050919050565b60006020820190508181036000830152612cdf816129a4565b9050919050565b60006020820190508181036000830152612cff816129c7565b9050919050565b60006020820190508181036000830152612d1f816129ea565b9050919050565b60006020820190508181036000830152612d3f81612a0d565b9050919050565b60006020820190508181036000830152612d5f81612a30565b9050919050565b6000602082019050612d7b6000830184612a53565b92915050565b6000604082019050612d966000830185612a53565b612da3602083018461272a565b9392505050565b6000606082019050612dbf6000830186612a53565b612dcc602083018561272a565b8181036040830152612dde8184612781565b9050949350505050565b6000612df2612e03565b9050612dfe8282613019565b919050565b6000604051905090565b600067ffffffffffffffff821115612e2857612e276130a8565b5b612e31826130d7565b9050602081019050919050565b600067ffffffffffffffff821115612e5957612e586130a8565b5b612e62826130d7565b9050602081019050919050565b600081519050919050565b600081519050919050565b600082825260208201905092915050565b600082825260208201905092915050565b6000612eb282612f9b565b9150612ebd83612f9b565b9250827fffffffffffffffffffffffffffffffffffffffffffffffffffffffffffffffff03821115612ef257612ef161304a565b5b828201905092915050565b6000612f0882612f9b565b9150612f1383612f9b565b925082821015612f2657612f2561304a565b5b828203905092915050565b6000612f3c82612f7b565b9050919050565b60008115159050919050565b60007fffffffff0000000000000000000000000000000000000000000000000000000082169050919050565b600073ffffffffffffffffffffffffffffffffffffffff82169050919050565b6000819050919050565b82818337600083830152505050565b60005b83811015612fd2578082015181840152602081019050612fb7565b83811115612fe1576000848401525b50505050565b60006002820490506001821680612fff57607f821691505b6020821081141561301357613012613079565b5b50919050565b613022826130d7565b810181811067ffffffffffffffff82111715613041576130406130a8565b5b80604052505050565b7f4e487b7100000000000000000000000000000000000000000000000000000000600052601160045260246000fd5b7f4e487b7100000000000000000000000000000000000000000000000000000000600052602260045260246000fd5b7f4e487b7100000000000000000000000000000000000000000000000000000000600052604160045260246000fd5b6000601f19601f8301169050919050565b7f455243373231456e756d657261626c653a206f776e657220696e646578206f7560008201527f74206f6620626f756e6473000000000000000000000000000000000000000000602082015250565b7f4552433732313a207472616e7366657220746f206e6f6e20455243373231526560008201527f63656976657220696d706c656d656e7465720000000000000000000000000000602082015250565b7f4f776e61626c653a206e6577206f776e657220697320746865207a65726f206160008201527f6464726573730000000000000000000000000000000000000000000000000000602082015250565b7f4552433732313a207472616e736665722066726f6d20696e636f72726563742060008201527f6f776e6572000000000000000000000000000000000000000000000000000000602082015250565b7f4552433732313a20746f6b656e20616c7265616479206d696e74656400000000600082015250565b7f4552433732313a207472616e7366657220746f20746865207a65726f2061646460008201527f7265737300000000000000000000000000000000000000000000000000000000602082015250565b7f4552433732313a20617070726f766520746f2063616c6c657200000000000000600082015250565b7f4552433732313a206f70657261746f7220717565727920666f72206e6f6e657860008201527f697374656e7420746f6b656e0000000000000000000000000000000000000000602082015250565b7f4552433732313a20617070726f76652063616c6c6572206973206e6f74206f7760008201527f6e6572206e6f7220617070726f76656420666f7220616c6c0000000000000000602082015250565b7f4552433732313a2062616c616e636520717565727920666f7220746865207a6560008201527f726f206164647265737300000000000000000000000000000000000000000000602082015250565b7f4552433732313a206f776e657220717565727920666f72206e6f6e657869737460008201527f656e7420746f6b656e0000000000000000000000000000000000000000000000602082015250565b7f4552433732313a206d696e7420746f20746865207a65726f2061646472657373600082015250565b7f4552433732313a20617070726f76656420717565727920666f72206e6f6e657860008201527f697374656e7420746f6b656e0000000000000000000000000000000000000000602082015250565b7f4f776e61626c653a2063616c6c6572206973206e6f7420746865206f776e6572600082015250565b7f4552433732314d657461646174613a2055524920717565727920666f72206e6f60008201527f6e6578697374656e7420746f6b656e0000000000000000000000000000000000602082015250565b7f4552433732313a20617070726f76616c20746f2063757272656e74206f776e6560008201527f7200000000000000000000000000000000000000000000000000000000000000602082015250565b7f4552433732313a207472616e736665722063616c6c6572206973206e6f74206f60008201527f776e6572206e6f7220617070726f766564000000000000000000000000000000602082015250565b7f455243373231456e756d657261626c653a20676c6f62616c20696e646578206f60008201527f7574206f6620626f756e64730000000000000000000000000000000000000000602082015250565b7f4552433732314275726e61626c653a2063616c6c6572206973206e6f74206f7760008201527f6e6572206e6f7220617070726f76656400000000000000000000000000000000602082015250565b61363681612f31565b811461364157600080fd5b50565b61364d81612f43565b811461365857600080fd5b50565b61366481612f4f565b811461366f57600080fd5b50565b61367b81612f9b565b811461368657600080fd5b5056fea2646970667358221220ba4f10e20daea24751be2a8c4bb97f9ebcda7581c8582096a645d37844b54ff564736f6c63430008040033",
  "linkReferences": {},
  "deployedLinkReferences": {}
}