{
  "_format": "hh-sol-artifact-1",
  "contractName": "TokenContract721",
  "sourceName": "contracts/TokenContract721.sol",
  "abi": [
    {
      "inputs": [
        {
          "internalType": "string",
          "name": "name",
          "type": "string"
        },
        {
          "internalType": "string",
          "name": "symbol",
          "type": "string"
        }
      ],
      "stateMutability": "nonpayable",
      "type": "constructor"
    },
    {
      "anonymous": false,
      "inputs": [
        {
          "indexed": true,
          "internalType": "address",
          "name": "owner",
          "type": "address"
        },
        {
          "indexed": true,
          "internalType": "address",
          "name": "approved",
          "type": "address"
        },
        {
          "indexed": true,
          "internalType": "uint256",
          "name": "tokenId",
          "type": "uint256"
        }
      ],
      "name": "Approval",
      "type": "event"
    },
    {
      "anonymous": false,
      "inputs": [
        {
          "indexed": true,
          "internalType": "address",
          "name": "owner",
          "type": "address"
        },
        {
          "indexed": true,
          "internalType": "address",
          "name": "operator",
          "type": "address"
        },
        {
          "indexed": false,
          "internalType": "bool",
          "name": "approved",
          "type": "bool"
        }
      ],
      "name": "ApprovalForAll",
      "type": "event"
    },
    {
      "anonymous": false,
      "inputs": [
        {
          "indexed": true,
          "internalType": "address",
          "name": "previousOwner",
          "type": "address"
        },
        {
          "indexed": true,
          "internalType": "address",
          "name": "newOwner",
          "type": "address"
        }
      ],
      "name": "OwnershipTransferred",
      "type": "event"
    },
    {
      "anonymous": false,
      "inputs": [
        {
          "indexed": true,
          "internalType": "address",
          "name": "from",
          "type": "address"
        },
        {
          "indexed": true,
          "internalType": "address",
          "name": "to",
          "type": "address"
        },
        {
          "indexed": true,
          "internalType": "uint256",
          "name": "tokenId",
          "type": "uint256"
        }
      ],
      "name": "Transfer",
      "type": "event"
    },
    {
      "inputs": [
        {
          "internalType": "uint256",
          "name": "",
          "type": "uint256"
        }
      ],
      "name": "Items",
      "outputs": [
        {
          "internalType": "uint256",
          "name": "id",
          "type": "uint256"
        },
        {
          "internalType": "address",
          "name": "creator",
          "type": "address"
        },
        {
          "internalType": "string",
          "name": "uri",
          "type": "string"
        }
      ],
      "stateMutability": "view",
      "type": "function"
    },
    {
      "inputs": [
        {
          "internalType": "address",
          "name": "to",
          "type": "address"
        },
        {
          "internalType": "uint256",
          "name": "tokenId",
          "type": "uint256"
        }
      ],
      "name": "approve",
      "outputs": [],
      "stateMutability": "nonpayable",
      "type": "function"
    },
    {
      "inputs": [
        {
          "internalType": "address",
          "name": "owner",
          "type": "address"
        }
      ],
      "name": "balanceOf",
      "outputs": [
        {
          "internalType": "uint256",
          "name": "",
          "type": "uint256"
        }
      ],
      "stateMutability": "view",
      "type": "function"
    },
    {
      "inputs": [
        {
          "internalType": "uint256",
          "name": "tokenId",
          "type": "uint256"
        }
      ],
      "name": "burn",
      "outputs": [],
      "stateMutability": "nonpayable",
      "type": "function"
    },
    {
      "inputs": [
        {
          "internalType": "string",
          "name": "uri",
          "type": "string"
        }
      ],
      "name": "directMint",
      "outputs": [
        {
          "internalType": "uint256",
          "name": "",
          "type": "uint256"
        }
      ],
      "stateMutability": "nonpayable",
      "type": "function"
    },
    {
      "inputs": [
        {
          "internalType": "uint256",
          "name": "tokenId",
          "type": "uint256"
        }
      ],
      "name": "getApproved",
      "outputs": [
        {
          "internalType": "address",
          "name": "",
          "type": "address"
        }
      ],
      "stateMutability": "view",
      "type": "function"
    },
    {
      "inputs": [
        {
          "internalType": "address",
          "name": "owner",
          "type": "address"
        },
        {
          "internalType": "address",
          "name": "operator",
          "type": "address"
        }
      ],
      "name": "isApprovedForAll",
      "outputs": [
        {
          "internalType": "bool",
          "name": "",
          "type": "bool"
        }
      ],
      "stateMutability": "view",
      "type": "function"
    },
    {
      "inputs": [
        {
          "internalType": "address",
          "name": "creator",
          "type": "address"
        },
        {
          "internalType": "uint256",
          "name": "askingPrice",
          "type": "uint256"
        },
        {
          "internalType": "string",
          "name": "uri",
          "type": "string"
        }
      ],
      "name": "lazyMint",
      "outputs": [
        {
          "internalType": "uint256",
          "name": "",
          "type": "uint256"
        }
      ],
      "stateMutability": "payable",
      "type": "function"
    },
    {
      "inputs": [
        {
          "internalType": "address",
          "name": "creator",
          "type": "address"
        },
        {
          "internalType": "uint256",
          "name": "askingPrice",
          "type": "uint256"
        },
        {
          "internalType": "string",
          "name": "uri",
          "type": "string"
        },
        {
          "internalType": "address",
          "name": "payToken",
          "type": "address"
        }
      ],
      "name": "lazyMintCustom",
      "outputs": [
        {
          "internalType": "uint256",
          "name": "",
          "type": "uint256"
        }
      ],
      "stateMutability": "payable",
      "type": "function"
    },
    {
      "inputs": [],
      "name": "name",
      "outputs": [
        {
          "internalType": "string",
          "name": "",
          "type": "string"
        }
      ],
      "stateMutability": "view",
      "type": "function"
    },
    {
      "inputs": [],
      "name": "owner",
      "outputs": [
        {
          "internalType": "address",
          "name": "",
          "type": "address"
        }
      ],
      "stateMutability": "view",
      "type": "function"
    },
    {
      "inputs": [
        {
          "internalType": "uint256",
          "name": "tokenId",
          "type": "uint256"
        }
      ],
      "name": "ownerOf",
      "outputs": [
        {
          "internalType": "address",
          "name": "",
          "type": "address"
        }
      ],
      "stateMutability": "view",
      "type": "function"
    },
    {
      "inputs": [],
      "name": "renounceOwnership",
      "outputs": [],
      "stateMutability": "nonpayable",
      "type": "function"
    },
    {
      "inputs": [
        {
          "internalType": "address",
          "name": "from",
          "type": "address"
        },
        {
          "internalType": "address",
          "name": "to",
          "type": "address"
        },
        {
          "internalType": "uint256",
          "name": "tokenId",
          "type": "uint256"
        }
      ],
      "name": "safeTransferFrom",
      "outputs": [],
      "stateMutability": "nonpayable",
      "type": "function"
    },
    {
      "inputs": [
        {
          "internalType": "address",
          "name": "from",
          "type": "address"
        },
        {
          "internalType": "address",
          "name": "to",
          "type": "address"
        },
        {
          "internalType": "uint256",
          "name": "tokenId",
          "type": "uint256"
        },
        {
          "internalType": "bytes",
          "name": "data",
          "type": "bytes"
        }
      ],
      "name": "safeTransferFrom",
      "outputs": [],
      "stateMutability": "nonpayable",
      "type": "function"
    },
    {
      "inputs": [
        {
          "internalType": "address",
          "name": "operator",
          "type": "address"
        },
        {
          "internalType": "bool",
          "name": "approved",
          "type": "bool"
        }
      ],
      "name": "setApprovalForAll",
      "outputs": [],
      "stateMutability": "nonpayable",
      "type": "function"
    },
    {
      "inputs": [
        {
          "internalType": "bytes4",
          "name": "interfaceId",
          "type": "bytes4"
        }
      ],
      "name": "supportsInterface",
      "outputs": [
        {
          "internalType": "bool",
          "name": "",
          "type": "bool"
        }
      ],
      "stateMutability": "view",
      "type": "function"
    },
    {
      "inputs": [],
      "name": "symbol",
      "outputs": [
        {
          "internalType": "string",
          "name": "",
          "type": "string"
        }
      ],
      "stateMutability": "view",
      "type": "function"
    },
    {
      "inputs": [
        {
          "internalType": "uint256",
          "name": "index",
          "type": "uint256"
        }
      ],
      "name": "tokenByIndex",
      "outputs": [
        {
          "internalType": "uint256",
          "name": "",
          "type": "uint256"
        }
      ],
      "stateMutability": "view",
      "type": "function"
    },
    {
      "inputs": [
        {
          "internalType": "address",
          "name": "owner",
          "type": "address"
        },
        {
          "internalType": "uint256",
          "name": "index",
          "type": "uint256"
        }
      ],
      "name": "tokenOfOwnerByIndex",
      "outputs": [
        {
          "internalType": "uint256",
          "name": "",
          "type": "uint256"
        }
      ],
      "stateMutability": "view",
      "type": "function"
    },
    {
      "inputs": [
        {
          "internalType": "uint256",
          "name": "tokenId",
          "type": "uint256"
        }
      ],
      "name": "tokenURI",
      "outputs": [
        {
          "internalType": "string",
          "name": "",
          "type": "string"
        }
      ],
      "stateMutability": "view",
      "type": "function"
    },
    {
      "inputs": [],
      "name": "totalSupply",
      "outputs": [
        {
          "internalType": "uint256",
          "name": "",
          "type": "uint256"
        }
      ],
      "stateMutability": "view",
      "type": "function"
    },
    {
      "inputs": [
        {
          "internalType": "address",
          "name": "from",
          "type": "address"
        },
        {
          "internalType": "address",
          "name": "to",
          "type": "address"
        },
        {
          "internalType": "uint256",
          "name": "tokenId",
          "type": "uint256"
        }
      ],
      "name": "transferFrom",
      "outputs": [],
      "stateMutability": "nonpayable",
      "type": "function"
    },
    {
      "inputs": [
        {
          "internalType": "address",
          "name": "newOwner",
          "type": "address"
        }
      ],
      "name": "transferOwnership",
      "outputs": [],
      "stateMutability": "nonpayable",
      "type": "function"
    }
  ],
  "bytecode": "0x60806040523480156200001157600080fd5b5060405162003fa938038062003fa98339818101604052810190620000379190620003b0565b818181600090805190602001906200005192919062000163565b5080600190805190602001906200006a92919062000163565b5050506200008d620000816200009560201b60201c565b6200009d60201b60201c565b50506200049a565b600033905090565b6000600660009054906101000a900473ffffffffffffffffffffffffffffffffffffffff16905081600660006101000a81548173ffffffffffffffffffffffffffffffffffffffff021916908373ffffffffffffffffffffffffffffffffffffffff1602179055508173ffffffffffffffffffffffffffffffffffffffff168173ffffffffffffffffffffffffffffffffffffffff167f8be0079c531659141344cd1fd0a4f28419497f9722a3daafe3b4186f6b6457e060405160405180910390a35050565b828054620001719062000464565b90600052602060002090601f016020900481019282620001955760008555620001e1565b82601f10620001b057805160ff1916838001178555620001e1565b82800160010185558215620001e1579182015b82811115620001e0578251825591602001919060010190620001c3565b5b509050620001f09190620001f4565b5090565b5b808211156200020f576000816000905550600101620001f5565b5090565b6000604051905090565b600080fd5b600080fd5b600080fd5b600080fd5b6000601f19601f8301169050919050565b7f4e487b7100000000000000000000000000000000000000000000000000000000600052604160045260246000fd5b6200027c8262000231565b810181811067ffffffffffffffff821117156200029e576200029d62000242565b5b80604052505050565b6000620002b362000213565b9050620002c1828262000271565b919050565b600067ffffffffffffffff821115620002e457620002e362000242565b5b620002ef8262000231565b9050602081019050919050565b60005b838110156200031c578082015181840152602081019050620002ff565b838111156200032c576000848401525b50505050565b6000620003496200034384620002c6565b620002a7565b9050828152602081018484840111156200036857620003676200022c565b5b62000375848285620002fc565b509392505050565b600082601f83011262000395576200039462000227565b5b8151620003a784826020860162000332565b91505092915050565b60008060408385031215620003ca57620003c96200021d565b5b600083015167ffffffffffffffff811115620003eb57620003ea62000222565b5b620003f9858286016200037d565b925050602083015167ffffffffffffffff8111156200041d576200041c62000222565b5b6200042b858286016200037d565b9150509250929050565b7f4e487b7100000000000000000000000000000000000000000000000000000000600052602260045260246000fd5b600060028204905060018216806200047d57607f821691505b6020821081141562000494576200049362000435565b5b50919050565b613aff80620004aa6000396000f3fe60806040526004361061014b5760003560e01c80636352211e116100b6578063b88d4fde1161006f578063b88d4fde146104ca578063c3728c93146104f3578063c87b56dd14610523578063ce969d6d14610560578063e985e9c514610590578063f2fde38b146105cd5761014b565b80636352211e146103ba57806370a08231146103f7578063715018a6146104345780638da5cb5b1461044b57806395d89b4114610476578063a22cb465146104a15761014b565b806323b872dd1161010857806323b872dd146102885780632f745c59146102b157806342842e0e146102ee57806342966c68146103175780634f6ccce7146103405780635b1ac0ee1461037d5761014b565b806301ffc9a71461015057806306fdde031461018d578063081812fc146101b8578063095ea7b3146101f557806317b47cc41461021e57806318160ddd1461025d575b600080fd5b34801561015c57600080fd5b5061017760048036038101906101729190612731565b6105f6565b6040516101849190612779565b60405180910390f35b34801561019957600080fd5b506101a2610608565b6040516101af919061282d565b60405180910390f35b3480156101c457600080fd5b506101df60048036038101906101da9190612885565b61069a565b6040516101ec91906128f3565b60405180910390f35b34801561020157600080fd5b5061021c6004803603810190610217919061293a565b6106e0565b005b34801561022a57600080fd5b5061024560048036038101906102409190612885565b6107f8565b60405161025493929190612989565b60405180910390f35b34801561026957600080fd5b506102726108ca565b60405161027f91906129c7565b60405180910390f35b34801561029457600080fd5b506102af60048036038101906102aa91906129e2565b6108d7565b005b3480156102bd57600080fd5b506102d860048036038101906102d3919061293a565b610937565b6040516102e591906129c7565b60405180910390f35b3480156102fa57600080fd5b50610315600480360381019061031091906129e2565b6109dc565b005b34801561032357600080fd5b5061033e60048036038101906103399190612885565b6109fc565b005b34801561034c57600080fd5b5061036760048036038101906103629190612885565b610a58565b60405161037491906129c7565b60405180910390f35b34801561038957600080fd5b506103a4600480360381019061039f9190612b6a565b610ac9565b6040516103b191906129c7565b60405180910390f35b3480156103c657600080fd5b506103e160048036038101906103dc9190612885565b610bab565b6040516103ee91906128f3565b60405180910390f35b34801561040357600080fd5b5061041e60048036038101906104199190612bb3565b610c5d565b60405161042b91906129c7565b60405180910390f35b34801561044057600080fd5b50610449610d15565b005b34801561045757600080fd5b50610460610d29565b60405161046d91906128f3565b60405180910390f35b34801561048257600080fd5b5061048b610d53565b604051610498919061282d565b60405180910390f35b3480156104ad57600080fd5b506104c860048036038101906104c39190612c0c565b610de5565b005b3480156104d657600080fd5b506104f160048036038101906104ec9190612ced565b610dfb565b005b61050d60048036038101906105089190612d70565b610e5d565b60405161051a91906129c7565b60405180910390f35b34801561052f57600080fd5b5061054a60048036038101906105459190612885565b610fdd565b604051610557919061282d565b60405180910390f35b61057a60048036038101906105759190612df3565b6110cd565b60405161058791906129c7565b60405180910390f35b34801561059c57600080fd5b506105b760048036038101906105b29190612e62565b611241565b6040516105c49190612779565b60405180910390f35b3480156105d957600080fd5b506105f460048036038101906105ef9190612bb3565b6112d5565b005b600061060182611359565b9050919050565b60606000805461061790612ed1565b80601f016020809104026020016040519081016040528092919081815260200182805461064390612ed1565b80156106905780601f1061066557610100808354040283529160200191610690565b820191906000526020600020905b81548152906001019060200180831161067357829003601f168201915b5050505050905090565b60006106a5826113d3565b6004600083815260200190815260200160002060009054906101000a900473ffffffffffffffffffffffffffffffffffffffff169050919050565b60006106eb82610bab565b90508073ffffffffffffffffffffffffffffffffffffffff168373ffffffffffffffffffffffffffffffffffffffff16141561075c576040517f08c379a000000000000000000000000000000000000000000000000000000000815260040161075390612f75565b60405180910390fd5b8073ffffffffffffffffffffffffffffffffffffffff1661077b61141e565b73ffffffffffffffffffffffffffffffffffffffff1614806107aa57506107a9816107a461141e565b611241565b5b6107e9576040517f08c379a00000000000000000000000000000000000000000000000000000000081526004016107e090613007565b60405180910390fd5b6107f38383611426565b505050565b600d6020528060005260406000206000915090508060000154908060010160009054906101000a900473ffffffffffffffffffffffffffffffffffffffff169080600201805461084790612ed1565b80601f016020809104026020016040519081016040528092919081815260200182805461087390612ed1565b80156108c05780601f10610895576101008083540402835291602001916108c0565b820191906000526020600020905b8154815290600101906020018083116108a357829003601f168201915b5050505050905083565b6000600980549050905090565b6108e86108e261141e565b826114df565b610927576040517f08c379a000000000000000000000000000000000000000000000000000000000815260040161091e90613099565b60405180910390fd5b610932838383611574565b505050565b600061094283610c5d565b8210610983576040517f08c379a000000000000000000000000000000000000000000000000000000000815260040161097a9061312b565b60405180910390fd5b600760008473ffffffffffffffffffffffffffffffffffffffff1673ffffffffffffffffffffffffffffffffffffffff168152602001908152602001600020600083815260200190815260200160002054905092915050565b6109f783838360405180602001604052806000815250610dfb565b505050565b610a0d610a0761141e565b826114df565b610a4c576040517f08c379a0000000000000000000000000000000000000000000000000000000008152600401610a4390613099565b60405180910390fd5b610a55816117db565b50565b6000610a626108ca565b8210610aa3576040517f08c379a0000000000000000000000000000000000000000000000000000000008152600401610a9a906131bd565b60405180910390fd5b60098281548110610ab757610ab66131dd565b5b90600052602060002001549050919050565b6000610ad5600b6118f8565b6000610ae1600b61190e565b9050610aed338261191c565b60405180606001604052808281526020013373ffffffffffffffffffffffffffffffffffffffff16815260200184815250600d60008381526020019081526020016000206000820151816000015560208201518160010160006101000a81548173ffffffffffffffffffffffffffffffffffffffff021916908373ffffffffffffffffffffffffffffffffffffffff1602179055506040820151816002019080519060200190610b9e929190612622565b5090505080915050919050565b6000806002600084815260200190815260200160002060009054906101000a900473ffffffffffffffffffffffffffffffffffffffff169050600073ffffffffffffffffffffffffffffffffffffffff168173ffffffffffffffffffffffffffffffffffffffff161415610c54576040517f08c379a0000000000000000000000000000000000000000000000000000000008152600401610c4b90613258565b60405180910390fd5b80915050919050565b60008073ffffffffffffffffffffffffffffffffffffffff168273ffffffffffffffffffffffffffffffffffffffff161415610cce576040517f08c379a0000000000000000000000000000000000000000000000000000000008152600401610cc5906132ea565b60405180910390fd5b600360008373ffffffffffffffffffffffffffffffffffffffff1673ffffffffffffffffffffffffffffffffffffffff168152602001908152602001600020549050919050565b610d1d61193a565b610d2760006119b8565b565b6000600660009054906101000a900473ffffffffffffffffffffffffffffffffffffffff16905090565b606060018054610d6290612ed1565b80601f0160208091040260200160405190810160405280929190818152602001828054610d8e90612ed1565b8015610ddb5780601f10610db057610100808354040283529160200191610ddb565b820191906000526020600020905b815481529060010190602001808311610dbe57829003601f168201915b5050505050905090565b610df7610df061141e565b8383611a7e565b5050565b610e0c610e0661141e565b836114df565b610e4b576040517f08c379a0000000000000000000000000000000000000000000000000000000008152600401610e4290613099565b60405180910390fd5b610e5784848484611beb565b50505050565b60008085905060008390508073ffffffffffffffffffffffffffffffffffffffff166323b872dd3384896040518463ffffffff1660e01b8152600401610ea593929190613369565b602060405180830381600087803b158015610ebf57600080fd5b505af1158015610ed3573d6000803e3d6000fd5b505050506040513d601f19601f82011682018060405250810190610ef791906133b5565b50610f02600b6118f8565b6000610f0e600b61190e565b9050610f1a338261191c565b60405180606001604052808281526020013373ffffffffffffffffffffffffffffffffffffffff16815260200187815250600d60008381526020019081526020016000206000820151816000015560208201518160010160006101000a81548173ffffffffffffffffffffffffffffffffffffffff021916908373ffffffffffffffffffffffffffffffffffffffff1602179055506040820151816002019080519060200190610fcb929190612622565b50905050809350505050949350505050565b6060610fe882611c47565b611027576040517f08c379a000000000000000000000000000000000000000000000000000000000815260040161101e90613454565b60405180910390fd5b600d6000838152602001908152602001600020600201805461104890612ed1565b80601f016020809104026020016040519081016040528092919081815260200182805461107490612ed1565b80156110c15780601f10611096576101008083540402835291602001916110c1565b820191906000526020600020905b8154815290600101906020018083116110a457829003601f168201915b50505050509050919050565b600082341015611112576040517f08c379a0000000000000000000000000000000000000000000000000000000008152600401611109906134e6565b60405180910390fd5b60008490508073ffffffffffffffffffffffffffffffffffffffff166108fc859081150290604051600060405180830381858888f1935050505015801561115d573d6000803e3d6000fd5b50611168600b6118f8565b6000611174600b61190e565b9050611180338261191c565b60405180606001604052808281526020013373ffffffffffffffffffffffffffffffffffffffff16815260200185815250600d60008381526020019081526020016000206000820151816000015560208201518160010160006101000a81548173ffffffffffffffffffffffffffffffffffffffff021916908373ffffffffffffffffffffffffffffffffffffffff1602179055506040820151816002019080519060200190611231929190612622565b5090505080925050509392505050565b6000600560008473ffffffffffffffffffffffffffffffffffffffff1673ffffffffffffffffffffffffffffffffffffffff16815260200190815260200160002060008373ffffffffffffffffffffffffffffffffffffffff1673ffffffffffffffffffffffffffffffffffffffff16815260200190815260200160002060009054906101000a900460ff16905092915050565b6112dd61193a565b600073ffffffffffffffffffffffffffffffffffffffff168173ffffffffffffffffffffffffffffffffffffffff16141561134d576040517f08c379a000000000000000000000000000000000000000000000000000000000815260040161134490613578565b60405180910390fd5b611356816119b8565b50565b60007f780e9d63000000000000000000000000000000000000000000000000000000007bffffffffffffffffffffffffffffffffffffffffffffffffffffffff1916827bffffffffffffffffffffffffffffffffffffffffffffffffffffffff191614806113cc57506113cb82611cb3565b5b9050919050565b6113dc81611c47565b61141b576040517f08c379a000000000000000000000000000000000000000000000000000000000815260040161141290613258565b60405180910390fd5b50565b600033905090565b816004600083815260200190815260200160002060006101000a81548173ffffffffffffffffffffffffffffffffffffffff021916908373ffffffffffffffffffffffffffffffffffffffff160217905550808273ffffffffffffffffffffffffffffffffffffffff1661149983610bab565b73ffffffffffffffffffffffffffffffffffffffff167f8c5be1e5ebec7d5bd14f71427d1e84f3dd0314c0f7b2291e5b200ac8c7c3b92560405160405180910390a45050565b6000806114eb83610bab565b90508073ffffffffffffffffffffffffffffffffffffffff168473ffffffffffffffffffffffffffffffffffffffff16148061152d575061152c8185611241565b5b8061156b57508373ffffffffffffffffffffffffffffffffffffffff166115538461069a565b73ffffffffffffffffffffffffffffffffffffffff16145b91505092915050565b8273ffffffffffffffffffffffffffffffffffffffff1661159482610bab565b73ffffffffffffffffffffffffffffffffffffffff16146115ea576040517f08c379a00000000000000000000000000000000000000000000000000000000081526004016115e19061360a565b60405180910390fd5b600073ffffffffffffffffffffffffffffffffffffffff168273ffffffffffffffffffffffffffffffffffffffff16141561165a576040517f08c379a00000000000000000000000000000000000000000000000000000000081526004016116519061369c565b60405180910390fd5b611665838383611d95565b611670600082611426565b6001600360008573ffffffffffffffffffffffffffffffffffffffff1673ffffffffffffffffffffffffffffffffffffffff16815260200190815260200160002060008282546116c091906136eb565b925050819055506001600360008473ffffffffffffffffffffffffffffffffffffffff1673ffffffffffffffffffffffffffffffffffffffff1681526020019081526020016000206000828254611717919061371f565b92505081905550816002600083815260200190815260200160002060006101000a81548173ffffffffffffffffffffffffffffffffffffffff021916908373ffffffffffffffffffffffffffffffffffffffff160217905550808273ffffffffffffffffffffffffffffffffffffffff168473ffffffffffffffffffffffffffffffffffffffff167fddf252ad1be2c89b69c2b068fc378daa952ba7f163c4a11628f55a4df523b3ef60405160405180910390a46117d6838383611da5565b505050565b60006117e682610bab565b90506117f481600084611d95565b6117ff600083611426565b6001600360008373ffffffffffffffffffffffffffffffffffffffff1673ffffffffffffffffffffffffffffffffffffffff168152602001908152602001600020600082825461184f91906136eb565b925050819055506002600083815260200190815260200160002060006101000a81549073ffffffffffffffffffffffffffffffffffffffff021916905581600073ffffffffffffffffffffffffffffffffffffffff168273ffffffffffffffffffffffffffffffffffffffff167fddf252ad1be2c89b69c2b068fc378daa952ba7f163c4a11628f55a4df523b3ef60405160405180910390a46118f481600084611da5565b5050565b6001816000016000828254019250508190555050565b600081600001549050919050565b611936828260405180602001604052806000815250611daa565b5050565b61194261141e565b73ffffffffffffffffffffffffffffffffffffffff16611960610d29565b73ffffffffffffffffffffffffffffffffffffffff16146119b6576040517f08c379a00000000000000000000000000000000000000000000000000000000081526004016119ad906137c1565b60405180910390fd5b565b6000600660009054906101000a900473ffffffffffffffffffffffffffffffffffffffff16905081600660006101000a81548173ffffffffffffffffffffffffffffffffffffffff021916908373ffffffffffffffffffffffffffffffffffffffff1602179055508173ffffffffffffffffffffffffffffffffffffffff168173ffffffffffffffffffffffffffffffffffffffff167f8be0079c531659141344cd1fd0a4f28419497f9722a3daafe3b4186f6b6457e060405160405180910390a35050565b8173ffffffffffffffffffffffffffffffffffffffff168373ffffffffffffffffffffffffffffffffffffffff161415611aed576040517f08c379a0000000000000000000000000000000000000000000000000000000008152600401611ae49061382d565b60405180910390fd5b80600560008573ffffffffffffffffffffffffffffffffffffffff1673ffffffffffffffffffffffffffffffffffffffff16815260200190815260200160002060008473ffffffffffffffffffffffffffffffffffffffff1673ffffffffffffffffffffffffffffffffffffffff16815260200190815260200160002060006101000a81548160ff0219169083151502179055508173ffffffffffffffffffffffffffffffffffffffff168373ffffffffffffffffffffffffffffffffffffffff167f17307eab39ab6107e8899845ad3d59bd9653f200f220920489ca2b5937696c3183604051611bde9190612779565b60405180910390a3505050565b611bf6848484611574565b611c0284848484611e05565b611c41576040517f08c379a0000000000000000000000000000000000000000000000000000000008152600401611c38906138bf565b60405180910390fd5b50505050565b60008073ffffffffffffffffffffffffffffffffffffffff166002600084815260200190815260200160002060009054906101000a900473ffffffffffffffffffffffffffffffffffffffff1673ffffffffffffffffffffffffffffffffffffffff1614159050919050565b60007f80ac58cd000000000000000000000000000000000000000000000000000000007bffffffffffffffffffffffffffffffffffffffffffffffffffffffff1916827bffffffffffffffffffffffffffffffffffffffffffffffffffffffff19161480611d7e57507f5b5e139f000000000000000000000000000000000000000000000000000000007bffffffffffffffffffffffffffffffffffffffffffffffffffffffff1916827bffffffffffffffffffffffffffffffffffffffffffffffffffffffff1916145b80611d8e5750611d8d82611f9c565b5b9050919050565b611da0838383612006565b505050565b505050565b611db4838361211a565b611dc16000848484611e05565b611e00576040517f08c379a0000000000000000000000000000000000000000000000000000000008152600401611df7906138bf565b60405180910390fd5b505050565b6000611e268473ffffffffffffffffffffffffffffffffffffffff166122f4565b15611f8f578373ffffffffffffffffffffffffffffffffffffffff1663150b7a02611e4f61141e565b8786866040518563ffffffff1660e01b8152600401611e719493929190613934565b602060405180830381600087803b158015611e8b57600080fd5b505af1925050508015611ebc57506040513d601f19601f82011682018060405250810190611eb99190613995565b60015b611f3f573d8060008114611eec576040519150601f19603f3d011682016040523d82523d6000602084013e611ef1565b606091505b50600081511415611f37576040517f08c379a0000000000000000000000000000000000000000000000000000000008152600401611f2e906138bf565b60405180910390fd5b805181602001fd5b63150b7a0260e01b7bffffffffffffffffffffffffffffffffffffffffffffffffffffffff1916817bffffffffffffffffffffffffffffffffffffffffffffffffffffffff191614915050611f94565b600190505b949350505050565b60007f01ffc9a7000000000000000000000000000000000000000000000000000000007bffffffffffffffffffffffffffffffffffffffffffffffffffffffff1916827bffffffffffffffffffffffffffffffffffffffffffffffffffffffff1916149050919050565b612011838383612317565b600073ffffffffffffffffffffffffffffffffffffffff168373ffffffffffffffffffffffffffffffffffffffff1614156120545761204f8161231c565b612093565b8173ffffffffffffffffffffffffffffffffffffffff168373ffffffffffffffffffffffffffffffffffffffff1614612092576120918382612365565b5b5b600073ffffffffffffffffffffffffffffffffffffffff168273ffffffffffffffffffffffffffffffffffffffff1614156120d6576120d1816124d2565b612115565b8273ffffffffffffffffffffffffffffffffffffffff168273ffffffffffffffffffffffffffffffffffffffff16146121145761211382826125a3565b5b5b505050565b600073ffffffffffffffffffffffffffffffffffffffff168273ffffffffffffffffffffffffffffffffffffffff16141561218a576040517f08c379a000000000000000000000000000000000000000000000000000000000815260040161218190613a0e565b60405180910390fd5b61219381611c47565b156121d3576040517f08c379a00000000000000000000000000000000000000000000000000000000081526004016121ca90613a7a565b60405180910390fd5b6121df60008383611d95565b6001600360008473ffffffffffffffffffffffffffffffffffffffff1673ffffffffffffffffffffffffffffffffffffffff168152602001908152602001600020600082825461222f919061371f565b92505081905550816002600083815260200190815260200160002060006101000a81548173ffffffffffffffffffffffffffffffffffffffff021916908373ffffffffffffffffffffffffffffffffffffffff160217905550808273ffffffffffffffffffffffffffffffffffffffff16600073ffffffffffffffffffffffffffffffffffffffff167fddf252ad1be2c89b69c2b068fc378daa952ba7f163c4a11628f55a4df523b3ef60405160405180910390a46122f060008383611da5565b5050565b6000808273ffffffffffffffffffffffffffffffffffffffff163b119050919050565b505050565b600980549050600a600083815260200190815260200160002081905550600981908060018154018082558091505060019003906000526020600020016000909190919091505550565b6000600161237284610c5d565b61237c91906136eb565b9050600060086000848152602001908152602001600020549050818114612461576000600760008673ffffffffffffffffffffffffffffffffffffffff1673ffffffffffffffffffffffffffffffffffffffff168152602001908152602001600020600084815260200190815260200160002054905080600760008773ffffffffffffffffffffffffffffffffffffffff1673ffffffffffffffffffffffffffffffffffffffff168152602001908152602001600020600084815260200190815260200160002081905550816008600083815260200190815260200160002081905550505b6008600084815260200190815260200160002060009055600760008573ffffffffffffffffffffffffffffffffffffffff1673ffffffffffffffffffffffffffffffffffffffff16815260200190815260200160002060008381526020019081526020016000206000905550505050565b600060016009805490506124e691906136eb565b90506000600a6000848152602001908152602001600020549050600060098381548110612516576125156131dd565b5b906000526020600020015490508060098381548110612538576125376131dd565b5b906000526020600020018190555081600a600083815260200190815260200160002081905550600a600085815260200190815260200160002060009055600980548061258757612586613a9a565b5b6001900381819060005260206000200160009055905550505050565b60006125ae83610c5d565b905081600760008573ffffffffffffffffffffffffffffffffffffffff1673ffffffffffffffffffffffffffffffffffffffff168152602001908152602001600020600083815260200190815260200160002081905550806008600084815260200190815260200160002081905550505050565b82805461262e90612ed1565b90600052602060002090601f0160209004810192826126505760008555612697565b82601f1061266957805160ff1916838001178555612697565b82800160010185558215612697579182015b8281111561269657825182559160200191906001019061267b565b5b5090506126a491906126a8565b5090565b5b808211156126c15760008160009055506001016126a9565b5090565b6000604051905090565b600080fd5b600080fd5b60007fffffffff0000000000000000000000000000000000000000000000000000000082169050919050565b61270e816126d9565b811461271957600080fd5b50565b60008135905061272b81612705565b92915050565b600060208284031215612747576127466126cf565b5b60006127558482850161271c565b91505092915050565b60008115159050919050565b6127738161275e565b82525050565b600060208201905061278e600083018461276a565b92915050565b600081519050919050565b600082825260208201905092915050565b60005b838110156127ce5780820151818401526020810190506127b3565b838111156127dd576000848401525b50505050565b6000601f19601f8301169050919050565b60006127ff82612794565b612809818561279f565b93506128198185602086016127b0565b612822816127e3565b840191505092915050565b6000602082019050818103600083015261284781846127f4565b905092915050565b6000819050919050565b6128628161284f565b811461286d57600080fd5b50565b60008135905061287f81612859565b92915050565b60006020828403121561289b5761289a6126cf565b5b60006128a984828501612870565b91505092915050565b600073ffffffffffffffffffffffffffffffffffffffff82169050919050565b60006128dd826128b2565b9050919050565b6128ed816128d2565b82525050565b600060208201905061290860008301846128e4565b92915050565b612917816128d2565b811461292257600080fd5b50565b6000813590506129348161290e565b92915050565b60008060408385031215612951576129506126cf565b5b600061295f85828601612925565b925050602061297085828601612870565b9150509250929050565b6129838161284f565b82525050565b600060608201905061299e600083018661297a565b6129ab60208301856128e4565b81810360408301526129bd81846127f4565b9050949350505050565b60006020820190506129dc600083018461297a565b92915050565b6000806000606084860312156129fb576129fa6126cf565b5b6000612a0986828701612925565b9350506020612a1a86828701612925565b9250506040612a2b86828701612870565b9150509250925092565b600080fd5b600080fd5b7f4e487b7100000000000000000000000000000000000000000000000000000000600052604160045260246000fd5b612a77826127e3565b810181811067ffffffffffffffff82111715612a9657612a95612a3f565b5b80604052505050565b6000612aa96126c5565b9050612ab58282612a6e565b919050565b600067ffffffffffffffff821115612ad557612ad4612a3f565b5b612ade826127e3565b9050602081019050919050565b82818337600083830152505050565b6000612b0d612b0884612aba565b612a9f565b905082815260208101848484011115612b2957612b28612a3a565b5b612b34848285612aeb565b509392505050565b600082601f830112612b5157612b50612a35565b5b8135612b61848260208601612afa565b91505092915050565b600060208284031215612b8057612b7f6126cf565b5b600082013567ffffffffffffffff811115612b9e57612b9d6126d4565b5b612baa84828501612b3c565b91505092915050565b600060208284031215612bc957612bc86126cf565b5b6000612bd784828501612925565b91505092915050565b612be98161275e565b8114612bf457600080fd5b50565b600081359050612c0681612be0565b92915050565b60008060408385031215612c2357612c226126cf565b5b6000612c3185828601612925565b9250506020612c4285828601612bf7565b9150509250929050565b600067ffffffffffffffff821115612c6757612c66612a3f565b5b612c70826127e3565b9050602081019050919050565b6000612c90612c8b84612c4c565b612a9f565b905082815260208101848484011115612cac57612cab612a3a565b5b612cb7848285612aeb565b509392505050565b600082601f830112612cd457612cd3612a35565b5b8135612ce4848260208601612c7d565b91505092915050565b60008060008060808587031215612d0757612d066126cf565b5b6000612d1587828801612925565b9450506020612d2687828801612925565b9350506040612d3787828801612870565b925050606085013567ffffffffffffffff811115612d5857612d576126d4565b5b612d6487828801612cbf565b91505092959194509250565b60008060008060808587031215612d8a57612d896126cf565b5b6000612d9887828801612925565b9450506020612da987828801612870565b935050604085013567ffffffffffffffff811115612dca57612dc96126d4565b5b612dd687828801612b3c565b9250506060612de787828801612925565b91505092959194509250565b600080600060608486031215612e0c57612e0b6126cf565b5b6000612e1a86828701612925565b9350506020612e2b86828701612870565b925050604084013567ffffffffffffffff811115612e4c57612e4b6126d4565b5b612e5886828701612b3c565b9150509250925092565b60008060408385031215612e7957612e786126cf565b5b6000612e8785828601612925565b9250506020612e9885828601612925565b9150509250929050565b7f4e487b7100000000000000000000000000000000000000000000000000000000600052602260045260246000fd5b60006002820490506001821680612ee957607f821691505b60208210811415612efd57612efc612ea2565b5b50919050565b7f4552433732313a20617070726f76616c20746f2063757272656e74206f776e6560008201527f7200000000000000000000000000000000000000000000000000000000000000602082015250565b6000612f5f60218361279f565b9150612f6a82612f03565b604082019050919050565b60006020820190508181036000830152612f8e81612f52565b9050919050565b7f4552433732313a20617070726f76652063616c6c6572206973206e6f7420746f60008201527f6b656e206f776e6572206e6f7220617070726f76656420666f7220616c6c0000602082015250565b6000612ff1603e8361279f565b9150612ffc82612f95565b604082019050919050565b6000602082019050818103600083015261302081612fe4565b9050919050565b7f4552433732313a2063616c6c6572206973206e6f7420746f6b656e206f776e6560008201527f72206e6f7220617070726f766564000000000000000000000000000000000000602082015250565b6000613083602e8361279f565b915061308e82613027565b604082019050919050565b600060208201905081810360008301526130b281613076565b9050919050565b7f455243373231456e756d657261626c653a206f776e657220696e646578206f7560008201527f74206f6620626f756e6473000000000000000000000000000000000000000000602082015250565b6000613115602b8361279f565b9150613120826130b9565b604082019050919050565b6000602082019050818103600083015261314481613108565b9050919050565b7f455243373231456e756d657261626c653a20676c6f62616c20696e646578206f60008201527f7574206f6620626f756e64730000000000000000000000000000000000000000602082015250565b60006131a7602c8361279f565b91506131b28261314b565b604082019050919050565b600060208201905081810360008301526131d68161319a565b9050919050565b7f4e487b7100000000000000000000000000000000000000000000000000000000600052603260045260246000fd5b7f4552433732313a20696e76616c696420746f6b656e2049440000000000000000600082015250565b600061324260188361279f565b915061324d8261320c565b602082019050919050565b6000602082019050818103600083015261327181613235565b9050919050565b7f4552433732313a2061646472657373207a65726f206973206e6f74206120766160008201527f6c6964206f776e65720000000000000000000000000000000000000000000000602082015250565b60006132d460298361279f565b91506132df82613278565b604082019050919050565b60006020820190508181036000830152613303816132c7565b9050919050565b6000819050919050565b600061332f61332a613325846128b2565b61330a565b6128b2565b9050919050565b600061334182613314565b9050919050565b600061335382613336565b9050919050565b61336381613348565b82525050565b600060608201905061337e60008301866128e4565b61338b602083018561335a565b613398604083018461297a565b949350505050565b6000815190506133af81612be0565b92915050565b6000602082840312156133cb576133ca6126cf565b5b60006133d9848285016133a0565b91505092915050565b7f4552433732314d657461646174613a2055524920717565727920666f72206e6f60008201527f6e6578697374656e7420746f6b656e0000000000000000000000000000000000602082015250565b600061343e602f8361279f565b9150613449826133e2565b604082019050919050565b6000602082019050818103600083015261346d81613431565b9050919050565b7f416d6f756e74206f662065746865722073656e74206e6f7420636f727265637460008201527f2e00000000000000000000000000000000000000000000000000000000000000602082015250565b60006134d060218361279f565b91506134db82613474565b604082019050919050565b600060208201905081810360008301526134ff816134c3565b9050919050565b7f4f776e61626c653a206e6577206f776e657220697320746865207a65726f206160008201527f6464726573730000000000000000000000000000000000000000000000000000602082015250565b600061356260268361279f565b915061356d82613506565b604082019050919050565b6000602082019050818103600083015261359181613555565b9050919050565b7f4552433732313a207472616e736665722066726f6d20696e636f72726563742060008201527f6f776e6572000000000000000000000000000000000000000000000000000000602082015250565b60006135f460258361279f565b91506135ff82613598565b604082019050919050565b60006020820190508181036000830152613623816135e7565b9050919050565b7f4552433732313a207472616e7366657220746f20746865207a65726f2061646460008201527f7265737300000000000000000000000000000000000000000000000000000000602082015250565b600061368660248361279f565b91506136918261362a565b604082019050919050565b600060208201905081810360008301526136b581613679565b9050919050565b7f4e487b7100000000000000000000000000000000000000000000000000000000600052601160045260246000fd5b60006136f68261284f565b91506137018361284f565b925082821015613714576137136136bc565b5b828203905092915050565b600061372a8261284f565b91506137358361284f565b9250827fffffffffffffffffffffffffffffffffffffffffffffffffffffffffffffffff0382111561376a576137696136bc565b5b828201905092915050565b7f4f776e61626c653a2063616c6c6572206973206e6f7420746865206f776e6572600082015250565b60006137ab60208361279f565b91506137b682613775565b602082019050919050565b600060208201905081810360008301526137da8161379e565b9050919050565b7f4552433732313a20617070726f766520746f2063616c6c657200000000000000600082015250565b600061381760198361279f565b9150613822826137e1565b602082019050919050565b600060208201905081810360008301526138468161380a565b9050919050565b7f4552433732313a207472616e7366657220746f206e6f6e20455243373231526560008201527f63656976657220696d706c656d656e7465720000000000000000000000000000602082015250565b60006138a960328361279f565b91506138b48261384d565b604082019050919050565b600060208201905081810360008301526138d88161389c565b9050919050565b600081519050919050565b600082825260208201905092915050565b6000613906826138df565b61391081856138ea565b93506139208185602086016127b0565b613929816127e3565b840191505092915050565b600060808201905061394960008301876128e4565b61395660208301866128e4565b613963604083018561297a565b818103606083015261397581846138fb565b905095945050505050565b60008151905061398f81612705565b92915050565b6000602082840312156139ab576139aa6126cf565b5b60006139b984828501613980565b91505092915050565b7f4552433732313a206d696e7420746f20746865207a65726f2061646472657373600082015250565b60006139f860208361279f565b9150613a03826139c2565b602082019050919050565b60006020820190508181036000830152613a27816139eb565b9050919050565b7f4552433732313a20746f6b656e20616c7265616479206d696e74656400000000600082015250565b6000613a64601c8361279f565b9150613a6f82613a2e565b602082019050919050565b60006020820190508181036000830152613a9381613a57565b9050919050565b7f4e487b7100000000000000000000000000000000000000000000000000000000600052603160045260246000fdfea2646970667358221220068f09ed79fa1d4e6adc7c7d88e85effd2ee4ac616553ae69c9c18af82a513ff64736f6c63430008090033",
  "linkReferences": {},
  "deployedLinkReferences": {}
}