{
  "_format": "hh-sol-artifact-1",
  "contractName": "MarketContract1155",
  "sourceName": "contracts/MarketContract1155.sol",
  "abi": [
    {
      "inputs": [],
      "stateMutability": "nonpayable",
      "type": "constructor"
    },
    {
      "anonymous": false,
      "inputs": [
        {
          "indexed": true,
          "internalType": "address",
          "name": "account",
          "type": "address"
        },
        {
          "indexed": true,
          "internalType": "address",
          "name": "operator",
          "type": "address"
        },
        {
          "indexed": false,
          "internalType": "bool",
          "name": "approved",
          "type": "bool"
        }
      ],
      "name": "ApprovalForAll",
      "type": "event"
    },
    {
      "anonymous": false,
      "inputs": [
        {
          "indexed": true,
          "internalType": "address",
          "name": "previousOwner",
          "type": "address"
        },
        {
          "indexed": true,
          "internalType": "address",
          "name": "newOwner",
          "type": "address"
        }
      ],
      "name": "OwnershipTransferred",
      "type": "event"
    },
    {
      "anonymous": false,
      "inputs": [
        {
          "indexed": true,
          "internalType": "address",
          "name": "operator",
          "type": "address"
        },
        {
          "indexed": true,
          "internalType": "address",
          "name": "from",
          "type": "address"
        },
        {
          "indexed": true,
          "internalType": "address",
          "name": "to",
          "type": "address"
        },
        {
          "indexed": false,
          "internalType": "uint256[]",
          "name": "ids",
          "type": "uint256[]"
        },
        {
          "indexed": false,
          "internalType": "uint256[]",
          "name": "values",
          "type": "uint256[]"
        }
      ],
      "name": "TransferBatch",
      "type": "event"
    },
    {
      "anonymous": false,
      "inputs": [
        {
          "indexed": true,
          "internalType": "address",
          "name": "operator",
          "type": "address"
        },
        {
          "indexed": true,
          "internalType": "address",
          "name": "from",
          "type": "address"
        },
        {
          "indexed": true,
          "internalType": "address",
          "name": "to",
          "type": "address"
        },
        {
          "indexed": false,
          "internalType": "uint256",
          "name": "id",
          "type": "uint256"
        },
        {
          "indexed": false,
          "internalType": "uint256",
          "name": "value",
          "type": "uint256"
        }
      ],
      "name": "TransferSingle",
      "type": "event"
    },
    {
      "anonymous": false,
      "inputs": [
        {
          "indexed": false,
          "internalType": "string",
          "name": "value",
          "type": "string"
        },
        {
          "indexed": true,
          "internalType": "uint256",
          "name": "id",
          "type": "uint256"
        }
      ],
      "name": "URI",
      "type": "event"
    },
    {
      "anonymous": false,
      "inputs": [
        {
          "indexed": false,
          "internalType": "uint256",
          "name": "id",
          "type": "uint256"
        },
        {
          "indexed": false,
          "internalType": "uint256",
          "name": "tokenId",
          "type": "uint256"
        },
        {
          "indexed": false,
          "internalType": "address",
          "name": "tokenAddress",
          "type": "address"
        },
        {
          "indexed": false,
          "internalType": "uint256",
          "name": "askingPrice",
          "type": "uint256"
        },
        {
          "indexed": false,
          "internalType": "bool",
          "name": "isSold",
          "type": "bool"
        },
        {
          "indexed": false,
          "internalType": "address",
          "name": "ownerOf",
          "type": "address"
        },
        {
          "indexed": false,
          "internalType": "string",
          "name": "tokenUri",
          "type": "string"
        },
        {
          "indexed": false,
          "internalType": "uint256",
          "name": "amount",
          "type": "uint256"
        },
        {
          "indexed": false,
          "internalType": "bool",
          "name": "isOnSale",
          "type": "bool"
        }
      ],
      "name": "itemAdded",
      "type": "event"
    },
    {
      "anonymous": false,
      "inputs": [
        {
          "indexed": false,
          "internalType": "uint256",
          "name": "id",
          "type": "uint256"
        },
        {
          "indexed": false,
          "internalType": "address",
          "name": "buyer",
          "type": "address"
        },
        {
          "indexed": false,
          "internalType": "address",
          "name": "seller",
          "type": "address"
        },
        {
          "indexed": false,
          "internalType": "uint256",
          "name": "tokenId",
          "type": "uint256"
        },
        {
          "indexed": false,
          "internalType": "uint256",
          "name": "askingPrice",
          "type": "uint256"
        }
      ],
      "name": "itemSold",
      "type": "event"
    },
    {
      "inputs": [
        {
          "internalType": "uint256",
          "name": "tokenId",
          "type": "uint256"
        },
        {
          "internalType": "address",
          "name": "tokenAddress",
          "type": "address"
        },
        {
          "internalType": "uint256",
          "name": "askingPrice",
          "type": "uint256"
        },
        {
          "internalType": "string",
          "name": "tokenUri",
          "type": "string"
        },
        {
          "internalType": "uint256",
          "name": "amount",
          "type": "uint256"
        }
      ],
      "name": "addItemToMarket",
      "outputs": [
        {
          "internalType": "uint256",
          "name": "",
          "type": "uint256"
        }
      ],
      "stateMutability": "nonpayable",
      "type": "function"
    },
    {
      "inputs": [
        {
          "internalType": "address",
          "name": "account",
          "type": "address"
        },
        {
          "internalType": "uint256",
          "name": "id",
          "type": "uint256"
        }
      ],
      "name": "balanceOf",
      "outputs": [
        {
          "internalType": "uint256",
          "name": "",
          "type": "uint256"
        }
      ],
      "stateMutability": "view",
      "type": "function"
    },
    {
      "inputs": [
        {
          "internalType": "address[]",
          "name": "accounts",
          "type": "address[]"
        },
        {
          "internalType": "uint256[]",
          "name": "ids",
          "type": "uint256[]"
        }
      ],
      "name": "balanceOfBatch",
      "outputs": [
        {
          "internalType": "uint256[]",
          "name": "",
          "type": "uint256[]"
        }
      ],
      "stateMutability": "view",
      "type": "function"
    },
    {
      "inputs": [
        {
          "internalType": "uint256",
          "name": "id",
          "type": "uint256"
        },
        {
          "internalType": "uint256",
          "name": "amount",
          "type": "uint256"
        },
        {
          "internalType": "uint256",
          "name": "royalty",
          "type": "uint256"
        },
        {
          "internalType": "address",
          "name": "creator",
          "type": "address"
        }
      ],
      "name": "buyItem",
      "outputs": [],
      "stateMutability": "payable",
      "type": "function"
    },
    {
      "inputs": [
        {
          "internalType": "uint256",
          "name": "id",
          "type": "uint256"
        },
        {
          "internalType": "uint256",
          "name": "tokenId",
          "type": "uint256"
        },
        {
          "internalType": "address",
          "name": "tokenAddress",
          "type": "address"
        },
        {
          "internalType": "uint256",
          "name": "newPrice",
          "type": "uint256"
        }
      ],
      "name": "changePrice",
      "outputs": [
        {
          "internalType": "uint256",
          "name": "",
          "type": "uint256"
        }
      ],
      "stateMutability": "nonpayable",
      "type": "function"
    },
    {
      "inputs": [],
      "name": "getServiceFee",
      "outputs": [
        {
          "internalType": "uint96",
          "name": "",
          "type": "uint96"
        }
      ],
      "stateMutability": "view",
      "type": "function"
    },
    {
      "inputs": [
        {
          "internalType": "address",
          "name": "account",
          "type": "address"
        },
        {
          "internalType": "address",
          "name": "operator",
          "type": "address"
        }
      ],
      "name": "isApprovedForAll",
      "outputs": [
        {
          "internalType": "bool",
          "name": "",
          "type": "bool"
        }
      ],
      "stateMutability": "view",
      "type": "function"
    },
    {
      "inputs": [
        {
          "internalType": "uint256",
          "name": "",
          "type": "uint256"
        }
      ],
      "name": "itemsForSale",
      "outputs": [
        {
          "internalType": "uint256",
          "name": "id",
          "type": "uint256"
        },
        {
          "internalType": "address",
          "name": "tokenAddress",
          "type": "address"
        },
        {
          "internalType": "uint256",
          "name": "tokenId",
          "type": "uint256"
        },
        {
          "internalType": "address payable",
          "name": "seller",
          "type": "address"
        },
        {
          "internalType": "uint256",
          "name": "askingPrice",
          "type": "uint256"
        },
        {
          "internalType": "bool",
          "name": "isSold",
          "type": "bool"
        }
      ],
      "stateMutability": "view",
      "type": "function"
    },
    {
      "inputs": [],
      "name": "name",
      "outputs": [
        {
          "internalType": "string",
          "name": "",
          "type": "string"
        }
      ],
      "stateMutability": "view",
      "type": "function"
    },
    {
      "inputs": [],
      "name": "owner",
      "outputs": [
        {
          "internalType": "address",
          "name": "",
          "type": "address"
        }
      ],
      "stateMutability": "view",
      "type": "function"
    },
    {
      "inputs": [],
      "name": "renounceOwnership",
      "outputs": [],
      "stateMutability": "nonpayable",
      "type": "function"
    },
    {
      "inputs": [
        {
          "internalType": "address",
          "name": "from",
          "type": "address"
        },
        {
          "internalType": "address",
          "name": "to",
          "type": "address"
        },
        {
          "internalType": "uint256[]",
          "name": "ids",
          "type": "uint256[]"
        },
        {
          "internalType": "uint256[]",
          "name": "amounts",
          "type": "uint256[]"
        },
        {
          "internalType": "bytes",
          "name": "data",
          "type": "bytes"
        }
      ],
      "name": "safeBatchTransferFrom",
      "outputs": [],
      "stateMutability": "nonpayable",
      "type": "function"
    },
    {
      "inputs": [
        {
          "internalType": "address",
          "name": "from",
          "type": "address"
        },
        {
          "internalType": "address",
          "name": "to",
          "type": "address"
        },
        {
          "internalType": "uint256",
          "name": "id",
          "type": "uint256"
        },
        {
          "internalType": "uint256",
          "name": "amount",
          "type": "uint256"
        },
        {
          "internalType": "bytes",
          "name": "data",
          "type": "bytes"
        }
      ],
      "name": "safeTransferFrom",
      "outputs": [],
      "stateMutability": "nonpayable",
      "type": "function"
    },
    {
      "inputs": [
        {
          "internalType": "address",
          "name": "operator",
          "type": "address"
        },
        {
          "internalType": "bool",
          "name": "approved",
          "type": "bool"
        }
      ],
      "name": "setApprovalForAll",
      "outputs": [],
      "stateMutability": "nonpayable",
      "type": "function"
    },
    {
      "inputs": [
        {
          "internalType": "uint96",
          "name": "_serviceFee",
          "type": "uint96"
        }
      ],
      "name": "setServiceFee",
      "outputs": [],
      "stateMutability": "nonpayable",
      "type": "function"
    },
    {
      "inputs": [
        {
          "internalType": "bytes4",
          "name": "interfaceId",
          "type": "bytes4"
        }
      ],
      "name": "supportsInterface",
      "outputs": [
        {
          "internalType": "bool",
          "name": "",
          "type": "bool"
        }
      ],
      "stateMutability": "view",
      "type": "function"
    },
    {
      "inputs": [],
      "name": "symbol",
      "outputs": [
        {
          "internalType": "string",
          "name": "",
          "type": "string"
        }
      ],
      "stateMutability": "view",
      "type": "function"
    },
    {
      "inputs": [
        {
          "internalType": "address",
          "name": "newOwner",
          "type": "address"
        }
      ],
      "name": "transferOwnership",
      "outputs": [],
      "stateMutability": "nonpayable",
      "type": "function"
    },
    {
      "inputs": [
        {
          "internalType": "uint256",
          "name": "",
          "type": "uint256"
        }
      ],
      "name": "uri",
      "outputs": [
        {
          "internalType": "string",
          "name": "",
          "type": "string"
        }
      ],
      "stateMutability": "view",
      "type": "function"
    }
  ],
  "bytecode": "0x60806040526101f4600660006101000a8154816bffffffffffffffffffffffff02191690836bffffffffffffffffffffffff1602179055503480156200004457600080fd5b506040518060200160405280600081525062000066816200012960201b60201c565b50620000876200007b6200014560201b60201c565b6200014d60201b60201c565b6040518060400160405280601281526020017f43726561746976655661756c742031313535000000000000000000000000000081525060049080519060200190620000d492919062000213565b506040518060400160405280600381526020017f564c540000000000000000000000000000000000000000000000000000000000815250600590805190602001906200012292919062000213565b5062000328565b80600290805190602001906200014192919062000213565b5050565b600033905090565b6000600360009054906101000a900473ffffffffffffffffffffffffffffffffffffffff16905081600360006101000a81548173ffffffffffffffffffffffffffffffffffffffff021916908373ffffffffffffffffffffffffffffffffffffffff1602179055508173ffffffffffffffffffffffffffffffffffffffff168173ffffffffffffffffffffffffffffffffffffffff167f8be0079c531659141344cd1fd0a4f28419497f9722a3daafe3b4186f6b6457e060405160405180910390a35050565b8280546200022190620002c3565b90600052602060002090601f01602090048101928262000245576000855562000291565b82601f106200026057805160ff191683800117855562000291565b8280016001018555821562000291579182015b828111156200029057825182559160200191906001019062000273565b5b509050620002a09190620002a4565b5090565b5b80821115620002bf576000816000905550600101620002a5565b5090565b60006002820490506001821680620002dc57607f821691505b60208210811415620002f357620002f2620002f9565b5b50919050565b7f4e487b7100000000000000000000000000000000000000000000000000000000600052602260045260246000fd5b61491280620003386000396000f3fe6080604052600436106101135760003560e01c8063715018a6116100a0578063a22cb46511610064578063a22cb465146103d0578063e985e9c5146103f9578063f242432a14610436578063f2fde38b1461045f578063fc53e9551461048857610113565b8063715018a61461030a578063784fcf5c146103215780638da5cb5b1461033d57806391fb416e1461036857806395d89b41146103a557610113565b80630e89341c116100e75780630e89341c146101ff57806311a1933c1461023c5780632eb2c2d6146102675780634e1273f4146102905780635d4d3bf7146102cd57610113565b8062fdd58e1461011857806301ffc9a71461015557806306fdde0314610192578063092d0afc146101bd575b600080fd5b34801561012457600080fd5b5061013f600480360381019061013a9190613122565b6104b1565b60405161014c9190613c5c565b60405180910390f35b34801561016157600080fd5b5061017c600480360381019061017791906131f3565b61057a565b60405161018991906139df565b60405180910390f35b34801561019e57600080fd5b506101a761065c565b6040516101b491906139fa565b60405180910390f35b3480156101c957600080fd5b506101e460048036038101906101df9190613245565b6106ea565b6040516101f696959493929190613cca565b60405180910390f35b34801561020b57600080fd5b5061022660048036038101906102219190613245565b610783565b60405161023391906139fa565b60405180910390f35b34801561024857600080fd5b50610251610817565b60405161025e9190613de8565b60405180910390f35b34801561027357600080fd5b5061028e60048036038101906102899190612f98565b610839565b005b34801561029c57600080fd5b506102b760048036038101906102b2919061315e565b6108da565b6040516102c49190613986565b60405180910390f35b3480156102d957600080fd5b506102f460048036038101906102ef9190613326565b610a8b565b6040516103019190613c5c565b60405180910390f35b34801561031657600080fd5b5061031f610c09565b005b61033b60048036038101906103369190613389565b610c91565b005b34801561034957600080fd5b50610352611755565b60405161035f91906137ff565b60405180910390f35b34801561037457600080fd5b5061038f600480360381019061038a9190613297565b61177f565b60405161039c9190613c5c565b60405180910390f35b3480156103b157600080fd5b506103ba611bc8565b6040516103c791906139fa565b60405180910390f35b3480156103dc57600080fd5b506103f760048036038101906103f291906130e6565b611c56565b005b34801561040557600080fd5b50610420600480360381019061041b9190612f5c565b611c6c565b60405161042d91906139df565b60405180910390f35b34801561044257600080fd5b5061045d60048036038101906104589190613057565b611d00565b005b34801561046b57600080fd5b5061048660048036038101906104819190612f33565b611da1565b005b34801561049457600080fd5b506104af60048036038101906104aa91906133ec565b611e99565b005b60008073ffffffffffffffffffffffffffffffffffffffff168373ffffffffffffffffffffffffffffffffffffffff161415610522576040517f08c379a000000000000000000000000000000000000000000000000000000000815260040161051990613a5c565b60405180910390fd5b60008083815260200190815260200160002060008473ffffffffffffffffffffffffffffffffffffffff1673ffffffffffffffffffffffffffffffffffffffff16815260200190815260200160002054905092915050565b60007fd9b67a26000000000000000000000000000000000000000000000000000000007bffffffffffffffffffffffffffffffffffffffffffffffffffffffff1916827bffffffffffffffffffffffffffffffffffffffffffffffffffffffff1916148061064557507f0e89341c000000000000000000000000000000000000000000000000000000007bffffffffffffffffffffffffffffffffffffffffffffffffffffffff1916827bffffffffffffffffffffffffffffffffffffffffffffffffffffffff1916145b80610655575061065482611f49565b5b9050919050565b600480546106699061417e565b80601f01602080910402602001604051908101604052809291908181526020018280546106959061417e565b80156106e25780601f106106b7576101008083540402835291602001916106e2565b820191906000526020600020905b8154815290600101906020018083116106c557829003601f168201915b505050505081565b600781815481106106fa57600080fd5b90600052602060002090600602016000915090508060000154908060010160009054906101000a900473ffffffffffffffffffffffffffffffffffffffff16908060020154908060030160009054906101000a900473ffffffffffffffffffffffffffffffffffffffff16908060040154908060050160009054906101000a900460ff16905086565b6060600280546107929061417e565b80601f01602080910402602001604051908101604052809291908181526020018280546107be9061417e565b801561080b5780601f106107e05761010080835404028352916020019161080b565b820191906000526020600020905b8154815290600101906020018083116107ee57829003601f168201915b50505050509050919050565b6000600660009054906101000a90046bffffffffffffffffffffffff16905090565b610841611fb3565b73ffffffffffffffffffffffffffffffffffffffff168573ffffffffffffffffffffffffffffffffffffffff161480610887575061088685610881611fb3565b611c6c565b5b6108c6576040517f08c379a00000000000000000000000000000000000000000000000000000000081526004016108bd90613b3c565b60405180910390fd5b6108d38585858585611fbb565b5050505050565b60608151835114610920576040517f08c379a000000000000000000000000000000000000000000000000000000000815260040161091790613bdc565b60405180910390fd5b6000835167ffffffffffffffff811115610963577f4e487b7100000000000000000000000000000000000000000000000000000000600052604160045260246000fd5b6040519080825280602002602001820160405280156109915781602001602082028036833780820191505090505b50905060005b8451811015610a8057610a2a8582815181106109dc577f4e487b7100000000000000000000000000000000000000000000000000000000600052603260045260246000fd5b6020026020010151858381518110610a1d577f4e487b7100000000000000000000000000000000000000000000000000000000600052603260045260246000fd5b60200260200101516104b1565b828281518110610a63577f4e487b7100000000000000000000000000000000000000000000000000000000600052603260045260246000fd5b60200260200101818152505080610a79906141e1565b9050610997565b508091505092915050565b60008284600082905060008173ffffffffffffffffffffffffffffffffffffffff1662fdd58e33856040518363ffffffff1660e01b8152600401610ad092919061395d565b60206040518083038186803b158015610ae857600080fd5b505afa158015610afc573d6000803e3d6000fd5b505050506040513d601f19601f82011682018060405250810190610b20919061326e565b11610b60576040517f08c379a0000000000000000000000000000000000000000000000000000000008152600401610b5790613bfc565b60405180910390fd5b8460078981548110610b9b577f4e487b7100000000000000000000000000000000000000000000000000000000600052603260045260246000fd5b90600052602060002090600602016004018190555060078881548110610bea577f4e487b7100000000000000000000000000000000000000000000000000000000600052603260045260246000fd5b9060005260206000209060060201600401549350505050949350505050565b610c11611fb3565b73ffffffffffffffffffffffffffffffffffffffff16610c2f611755565b73ffffffffffffffffffffffffffffffffffffffff1614610c85576040517f08c379a0000000000000000000000000000000000000000000000000000000008152600401610c7c90613b7c565b60405180910390fd5b610c8f600061231b565b565b8360078054905081108015610cf057508060078281548110610cdc577f4e487b7100000000000000000000000000000000000000000000000000000000600052603260045260246000fd5b906000526020600020906006020160000154145b610d2f576040517f08c379a0000000000000000000000000000000000000000000000000000000008152600401610d2690613b9c565b60405180910390fd5b846000151560078281548110610d6e577f4e487b7100000000000000000000000000000000000000000000000000000000600052603260045260246000fd5b906000526020600020906006020160050160009054906101000a900460ff16151514610dcf576040517f08c379a0000000000000000000000000000000000000000000000000000000008152600401610dc690613c3c565b60405180910390fd5b60078681548110610e09577f4e487b7100000000000000000000000000000000000000000000000000000000600052603260045260246000fd5b906000526020600020906006020160040154341015610e5d576040517f08c379a0000000000000000000000000000000000000000000000000000000008152600401610e5490613abc565b60405180910390fd5b60078681548110610e97577f4e487b7100000000000000000000000000000000000000000000000000000000600052603260045260246000fd5b906000526020600020906006020160030160009054906101000a900473ffffffffffffffffffffffffffffffffffffffff1673ffffffffffffffffffffffffffffffffffffffff163373ffffffffffffffffffffffffffffffffffffffff161415610f37576040517f08c379a0000000000000000000000000000000000000000000000000000000008152600401610f2e90613afc565b60405180910390fd5b60003390506000610f46611755565b90506000859050600060078a81548110610f89577f4e487b7100000000000000000000000000000000000000000000000000000000600052603260045260246000fd5b906000526020600020906006020160050160006101000a81548160ff02191690831515021790555060006008600060078c81548110610ff1577f4e487b7100000000000000000000000000000000000000000000000000000000600052603260045260246000fd5b906000526020600020906006020160010160009054906101000a900473ffffffffffffffffffffffffffffffffffffffff1673ffffffffffffffffffffffffffffffffffffffff1673ffffffffffffffffffffffffffffffffffffffff168152602001908152602001600020600060078c81548110611099577f4e487b7100000000000000000000000000000000000000000000000000000000600052603260045260246000fd5b906000526020600020906006020160020154815260200190815260200160002060006101000a81548160ff0219169083151502179055506007898154811061110a577f4e487b7100000000000000000000000000000000000000000000000000000000600052603260045260246000fd5b906000526020600020906006020160030160009054906101000a900473ffffffffffffffffffffffffffffffffffffffff1673ffffffffffffffffffffffffffffffffffffffff166108fc88612710600660009054906101000a90046bffffffffffffffffffffffff166bffffffffffffffffffffffff1660078e815481106111bc577f4e487b7100000000000000000000000000000000000000000000000000000000600052603260045260246000fd5b9060005260206000209060060201600401546111d89190613fda565b6111e29190613fa9565b6111ec9190613f53565b60078c81548110611226577f4e487b7100000000000000000000000000000000000000000000000000000000600052603260045260246000fd5b9060005260206000209060060201600401546112429190614034565b9081150290604051600060405180830381858888f1935050505015801561126d573d6000803e3d6000fd5b508173ffffffffffffffffffffffffffffffffffffffff166108fc612710600660009054906101000a90046bffffffffffffffffffffffff166bffffffffffffffffffffffff1660078d815481106112ee577f4e487b7100000000000000000000000000000000000000000000000000000000600052603260045260246000fd5b90600052602060002090600602016004015461130a9190613fda565b6113149190613fa9565b9081150290604051600060405180830381858888f1935050505015801561133f573d6000803e3d6000fd5b508073ffffffffffffffffffffffffffffffffffffffff166108fc889081150290604051600060405180830381858888f19350505050158015611386573d6000803e3d6000fd5b50600789815481106113c1577f4e487b7100000000000000000000000000000000000000000000000000000000600052603260045260246000fd5b906000526020600020906006020160040154341115611478578273ffffffffffffffffffffffffffffffffffffffff166108fc60078b8154811061142e577f4e487b7100000000000000000000000000000000000000000000000000000000600052603260045260246000fd5b9060005260206000209060060201600401543461144b9190614034565b9081150290604051600060405180830381858888f19350505050158015611476573d6000803e3d6000fd5b505b600789815481106114b2577f4e487b7100000000000000000000000000000000000000000000000000000000600052603260045260246000fd5b906000526020600020906006020160010160009054906101000a900473ffffffffffffffffffffffffffffffffffffffff1673ffffffffffffffffffffffffffffffffffffffff1663f242432a60078b81548110611539577f4e487b7100000000000000000000000000000000000000000000000000000000600052603260045260246000fd5b906000526020600020906006020160030160009054906101000a900473ffffffffffffffffffffffffffffffffffffffff163360078d815481106115a6577f4e487b7100000000000000000000000000000000000000000000000000000000600052603260045260246000fd5b9060005260206000209060060201600201548c6040518563ffffffff1660e01b81526004016115d8949392919061381a565b600060405180830381600087803b1580156115f257600080fd5b505af1158015611606573d6000803e3d6000fd5b505050507f1a418a8480f414a0fd218b4919de1eccba8b8853cb3aafd03003ede4f67951a4893360078c81548110611667577f4e487b7100000000000000000000000000000000000000000000000000000000600052603260045260246000fd5b906000526020600020906006020160030160009054906101000a900473ffffffffffffffffffffffffffffffffffffffff1660078d815481106116d3577f4e487b7100000000000000000000000000000000000000000000000000000000600052603260045260246000fd5b90600052602060002090600602016002015460078e8154811061171f577f4e487b7100000000000000000000000000000000000000000000000000000000600052603260045260246000fd5b906000526020600020906006020160040154604051611742959493929190613c77565b60405180910390a1505050505050505050565b6000600360009054906101000a900473ffffffffffffffffffffffffffffffffffffffff16905090565b60008486600082905060008173ffffffffffffffffffffffffffffffffffffffff1662fdd58e33856040518363ffffffff1660e01b81526004016117c492919061395d565b60206040518083038186803b1580156117dc57600080fd5b505afa1580156117f0573d6000803e3d6000fd5b505050506040513d601f19601f82011682018060405250810190611814919061326e565b11611854576040517f08c379a000000000000000000000000000000000000000000000000000000000815260040161184b90613bfc565b60405180910390fd5b8760008190508073ffffffffffffffffffffffffffffffffffffffff1663e985e9c533306040518363ffffffff1660e01b8152600401611895929190613872565b60206040518083038186803b1580156118ad57600080fd5b505afa1580156118c1573d6000803e3d6000fd5b505050506040513d601f19601f820116820180604052508101906118e591906131ca565b611924576040517f08c379a000000000000000000000000000000000000000000000000000000000815260040161191b90613a9c565b60405180910390fd5b6000600780549050905060076040518060c001604052808381526020018d73ffffffffffffffffffffffffffffffffffffffff1681526020018e81526020013373ffffffffffffffffffffffffffffffffffffffff1681526020018c81526020016000151581525090806001815401808255809150506001900390600052602060002090600602016000909190919091506000820151816000015560208201518160010160006101000a81548173ffffffffffffffffffffffffffffffffffffffff021916908373ffffffffffffffffffffffffffffffffffffffff1602179055506040820151816002015560608201518160030160006101000a81548173ffffffffffffffffffffffffffffffffffffffff021916908373ffffffffffffffffffffffffffffffffffffffff1602179055506080820151816004015560a08201518160050160006101000a81548160ff02191690831515021790555050506001600860008d73ffffffffffffffffffffffffffffffffffffffff1673ffffffffffffffffffffffffffffffffffffffff16815260200190815260200160002060008e815260200190815260200160002060006101000a81548160ff0219169083151502179055508060078281548110611b27577f4e487b7100000000000000000000000000000000000000000000000000000000600052603260045260246000fd5b90600052602060002090600602016000015414611b6d577f4e487b7100000000000000000000000000000000000000000000000000000000600052600160045260246000fd5b7f0305393bb9dbe5906d5851e0ab59af252cab0bc7e995baab3eaef82dc34ae61c818d8d8d6000338f8f6001604051611bae99989796959493929190613d54565b60405180910390a180965050505050505095945050505050565b60058054611bd59061417e565b80601f0160208091040260200160405190810160405280929190818152602001828054611c019061417e565b8015611c4e5780601f10611c2357610100808354040283529160200191611c4e565b820191906000526020600020905b815481529060010190602001808311611c3157829003601f168201915b505050505081565b611c68611c61611fb3565b83836123e1565b5050565b6000600160008473ffffffffffffffffffffffffffffffffffffffff1673ffffffffffffffffffffffffffffffffffffffff16815260200190815260200160002060008373ffffffffffffffffffffffffffffffffffffffff1673ffffffffffffffffffffffffffffffffffffffff16815260200190815260200160002060009054906101000a900460ff16905092915050565b611d08611fb3565b73ffffffffffffffffffffffffffffffffffffffff168573ffffffffffffffffffffffffffffffffffffffff161480611d4e5750611d4d85611d48611fb3565b611c6c565b5b611d8d576040517f08c379a0000000000000000000000000000000000000000000000000000000008152600401611d8490613adc565b60405180910390fd5b611d9a858585858561254e565b5050505050565b611da9611fb3565b73ffffffffffffffffffffffffffffffffffffffff16611dc7611755565b73ffffffffffffffffffffffffffffffffffffffff1614611e1d576040517f08c379a0000000000000000000000000000000000000000000000000000000008152600401611e1490613b7c565b60405180910390fd5b600073ffffffffffffffffffffffffffffffffffffffff168173ffffffffffffffffffffffffffffffffffffffff161415611e8d576040517f08c379a0000000000000000000000000000000000000000000000000000000008152600401611e8490613a7c565b60405180910390fd5b611e968161231b565b50565b611ea1611fb3565b73ffffffffffffffffffffffffffffffffffffffff16611ebf611755565b73ffffffffffffffffffffffffffffffffffffffff1614611f15576040517f08c379a0000000000000000000000000000000000000000000000000000000008152600401611f0c90613b7c565b60405180910390fd5b80600660006101000a8154816bffffffffffffffffffffffff02191690836bffffffffffffffffffffffff16021790555050565b60007f01ffc9a7000000000000000000000000000000000000000000000000000000007bffffffffffffffffffffffffffffffffffffffffffffffffffffffff1916827bffffffffffffffffffffffffffffffffffffffffffffffffffffffff1916149050919050565b600033905090565b8151835114611fff576040517f08c379a0000000000000000000000000000000000000000000000000000000008152600401611ff690613c1c565b60405180910390fd5b600073ffffffffffffffffffffffffffffffffffffffff168473ffffffffffffffffffffffffffffffffffffffff16141561206f576040517f08c379a000000000000000000000000000000000000000000000000000000000815260040161206690613b1c565b60405180910390fd5b6000612079611fb3565b90506120898187878787876127d0565b60005b84518110156122865760008582815181106120d0577f4e487b7100000000000000000000000000000000000000000000000000000000600052603260045260246000fd5b602002602001015190506000858381518110612115577f4e487b7100000000000000000000000000000000000000000000000000000000600052603260045260246000fd5b60200260200101519050600080600084815260200190815260200160002060008b73ffffffffffffffffffffffffffffffffffffffff1673ffffffffffffffffffffffffffffffffffffffff168152602001908152602001600020549050818110156121b6576040517f08c379a00000000000000000000000000000000000000000000000000000000081526004016121ad90613b5c565b60405180910390fd5b81810360008085815260200190815260200160002060008c73ffffffffffffffffffffffffffffffffffffffff1673ffffffffffffffffffffffffffffffffffffffff168152602001908152602001600020819055508160008085815260200190815260200160002060008b73ffffffffffffffffffffffffffffffffffffffff1673ffffffffffffffffffffffffffffffffffffffff168152602001908152602001600020600082825461226b9190613f53565b925050819055505050508061227f906141e1565b905061208c565b508473ffffffffffffffffffffffffffffffffffffffff168673ffffffffffffffffffffffffffffffffffffffff168273ffffffffffffffffffffffffffffffffffffffff167f4a39dc06d4c0dbc64b70af90fd698a233a518aa5d07e595d983b8c0526c8f7fb87876040516122fd9291906139a8565b60405180910390a46123138187878787876127d8565b505050505050565b6000600360009054906101000a900473ffffffffffffffffffffffffffffffffffffffff16905081600360006101000a81548173ffffffffffffffffffffffffffffffffffffffff021916908373ffffffffffffffffffffffffffffffffffffffff1602179055508173ffffffffffffffffffffffffffffffffffffffff168173ffffffffffffffffffffffffffffffffffffffff167f8be0079c531659141344cd1fd0a4f28419497f9722a3daafe3b4186f6b6457e060405160405180910390a35050565b8173ffffffffffffffffffffffffffffffffffffffff168373ffffffffffffffffffffffffffffffffffffffff161415612450576040517f08c379a000000000000000000000000000000000000000000000000000000000815260040161244790613bbc565b60405180910390fd5b80600160008573ffffffffffffffffffffffffffffffffffffffff1673ffffffffffffffffffffffffffffffffffffffff16815260200190815260200160002060008473ffffffffffffffffffffffffffffffffffffffff1673ffffffffffffffffffffffffffffffffffffffff16815260200190815260200160002060006101000a81548160ff0219169083151502179055508173ffffffffffffffffffffffffffffffffffffffff168373ffffffffffffffffffffffffffffffffffffffff167f17307eab39ab6107e8899845ad3d59bd9653f200f220920489ca2b5937696c318360405161254191906139df565b60405180910390a3505050565b600073ffffffffffffffffffffffffffffffffffffffff168473ffffffffffffffffffffffffffffffffffffffff1614156125be576040517f08c379a00000000000000000000000000000000000000000000000000000000081526004016125b590613b1c565b60405180910390fd5b60006125c8611fb3565b90506125e88187876125d9886129bf565b6125e2886129bf565b876127d0565b600080600086815260200190815260200160002060008873ffffffffffffffffffffffffffffffffffffffff1673ffffffffffffffffffffffffffffffffffffffff1681526020019081526020016000205490508381101561267f576040517f08c379a000000000000000000000000000000000000000000000000000000000815260040161267690613b5c565b60405180910390fd5b83810360008087815260200190815260200160002060008973ffffffffffffffffffffffffffffffffffffffff1673ffffffffffffffffffffffffffffffffffffffff168152602001908152602001600020819055508360008087815260200190815260200160002060008873ffffffffffffffffffffffffffffffffffffffff1673ffffffffffffffffffffffffffffffffffffffff16815260200190815260200160002060008282546127349190613f53565b925050819055508573ffffffffffffffffffffffffffffffffffffffff168773ffffffffffffffffffffffffffffffffffffffff168373ffffffffffffffffffffffffffffffffffffffff167fc3d58168c5ae7397731d063d5bbf3d657854427343f4c083240f7aacaa2d0f6288886040516127b1929190613d2b565b60405180910390a46127c7828888888888612a85565b50505050505050565b505050505050565b6127f78473ffffffffffffffffffffffffffffffffffffffff16612c6c565b156129b7578373ffffffffffffffffffffffffffffffffffffffff1663bc197c8187878686866040518663ffffffff1660e01b815260040161283d95949392919061389b565b602060405180830381600087803b15801561285757600080fd5b505af192505050801561288857506040513d601f19601f82011682018060405250810190612885919061321c565b60015b61292e576128946142e6565b806308c379a014156128f157506128a96147d3565b806128b457506128f3565b806040517f08c379a00000000000000000000000000000000000000000000000000000000081526004016128e891906139fa565b60405180910390fd5b505b6040517f08c379a000000000000000000000000000000000000000000000000000000000815260040161292590613a1c565b60405180910390fd5b63bc197c8160e01b7bffffffffffffffffffffffffffffffffffffffffffffffffffffffff1916817bffffffffffffffffffffffffffffffffffffffffffffffffffffffff1916146129b5576040517f08c379a00000000000000000000000000000000000000000000000000000000081526004016129ac90613a3c565b60405180910390fd5b505b505050505050565b60606000600167ffffffffffffffff811115612a04577f4e487b7100000000000000000000000000000000000000000000000000000000600052604160045260246000fd5b604051908082528060200260200182016040528015612a325781602001602082028036833780820191505090505b5090508281600081518110612a70577f4e487b7100000000000000000000000000000000000000000000000000000000600052603260045260246000fd5b60200260200101818152505080915050919050565b612aa48473ffffffffffffffffffffffffffffffffffffffff16612c6c565b15612c64578373ffffffffffffffffffffffffffffffffffffffff1663f23a6e6187878686866040518663ffffffff1660e01b8152600401612aea959493929190613903565b602060405180830381600087803b158015612b0457600080fd5b505af1925050508015612b3557506040513d601f19601f82011682018060405250810190612b32919061321c565b60015b612bdb57612b416142e6565b806308c379a01415612b9e5750612b566147d3565b80612b615750612ba0565b806040517f08c379a0000000000000000000000000000000000000000000000000000000008152600401612b9591906139fa565b60405180910390fd5b505b6040517f08c379a0000000000000000000000000000000000000000000000000000000008152600401612bd290613a1c565b60405180910390fd5b63f23a6e6160e01b7bffffffffffffffffffffffffffffffffffffffffffffffffffffffff1916817bffffffffffffffffffffffffffffffffffffffffffffffffffffffff191614612c62576040517f08c379a0000000000000000000000000000000000000000000000000000000008152600401612c5990613a3c565b60405180910390fd5b505b505050505050565b6000808273ffffffffffffffffffffffffffffffffffffffff163b119050919050565b6000612ca2612c9d84613e28565b613e03565b90508083825260208201905082856020860282011115612cc157600080fd5b60005b85811015612cf15781612cd78882612de3565b845260208401935060208301925050600181019050612cc4565b5050509392505050565b6000612d0e612d0984613e54565b613e03565b90508083825260208201905082856020860282011115612d2d57600080fd5b60005b85811015612d5d5781612d438882612ef4565b845260208401935060208301925050600181019050612d30565b5050509392505050565b6000612d7a612d7584613e80565b613e03565b905082815260208101848484011115612d9257600080fd5b612d9d84828561413c565b509392505050565b6000612db8612db384613eb1565b613e03565b905082815260208101848484011115612dd057600080fd5b612ddb84828561413c565b509392505050565b600081359050612df281614869565b92915050565b600082601f830112612e0957600080fd5b8135612e19848260208601612c8f565b91505092915050565b600082601f830112612e3357600080fd5b8135612e43848260208601612cfb565b91505092915050565b600081359050612e5b81614880565b92915050565b600081519050612e7081614880565b92915050565b600081359050612e8581614897565b92915050565b600081519050612e9a81614897565b92915050565b600082601f830112612eb157600080fd5b8135612ec1848260208601612d67565b91505092915050565b600082601f830112612edb57600080fd5b8135612eeb848260208601612da5565b91505092915050565b600081359050612f03816148ae565b92915050565b600081519050612f18816148ae565b92915050565b600081359050612f2d816148c5565b92915050565b600060208284031215612f4557600080fd5b6000612f5384828501612de3565b91505092915050565b60008060408385031215612f6f57600080fd5b6000612f7d85828601612de3565b9250506020612f8e85828601612de3565b9150509250929050565b600080600080600060a08688031215612fb057600080fd5b6000612fbe88828901612de3565b9550506020612fcf88828901612de3565b945050604086013567ffffffffffffffff811115612fec57600080fd5b612ff888828901612e22565b935050606086013567ffffffffffffffff81111561301557600080fd5b61302188828901612e22565b925050608086013567ffffffffffffffff81111561303e57600080fd5b61304a88828901612ea0565b9150509295509295909350565b600080600080600060a0868803121561306f57600080fd5b600061307d88828901612de3565b955050602061308e88828901612de3565b945050604061309f88828901612ef4565b93505060606130b088828901612ef4565b925050608086013567ffffffffffffffff8111156130cd57600080fd5b6130d988828901612ea0565b9150509295509295909350565b600080604083850312156130f957600080fd5b600061310785828601612de3565b925050602061311885828601612e4c565b9150509250929050565b6000806040838503121561313557600080fd5b600061314385828601612de3565b925050602061315485828601612ef4565b9150509250929050565b6000806040838503121561317157600080fd5b600083013567ffffffffffffffff81111561318b57600080fd5b61319785828601612df8565b925050602083013567ffffffffffffffff8111156131b457600080fd5b6131c085828601612e22565b9150509250929050565b6000602082840312156131dc57600080fd5b60006131ea84828501612e61565b91505092915050565b60006020828403121561320557600080fd5b600061321384828501612e76565b91505092915050565b60006020828403121561322e57600080fd5b600061323c84828501612e8b565b91505092915050565b60006020828403121561325757600080fd5b600061326584828501612ef4565b91505092915050565b60006020828403121561328057600080fd5b600061328e84828501612f09565b91505092915050565b600080600080600060a086880312156132af57600080fd5b60006132bd88828901612ef4565b95505060206132ce88828901612de3565b94505060406132df88828901612ef4565b935050606086013567ffffffffffffffff8111156132fc57600080fd5b61330888828901612eca565b925050608061331988828901612ef4565b9150509295509295909350565b6000806000806080858703121561333c57600080fd5b600061334a87828801612ef4565b945050602061335b87828801612ef4565b935050604061336c87828801612de3565b925050606061337d87828801612ef4565b91505092959194509250565b6000806000806080858703121561339f57600080fd5b60006133ad87828801612ef4565b94505060206133be87828801612ef4565b93505060406133cf87828801612ef4565b92505060606133e087828801612de3565b91505092959194509250565b6000602082840312156133fe57600080fd5b600061340c84828501612f1e565b91505092915050565b600061342183836137d2565b60208301905092915050565b61343681614106565b82525050565b6134458161407a565b82525050565b61345481614068565b82525050565b600061346582613ef2565b61346f8185613f20565b935061347a83613ee2565b8060005b838110156134ab5781516134928882613415565b975061349d83613f13565b92505060018101905061347e565b5085935050505092915050565b6134c18161408c565b82525050565b60006134d282613efd565b6134dc8185613f31565b93506134ec81856020860161414b565b6134f581614308565b840191505092915050565b600061350b82613f08565b6135158185613f42565b935061352581856020860161414b565b61352e81614308565b840191505092915050565b6000613546603483613f42565b915061355182614326565b604082019050919050565b6000613569602883613f42565b915061357482614375565b604082019050919050565b600061358c602b83613f42565b9150613597826143c4565b604082019050919050565b60006135af602683613f42565b91506135ba82614413565b604082019050919050565b60006135d2601983613f42565b91506135dd82614462565b602082019050919050565b60006135f5600483613f31565b91506136008261448b565b602082019050919050565b6000613618601683613f42565b9150613623826144b4565b602082019050919050565b600061363b602983613f42565b9150613646826144dd565b604082019050919050565b600061365e601883613f42565b91506136698261452c565b602082019050919050565b6000613681602583613f42565b915061368c82614555565b604082019050919050565b60006136a4603283613f42565b91506136af826145a4565b604082019050919050565b60006136c7602a83613f42565b91506136d2826145f3565b604082019050919050565b60006136ea602083613f42565b91506136f582614642565b602082019050919050565b600061370d601883613f42565b91506137188261466b565b602082019050919050565b6000613730602983613f42565b915061373b82614694565b604082019050919050565b6000613753602983613f42565b915061375e826146e3565b604082019050919050565b6000613776601f83613f42565b915061378182614732565b602082019050919050565b6000613799602883613f42565b91506137a48261475b565b604082019050919050565b60006137bc601583613f42565b91506137c7826147aa565b602082019050919050565b6137db816140e4565b82525050565b6137ea816140e4565b82525050565b6137f9816140ee565b82525050565b6000602082019050613814600083018461344b565b92915050565b600060a08201905061382f600083018761342d565b61383c602083018661344b565b61384960408301856137e1565b61385660608301846137e1565b8181036080830152613867816135e8565b905095945050505050565b6000604082019050613887600083018561344b565b613894602083018461344b565b9392505050565b600060a0820190506138b0600083018861344b565b6138bd602083018761344b565b81810360408301526138cf818661345a565b905081810360608301526138e3818561345a565b905081810360808301526138f781846134c7565b90509695505050505050565b600060a082019050613918600083018861344b565b613925602083018761344b565b61393260408301866137e1565b61393f60608301856137e1565b818103608083015261395181846134c7565b90509695505050505050565b6000604082019050613972600083018561344b565b61397f60208301846137e1565b9392505050565b600060208201905081810360008301526139a0818461345a565b905092915050565b600060408201905081810360008301526139c2818561345a565b905081810360208301526139d6818461345a565b90509392505050565b60006020820190506139f460008301846134b8565b92915050565b60006020820190508181036000830152613a148184613500565b905092915050565b60006020820190508181036000830152613a3581613539565b9050919050565b60006020820190508181036000830152613a558161355c565b9050919050565b60006020820190508181036000830152613a758161357f565b9050919050565b60006020820190508181036000830152613a95816135a2565b9050919050565b60006020820190508181036000830152613ab5816135c5565b9050919050565b60006020820190508181036000830152613ad58161360b565b9050919050565b60006020820190508181036000830152613af58161362e565b9050919050565b60006020820190508181036000830152613b1581613651565b9050919050565b60006020820190508181036000830152613b3581613674565b9050919050565b60006020820190508181036000830152613b5581613697565b9050919050565b60006020820190508181036000830152613b75816136ba565b9050919050565b60006020820190508181036000830152613b95816136dd565b9050919050565b60006020820190508181036000830152613bb581613700565b9050919050565b60006020820190508181036000830152613bd581613723565b9050919050565b60006020820190508181036000830152613bf581613746565b9050919050565b60006020820190508181036000830152613c1581613769565b9050919050565b60006020820190508181036000830152613c358161378c565b9050919050565b60006020820190508181036000830152613c55816137af565b9050919050565b6000602082019050613c7160008301846137e1565b92915050565b600060a082019050613c8c60008301886137e1565b613c99602083018761344b565b613ca6604083018661342d565b613cb360608301856137e1565b613cc060808301846137e1565b9695505050505050565b600060c082019050613cdf60008301896137e1565b613cec602083018861344b565b613cf960408301876137e1565b613d06606083018661343c565b613d1360808301856137e1565b613d2060a08301846134b8565b979650505050505050565b6000604082019050613d4060008301856137e1565b613d4d60208301846137e1565b9392505050565b600061012082019050613d6a600083018c6137e1565b613d77602083018b6137e1565b613d84604083018a61344b565b613d9160608301896137e1565b613d9e60808301886134b8565b613dab60a083018761344b565b81810360c0830152613dbd8186613500565b9050613dcc60e08301856137e1565b613dda6101008301846134b8565b9a9950505050505050505050565b6000602082019050613dfd60008301846137f0565b92915050565b6000613e0d613e1e565b9050613e1982826141b0565b919050565b6000604051905090565b600067ffffffffffffffff821115613e4357613e426142b7565b5b602082029050602081019050919050565b600067ffffffffffffffff821115613e6f57613e6e6142b7565b5b602082029050602081019050919050565b600067ffffffffffffffff821115613e9b57613e9a6142b7565b5b613ea482614308565b9050602081019050919050565b600067ffffffffffffffff821115613ecc57613ecb6142b7565b5b613ed582614308565b9050602081019050919050565b6000819050602082019050919050565b600081519050919050565b600081519050919050565b600081519050919050565b6000602082019050919050565b600082825260208201905092915050565b600082825260208201905092915050565b600082825260208201905092915050565b6000613f5e826140e4565b9150613f69836140e4565b9250827fffffffffffffffffffffffffffffffffffffffffffffffffffffffffffffffff03821115613f9e57613f9d61422a565b5b828201905092915050565b6000613fb4826140e4565b9150613fbf836140e4565b925082613fcf57613fce614259565b5b828204905092915050565b6000613fe5826140e4565b9150613ff0836140e4565b9250817fffffffffffffffffffffffffffffffffffffffffffffffffffffffffffffffff04831182151516156140295761402861422a565b5b828202905092915050565b600061403f826140e4565b915061404a836140e4565b92508282101561405d5761405c61422a565b5b828203905092915050565b6000614073826140c4565b9050919050565b6000614085826140c4565b9050919050565b60008115159050919050565b60007fffffffff0000000000000000000000000000000000000000000000000000000082169050919050565b600073ffffffffffffffffffffffffffffffffffffffff82169050919050565b6000819050919050565b60006bffffffffffffffffffffffff82169050919050565b600061411182614118565b9050919050565b60006141238261412a565b9050919050565b6000614135826140c4565b9050919050565b82818337600083830152505050565b60005b8381101561416957808201518184015260208101905061414e565b83811115614178576000848401525b50505050565b6000600282049050600182168061419657607f821691505b602082108114156141aa576141a9614288565b5b50919050565b6141b982614308565b810181811067ffffffffffffffff821117156141d8576141d76142b7565b5b80604052505050565b60006141ec826140e4565b91507fffffffffffffffffffffffffffffffffffffffffffffffffffffffffffffffff82141561421f5761421e61422a565b5b600182019050919050565b7f4e487b7100000000000000000000000000000000000000000000000000000000600052601160045260246000fd5b7f4e487b7100000000000000000000000000000000000000000000000000000000600052601260045260246000fd5b7f4e487b7100000000000000000000000000000000000000000000000000000000600052602260045260246000fd5b7f4e487b7100000000000000000000000000000000000000000000000000000000600052604160045260246000fd5b600060033d11156143055760046000803e614302600051614319565b90505b90565b6000601f19601f8301169050919050565b60008160e01c9050919050565b7f455243313135353a207472616e7366657220746f206e6f6e204552433131353560008201527f526563656976657220696d706c656d656e746572000000000000000000000000602082015250565b7f455243313135353a204552433131353552656365697665722072656a6563746560008201527f6420746f6b656e73000000000000000000000000000000000000000000000000602082015250565b7f455243313135353a2062616c616e636520717565727920666f7220746865207a60008201527f65726f2061646472657373000000000000000000000000000000000000000000602082015250565b7f4f776e61626c653a206e6577206f776e657220697320746865207a65726f206160008201527f6464726573730000000000000000000000000000000000000000000000000000602082015250565b7f436f6e7472616374206d75737420626520617070726f76656400000000000000600082015250565b7f3078303000000000000000000000000000000000000000000000000000000000600082015250565b7f4e6f7420656e6f7567682066756e64732073656e742100000000000000000000600082015250565b7f455243313135353a2063616c6c6572206973206e6f74206f776e6572206e6f7260008201527f20617070726f7665640000000000000000000000000000000000000000000000602082015250565b7f4f776e65722063616e27742062757920746865206974656d0000000000000000600082015250565b7f455243313135353a207472616e7366657220746f20746865207a65726f20616460008201527f6472657373000000000000000000000000000000000000000000000000000000602082015250565b7f455243313135353a207472616e736665722063616c6c6572206973206e6f742060008201527f6f776e6572206e6f7220617070726f7665640000000000000000000000000000602082015250565b7f455243313135353a20696e73756666696369656e742062616c616e636520666f60008201527f72207472616e7366657200000000000000000000000000000000000000000000602082015250565b7f4f776e61626c653a2063616c6c6572206973206e6f7420746865206f776e6572600082015250565b7f436f756c64206e6f742066696e6420746865206974656d210000000000000000600082015250565b7f455243313135353a2073657474696e6720617070726f76616c2073746174757360008201527f20666f722073656c660000000000000000000000000000000000000000000000602082015250565b7f455243313135353a206163636f756e747320616e6420696473206c656e67746860008201527f206d69736d617463680000000000000000000000000000000000000000000000602082015250565b7f4e4654206d757374206265206f776e6564206279207468652063616c6c657200600082015250565b7f455243313135353a2069647320616e6420616d6f756e7473206c656e6774682060008201527f6d69736d61746368000000000000000000000000000000000000000000000000602082015250565b7f4974656d20697320616c726561647920736f6c64210000000000000000000000600082015250565b600060443d10156147e357614866565b6147eb613e1e565b60043d036004823e80513d602482011167ffffffffffffffff82111715614813575050614866565b808201805167ffffffffffffffff8111156148315750505050614866565b80602083010160043d03850181111561484e575050505050614866565b61485d826020018501866141b0565b82955050505050505b90565b61487281614068565b811461487d57600080fd5b50565b6148898161408c565b811461489457600080fd5b50565b6148a081614098565b81146148ab57600080fd5b50565b6148b7816140e4565b81146148c257600080fd5b50565b6148ce816140ee565b81146148d957600080fd5b5056fea2646970667358221220d9ceb3cc69650bf25ec1d3cc5dd454f6ecf03ea66722f7508306f53e1297287264736f6c63430008040033",
  "linkReferences": {},
  "deployedLinkReferences": {}
}