{
  "_format": "hh-sol-artifact-1",
  "contractName": "MarketContract1155",
  "sourceName": "contracts/MarketContract1155.sol",
  "abi": [
    {
      "inputs": [],
      "stateMutability": "nonpayable",
      "type": "constructor"
    },
    {
      "anonymous": false,
      "inputs": [
        {
          "indexed": true,
          "internalType": "address",
          "name": "account",
          "type": "address"
        },
        {
          "indexed": true,
          "internalType": "address",
          "name": "operator",
          "type": "address"
        },
        {
          "indexed": false,
          "internalType": "bool",
          "name": "approved",
          "type": "bool"
        }
      ],
      "name": "ApprovalForAll",
      "type": "event"
    },
    {
      "anonymous": false,
      "inputs": [
        {
          "indexed": true,
          "internalType": "address",
          "name": "previousOwner",
          "type": "address"
        },
        {
          "indexed": true,
          "internalType": "address",
          "name": "newOwner",
          "type": "address"
        }
      ],
      "name": "OwnershipTransferred",
      "type": "event"
    },
    {
      "anonymous": false,
      "inputs": [
        {
          "indexed": true,
          "internalType": "address",
          "name": "operator",
          "type": "address"
        },
        {
          "indexed": true,
          "internalType": "address",
          "name": "from",
          "type": "address"
        },
        {
          "indexed": true,
          "internalType": "address",
          "name": "to",
          "type": "address"
        },
        {
          "indexed": false,
          "internalType": "uint256[]",
          "name": "ids",
          "type": "uint256[]"
        },
        {
          "indexed": false,
          "internalType": "uint256[]",
          "name": "values",
          "type": "uint256[]"
        }
      ],
      "name": "TransferBatch",
      "type": "event"
    },
    {
      "anonymous": false,
      "inputs": [
        {
          "indexed": true,
          "internalType": "address",
          "name": "operator",
          "type": "address"
        },
        {
          "indexed": true,
          "internalType": "address",
          "name": "from",
          "type": "address"
        },
        {
          "indexed": true,
          "internalType": "address",
          "name": "to",
          "type": "address"
        },
        {
          "indexed": false,
          "internalType": "uint256",
          "name": "id",
          "type": "uint256"
        },
        {
          "indexed": false,
          "internalType": "uint256",
          "name": "value",
          "type": "uint256"
        }
      ],
      "name": "TransferSingle",
      "type": "event"
    },
    {
      "anonymous": false,
      "inputs": [
        {
          "indexed": false,
          "internalType": "string",
          "name": "value",
          "type": "string"
        },
        {
          "indexed": true,
          "internalType": "uint256",
          "name": "id",
          "type": "uint256"
        }
      ],
      "name": "URI",
      "type": "event"
    },
    {
      "anonymous": false,
      "inputs": [
        {
          "indexed": false,
          "internalType": "uint256",
          "name": "id",
          "type": "uint256"
        },
        {
          "indexed": false,
          "internalType": "uint256",
          "name": "tokenId",
          "type": "uint256"
        },
        {
          "indexed": false,
          "internalType": "address",
          "name": "tokenAddress",
          "type": "address"
        },
        {
          "indexed": false,
          "internalType": "uint256",
          "name": "askingPrice",
          "type": "uint256"
        },
        {
          "indexed": false,
          "internalType": "bool",
          "name": "isSold",
          "type": "bool"
        },
        {
          "indexed": false,
          "internalType": "address",
          "name": "ownerOf",
          "type": "address"
        },
        {
          "indexed": false,
          "internalType": "string",
          "name": "tokenUri",
          "type": "string"
        },
        {
          "indexed": false,
          "internalType": "uint256",
          "name": "amount",
          "type": "uint256"
        },
        {
          "indexed": false,
          "internalType": "bool",
          "name": "isOnSale",
          "type": "bool"
        }
      ],
      "name": "itemAdded",
      "type": "event"
    },
    {
      "anonymous": false,
      "inputs": [
        {
          "indexed": false,
          "internalType": "uint256",
          "name": "id",
          "type": "uint256"
        },
        {
          "indexed": false,
          "internalType": "address",
          "name": "buyer",
          "type": "address"
        },
        {
          "indexed": false,
          "internalType": "address",
          "name": "seller",
          "type": "address"
        },
        {
          "indexed": false,
          "internalType": "uint256",
          "name": "tokenId",
          "type": "uint256"
        },
        {
          "indexed": false,
          "internalType": "uint256",
          "name": "askingPrice",
          "type": "uint256"
        }
      ],
      "name": "itemSold",
      "type": "event"
    },
    {
      "inputs": [
        {
          "internalType": "uint256",
          "name": "tokenId",
          "type": "uint256"
        },
        {
          "internalType": "address",
          "name": "tokenAddress",
          "type": "address"
        },
        {
          "internalType": "uint256",
          "name": "askingPrice",
          "type": "uint256"
        },
        {
          "internalType": "string",
          "name": "tokenUri",
          "type": "string"
        },
        {
          "internalType": "uint256",
          "name": "amount",
          "type": "uint256"
        }
      ],
      "name": "addItemToMarket",
      "outputs": [
        {
          "internalType": "uint256",
          "name": "",
          "type": "uint256"
        }
      ],
      "stateMutability": "nonpayable",
      "type": "function"
    },
    {
      "inputs": [
        {
          "internalType": "address",
          "name": "account",
          "type": "address"
        },
        {
          "internalType": "uint256",
          "name": "id",
          "type": "uint256"
        }
      ],
      "name": "balanceOf",
      "outputs": [
        {
          "internalType": "uint256",
          "name": "",
          "type": "uint256"
        }
      ],
      "stateMutability": "view",
      "type": "function"
    },
    {
      "inputs": [
        {
          "internalType": "address[]",
          "name": "accounts",
          "type": "address[]"
        },
        {
          "internalType": "uint256[]",
          "name": "ids",
          "type": "uint256[]"
        }
      ],
      "name": "balanceOfBatch",
      "outputs": [
        {
          "internalType": "uint256[]",
          "name": "",
          "type": "uint256[]"
        }
      ],
      "stateMutability": "view",
      "type": "function"
    },
    {
      "inputs": [
        {
          "internalType": "uint256",
          "name": "id",
          "type": "uint256"
        },
        {
          "internalType": "uint256",
          "name": "amount",
          "type": "uint256"
        },
        {
          "internalType": "uint256",
          "name": "royalty",
          "type": "uint256"
        },
        {
          "internalType": "address",
          "name": "creator",
          "type": "address"
        }
      ],
      "name": "buyItem",
      "outputs": [],
      "stateMutability": "payable",
      "type": "function"
    },
    {
      "inputs": [
        {
          "internalType": "uint256",
          "name": "id",
          "type": "uint256"
        },
        {
          "internalType": "uint256",
          "name": "amount",
          "type": "uint256"
        },
        {
          "internalType": "uint256",
          "name": "royalty",
          "type": "uint256"
        },
        {
          "internalType": "address",
          "name": "creator",
          "type": "address"
        },
        {
          "internalType": "address",
          "name": "payToken",
          "type": "address"
        }
      ],
      "name": "buyItemWithTokens",
      "outputs": [],
      "stateMutability": "payable",
      "type": "function"
    },
    {
      "inputs": [
        {
          "internalType": "uint256",
          "name": "id",
          "type": "uint256"
        },
        {
          "internalType": "uint256",
          "name": "tokenId",
          "type": "uint256"
        },
        {
          "internalType": "address",
          "name": "tokenAddress",
          "type": "address"
        },
        {
          "internalType": "uint256",
          "name": "newPrice",
          "type": "uint256"
        }
      ],
      "name": "changePrice",
      "outputs": [
        {
          "internalType": "uint256",
          "name": "",
          "type": "uint256"
        }
      ],
      "stateMutability": "nonpayable",
      "type": "function"
    },
    {
      "inputs": [],
      "name": "getServiceFee",
      "outputs": [
        {
          "internalType": "uint96",
          "name": "",
          "type": "uint96"
        }
      ],
      "stateMutability": "view",
      "type": "function"
    },
    {
      "inputs": [
        {
          "internalType": "address",
          "name": "account",
          "type": "address"
        },
        {
          "internalType": "address",
          "name": "operator",
          "type": "address"
        }
      ],
      "name": "isApprovedForAll",
      "outputs": [
        {
          "internalType": "bool",
          "name": "",
          "type": "bool"
        }
      ],
      "stateMutability": "view",
      "type": "function"
    },
    {
      "inputs": [
        {
          "internalType": "uint256",
          "name": "",
          "type": "uint256"
        }
      ],
      "name": "itemsForSale",
      "outputs": [
        {
          "internalType": "uint256",
          "name": "id",
          "type": "uint256"
        },
        {
          "internalType": "address",
          "name": "tokenAddress",
          "type": "address"
        },
        {
          "internalType": "uint256",
          "name": "tokenId",
          "type": "uint256"
        },
        {
          "internalType": "address payable",
          "name": "seller",
          "type": "address"
        },
        {
          "internalType": "uint256",
          "name": "askingPrice",
          "type": "uint256"
        },
        {
          "internalType": "bool",
          "name": "isSold",
          "type": "bool"
        }
      ],
      "stateMutability": "view",
      "type": "function"
    },
    {
      "inputs": [],
      "name": "name",
      "outputs": [
        {
          "internalType": "string",
          "name": "",
          "type": "string"
        }
      ],
      "stateMutability": "view",
      "type": "function"
    },
    {
      "inputs": [],
      "name": "owner",
      "outputs": [
        {
          "internalType": "address",
          "name": "",
          "type": "address"
        }
      ],
      "stateMutability": "view",
      "type": "function"
    },
    {
      "inputs": [],
      "name": "renounceOwnership",
      "outputs": [],
      "stateMutability": "nonpayable",
      "type": "function"
    },
    {
      "inputs": [
        {
          "internalType": "address",
          "name": "from",
          "type": "address"
        },
        {
          "internalType": "address",
          "name": "to",
          "type": "address"
        },
        {
          "internalType": "uint256[]",
          "name": "ids",
          "type": "uint256[]"
        },
        {
          "internalType": "uint256[]",
          "name": "amounts",
          "type": "uint256[]"
        },
        {
          "internalType": "bytes",
          "name": "data",
          "type": "bytes"
        }
      ],
      "name": "safeBatchTransferFrom",
      "outputs": [],
      "stateMutability": "nonpayable",
      "type": "function"
    },
    {
      "inputs": [
        {
          "internalType": "address",
          "name": "from",
          "type": "address"
        },
        {
          "internalType": "address",
          "name": "to",
          "type": "address"
        },
        {
          "internalType": "uint256",
          "name": "id",
          "type": "uint256"
        },
        {
          "internalType": "uint256",
          "name": "amount",
          "type": "uint256"
        },
        {
          "internalType": "bytes",
          "name": "data",
          "type": "bytes"
        }
      ],
      "name": "safeTransferFrom",
      "outputs": [],
      "stateMutability": "nonpayable",
      "type": "function"
    },
    {
      "inputs": [
        {
          "internalType": "address",
          "name": "operator",
          "type": "address"
        },
        {
          "internalType": "bool",
          "name": "approved",
          "type": "bool"
        }
      ],
      "name": "setApprovalForAll",
      "outputs": [],
      "stateMutability": "nonpayable",
      "type": "function"
    },
    {
      "inputs": [
        {
          "internalType": "uint96",
          "name": "_serviceFee",
          "type": "uint96"
        }
      ],
      "name": "setServiceFee",
      "outputs": [],
      "stateMutability": "nonpayable",
      "type": "function"
    },
    {
      "inputs": [
        {
          "internalType": "bytes4",
          "name": "interfaceId",
          "type": "bytes4"
        }
      ],
      "name": "supportsInterface",
      "outputs": [
        {
          "internalType": "bool",
          "name": "",
          "type": "bool"
        }
      ],
      "stateMutability": "view",
      "type": "function"
    },
    {
      "inputs": [],
      "name": "symbol",
      "outputs": [
        {
          "internalType": "string",
          "name": "",
          "type": "string"
        }
      ],
      "stateMutability": "view",
      "type": "function"
    },
    {
      "inputs": [
        {
          "internalType": "address",
          "name": "newOwner",
          "type": "address"
        }
      ],
      "name": "transferOwnership",
      "outputs": [],
      "stateMutability": "nonpayable",
      "type": "function"
    },
    {
      "inputs": [
        {
          "internalType": "uint256",
          "name": "",
          "type": "uint256"
        }
      ],
      "name": "uri",
      "outputs": [
        {
          "internalType": "string",
          "name": "",
          "type": "string"
        }
      ],
      "stateMutability": "view",
      "type": "function"
    }
  ],
  "bytecode": "0x60806040526101f4600660006101000a8154816bffffffffffffffffffffffff02191690836bffffffffffffffffffffffff1602179055503480156200004457600080fd5b506040518060200160405280600081525062000066816200012960201b60201c565b50620000876200007b6200014560201b60201c565b6200014d60201b60201c565b6040518060400160405280601281526020017f43726561746976655661756c742031313535000000000000000000000000000081525060049080519060200190620000d492919062000213565b506040518060400160405280600381526020017f564c540000000000000000000000000000000000000000000000000000000000815250600590805190602001906200012292919062000213565b5062000328565b80600290805190602001906200014192919062000213565b5050565b600033905090565b6000600360009054906101000a900473ffffffffffffffffffffffffffffffffffffffff16905081600360006101000a81548173ffffffffffffffffffffffffffffffffffffffff021916908373ffffffffffffffffffffffffffffffffffffffff1602179055508173ffffffffffffffffffffffffffffffffffffffff168173ffffffffffffffffffffffffffffffffffffffff167f8be0079c531659141344cd1fd0a4f28419497f9722a3daafe3b4186f6b6457e060405160405180910390a35050565b8280546200022190620002f2565b90600052602060002090601f01602090048101928262000245576000855562000291565b82601f106200026057805160ff191683800117855562000291565b8280016001018555821562000291579182015b828111156200029057825182559160200191906001019062000273565b5b509050620002a09190620002a4565b5090565b5b80821115620002bf576000816000905550600101620002a5565b5090565b7f4e487b7100000000000000000000000000000000000000000000000000000000600052602260045260246000fd5b600060028204905060018216806200030b57607f821691505b60208210811415620003225762000321620002c3565b5b50919050565b614b5580620003386000396000f3fe60806040526004361061011e5760003560e01c8063784fcf5c116100a0578063e985e9c511610064578063e985e9c514610404578063e9c7f0ff14610441578063f242432a1461045d578063f2fde38b14610486578063fc53e955146104af5761011e565b8063784fcf5c1461032c5780638da5cb5b1461034857806391fb416e1461037357806395d89b41146103b0578063a22cb465146103db5761011e565b806311a1933c116100e757806311a1933c146102475780632eb2c2d6146102725780634e1273f41461029b5780635d4d3bf7146102d8578063715018a6146103155761011e565b8062fdd58e1461012357806301ffc9a71461016057806306fdde031461019d578063092d0afc146101c85780630e89341c1461020a575b600080fd5b34801561012f57600080fd5b5061014a60048036038101906101459190612e5b565b6104d8565b6040516101579190612eaa565b60405180910390f35b34801561016c57600080fd5b5061018760048036038101906101829190612f1d565b6105a1565b6040516101949190612f65565b60405180910390f35b3480156101a957600080fd5b506101b2610683565b6040516101bf9190613019565b60405180910390f35b3480156101d457600080fd5b506101ef60048036038101906101ea919061303b565b610711565b60405161020196959493929190613098565b60405180910390f35b34801561021657600080fd5b50610231600480360381019061022c919061303b565b6107aa565b60405161023e9190613019565b60405180910390f35b34801561025357600080fd5b5061025c61083e565b6040516102699190613120565b60405180910390f35b34801561027e57600080fd5b5061029960048036038101906102949190613338565b610860565b005b3480156102a757600080fd5b506102c260048036038101906102bd91906134ca565b610901565b6040516102cf9190613600565b60405180910390f35b3480156102e457600080fd5b506102ff60048036038101906102fa9190613622565b610a1a565b60405161030c9190612eaa565b60405180910390f35b34801561032157600080fd5b5061032a610b4c565b005b61034660048036038101906103419190613689565b610b60565b005b34801561035457600080fd5b5061035d611352565b60405161036a91906136f0565b60405180910390f35b34801561037f57600080fd5b5061039a600480360381019061039591906137ac565b61137c565b6040516103a79190612eaa565b60405180910390f35b3480156103bc57600080fd5b506103c5611779565b6040516103d29190613019565b60405180910390f35b3480156103e757600080fd5b5061040260048036038101906103fd919061386f565b611807565b005b34801561041057600080fd5b5061042b600480360381019061042691906138af565b61181d565b6040516104389190612f65565b60405180910390f35b61045b600480360381019061045691906138ef565b6118b1565b005b34801561046957600080fd5b50610484600480360381019061047f919061396a565b611ef6565b005b34801561049257600080fd5b506104ad60048036038101906104a89190613a01565b611f97565b005b3480156104bb57600080fd5b506104d660048036038101906104d19190613a5a565b61201b565b005b60008073ffffffffffffffffffffffffffffffffffffffff168373ffffffffffffffffffffffffffffffffffffffff161415610549576040517f08c379a000000000000000000000000000000000000000000000000000000000815260040161054090613af9565b60405180910390fd5b60008083815260200190815260200160002060008473ffffffffffffffffffffffffffffffffffffffff1673ffffffffffffffffffffffffffffffffffffffff16815260200190815260200160002054905092915050565b60007fd9b67a26000000000000000000000000000000000000000000000000000000007bffffffffffffffffffffffffffffffffffffffffffffffffffffffff1916827bffffffffffffffffffffffffffffffffffffffffffffffffffffffff1916148061066c57507f0e89341c000000000000000000000000000000000000000000000000000000007bffffffffffffffffffffffffffffffffffffffffffffffffffffffff1916827bffffffffffffffffffffffffffffffffffffffffffffffffffffffff1916145b8061067c575061067b82612057565b5b9050919050565b6004805461069090613b48565b80601f01602080910402602001604051908101604052809291908181526020018280546106bc90613b48565b80156107095780601f106106de57610100808354040283529160200191610709565b820191906000526020600020905b8154815290600101906020018083116106ec57829003601f168201915b505050505081565b6007818154811061072157600080fd5b90600052602060002090600602016000915090508060000154908060010160009054906101000a900473ffffffffffffffffffffffffffffffffffffffff16908060020154908060030160009054906101000a900473ffffffffffffffffffffffffffffffffffffffff16908060040154908060050160009054906101000a900460ff16905086565b6060600280546107b990613b48565b80601f01602080910402602001604051908101604052809291908181526020018280546107e590613b48565b80156108325780601f1061080757610100808354040283529160200191610832565b820191906000526020600020905b81548152906001019060200180831161081557829003601f168201915b50505050509050919050565b6000600660009054906101000a90046bffffffffffffffffffffffff16905090565b6108686120c1565b73ffffffffffffffffffffffffffffffffffffffff168573ffffffffffffffffffffffffffffffffffffffff1614806108ae57506108ad856108a86120c1565b61181d565b5b6108ed576040517f08c379a00000000000000000000000000000000000000000000000000000000081526004016108e490613bec565b60405180910390fd5b6108fa85858585856120c9565b5050505050565b60608151835114610947576040517f08c379a000000000000000000000000000000000000000000000000000000000815260040161093e90613c7e565b60405180910390fd5b6000835167ffffffffffffffff81111561096457610963613140565b5b6040519080825280602002602001820160405280156109925781602001602082028036833780820191505090505b50905060005b8451811015610a0f576109df8582815181106109b7576109b6613c9e565b5b60200260200101518583815181106109d2576109d1613c9e565b5b60200260200101516104d8565b8282815181106109f2576109f1613c9e565b5b60200260200101818152505080610a0890613cfc565b9050610998565b508091505092915050565b60008284600082905060008173ffffffffffffffffffffffffffffffffffffffff1662fdd58e33856040518363ffffffff1660e01b8152600401610a5f929190613d45565b60206040518083038186803b158015610a7757600080fd5b505afa158015610a8b573d6000803e3d6000fd5b505050506040513d601f19601f82011682018060405250810190610aaf9190613d83565b11610aef576040517f08c379a0000000000000000000000000000000000000000000000000000000008152600401610ae690613dfc565b60405180910390fd5b8460078981548110610b0457610b03613c9e565b5b90600052602060002090600602016004018190555060078881548110610b2d57610b2c613c9e565b5b9060005260206000209060060201600401549350505050949350505050565b610b546123eb565b610b5e6000612469565b565b8360078054905081108015610b9957508060078281548110610b8557610b84613c9e565b5b906000526020600020906006020160000154145b610bd8576040517f08c379a0000000000000000000000000000000000000000000000000000000008152600401610bcf90613e68565b60405180910390fd5b846000151560078281548110610bf157610bf0613c9e565b5b906000526020600020906006020160050160009054906101000a900460ff16151514610c52576040517f08c379a0000000000000000000000000000000000000000000000000000000008152600401610c4990613ed4565b60405180910390fd5b60078681548110610c6657610c65613c9e565b5b906000526020600020906006020160040154341015610cba576040517f08c379a0000000000000000000000000000000000000000000000000000000008152600401610cb190613f40565b60405180910390fd5b60078681548110610cce57610ccd613c9e565b5b906000526020600020906006020160030160009054906101000a900473ffffffffffffffffffffffffffffffffffffffff1673ffffffffffffffffffffffffffffffffffffffff163373ffffffffffffffffffffffffffffffffffffffff161415610d6e576040517f08c379a0000000000000000000000000000000000000000000000000000000008152600401610d6590613fac565b60405180910390fd5b60003390506000610d7d611352565b90506000859050600060078a81548110610d9a57610d99613c9e565b5b906000526020600020906006020160050160006101000a81548160ff02191690831515021790555060006008600060078c81548110610ddc57610ddb613c9e565b5b906000526020600020906006020160010160009054906101000a900473ffffffffffffffffffffffffffffffffffffffff1673ffffffffffffffffffffffffffffffffffffffff1673ffffffffffffffffffffffffffffffffffffffff168152602001908152602001600020600060078c81548110610e5e57610e5d613c9e565b5b906000526020600020906006020160020154815260200190815260200160002060006101000a81548160ff02191690831515021790555060078981548110610ea957610ea8613c9e565b5b906000526020600020906006020160030160009054906101000a900473ffffffffffffffffffffffffffffffffffffffff1673ffffffffffffffffffffffffffffffffffffffff166108fc88612710600660009054906101000a90046bffffffffffffffffffffffff166bffffffffffffffffffffffff1660078e81548110610f3557610f34613c9e565b5b906000526020600020906006020160040154610f519190613fcc565b610f5b9190614055565b610f659190614086565b60078c81548110610f7957610f78613c9e565b5b906000526020600020906006020160040154610f9591906140dc565b9081150290604051600060405180830381858888f19350505050158015610fc0573d6000803e3d6000fd5b508173ffffffffffffffffffffffffffffffffffffffff166108fc612710600660009054906101000a90046bffffffffffffffffffffffff166bffffffffffffffffffffffff1660078d8154811061101b5761101a613c9e565b5b9060005260206000209060060201600401546110379190613fcc565b6110419190614055565b9081150290604051600060405180830381858888f1935050505015801561106c573d6000803e3d6000fd5b508073ffffffffffffffffffffffffffffffffffffffff166108fc889081150290604051600060405180830381858888f193505050501580156110b3573d6000803e3d6000fd5b50600789815481106110c8576110c7613c9e565b5b906000526020600020906006020160040154341115611159578273ffffffffffffffffffffffffffffffffffffffff166108fc60078b8154811061110f5761110e613c9e565b5b9060005260206000209060060201600401543461112c91906140dc565b9081150290604051600060405180830381858888f19350505050158015611157573d6000803e3d6000fd5b505b6007898154811061116d5761116c613c9e565b5b906000526020600020906006020160010160009054906101000a900473ffffffffffffffffffffffffffffffffffffffff1673ffffffffffffffffffffffffffffffffffffffff1663f242432a60078b815481106111ce576111cd613c9e565b5b906000526020600020906006020160030160009054906101000a900473ffffffffffffffffffffffffffffffffffffffff163360078d8154811061121557611214613c9e565b5b9060005260206000209060060201600201548c6040518563ffffffff1660e01b815260040161124794939291906141cc565b600060405180830381600087803b15801561126157600080fd5b505af1158015611275573d6000803e3d6000fd5b505050507f1a418a8480f414a0fd218b4919de1eccba8b8853cb3aafd03003ede4f67951a4893360078c815481106112b0576112af613c9e565b5b906000526020600020906006020160030160009054906101000a900473ffffffffffffffffffffffffffffffffffffffff1660078d815481106112f6576112f5613c9e565b5b90600052602060002090600602016002015460078e8154811061131c5761131b613c9e565b5b90600052602060002090600602016004015460405161133f959493929190614224565b60405180910390a1505050505050505050565b6000600360009054906101000a900473ffffffffffffffffffffffffffffffffffffffff16905090565b60008486600082905060008173ffffffffffffffffffffffffffffffffffffffff1662fdd58e33856040518363ffffffff1660e01b81526004016113c1929190613d45565b60206040518083038186803b1580156113d957600080fd5b505afa1580156113ed573d6000803e3d6000fd5b505050506040513d601f19601f820116820180604052508101906114119190613d83565b11611451576040517f08c379a000000000000000000000000000000000000000000000000000000000815260040161144890613dfc565b60405180910390fd5b8760008190508073ffffffffffffffffffffffffffffffffffffffff1663e985e9c533306040518363ffffffff1660e01b8152600401611492929190614277565b60206040518083038186803b1580156114aa57600080fd5b505afa1580156114be573d6000803e3d6000fd5b505050506040513d601f19601f820116820180604052508101906114e291906142b5565b611521576040517f08c379a00000000000000000000000000000000000000000000000000000000081526004016115189061432e565b60405180910390fd5b6000600780549050905060076040518060c001604052808381526020018d73ffffffffffffffffffffffffffffffffffffffff1681526020018e81526020013373ffffffffffffffffffffffffffffffffffffffff1681526020018c81526020016000151581525090806001815401808255809150506001900390600052602060002090600602016000909190919091506000820151816000015560208201518160010160006101000a81548173ffffffffffffffffffffffffffffffffffffffff021916908373ffffffffffffffffffffffffffffffffffffffff1602179055506040820151816002015560608201518160030160006101000a81548173ffffffffffffffffffffffffffffffffffffffff021916908373ffffffffffffffffffffffffffffffffffffffff1602179055506080820151816004015560a08201518160050160006101000a81548160ff02191690831515021790555050506001600860008d73ffffffffffffffffffffffffffffffffffffffff1673ffffffffffffffffffffffffffffffffffffffff16815260200190815260200160002060008e815260200190815260200160002060006101000a81548160ff02191690831515021790555080600782815481106116fe576116fd613c9e565b5b9060005260206000209060060201600001541461171e5761171d61434e565b5b7f0305393bb9dbe5906d5851e0ab59af252cab0bc7e995baab3eaef82dc34ae61c818d8d8d6000338f8f600160405161175f9998979695949392919061437d565b60405180910390a180965050505050505095945050505050565b6005805461178690613b48565b80601f01602080910402602001604051908101604052809291908181526020018280546117b290613b48565b80156117ff5780601f106117d4576101008083540402835291602001916117ff565b820191906000526020600020905b8154815290600101906020018083116117e257829003601f168201915b505050505081565b6118196118126120c1565b838361252f565b5050565b6000600160008473ffffffffffffffffffffffffffffffffffffffff1673ffffffffffffffffffffffffffffffffffffffff16815260200190815260200160002060008373ffffffffffffffffffffffffffffffffffffffff1673ffffffffffffffffffffffffffffffffffffffff16815260200190815260200160002060009054906101000a900460ff16905092915050565b84600780549050811080156118ea575080600782815481106118d6576118d5613c9e565b5b906000526020600020906006020160000154145b611929576040517f08c379a000000000000000000000000000000000000000000000000000000000815260040161192090613e68565b60405180910390fd5b85600015156007828154811061194257611941613c9e565b5b906000526020600020906006020160050160009054906101000a900460ff161515146119a3576040517f08c379a000000000000000000000000000000000000000000000000000000000815260040161199a90613ed4565b60405180910390fd5b600787815481106119b7576119b6613c9e565b5b906000526020600020906006020160030160009054906101000a900473ffffffffffffffffffffffffffffffffffffffff1673ffffffffffffffffffffffffffffffffffffffff163373ffffffffffffffffffffffffffffffffffffffff161415611a57576040517f08c379a0000000000000000000000000000000000000000000000000000000008152600401611a4e90613fac565b60405180910390fd5b6000839050600060078981548110611a7257611a71613c9e565b5b9060005260206000209060060201600401549050600060078a81548110611a9c57611a9b613c9e565b5b906000526020600020906006020160030160009054906101000a900473ffffffffffffffffffffffffffffffffffffffff169050600060078b81548110611ae657611ae5613c9e565b5b9060005260206000209060060201600201549050600060078c81548110611b1057611b0f613c9e565b5b906000526020600020906006020160010160009054906101000a900473ffffffffffffffffffffffffffffffffffffffff169050600060078d81548110611b5a57611b59613c9e565b5b906000526020600020906006020160050160006101000a81548160ff0219169083151502179055506000600860008373ffffffffffffffffffffffffffffffffffffffff1673ffffffffffffffffffffffffffffffffffffffff168152602001908152602001600020600084815260200190815260200160002060006101000a81548160ff0219169083151502179055508473ffffffffffffffffffffffffffffffffffffffff166323b872dd33858d612710600660009054906101000a90046bffffffffffffffffffffffff166bffffffffffffffffffffffff168a611c419190613fcc565b611c4b9190614055565b611c559190614086565b88611c6091906140dc565b6040518463ffffffff1660e01b8152600401611c7e93929190614411565b602060405180830381600087803b158015611c9857600080fd5b505af1158015611cac573d6000803e3d6000fd5b505050506040513d601f19601f82011682018060405250810190611cd091906142b5565b508473ffffffffffffffffffffffffffffffffffffffff166323b872dd33611cf6611352565b612710600660009054906101000a90046bffffffffffffffffffffffff166bffffffffffffffffffffffff1689611d2d9190613fcc565b611d379190614055565b6040518463ffffffff1660e01b8152600401611d5593929190614411565b602060405180830381600087803b158015611d6f57600080fd5b505af1158015611d83573d6000803e3d6000fd5b505050506040513d601f19601f82011682018060405250810190611da791906142b5565b508473ffffffffffffffffffffffffffffffffffffffff166323b872dd338b8d6040518463ffffffff1660e01b8152600401611de593929190614411565b602060405180830381600087803b158015611dff57600080fd5b505af1158015611e13573d6000803e3d6000fd5b505050506040513d601f19601f82011682018060405250810190611e3791906142b5565b508073ffffffffffffffffffffffffffffffffffffffff1663f242432a8433858f6040518563ffffffff1660e01b8152600401611e7794939291906141cc565b600060405180830381600087803b158015611e9157600080fd5b505af1158015611ea5573d6000803e3d6000fd5b505050507f1a418a8480f414a0fd218b4919de1eccba8b8853cb3aafd03003ede4f67951a48c33858588604051611ee0959493929190614224565b60405180910390a1505050505050505050505050565b611efe6120c1565b73ffffffffffffffffffffffffffffffffffffffff168573ffffffffffffffffffffffffffffffffffffffff161480611f445750611f4385611f3e6120c1565b61181d565b5b611f83576040517f08c379a0000000000000000000000000000000000000000000000000000000008152600401611f7a90613bec565b60405180910390fd5b611f90858585858561269c565b5050505050565b611f9f6123eb565b600073ffffffffffffffffffffffffffffffffffffffff168173ffffffffffffffffffffffffffffffffffffffff16141561200f576040517f08c379a0000000000000000000000000000000000000000000000000000000008152600401612006906144ba565b60405180910390fd5b61201881612469565b50565b6120236123eb565b80600660006101000a8154816bffffffffffffffffffffffff02191690836bffffffffffffffffffffffff16021790555050565b60007f01ffc9a7000000000000000000000000000000000000000000000000000000007bffffffffffffffffffffffffffffffffffffffffffffffffffffffff1916827bffffffffffffffffffffffffffffffffffffffffffffffffffffffff1916149050919050565b600033905090565b815183511461210d576040517f08c379a00000000000000000000000000000000000000000000000000000000081526004016121049061454c565b60405180910390fd5b600073ffffffffffffffffffffffffffffffffffffffff168473ffffffffffffffffffffffffffffffffffffffff16141561217d576040517f08c379a0000000000000000000000000000000000000000000000000000000008152600401612174906145de565b60405180910390fd5b60006121876120c1565b9050612197818787878787612938565b60005b84518110156123485760008582815181106121b8576121b7613c9e565b5b6020026020010151905060008583815181106121d7576121d6613c9e565b5b60200260200101519050600080600084815260200190815260200160002060008b73ffffffffffffffffffffffffffffffffffffffff1673ffffffffffffffffffffffffffffffffffffffff16815260200190815260200160002054905081811015612278576040517f08c379a000000000000000000000000000000000000000000000000000000000815260040161226f90614670565b60405180910390fd5b81810360008085815260200190815260200160002060008c73ffffffffffffffffffffffffffffffffffffffff1673ffffffffffffffffffffffffffffffffffffffff168152602001908152602001600020819055508160008085815260200190815260200160002060008b73ffffffffffffffffffffffffffffffffffffffff1673ffffffffffffffffffffffffffffffffffffffff168152602001908152602001600020600082825461232d9190614086565b925050819055505050508061234190613cfc565b905061219a565b508473ffffffffffffffffffffffffffffffffffffffff168673ffffffffffffffffffffffffffffffffffffffff168273ffffffffffffffffffffffffffffffffffffffff167f4a39dc06d4c0dbc64b70af90fd698a233a518aa5d07e595d983b8c0526c8f7fb87876040516123bf929190614690565b60405180910390a46123d5818787878787612940565b6123e3818787878787612948565b505050505050565b6123f36120c1565b73ffffffffffffffffffffffffffffffffffffffff16612411611352565b73ffffffffffffffffffffffffffffffffffffffff1614612467576040517f08c379a000000000000000000000000000000000000000000000000000000000815260040161245e90614713565b60405180910390fd5b565b6000600360009054906101000a900473ffffffffffffffffffffffffffffffffffffffff16905081600360006101000a81548173ffffffffffffffffffffffffffffffffffffffff021916908373ffffffffffffffffffffffffffffffffffffffff1602179055508173ffffffffffffffffffffffffffffffffffffffff168173ffffffffffffffffffffffffffffffffffffffff167f8be0079c531659141344cd1fd0a4f28419497f9722a3daafe3b4186f6b6457e060405160405180910390a35050565b8173ffffffffffffffffffffffffffffffffffffffff168373ffffffffffffffffffffffffffffffffffffffff16141561259e576040517f08c379a0000000000000000000000000000000000000000000000000000000008152600401612595906147a5565b60405180910390fd5b80600160008573ffffffffffffffffffffffffffffffffffffffff1673ffffffffffffffffffffffffffffffffffffffff16815260200190815260200160002060008473ffffffffffffffffffffffffffffffffffffffff1673ffffffffffffffffffffffffffffffffffffffff16815260200190815260200160002060006101000a81548160ff0219169083151502179055508173ffffffffffffffffffffffffffffffffffffffff168373ffffffffffffffffffffffffffffffffffffffff167f17307eab39ab6107e8899845ad3d59bd9653f200f220920489ca2b5937696c318360405161268f9190612f65565b60405180910390a3505050565b600073ffffffffffffffffffffffffffffffffffffffff168473ffffffffffffffffffffffffffffffffffffffff16141561270c576040517f08c379a0000000000000000000000000000000000000000000000000000000008152600401612703906145de565b60405180910390fd5b60006127166120c1565b9050600061272385612b2f565b9050600061273085612b2f565b9050612740838989858589612938565b600080600088815260200190815260200160002060008a73ffffffffffffffffffffffffffffffffffffffff1673ffffffffffffffffffffffffffffffffffffffff168152602001908152602001600020549050858110156127d7576040517f08c379a00000000000000000000000000000000000000000000000000000000081526004016127ce90614670565b60405180910390fd5b85810360008089815260200190815260200160002060008b73ffffffffffffffffffffffffffffffffffffffff1673ffffffffffffffffffffffffffffffffffffffff168152602001908152602001600020819055508560008089815260200190815260200160002060008a73ffffffffffffffffffffffffffffffffffffffff1673ffffffffffffffffffffffffffffffffffffffff168152602001908152602001600020600082825461288c9190614086565b925050819055508773ffffffffffffffffffffffffffffffffffffffff168973ffffffffffffffffffffffffffffffffffffffff168573ffffffffffffffffffffffffffffffffffffffff167fc3d58168c5ae7397731d063d5bbf3d657854427343f4c083240f7aacaa2d0f628a8a6040516129099291906147c5565b60405180910390a461291f848a8a86868a612940565b61292d848a8a8a8a8a612ba9565b505050505050505050565b505050505050565b505050505050565b6129678473ffffffffffffffffffffffffffffffffffffffff16612d90565b15612b27578373ffffffffffffffffffffffffffffffffffffffff1663bc197c8187878686866040518663ffffffff1660e01b81526004016129ad959493929190614832565b602060405180830381600087803b1580156129c757600080fd5b505af19250505080156129f857506040513d601f19601f820116820180604052508101906129f591906148af565b60015b612a9e57612a046148e9565b806308c379a01415612a615750612a1961490b565b80612a245750612a63565b806040517f08c379a0000000000000000000000000000000000000000000000000000000008152600401612a589190613019565b60405180910390fd5b505b6040517f08c379a0000000000000000000000000000000000000000000000000000000008152600401612a9590614a13565b60405180910390fd5b63bc197c8160e01b7bffffffffffffffffffffffffffffffffffffffffffffffffffffffff1916817bffffffffffffffffffffffffffffffffffffffffffffffffffffffff191614612b25576040517f08c379a0000000000000000000000000000000000000000000000000000000008152600401612b1c90614aa5565b60405180910390fd5b505b505050505050565b60606000600167ffffffffffffffff811115612b4e57612b4d613140565b5b604051908082528060200260200182016040528015612b7c5781602001602082028036833780820191505090505b5090508281600081518110612b9457612b93613c9e565b5b60200260200101818152505080915050919050565b612bc88473ffffffffffffffffffffffffffffffffffffffff16612d90565b15612d88578373ffffffffffffffffffffffffffffffffffffffff1663f23a6e6187878686866040518663ffffffff1660e01b8152600401612c0e959493929190614ac5565b602060405180830381600087803b158015612c2857600080fd5b505af1925050508015612c5957506040513d601f19601f82011682018060405250810190612c5691906148af565b60015b612cff57612c656148e9565b806308c379a01415612cc25750612c7a61490b565b80612c855750612cc4565b806040517f08c379a0000000000000000000000000000000000000000000000000000000008152600401612cb99190613019565b60405180910390fd5b505b6040517f08c379a0000000000000000000000000000000000000000000000000000000008152600401612cf690614a13565b60405180910390fd5b63f23a6e6160e01b7bffffffffffffffffffffffffffffffffffffffffffffffffffffffff1916817bffffffffffffffffffffffffffffffffffffffffffffffffffffffff191614612d86576040517f08c379a0000000000000000000000000000000000000000000000000000000008152600401612d7d90614aa5565b60405180910390fd5b505b505050505050565b6000808273ffffffffffffffffffffffffffffffffffffffff163b119050919050565b6000604051905090565b600080fd5b600080fd5b600073ffffffffffffffffffffffffffffffffffffffff82169050919050565b6000612df282612dc7565b9050919050565b612e0281612de7565b8114612e0d57600080fd5b50565b600081359050612e1f81612df9565b92915050565b6000819050919050565b612e3881612e25565b8114612e4357600080fd5b50565b600081359050612e5581612e2f565b92915050565b60008060408385031215612e7257612e71612dbd565b5b6000612e8085828601612e10565b9250506020612e9185828601612e46565b9150509250929050565b612ea481612e25565b82525050565b6000602082019050612ebf6000830184612e9b565b92915050565b60007fffffffff0000000000000000000000000000000000000000000000000000000082169050919050565b612efa81612ec5565b8114612f0557600080fd5b50565b600081359050612f1781612ef1565b92915050565b600060208284031215612f3357612f32612dbd565b5b6000612f4184828501612f08565b91505092915050565b60008115159050919050565b612f5f81612f4a565b82525050565b6000602082019050612f7a6000830184612f56565b92915050565b600081519050919050565b600082825260208201905092915050565b60005b83811015612fba578082015181840152602081019050612f9f565b83811115612fc9576000848401525b50505050565b6000601f19601f8301169050919050565b6000612feb82612f80565b612ff58185612f8b565b9350613005818560208601612f9c565b61300e81612fcf565b840191505092915050565b600060208201905081810360008301526130338184612fe0565b905092915050565b60006020828403121561305157613050612dbd565b5b600061305f84828501612e46565b91505092915050565b61307181612de7565b82525050565b600061308282612dc7565b9050919050565b61309281613077565b82525050565b600060c0820190506130ad6000830189612e9b565b6130ba6020830188613068565b6130c76040830187612e9b565b6130d46060830186613089565b6130e16080830185612e9b565b6130ee60a0830184612f56565b979650505050505050565b60006bffffffffffffffffffffffff82169050919050565b61311a816130f9565b82525050565b60006020820190506131356000830184613111565b92915050565b600080fd5b7f4e487b7100000000000000000000000000000000000000000000000000000000600052604160045260246000fd5b61317882612fcf565b810181811067ffffffffffffffff8211171561319757613196613140565b5b80604052505050565b60006131aa612db3565b90506131b6828261316f565b919050565b600067ffffffffffffffff8211156131d6576131d5613140565b5b602082029050602081019050919050565b600080fd5b60006131ff6131fa846131bb565b6131a0565b90508083825260208201905060208402830185811115613222576132216131e7565b5b835b8181101561324b57806132378882612e46565b845260208401935050602081019050613224565b5050509392505050565b600082601f83011261326a5761326961313b565b5b813561327a8482602086016131ec565b91505092915050565b600080fd5b600067ffffffffffffffff8211156132a3576132a2613140565b5b6132ac82612fcf565b9050602081019050919050565b82818337600083830152505050565b60006132db6132d684613288565b6131a0565b9050828152602081018484840111156132f7576132f6613283565b5b6133028482856132b9565b509392505050565b600082601f83011261331f5761331e61313b565b5b813561332f8482602086016132c8565b91505092915050565b600080600080600060a0868803121561335457613353612dbd565b5b600061336288828901612e10565b955050602061337388828901612e10565b945050604086013567ffffffffffffffff81111561339457613393612dc2565b5b6133a088828901613255565b935050606086013567ffffffffffffffff8111156133c1576133c0612dc2565b5b6133cd88828901613255565b925050608086013567ffffffffffffffff8111156133ee576133ed612dc2565b5b6133fa8882890161330a565b9150509295509295909350565b600067ffffffffffffffff82111561342257613421613140565b5b602082029050602081019050919050565b600061344661344184613407565b6131a0565b90508083825260208201905060208402830185811115613469576134686131e7565b5b835b81811015613492578061347e8882612e10565b84526020840193505060208101905061346b565b5050509392505050565b600082601f8301126134b1576134b061313b565b5b81356134c1848260208601613433565b91505092915050565b600080604083850312156134e1576134e0612dbd565b5b600083013567ffffffffffffffff8111156134ff576134fe612dc2565b5b61350b8582860161349c565b925050602083013567ffffffffffffffff81111561352c5761352b612dc2565b5b61353885828601613255565b9150509250929050565b600081519050919050565b600082825260208201905092915050565b6000819050602082019050919050565b61357781612e25565b82525050565b6000613589838361356e565b60208301905092915050565b6000602082019050919050565b60006135ad82613542565b6135b7818561354d565b93506135c28361355e565b8060005b838110156135f35781516135da888261357d565b97506135e583613595565b9250506001810190506135c6565b5085935050505092915050565b6000602082019050818103600083015261361a81846135a2565b905092915050565b6000806000806080858703121561363c5761363b612dbd565b5b600061364a87828801612e46565b945050602061365b87828801612e46565b935050604061366c87828801612e10565b925050606061367d87828801612e46565b91505092959194509250565b600080600080608085870312156136a3576136a2612dbd565b5b60006136b187828801612e46565b94505060206136c287828801612e46565b93505060406136d387828801612e46565b92505060606136e487828801612e10565b91505092959194509250565b60006020820190506137056000830184613068565b92915050565b600067ffffffffffffffff82111561372657613725613140565b5b61372f82612fcf565b9050602081019050919050565b600061374f61374a8461370b565b6131a0565b90508281526020810184848401111561376b5761376a613283565b5b6137768482856132b9565b509392505050565b600082601f8301126137935761379261313b565b5b81356137a384826020860161373c565b91505092915050565b600080600080600060a086880312156137c8576137c7612dbd565b5b60006137d688828901612e46565b95505060206137e788828901612e10565b94505060406137f888828901612e46565b935050606086013567ffffffffffffffff81111561381957613818612dc2565b5b6138258882890161377e565b925050608061383688828901612e46565b9150509295509295909350565b61384c81612f4a565b811461385757600080fd5b50565b60008135905061386981613843565b92915050565b6000806040838503121561388657613885612dbd565b5b600061389485828601612e10565b92505060206138a58582860161385a565b9150509250929050565b600080604083850312156138c6576138c5612dbd565b5b60006138d485828601612e10565b92505060206138e585828601612e10565b9150509250929050565b600080600080600060a0868803121561390b5761390a612dbd565b5b600061391988828901612e46565b955050602061392a88828901612e46565b945050604061393b88828901612e46565b935050606061394c88828901612e10565b925050608061395d88828901612e10565b9150509295509295909350565b600080600080600060a0868803121561398657613985612dbd565b5b600061399488828901612e10565b95505060206139a588828901612e10565b94505060406139b688828901612e46565b93505060606139c788828901612e46565b925050608086013567ffffffffffffffff8111156139e8576139e7612dc2565b5b6139f48882890161330a565b9150509295509295909350565b600060208284031215613a1757613a16612dbd565b5b6000613a2584828501612e10565b91505092915050565b613a37816130f9565b8114613a4257600080fd5b50565b600081359050613a5481613a2e565b92915050565b600060208284031215613a7057613a6f612dbd565b5b6000613a7e84828501613a45565b91505092915050565b7f455243313135353a2061646472657373207a65726f206973206e6f742061207660008201527f616c6964206f776e657200000000000000000000000000000000000000000000602082015250565b6000613ae3602a83612f8b565b9150613aee82613a87565b604082019050919050565b60006020820190508181036000830152613b1281613ad6565b9050919050565b7f4e487b7100000000000000000000000000000000000000000000000000000000600052602260045260246000fd5b60006002820490506001821680613b6057607f821691505b60208210811415613b7457613b73613b19565b5b50919050565b7f455243313135353a2063616c6c6572206973206e6f7420746f6b656e206f776e60008201527f6572206e6f7220617070726f7665640000000000000000000000000000000000602082015250565b6000613bd6602f83612f8b565b9150613be182613b7a565b604082019050919050565b60006020820190508181036000830152613c0581613bc9565b9050919050565b7f455243313135353a206163636f756e747320616e6420696473206c656e67746860008201527f206d69736d617463680000000000000000000000000000000000000000000000602082015250565b6000613c68602983612f8b565b9150613c7382613c0c565b604082019050919050565b60006020820190508181036000830152613c9781613c5b565b9050919050565b7f4e487b7100000000000000000000000000000000000000000000000000000000600052603260045260246000fd5b7f4e487b7100000000000000000000000000000000000000000000000000000000600052601160045260246000fd5b6000613d0782612e25565b91507fffffffffffffffffffffffffffffffffffffffffffffffffffffffffffffffff821415613d3a57613d39613ccd565b5b600182019050919050565b6000604082019050613d5a6000830185613068565b613d676020830184612e9b565b9392505050565b600081519050613d7d81612e2f565b92915050565b600060208284031215613d9957613d98612dbd565b5b6000613da784828501613d6e565b91505092915050565b7f4e4654206d757374206265206f776e6564206279207468652063616c6c657200600082015250565b6000613de6601f83612f8b565b9150613df182613db0565b602082019050919050565b60006020820190508181036000830152613e1581613dd9565b9050919050565b7f436f756c64206e6f742066696e6420746865206974656d210000000000000000600082015250565b6000613e52601883612f8b565b9150613e5d82613e1c565b602082019050919050565b60006020820190508181036000830152613e8181613e45565b9050919050565b7f4974656d20697320616c726561647920736f6c64210000000000000000000000600082015250565b6000613ebe601583612f8b565b9150613ec982613e88565b602082019050919050565b60006020820190508181036000830152613eed81613eb1565b9050919050565b7f4e6f7420656e6f7567682066756e64732073656e742100000000000000000000600082015250565b6000613f2a601683612f8b565b9150613f3582613ef4565b602082019050919050565b60006020820190508181036000830152613f5981613f1d565b9050919050565b7f4f776e65722063616e27742062757920746865206974656d0000000000000000600082015250565b6000613f96601883612f8b565b9150613fa182613f60565b602082019050919050565b60006020820190508181036000830152613fc581613f89565b9050919050565b6000613fd782612e25565b9150613fe283612e25565b9250817fffffffffffffffffffffffffffffffffffffffffffffffffffffffffffffffff048311821515161561401b5761401a613ccd565b5b828202905092915050565b7f4e487b7100000000000000000000000000000000000000000000000000000000600052601260045260246000fd5b600061406082612e25565b915061406b83612e25565b92508261407b5761407a614026565b5b828204905092915050565b600061409182612e25565b915061409c83612e25565b9250827fffffffffffffffffffffffffffffffffffffffffffffffffffffffffffffffff038211156140d1576140d0613ccd565b5b828201905092915050565b60006140e782612e25565b91506140f283612e25565b92508282101561410557614104613ccd565b5b828203905092915050565b6000819050919050565b600061413561413061412b84612dc7565b614110565b612dc7565b9050919050565b60006141478261411a565b9050919050565b60006141598261413c565b9050919050565b6141698161414e565b82525050565b600082825260208201905092915050565b7f3078303000000000000000000000000000000000000000000000000000000000600082015250565b60006141b660048361416f565b91506141c182614180565b602082019050919050565b600060a0820190506141e16000830187614160565b6141ee6020830186613068565b6141fb6040830185612e9b565b6142086060830184612e9b565b8181036080830152614219816141a9565b905095945050505050565b600060a0820190506142396000830188612e9b565b6142466020830187613068565b6142536040830186614160565b6142606060830185612e9b565b61426d6080830184612e9b565b9695505050505050565b600060408201905061428c6000830185613068565b6142996020830184613068565b9392505050565b6000815190506142af81613843565b92915050565b6000602082840312156142cb576142ca612dbd565b5b60006142d9848285016142a0565b91505092915050565b7f436f6e7472616374206d75737420626520617070726f76656400000000000000600082015250565b6000614318601983612f8b565b9150614323826142e2565b602082019050919050565b600060208201905081810360008301526143478161430b565b9050919050565b7f4e487b7100000000000000000000000000000000000000000000000000000000600052600160045260246000fd5b600061012082019050614393600083018c612e9b565b6143a0602083018b612e9b565b6143ad604083018a613068565b6143ba6060830189612e9b565b6143c76080830188612f56565b6143d460a0830187613068565b81810360c08301526143e68186612fe0565b90506143f560e0830185612e9b565b614403610100830184612f56565b9a9950505050505050505050565b60006060820190506144266000830186613068565b6144336020830185614160565b6144406040830184612e9b565b949350505050565b7f4f776e61626c653a206e6577206f776e657220697320746865207a65726f206160008201527f6464726573730000000000000000000000000000000000000000000000000000602082015250565b60006144a4602683612f8b565b91506144af82614448565b604082019050919050565b600060208201905081810360008301526144d381614497565b9050919050565b7f455243313135353a2069647320616e6420616d6f756e7473206c656e6774682060008201527f6d69736d61746368000000000000000000000000000000000000000000000000602082015250565b6000614536602883612f8b565b9150614541826144da565b604082019050919050565b6000602082019050818103600083015261456581614529565b9050919050565b7f455243313135353a207472616e7366657220746f20746865207a65726f20616460008201527f6472657373000000000000000000000000000000000000000000000000000000602082015250565b60006145c8602583612f8b565b91506145d38261456c565b604082019050919050565b600060208201905081810360008301526145f7816145bb565b9050919050565b7f455243313135353a20696e73756666696369656e742062616c616e636520666f60008201527f72207472616e7366657200000000000000000000000000000000000000000000602082015250565b600061465a602a83612f8b565b9150614665826145fe565b604082019050919050565b600060208201905081810360008301526146898161464d565b9050919050565b600060408201905081810360008301526146aa81856135a2565b905081810360208301526146be81846135a2565b90509392505050565b7f4f776e61626c653a2063616c6c6572206973206e6f7420746865206f776e6572600082015250565b60006146fd602083612f8b565b9150614708826146c7565b602082019050919050565b6000602082019050818103600083015261472c816146f0565b9050919050565b7f455243313135353a2073657474696e6720617070726f76616c2073746174757360008201527f20666f722073656c660000000000000000000000000000000000000000000000602082015250565b600061478f602983612f8b565b915061479a82614733565b604082019050919050565b600060208201905081810360008301526147be81614782565b9050919050565b60006040820190506147da6000830185612e9b565b6147e76020830184612e9b565b9392505050565b600081519050919050565b6000614804826147ee565b61480e818561416f565b935061481e818560208601612f9c565b61482781612fcf565b840191505092915050565b600060a0820190506148476000830188613068565b6148546020830187613068565b818103604083015261486681866135a2565b9050818103606083015261487a81856135a2565b9050818103608083015261488e81846147f9565b90509695505050505050565b6000815190506148a981612ef1565b92915050565b6000602082840312156148c5576148c4612dbd565b5b60006148d38482850161489a565b91505092915050565b60008160e01c9050919050565b600060033d11156149085760046000803e6149056000516148dc565b90505b90565b600060443d101561491b5761499e565b614923612db3565b60043d036004823e80513d602482011167ffffffffffffffff8211171561494b57505061499e565b808201805167ffffffffffffffff811115614969575050505061499e565b80602083010160043d03850181111561498657505050505061499e565b6149958260200185018661316f565b82955050505050505b90565b7f455243313135353a207472616e7366657220746f206e6f6e204552433131353560008201527f526563656976657220696d706c656d656e746572000000000000000000000000602082015250565b60006149fd603483612f8b565b9150614a08826149a1565b604082019050919050565b60006020820190508181036000830152614a2c816149f0565b9050919050565b7f455243313135353a204552433131353552656365697665722072656a6563746560008201527f6420746f6b656e73000000000000000000000000000000000000000000000000602082015250565b6000614a8f602883612f8b565b9150614a9a82614a33565b604082019050919050565b60006020820190508181036000830152614abe81614a82565b9050919050565b600060a082019050614ada6000830188613068565b614ae76020830187613068565b614af46040830186612e9b565b614b016060830185612e9b565b8181036080830152614b1381846147f9565b9050969550505050505056fea2646970667358221220369c662549eb00f69867f1da01f4a01ea86f3d38c571b852c55295f8369648b764736f6c63430008090033",
  "linkReferences": {},
  "deployedLinkReferences": {}
}