{
  "_format": "hh-sol-artifact-1",
  "contractName": "MarketContract721",
  "sourceName": "contracts/MarketContract721.sol",
  "abi": [
    {
      "inputs": [],
      "stateMutability": "nonpayable",
      "type": "constructor"
    },
    {
      "anonymous": false,
      "inputs": [
        {
          "indexed": true,
          "internalType": "address",
          "name": "owner",
          "type": "address"
        },
        {
          "indexed": true,
          "internalType": "address",
          "name": "approved",
          "type": "address"
        },
        {
          "indexed": true,
          "internalType": "uint256",
          "name": "tokenId",
          "type": "uint256"
        }
      ],
      "name": "Approval",
      "type": "event"
    },
    {
      "anonymous": false,
      "inputs": [
        {
          "indexed": true,
          "internalType": "address",
          "name": "owner",
          "type": "address"
        },
        {
          "indexed": true,
          "internalType": "address",
          "name": "operator",
          "type": "address"
        },
        {
          "indexed": false,
          "internalType": "bool",
          "name": "approved",
          "type": "bool"
        }
      ],
      "name": "ApprovalForAll",
      "type": "event"
    },
    {
      "anonymous": false,
      "inputs": [
        {
          "indexed": true,
          "internalType": "address",
          "name": "previousOwner",
          "type": "address"
        },
        {
          "indexed": true,
          "internalType": "address",
          "name": "newOwner",
          "type": "address"
        }
      ],
      "name": "OwnershipTransferred",
      "type": "event"
    },
    {
      "anonymous": false,
      "inputs": [
        {
          "indexed": true,
          "internalType": "address",
          "name": "from",
          "type": "address"
        },
        {
          "indexed": true,
          "internalType": "address",
          "name": "to",
          "type": "address"
        },
        {
          "indexed": true,
          "internalType": "uint256",
          "name": "tokenId",
          "type": "uint256"
        }
      ],
      "name": "Transfer",
      "type": "event"
    },
    {
      "anonymous": false,
      "inputs": [
        {
          "indexed": false,
          "internalType": "uint256",
          "name": "id",
          "type": "uint256"
        },
        {
          "indexed": false,
          "internalType": "uint256",
          "name": "tokenId",
          "type": "uint256"
        },
        {
          "indexed": false,
          "internalType": "address",
          "name": "tokenAddress",
          "type": "address"
        },
        {
          "indexed": false,
          "internalType": "uint256",
          "name": "askingPrice",
          "type": "uint256"
        },
        {
          "indexed": false,
          "internalType": "string",
          "name": "collection",
          "type": "string"
        },
        {
          "indexed": false,
          "internalType": "bool",
          "name": "isSold",
          "type": "bool"
        },
        {
          "indexed": false,
          "internalType": "string",
          "name": "uri",
          "type": "string"
        },
        {
          "indexed": false,
          "internalType": "address",
          "name": "ownerOf",
          "type": "address"
        },
        {
          "indexed": false,
          "internalType": "bool",
          "name": "isOnSale",
          "type": "bool"
        }
      ],
      "name": "itemAdded",
      "type": "event"
    },
    {
      "anonymous": false,
      "inputs": [
        {
          "indexed": false,
          "internalType": "uint256",
          "name": "id",
          "type": "uint256"
        },
        {
          "indexed": false,
          "internalType": "address",
          "name": "buyer",
          "type": "address"
        },
        {
          "indexed": false,
          "internalType": "address",
          "name": "seller",
          "type": "address"
        },
        {
          "indexed": false,
          "internalType": "uint256",
          "name": "tokenId",
          "type": "uint256"
        },
        {
          "indexed": false,
          "internalType": "uint256",
          "name": "askingPrice",
          "type": "uint256"
        }
      ],
      "name": "itemSold",
      "type": "event"
    },
    {
      "inputs": [
        {
          "internalType": "uint256",
          "name": "tokenId",
          "type": "uint256"
        },
        {
          "internalType": "address",
          "name": "tokenAddress",
          "type": "address"
        },
        {
          "internalType": "uint256",
          "name": "askingPrice",
          "type": "uint256"
        },
        {
          "internalType": "string",
          "name": "collection",
          "type": "string"
        },
        {
          "internalType": "string",
          "name": "uri",
          "type": "string"
        }
      ],
      "name": "addItemToMarket",
      "outputs": [
        {
          "internalType": "uint256",
          "name": "",
          "type": "uint256"
        }
      ],
      "stateMutability": "nonpayable",
      "type": "function"
    },
    {
      "inputs": [
        {
          "internalType": "address",
          "name": "to",
          "type": "address"
        },
        {
          "internalType": "uint256",
          "name": "tokenId",
          "type": "uint256"
        }
      ],
      "name": "approve",
      "outputs": [],
      "stateMutability": "nonpayable",
      "type": "function"
    },
    {
      "inputs": [
        {
          "internalType": "address",
          "name": "owner",
          "type": "address"
        }
      ],
      "name": "balanceOf",
      "outputs": [
        {
          "internalType": "uint256",
          "name": "",
          "type": "uint256"
        }
      ],
      "stateMutability": "view",
      "type": "function"
    },
    {
      "inputs": [
        {
          "internalType": "uint256",
          "name": "id",
          "type": "uint256"
        },
        {
          "internalType": "address",
          "name": "creator",
          "type": "address"
        },
        {
          "internalType": "uint256",
          "name": "royalty",
          "type": "uint256"
        }
      ],
      "name": "buyItem",
      "outputs": [],
      "stateMutability": "payable",
      "type": "function"
    },
    {
      "inputs": [
        {
          "internalType": "uint256",
          "name": "id",
          "type": "uint256"
        },
        {
          "internalType": "uint256",
          "name": "tokenId",
          "type": "uint256"
        },
        {
          "internalType": "address",
          "name": "tokenAddress",
          "type": "address"
        },
        {
          "internalType": "uint256",
          "name": "newPrice",
          "type": "uint256"
        }
      ],
      "name": "changePrice",
      "outputs": [
        {
          "internalType": "uint256",
          "name": "",
          "type": "uint256"
        }
      ],
      "stateMutability": "nonpayable",
      "type": "function"
    },
    {
      "inputs": [
        {
          "internalType": "uint256",
          "name": "tokenId",
          "type": "uint256"
        }
      ],
      "name": "getApproved",
      "outputs": [
        {
          "internalType": "address",
          "name": "",
          "type": "address"
        }
      ],
      "stateMutability": "view",
      "type": "function"
    },
    {
      "inputs": [],
      "name": "getServiceFee",
      "outputs": [
        {
          "internalType": "uint96",
          "name": "",
          "type": "uint96"
        }
      ],
      "stateMutability": "view",
      "type": "function"
    },
    {
      "inputs": [
        {
          "internalType": "address",
          "name": "owner",
          "type": "address"
        },
        {
          "internalType": "address",
          "name": "operator",
          "type": "address"
        }
      ],
      "name": "isApprovedForAll",
      "outputs": [
        {
          "internalType": "bool",
          "name": "",
          "type": "bool"
        }
      ],
      "stateMutability": "view",
      "type": "function"
    },
    {
      "inputs": [
        {
          "internalType": "uint256",
          "name": "",
          "type": "uint256"
        }
      ],
      "name": "itemsForSale",
      "outputs": [
        {
          "internalType": "uint256",
          "name": "id",
          "type": "uint256"
        },
        {
          "internalType": "address",
          "name": "tokenAddress",
          "type": "address"
        },
        {
          "internalType": "uint256",
          "name": "tokenId",
          "type": "uint256"
        },
        {
          "internalType": "address payable",
          "name": "seller",
          "type": "address"
        },
        {
          "internalType": "uint256",
          "name": "askingPrice",
          "type": "uint256"
        },
        {
          "internalType": "string",
          "name": "collection",
          "type": "string"
        },
        {
          "internalType": "bool",
          "name": "isSold",
          "type": "bool"
        }
      ],
      "stateMutability": "view",
      "type": "function"
    },
    {
      "inputs": [],
      "name": "name",
      "outputs": [
        {
          "internalType": "string",
          "name": "",
          "type": "string"
        }
      ],
      "stateMutability": "view",
      "type": "function"
    },
    {
      "inputs": [],
      "name": "owner",
      "outputs": [
        {
          "internalType": "address",
          "name": "",
          "type": "address"
        }
      ],
      "stateMutability": "view",
      "type": "function"
    },
    {
      "inputs": [
        {
          "internalType": "uint256",
          "name": "tokenId",
          "type": "uint256"
        }
      ],
      "name": "ownerOf",
      "outputs": [
        {
          "internalType": "address",
          "name": "",
          "type": "address"
        }
      ],
      "stateMutability": "view",
      "type": "function"
    },
    {
      "inputs": [],
      "name": "renounceOwnership",
      "outputs": [],
      "stateMutability": "nonpayable",
      "type": "function"
    },
    {
      "inputs": [
        {
          "internalType": "address",
          "name": "from",
          "type": "address"
        },
        {
          "internalType": "address",
          "name": "to",
          "type": "address"
        },
        {
          "internalType": "uint256",
          "name": "tokenId",
          "type": "uint256"
        }
      ],
      "name": "safeTransferFrom",
      "outputs": [],
      "stateMutability": "nonpayable",
      "type": "function"
    },
    {
      "inputs": [
        {
          "internalType": "address",
          "name": "from",
          "type": "address"
        },
        {
          "internalType": "address",
          "name": "to",
          "type": "address"
        },
        {
          "internalType": "uint256",
          "name": "tokenId",
          "type": "uint256"
        },
        {
          "internalType": "bytes",
          "name": "_data",
          "type": "bytes"
        }
      ],
      "name": "safeTransferFrom",
      "outputs": [],
      "stateMutability": "nonpayable",
      "type": "function"
    },
    {
      "inputs": [
        {
          "internalType": "address",
          "name": "operator",
          "type": "address"
        },
        {
          "internalType": "bool",
          "name": "approved",
          "type": "bool"
        }
      ],
      "name": "setApprovalForAll",
      "outputs": [],
      "stateMutability": "nonpayable",
      "type": "function"
    },
    {
      "inputs": [
        {
          "internalType": "uint96",
          "name": "_serviceFee",
          "type": "uint96"
        }
      ],
      "name": "setServiceFee",
      "outputs": [],
      "stateMutability": "nonpayable",
      "type": "function"
    },
    {
      "inputs": [
        {
          "internalType": "bytes4",
          "name": "interfaceId",
          "type": "bytes4"
        }
      ],
      "name": "supportsInterface",
      "outputs": [
        {
          "internalType": "bool",
          "name": "",
          "type": "bool"
        }
      ],
      "stateMutability": "view",
      "type": "function"
    },
    {
      "inputs": [],
      "name": "symbol",
      "outputs": [
        {
          "internalType": "string",
          "name": "",
          "type": "string"
        }
      ],
      "stateMutability": "view",
      "type": "function"
    },
    {
      "inputs": [
        {
          "internalType": "uint256",
          "name": "tokenId",
          "type": "uint256"
        }
      ],
      "name": "tokenURI",
      "outputs": [
        {
          "internalType": "string",
          "name": "",
          "type": "string"
        }
      ],
      "stateMutability": "view",
      "type": "function"
    },
    {
      "inputs": [
        {
          "internalType": "address",
          "name": "from",
          "type": "address"
        },
        {
          "internalType": "address",
          "name": "to",
          "type": "address"
        },
        {
          "internalType": "uint256",
          "name": "tokenId",
          "type": "uint256"
        }
      ],
      "name": "transferFrom",
      "outputs": [],
      "stateMutability": "nonpayable",
      "type": "function"
    },
    {
      "inputs": [
        {
          "internalType": "address",
          "name": "newOwner",
          "type": "address"
        }
      ],
      "name": "transferOwnership",
      "outputs": [],
      "stateMutability": "nonpayable",
      "type": "function"
    }
  ],
  "bytecode": "0x60806040526101f4600660146101000a8154816bffffffffffffffffffffffff02191690836bffffffffffffffffffffffff1602179055503480156200004457600080fd5b506040518060400160405280601181526020017f43726561746976655661756c74203732310000000000000000000000000000008152506040518060400160405280600381526020017f564c5400000000000000000000000000000000000000000000000000000000008152508160009080519060200190620000c9929190620001d9565b508060019080519060200190620000e2929190620001d9565b50505062000105620000f96200010b60201b60201c565b6200011360201b60201c565b620002ee565b600033905090565b6000600660009054906101000a900473ffffffffffffffffffffffffffffffffffffffff16905081600660006101000a81548173ffffffffffffffffffffffffffffffffffffffff021916908373ffffffffffffffffffffffffffffffffffffffff1602179055508173ffffffffffffffffffffffffffffffffffffffff168173ffffffffffffffffffffffffffffffffffffffff167f8be0079c531659141344cd1fd0a4f28419497f9722a3daafe3b4186f6b6457e060405160405180910390a35050565b828054620001e79062000289565b90600052602060002090601f0160209004810192826200020b576000855562000257565b82601f106200022657805160ff191683800117855562000257565b8280016001018555821562000257579182015b828111156200025657825182559160200191906001019062000239565b5b5090506200026691906200026a565b5090565b5b80821115620002855760008160009055506001016200026b565b5090565b60006002820490506001821680620002a257607f821691505b60208210811415620002b957620002b8620002bf565b5b50919050565b7f4e487b7100000000000000000000000000000000000000000000000000000000600052602260045260246000fd5b61491f80620002fe6000396000f3fe6080604052600436106101355760003560e01c8063715018a6116100ab578063ac56c43d1161006f578063ac56c43d14610452578063b88d4fde1461046e578063c87b56dd14610497578063e985e9c5146104d4578063f2fde38b14610511578063fc53e9551461053a57610135565b8063715018a61461037f5780637de64797146103965780638da5cb5b146103d357806395d89b41146103fe578063a22cb4651461042957610135565b806311a1933c116100fd57806311a1933c1461024b57806323b872dd1461027657806342842e0e1461029f5780635d4d3bf7146102c85780636352211e1461030557806370a082311461034257610135565b806301ffc9a71461013a57806306fdde0314610177578063081812fc146101a2578063092d0afc146101df578063095ea7b314610222575b600080fd5b34801561014657600080fd5b50610161600480360381019061015c9190613334565b610563565b60405161016e91906139f2565b60405180910390f35b34801561018357600080fd5b5061018c610645565b6040516101999190613a0d565b60405180910390f35b3480156101ae57600080fd5b506101c960048036038101906101c49190613386565b6106d7565b6040516101d69190613954565b60405180910390f35b3480156101eb57600080fd5b5061020660048036038101906102019190613386565b61075c565b6040516102199796959493929190613d5d565b60405180910390f35b34801561022e57600080fd5b50610249600480360381019061024491906132f8565b610883565b005b34801561025757600080fd5b5061026061099b565b60405161026d9190613e6e565b60405180910390f35b34801561028257600080fd5b5061029d600480360381019061029891906131f2565b6109bd565b005b3480156102ab57600080fd5b506102c660048036038101906102c191906131f2565b610a1d565b005b3480156102d457600080fd5b506102ef60048036038101906102ea91906134a5565b610a3d565b6040516102fc9190613cef565b60405180910390f35b34801561031157600080fd5b5061032c60048036038101906103279190613386565b610c89565b6040516103399190613954565b60405180910390f35b34801561034e57600080fd5b5061036960048036038101906103649190613164565b610d3b565b6040516103769190613cef565b60405180910390f35b34801561038b57600080fd5b50610394610df3565b005b3480156103a257600080fd5b506103bd60048036038101906103b891906133fe565b610e7b565b6040516103ca9190613cef565b60405180910390f35b3480156103df57600080fd5b506103e86113e3565b6040516103f59190613954565b60405180910390f35b34801561040a57600080fd5b5061041361140d565b6040516104209190613a0d565b60405180910390f35b34801561043557600080fd5b50610450600480360381019061044b91906132bc565b61149f565b005b61046c600480360381019061046791906133af565b6114b5565b005b34801561047a57600080fd5b5061049560048036038101906104909190613241565b612126565b005b3480156104a357600080fd5b506104be60048036038101906104b99190613386565b612188565b6040516104cb9190613a0d565b60405180910390f35b3480156104e057600080fd5b506104fb60048036038101906104f691906131b6565b61222f565b60405161050891906139f2565b60405180910390f35b34801561051d57600080fd5b5061053860048036038101906105339190613164565b6122c3565b005b34801561054657600080fd5b50610561600480360381019061055c9190613508565b6123bb565b005b60007f80ac58cd000000000000000000000000000000000000000000000000000000007bffffffffffffffffffffffffffffffffffffffffffffffffffffffff1916827bffffffffffffffffffffffffffffffffffffffffffffffffffffffff1916148061062e57507f5b5e139f000000000000000000000000000000000000000000000000000000007bffffffffffffffffffffffffffffffffffffffffffffffffffffffff1916827bffffffffffffffffffffffffffffffffffffffffffffffffffffffff1916145b8061063e575061063d8261246b565b5b9050919050565b6060600080546106549061417e565b80601f01602080910402602001604051908101604052809291908181526020018280546106809061417e565b80156106cd5780601f106106a2576101008083540402835291602001916106cd565b820191906000526020600020905b8154815290600101906020018083116106b057829003601f168201915b5050505050905090565b60006106e2826124d5565b610721576040517f08c379a000000000000000000000000000000000000000000000000000000000815260040161071890613bef565b60405180910390fd5b6004600083815260200190815260200160002060009054906101000a900473ffffffffffffffffffffffffffffffffffffffff169050919050565b6007818154811061076c57600080fd5b90600052602060002090600702016000915090508060000154908060010160009054906101000a900473ffffffffffffffffffffffffffffffffffffffff16908060020154908060030160009054906101000a900473ffffffffffffffffffffffffffffffffffffffff16908060040154908060050180546107ed9061417e565b80601f01602080910402602001604051908101604052809291908181526020018280546108199061417e565b80156108665780601f1061083b57610100808354040283529160200191610866565b820191906000526020600020905b81548152906001019060200180831161084957829003601f168201915b5050505050908060060160009054906101000a900460ff16905087565b600061088e82610c89565b90508073ffffffffffffffffffffffffffffffffffffffff168373ffffffffffffffffffffffffffffffffffffffff1614156108ff576040517f08c379a00000000000000000000000000000000000000000000000000000000081526004016108f690613c8f565b60405180910390fd5b8073ffffffffffffffffffffffffffffffffffffffff1661091e612541565b73ffffffffffffffffffffffffffffffffffffffff16148061094d575061094c81610947612541565b61222f565b5b61098c576040517f08c379a000000000000000000000000000000000000000000000000000000000815260040161098390613b6f565b60405180910390fd5b6109968383612549565b505050565b6000600660149054906101000a90046bffffffffffffffffffffffff16905090565b6109ce6109c8612541565b82612602565b610a0d576040517f08c379a0000000000000000000000000000000000000000000000000000000008152600401610a0490613caf565b60405180910390fd5b610a188383836126e0565b505050565b610a3883838360405180602001604052806000815250612126565b505050565b6000828460008290503373ffffffffffffffffffffffffffffffffffffffff168173ffffffffffffffffffffffffffffffffffffffff16636352211e846040518263ffffffff1660e01b8152600401610a969190613cef565b60206040518083038186803b158015610aae57600080fd5b505afa158015610ac2573d6000803e3d6000fd5b505050506040513d601f19601f82011682018060405250810190610ae6919061318d565b73ffffffffffffffffffffffffffffffffffffffff1614610b3c576040517f08c379a0000000000000000000000000000000000000000000000000000000008152600401610b3390613acf565b60405180910390fd5b60011515600860008873ffffffffffffffffffffffffffffffffffffffff1673ffffffffffffffffffffffffffffffffffffffff168152602001908152602001600020600089815260200190815260200160002060009054906101000a900460ff16151514610be0576040517f08c379a0000000000000000000000000000000000000000000000000000000008152600401610bd790613c2f565b60405180910390fd5b8460078981548110610c1b577f4e487b7100000000000000000000000000000000000000000000000000000000600052603260045260246000fd5b90600052602060002090600702016004018190555060078881548110610c6a577f4e487b7100000000000000000000000000000000000000000000000000000000600052603260045260246000fd5b9060005260206000209060070201600401549350505050949350505050565b6000806002600084815260200190815260200160002060009054906101000a900473ffffffffffffffffffffffffffffffffffffffff169050600073ffffffffffffffffffffffffffffffffffffffff168173ffffffffffffffffffffffffffffffffffffffff161415610d32576040517f08c379a0000000000000000000000000000000000000000000000000000000008152600401610d2990613bcf565b60405180910390fd5b80915050919050565b60008073ffffffffffffffffffffffffffffffffffffffff168273ffffffffffffffffffffffffffffffffffffffff161415610dac576040517f08c379a0000000000000000000000000000000000000000000000000000000008152600401610da390613baf565b60405180910390fd5b600360008373ffffffffffffffffffffffffffffffffffffffff1673ffffffffffffffffffffffffffffffffffffffff168152602001908152602001600020549050919050565b610dfb612541565b73ffffffffffffffffffffffffffffffffffffffff16610e196113e3565b73ffffffffffffffffffffffffffffffffffffffff1614610e6f576040517f08c379a0000000000000000000000000000000000000000000000000000000008152600401610e6690613c0f565b60405180910390fd5b610e796000612947565b565b6000848660008290503373ffffffffffffffffffffffffffffffffffffffff168173ffffffffffffffffffffffffffffffffffffffff16636352211e846040518263ffffffff1660e01b8152600401610ed49190613cef565b60206040518083038186803b158015610eec57600080fd5b505afa158015610f00573d6000803e3d6000fd5b505050506040513d601f19601f82011682018060405250810190610f24919061318d565b73ffffffffffffffffffffffffffffffffffffffff1614610f7a576040517f08c379a0000000000000000000000000000000000000000000000000000000008152600401610f7190613acf565b60405180910390fd5b878960008290503073ffffffffffffffffffffffffffffffffffffffff168173ffffffffffffffffffffffffffffffffffffffff1663081812fc846040518263ffffffff1660e01b8152600401610fd19190613cef565b60206040518083038186803b158015610fe957600080fd5b505afa158015610ffd573d6000803e3d6000fd5b505050506040513d601f19601f82011682018060405250810190611021919061318d565b73ffffffffffffffffffffffffffffffffffffffff1614611077576040517f08c379a000000000000000000000000000000000000000000000000000000000815260040161106e90613aef565b60405180910390fd5b60001515600860008d73ffffffffffffffffffffffffffffffffffffffff1673ffffffffffffffffffffffffffffffffffffffff16815260200190815260200160002060008e815260200190815260200160002060009054906101000a900460ff1615151461111b576040517f08c379a000000000000000000000000000000000000000000000000000000000815260040161111290613ccf565b60405180910390fd5b6000600780549050905060076040518060e001604052808381526020018e73ffffffffffffffffffffffffffffffffffffffff1681526020018f81526020013373ffffffffffffffffffffffffffffffffffffffff1681526020018d81526020018c81526020016000151581525090806001815401808255809150506001900390600052602060002090600702016000909190919091506000820151816000015560208201518160010160006101000a81548173ffffffffffffffffffffffffffffffffffffffff021916908373ffffffffffffffffffffffffffffffffffffffff1602179055506040820151816002015560608201518160030160006101000a81548173ffffffffffffffffffffffffffffffffffffffff021916908373ffffffffffffffffffffffffffffffffffffffff1602179055506080820151816004015560a082015181600501908051906020019061127a929190612f5e565b5060c08201518160060160006101000a81548160ff02191690831515021790555050506001600860008e73ffffffffffffffffffffffffffffffffffffffff1673ffffffffffffffffffffffffffffffffffffffff16815260200190815260200160002060008f815260200190815260200160002060006101000a81548160ff0219169083151502179055508060078281548110611341577f4e487b7100000000000000000000000000000000000000000000000000000000600052603260045260246000fd5b90600052602060002090600702016000015414611387577f4e487b7100000000000000000000000000000000000000000000000000000000600052600160045260246000fd5b7fcb038c51450f7f6d95a8fe3aeb013ccc8ab689422a5e56a67a44b622556d6176818e8e8e8e60008f3360016040516113c899989796959493929190613dd3565b60405180910390a18097505050505050505095945050505050565b6000600660009054906101000a900473ffffffffffffffffffffffffffffffffffffffff16905090565b60606001805461141c9061417e565b80601f01602080910402602001604051908101604052809291908181526020018280546114489061417e565b80156114955780601f1061146a57610100808354040283529160200191611495565b820191906000526020600020905b81548152906001019060200180831161147857829003601f168201915b5050505050905090565b6114b16114aa612541565b8383612a0d565b5050565b826007805490508110801561151457508060078281548110611500577f4e487b7100000000000000000000000000000000000000000000000000000000600052603260045260246000fd5b906000526020600020906007020160000154145b611553576040517f08c379a000000000000000000000000000000000000000000000000000000000815260040161154a90613a2f565b60405180910390fd5b836000151560078281548110611592577f4e487b7100000000000000000000000000000000000000000000000000000000600052603260045260246000fd5b906000526020600020906007020160060160009054906101000a900460ff161515146115f3576040517f08c379a00000000000000000000000000000000000000000000000000000000081526004016115ea90613c6f565b60405180910390fd5b6007858154811061162d577f4e487b7100000000000000000000000000000000000000000000000000000000600052603260045260246000fd5b906000526020600020906007020160010160009054906101000a900473ffffffffffffffffffffffffffffffffffffffff1660078681548110611699577f4e487b7100000000000000000000000000000000000000000000000000000000600052603260045260246000fd5b90600052602060002090600702016002015460008290503073ffffffffffffffffffffffffffffffffffffffff168173ffffffffffffffffffffffffffffffffffffffff1663081812fc846040518263ffffffff1660e01b81526004016117009190613cef565b60206040518083038186803b15801561171857600080fd5b505afa15801561172c573d6000803e3d6000fd5b505050506040513d601f19601f82011682018060405250810190611750919061318d565b73ffffffffffffffffffffffffffffffffffffffff16146117a6576040517f08c379a000000000000000000000000000000000000000000000000000000000815260040161179d90613aef565b60405180910390fd5b600788815481106117e0577f4e487b7100000000000000000000000000000000000000000000000000000000600052603260045260246000fd5b906000526020600020906007020160040154341015611834576040517f08c379a000000000000000000000000000000000000000000000000000000000815260040161182b90613a4f565b60405180910390fd5b6007888154811061186e577f4e487b7100000000000000000000000000000000000000000000000000000000600052603260045260246000fd5b906000526020600020906007020160030160009054906101000a900473ffffffffffffffffffffffffffffffffffffffff1673ffffffffffffffffffffffffffffffffffffffff163373ffffffffffffffffffffffffffffffffffffffff16141561190e576040517f08c379a000000000000000000000000000000000000000000000000000000000815260040161190590613b8f565b60405180910390fd5b60006119186113e3565b90506000889050600160078b8154811061195b577f4e487b7100000000000000000000000000000000000000000000000000000000600052603260045260246000fd5b906000526020600020906007020160060160006101000a81548160ff02191690831515021790555060006008600060078d815481106119c3577f4e487b7100000000000000000000000000000000000000000000000000000000600052603260045260246000fd5b906000526020600020906007020160010160009054906101000a900473ffffffffffffffffffffffffffffffffffffffff1673ffffffffffffffffffffffffffffffffffffffff1673ffffffffffffffffffffffffffffffffffffffff168152602001908152602001600020600060078d81548110611a6b577f4e487b7100000000000000000000000000000000000000000000000000000000600052603260045260246000fd5b906000526020600020906007020160020154815260200190815260200160002060006101000a81548160ff02191690831515021790555060078a81548110611adc577f4e487b7100000000000000000000000000000000000000000000000000000000600052603260045260246000fd5b906000526020600020906007020160030160009054906101000a900473ffffffffffffffffffffffffffffffffffffffff1673ffffffffffffffffffffffffffffffffffffffff166108fc89612710600660149054906101000a90046bffffffffffffffffffffffff166bffffffffffffffffffffffff1660078f81548110611b8e577f4e487b7100000000000000000000000000000000000000000000000000000000600052603260045260246000fd5b906000526020600020906007020160040154611baa9190613fda565b611bb49190613fa9565b611bbe9190613f53565b60078d81548110611bf8577f4e487b7100000000000000000000000000000000000000000000000000000000600052603260045260246000fd5b906000526020600020906007020160040154611c149190614034565b9081150290604051600060405180830381858888f19350505050158015611c3f573d6000803e3d6000fd5b508173ffffffffffffffffffffffffffffffffffffffff166108fc612710600660149054906101000a90046bffffffffffffffffffffffff166bffffffffffffffffffffffff1660078e81548110611cc0577f4e487b7100000000000000000000000000000000000000000000000000000000600052603260045260246000fd5b906000526020600020906007020160040154611cdc9190613fda565b611ce69190613fa9565b9081150290604051600060405180830381858888f19350505050158015611d11573d6000803e3d6000fd5b508073ffffffffffffffffffffffffffffffffffffffff166108fc899081150290604051600060405180830381858888f19350505050158015611d58573d6000803e3d6000fd5b5060078a81548110611d93577f4e487b7100000000000000000000000000000000000000000000000000000000600052603260045260246000fd5b906000526020600020906007020160040154341115611e4a573373ffffffffffffffffffffffffffffffffffffffff166108fc60078c81548110611e00577f4e487b7100000000000000000000000000000000000000000000000000000000600052603260045260246000fd5b90600052602060002090600702016004015434611e1d9190614034565b9081150290604051600060405180830381858888f19350505050158015611e48573d6000803e3d6000fd5b505b60078a81548110611e84577f4e487b7100000000000000000000000000000000000000000000000000000000600052603260045260246000fd5b906000526020600020906007020160010160009054906101000a900473ffffffffffffffffffffffffffffffffffffffff1673ffffffffffffffffffffffffffffffffffffffff166342842e0e60078c81548110611f0b577f4e487b7100000000000000000000000000000000000000000000000000000000600052603260045260246000fd5b906000526020600020906007020160030160009054906101000a900473ffffffffffffffffffffffffffffffffffffffff163360078e81548110611f78577f4e487b7100000000000000000000000000000000000000000000000000000000600052603260045260246000fd5b9060005260206000209060070201600201546040518463ffffffff1660e01b8152600401611fa89392919061396f565b600060405180830381600087803b158015611fc257600080fd5b505af1158015611fd6573d6000803e3d6000fd5b505050507f1a418a8480f414a0fd218b4919de1eccba8b8853cb3aafd03003ede4f67951a48a3360078d81548110612037577f4e487b7100000000000000000000000000000000000000000000000000000000600052603260045260246000fd5b906000526020600020906007020160030160009054906101000a900473ffffffffffffffffffffffffffffffffffffffff1660078e815481106120a3577f4e487b7100000000000000000000000000000000000000000000000000000000600052603260045260246000fd5b90600052602060002090600702016002015460078f815481106120ef577f4e487b7100000000000000000000000000000000000000000000000000000000600052603260045260246000fd5b906000526020600020906007020160040154604051612112959493929190613d0a565b60405180910390a150505050505050505050565b612137612131612541565b83612602565b612176576040517f08c379a000000000000000000000000000000000000000000000000000000000815260040161216d90613caf565b60405180910390fd5b61218284848484612b7a565b50505050565b6060612193826124d5565b6121d2576040517f08c379a00000000000000000000000000000000000000000000000000000000081526004016121c990613c4f565b60405180910390fd5b60006121dc612bd6565b905060008151116121fc5760405180602001604052806000815250612227565b8061220684612bed565b604051602001612217929190613930565b6040516020818303038152906040525b915050919050565b6000600560008473ffffffffffffffffffffffffffffffffffffffff1673ffffffffffffffffffffffffffffffffffffffff16815260200190815260200160002060008373ffffffffffffffffffffffffffffffffffffffff1673ffffffffffffffffffffffffffffffffffffffff16815260200190815260200160002060009054906101000a900460ff16905092915050565b6122cb612541565b73ffffffffffffffffffffffffffffffffffffffff166122e96113e3565b73ffffffffffffffffffffffffffffffffffffffff161461233f576040517f08c379a000000000000000000000000000000000000000000000000000000000815260040161233690613c0f565b60405180910390fd5b600073ffffffffffffffffffffffffffffffffffffffff168173ffffffffffffffffffffffffffffffffffffffff1614156123af576040517f08c379a00000000000000000000000000000000000000000000000000000000081526004016123a690613a8f565b60405180910390fd5b6123b881612947565b50565b6123c3612541565b73ffffffffffffffffffffffffffffffffffffffff166123e16113e3565b73ffffffffffffffffffffffffffffffffffffffff1614612437576040517f08c379a000000000000000000000000000000000000000000000000000000000815260040161242e90613c0f565b60405180910390fd5b80600660146101000a8154816bffffffffffffffffffffffff02191690836bffffffffffffffffffffffff16021790555050565b60007f01ffc9a7000000000000000000000000000000000000000000000000000000007bffffffffffffffffffffffffffffffffffffffffffffffffffffffff1916827bffffffffffffffffffffffffffffffffffffffffffffffffffffffff1916149050919050565b60008073ffffffffffffffffffffffffffffffffffffffff166002600084815260200190815260200160002060009054906101000a900473ffffffffffffffffffffffffffffffffffffffff1673ffffffffffffffffffffffffffffffffffffffff1614159050919050565b600033905090565b816004600083815260200190815260200160002060006101000a81548173ffffffffffffffffffffffffffffffffffffffff021916908373ffffffffffffffffffffffffffffffffffffffff160217905550808273ffffffffffffffffffffffffffffffffffffffff166125bc83610c89565b73ffffffffffffffffffffffffffffffffffffffff167f8c5be1e5ebec7d5bd14f71427d1e84f3dd0314c0f7b2291e5b200ac8c7c3b92560405160405180910390a45050565b600061260d826124d5565b61264c576040517f08c379a000000000000000000000000000000000000000000000000000000000815260040161264390613b4f565b60405180910390fd5b600061265783610c89565b90508073ffffffffffffffffffffffffffffffffffffffff168473ffffffffffffffffffffffffffffffffffffffff1614806126c657508373ffffffffffffffffffffffffffffffffffffffff166126ae846106d7565b73ffffffffffffffffffffffffffffffffffffffff16145b806126d757506126d6818561222f565b5b91505092915050565b8273ffffffffffffffffffffffffffffffffffffffff1661270082610c89565b73ffffffffffffffffffffffffffffffffffffffff1614612756576040517f08c379a000000000000000000000000000000000000000000000000000000000815260040161274d90613aaf565b60405180910390fd5b600073ffffffffffffffffffffffffffffffffffffffff168273ffffffffffffffffffffffffffffffffffffffff1614156127c6576040517f08c379a00000000000000000000000000000000000000000000000000000000081526004016127bd90613b0f565b60405180910390fd5b6127d1838383612d9a565b6127dc600082612549565b6001600360008573ffffffffffffffffffffffffffffffffffffffff1673ffffffffffffffffffffffffffffffffffffffff168152602001908152602001600020600082825461282c9190614034565b925050819055506001600360008473ffffffffffffffffffffffffffffffffffffffff1673ffffffffffffffffffffffffffffffffffffffff16815260200190815260200160002060008282546128839190613f53565b92505081905550816002600083815260200190815260200160002060006101000a81548173ffffffffffffffffffffffffffffffffffffffff021916908373ffffffffffffffffffffffffffffffffffffffff160217905550808273ffffffffffffffffffffffffffffffffffffffff168473ffffffffffffffffffffffffffffffffffffffff167fddf252ad1be2c89b69c2b068fc378daa952ba7f163c4a11628f55a4df523b3ef60405160405180910390a4612942838383612d9f565b505050565b6000600660009054906101000a900473ffffffffffffffffffffffffffffffffffffffff16905081600660006101000a81548173ffffffffffffffffffffffffffffffffffffffff021916908373ffffffffffffffffffffffffffffffffffffffff1602179055508173ffffffffffffffffffffffffffffffffffffffff168173ffffffffffffffffffffffffffffffffffffffff167f8be0079c531659141344cd1fd0a4f28419497f9722a3daafe3b4186f6b6457e060405160405180910390a35050565b8173ffffffffffffffffffffffffffffffffffffffff168373ffffffffffffffffffffffffffffffffffffffff161415612a7c576040517f08c379a0000000000000000000000000000000000000000000000000000000008152600401612a7390613b2f565b60405180910390fd5b80600560008573ffffffffffffffffffffffffffffffffffffffff1673ffffffffffffffffffffffffffffffffffffffff16815260200190815260200160002060008473ffffffffffffffffffffffffffffffffffffffff1673ffffffffffffffffffffffffffffffffffffffff16815260200190815260200160002060006101000a81548160ff0219169083151502179055508173ffffffffffffffffffffffffffffffffffffffff168373ffffffffffffffffffffffffffffffffffffffff167f17307eab39ab6107e8899845ad3d59bd9653f200f220920489ca2b5937696c3183604051612b6d91906139f2565b60405180910390a3505050565b612b858484846126e0565b612b9184848484612da4565b612bd0576040517f08c379a0000000000000000000000000000000000000000000000000000000008152600401612bc790613a6f565b60405180910390fd5b50505050565b606060405180602001604052806000815250905090565b60606000821415612c35576040518060400160405280600181526020017f30000000000000000000000000000000000000000000000000000000000000008152509050612d95565b600082905060005b60008214612c67578080612c50906141e1565b915050600a82612c609190613fa9565b9150612c3d565b60008167ffffffffffffffff811115612ca9577f4e487b7100000000000000000000000000000000000000000000000000000000600052604160045260246000fd5b6040519080825280601f01601f191660200182016040528015612cdb5781602001600182028036833780820191505090505b5090505b60008514612d8e57600182612cf49190614034565b9150600a85612d03919061422a565b6030612d0f9190613f53565b60f81b818381518110612d4b577f4e487b7100000000000000000000000000000000000000000000000000000000600052603260045260246000fd5b60200101907effffffffffffffffffffffffffffffffffffffffffffffffffffffffffffff1916908160001a905350600a85612d879190613fa9565b9450612cdf565b8093505050505b919050565b505050565b505050565b6000612dc58473ffffffffffffffffffffffffffffffffffffffff16612f3b565b15612f2e578373ffffffffffffffffffffffffffffffffffffffff1663150b7a02612dee612541565b8786866040518563ffffffff1660e01b8152600401612e1094939291906139a6565b602060405180830381600087803b158015612e2a57600080fd5b505af1925050508015612e5b57506040513d601f19601f82011682018060405250810190612e58919061335d565b60015b612ede573d8060008114612e8b576040519150601f19603f3d011682016040523d82523d6000602084013e612e90565b606091505b50600081511415612ed6576040517f08c379a0000000000000000000000000000000000000000000000000000000008152600401612ecd90613a6f565b60405180910390fd5b805181602001fd5b63150b7a0260e01b7bffffffffffffffffffffffffffffffffffffffffffffffffffffffff1916817bffffffffffffffffffffffffffffffffffffffffffffffffffffffff191614915050612f33565b600190505b949350505050565b6000808273ffffffffffffffffffffffffffffffffffffffff163b119050919050565b828054612f6a9061417e565b90600052602060002090601f016020900481019282612f8c5760008555612fd3565b82601f10612fa557805160ff1916838001178555612fd3565b82800160010185558215612fd3579182015b82811115612fd2578251825591602001919060010190612fb7565b5b509050612fe09190612fe4565b5090565b5b80821115612ffd576000816000905550600101612fe5565b5090565b600061301461300f84613eae565b613e89565b90508281526020810184848401111561302c57600080fd5b61303784828561413c565b509392505050565b600061305261304d84613edf565b613e89565b90508281526020810184848401111561306a57600080fd5b61307584828561413c565b509392505050565b60008135905061308c81614876565b92915050565b6000815190506130a181614876565b92915050565b6000813590506130b68161488d565b92915050565b6000813590506130cb816148a4565b92915050565b6000815190506130e0816148a4565b92915050565b600082601f8301126130f757600080fd5b8135613107848260208601613001565b91505092915050565b600082601f83011261312157600080fd5b813561313184826020860161303f565b91505092915050565b600081359050613149816148bb565b92915050565b60008135905061315e816148d2565b92915050565b60006020828403121561317657600080fd5b60006131848482850161307d565b91505092915050565b60006020828403121561319f57600080fd5b60006131ad84828501613092565b91505092915050565b600080604083850312156131c957600080fd5b60006131d78582860161307d565b92505060206131e88582860161307d565b9150509250929050565b60008060006060848603121561320757600080fd5b60006132158682870161307d565b93505060206132268682870161307d565b92505060406132378682870161313a565b9150509250925092565b6000806000806080858703121561325757600080fd5b60006132658782880161307d565b94505060206132768782880161307d565b93505060406132878782880161313a565b925050606085013567ffffffffffffffff8111156132a457600080fd5b6132b0878288016130e6565b91505092959194509250565b600080604083850312156132cf57600080fd5b60006132dd8582860161307d565b92505060206132ee858286016130a7565b9150509250929050565b6000806040838503121561330b57600080fd5b60006133198582860161307d565b925050602061332a8582860161313a565b9150509250929050565b60006020828403121561334657600080fd5b6000613354848285016130bc565b91505092915050565b60006020828403121561336f57600080fd5b600061337d848285016130d1565b91505092915050565b60006020828403121561339857600080fd5b60006133a68482850161313a565b91505092915050565b6000806000606084860312156133c457600080fd5b60006133d28682870161313a565b93505060206133e38682870161307d565b92505060406133f48682870161313a565b9150509250925092565b600080600080600060a0868803121561341657600080fd5b60006134248882890161313a565b95505060206134358882890161307d565b94505060406134468882890161313a565b935050606086013567ffffffffffffffff81111561346357600080fd5b61346f88828901613110565b925050608086013567ffffffffffffffff81111561348c57600080fd5b61349888828901613110565b9150509295509295909350565b600080600080608085870312156134bb57600080fd5b60006134c98782880161313a565b94505060206134da8782880161313a565b93505060406134eb8782880161307d565b92505060606134fc8782880161313a565b91505092959194509250565b60006020828403121561351a57600080fd5b60006135288482850161314f565b91505092915050565b61353a81614106565b82525050565b6135498161407a565b82525050565b61355881614068565b82525050565b6135678161408c565b82525050565b600061357882613f10565b6135828185613f26565b935061359281856020860161414b565b61359b81614317565b840191505092915050565b60006135b182613f1b565b6135bb8185613f37565b93506135cb81856020860161414b565b6135d481614317565b840191505092915050565b60006135ea82613f1b565b6135f48185613f48565b935061360481856020860161414b565b80840191505092915050565b600061361d601783613f37565b915061362882614328565b602082019050919050565b6000613640601583613f37565b915061364b82614351565b602082019050919050565b6000613663603283613f37565b915061366e8261437a565b604082019050919050565b6000613686602683613f37565b9150613691826143c9565b604082019050919050565b60006136a9602583613f37565b91506136b482614418565b604082019050919050565b60006136cc601a83613f37565b91506136d782614467565b602082019050919050565b60006136ef601e83613f37565b91506136fa82614490565b602082019050919050565b6000613712602483613f37565b915061371d826144b9565b604082019050919050565b6000613735601983613f37565b915061374082614508565b602082019050919050565b6000613758602c83613f37565b915061376382614531565b604082019050919050565b600061377b603883613f37565b915061378682614580565b604082019050919050565b600061379e601883613f37565b91506137a9826145cf565b602082019050919050565b60006137c1602a83613f37565b91506137cc826145f8565b604082019050919050565b60006137e4602983613f37565b91506137ef82614647565b604082019050919050565b6000613807602c83613f37565b915061381282614696565b604082019050919050565b600061382a602083613f37565b9150613835826146e5565b602082019050919050565b600061384d601783613f37565b91506138588261470e565b602082019050919050565b6000613870602f83613f37565b915061387b82614737565b604082019050919050565b6000613893601483613f37565b915061389e82614786565b602082019050919050565b60006138b6602183613f37565b91506138c1826147af565b604082019050919050565b60006138d9603183613f37565b91506138e4826147fe565b604082019050919050565b60006138fc601783613f37565b91506139078261484d565b602082019050919050565b61391b816140e4565b82525050565b61392a816140ee565b82525050565b600061393c82856135df565b915061394882846135df565b91508190509392505050565b6000602082019050613969600083018461354f565b92915050565b60006060820190506139846000830186613531565b613991602083018561354f565b61399e6040830184613912565b949350505050565b60006080820190506139bb600083018761354f565b6139c8602083018661354f565b6139d56040830185613912565b81810360608301526139e7818461356d565b905095945050505050565b6000602082019050613a07600083018461355e565b92915050565b60006020820190508181036000830152613a2781846135a6565b905092915050565b60006020820190508181036000830152613a4881613610565b9050919050565b60006020820190508181036000830152613a6881613633565b9050919050565b60006020820190508181036000830152613a8881613656565b9050919050565b60006020820190508181036000830152613aa881613679565b9050919050565b60006020820190508181036000830152613ac88161369c565b9050919050565b60006020820190508181036000830152613ae8816136bf565b9050919050565b60006020820190508181036000830152613b08816136e2565b9050919050565b60006020820190508181036000830152613b2881613705565b9050919050565b60006020820190508181036000830152613b4881613728565b9050919050565b60006020820190508181036000830152613b688161374b565b9050919050565b60006020820190508181036000830152613b888161376e565b9050919050565b60006020820190508181036000830152613ba881613791565b9050919050565b60006020820190508181036000830152613bc8816137b4565b9050919050565b60006020820190508181036000830152613be8816137d7565b9050919050565b60006020820190508181036000830152613c08816137fa565b9050919050565b60006020820190508181036000830152613c288161381d565b9050919050565b60006020820190508181036000830152613c4881613840565b9050919050565b60006020820190508181036000830152613c6881613863565b9050919050565b60006020820190508181036000830152613c8881613886565b9050919050565b60006020820190508181036000830152613ca8816138a9565b9050919050565b60006020820190508181036000830152613cc8816138cc565b9050919050565b60006020820190508181036000830152613ce8816138ef565b9050919050565b6000602082019050613d046000830184613912565b92915050565b600060a082019050613d1f6000830188613912565b613d2c602083018761354f565b613d396040830186613531565b613d466060830185613912565b613d536080830184613912565b9695505050505050565b600060e082019050613d72600083018a613912565b613d7f602083018961354f565b613d8c6040830188613912565b613d996060830187613540565b613da66080830186613912565b81810360a0830152613db881856135a6565b9050613dc760c083018461355e565b98975050505050505050565b600061012082019050613de9600083018c613912565b613df6602083018b613912565b613e03604083018a61354f565b613e106060830189613912565b8181036080830152613e2281886135a6565b9050613e3160a083018761355e565b81810360c0830152613e4381866135a6565b9050613e5260e083018561354f565b613e6061010083018461355e565b9a9950505050505050505050565b6000602082019050613e836000830184613921565b92915050565b6000613e93613ea4565b9050613e9f82826141b0565b919050565b6000604051905090565b600067ffffffffffffffff821115613ec957613ec86142e8565b5b613ed282614317565b9050602081019050919050565b600067ffffffffffffffff821115613efa57613ef96142e8565b5b613f0382614317565b9050602081019050919050565b600081519050919050565b600081519050919050565b600082825260208201905092915050565b600082825260208201905092915050565b600081905092915050565b6000613f5e826140e4565b9150613f69836140e4565b9250827fffffffffffffffffffffffffffffffffffffffffffffffffffffffffffffffff03821115613f9e57613f9d61425b565b5b828201905092915050565b6000613fb4826140e4565b9150613fbf836140e4565b925082613fcf57613fce61428a565b5b828204905092915050565b6000613fe5826140e4565b9150613ff0836140e4565b9250817fffffffffffffffffffffffffffffffffffffffffffffffffffffffffffffffff04831182151516156140295761402861425b565b5b828202905092915050565b600061403f826140e4565b915061404a836140e4565b92508282101561405d5761405c61425b565b5b828203905092915050565b6000614073826140c4565b9050919050565b6000614085826140c4565b9050919050565b60008115159050919050565b60007fffffffff0000000000000000000000000000000000000000000000000000000082169050919050565b600073ffffffffffffffffffffffffffffffffffffffff82169050919050565b6000819050919050565b60006bffffffffffffffffffffffff82169050919050565b600061411182614118565b9050919050565b60006141238261412a565b9050919050565b6000614135826140c4565b9050919050565b82818337600083830152505050565b60005b8381101561416957808201518184015260208101905061414e565b83811115614178576000848401525b50505050565b6000600282049050600182168061419657607f821691505b602082108114156141aa576141a96142b9565b5b50919050565b6141b982614317565b810181811067ffffffffffffffff821117156141d8576141d76142e8565b5b80604052505050565b60006141ec826140e4565b91507fffffffffffffffffffffffffffffffffffffffffffffffffffffffffffffffff82141561421f5761421e61425b565b5b600182019050919050565b6000614235826140e4565b9150614240836140e4565b9250826142505761424f61428a565b5b828206905092915050565b7f4e487b7100000000000000000000000000000000000000000000000000000000600052601160045260246000fd5b7f4e487b7100000000000000000000000000000000000000000000000000000000600052601260045260246000fd5b7f4e487b7100000000000000000000000000000000000000000000000000000000600052602260045260246000fd5b7f4e487b7100000000000000000000000000000000000000000000000000000000600052604160045260246000fd5b6000601f19601f8301169050919050565b7f436f756c64206e6f742066696e6420746865206974656d000000000000000000600082015250565b7f4e6f7420656e6f7567682066756e64732073656e740000000000000000000000600082015250565b7f4552433732313a207472616e7366657220746f206e6f6e20455243373231526560008201527f63656976657220696d706c656d656e7465720000000000000000000000000000602082015250565b7f4f776e61626c653a206e6577206f776e657220697320746865207a65726f206160008201527f6464726573730000000000000000000000000000000000000000000000000000602082015250565b7f4552433732313a207472616e736665722066726f6d20696e636f72726563742060008201527f6f776e6572000000000000000000000000000000000000000000000000000000602082015250565b7f596f7520617265206e6f7420746865206974656d206f776e6572000000000000600082015250565b7f446f65736e27742068617665207472616e7366657220617070726f76616c0000600082015250565b7f4552433732313a207472616e7366657220746f20746865207a65726f2061646460008201527f7265737300000000000000000000000000000000000000000000000000000000602082015250565b7f4552433732313a20617070726f766520746f2063616c6c657200000000000000600082015250565b7f4552433732313a206f70657261746f7220717565727920666f72206e6f6e657860008201527f697374656e7420746f6b656e0000000000000000000000000000000000000000602082015250565b7f4552433732313a20617070726f76652063616c6c6572206973206e6f74206f7760008201527f6e6572206e6f7220617070726f76656420666f7220616c6c0000000000000000602082015250565b7f4f776e65722063616e27742062757920746865206974656d0000000000000000600082015250565b7f4552433732313a2062616c616e636520717565727920666f7220746865207a6560008201527f726f206164647265737300000000000000000000000000000000000000000000602082015250565b7f4552433732313a206f776e657220717565727920666f72206e6f6e657869737460008201527f656e7420746f6b656e0000000000000000000000000000000000000000000000602082015250565b7f4552433732313a20617070726f76656420717565727920666f72206e6f6e657860008201527f697374656e7420746f6b656e0000000000000000000000000000000000000000602082015250565b7f4f776e61626c653a2063616c6c6572206973206e6f7420746865206f776e6572600082015250565b7f4974656d206973206e6f742075702073616c6520796574000000000000000000600082015250565b7f4552433732314d657461646174613a2055524920717565727920666f72206e6f60008201527f6e6578697374656e7420746f6b656e0000000000000000000000000000000000602082015250565b7f4974656d20697320616c726561647920736f6c64000000000000000000000000600082015250565b7f4552433732313a20617070726f76616c20746f2063757272656e74206f776e6560008201527f7200000000000000000000000000000000000000000000000000000000000000602082015250565b7f4552433732313a207472616e736665722063616c6c6572206973206e6f74206f60008201527f776e6572206e6f7220617070726f766564000000000000000000000000000000602082015250565b7f4974656d20697320616c72656164792075702073616c65000000000000000000600082015250565b61487f81614068565b811461488a57600080fd5b50565b6148968161408c565b81146148a157600080fd5b50565b6148ad81614098565b81146148b857600080fd5b50565b6148c4816140e4565b81146148cf57600080fd5b50565b6148db816140ee565b81146148e657600080fd5b5056fea26469706673582212203e1d9cca8985c682c8c1b9a4cfee4ec374039b36f5c824fa49fe40f798619ca464736f6c63430008040033",
  "linkReferences": {},
  "deployedLinkReferences": {}
}