{
  "_format": "hh-sol-artifact-1",
  "contractName": "MarketContract721",
  "sourceName": "contracts/MarketContract721.sol",
  "abi": [
    {
      "inputs": [],
      "stateMutability": "nonpayable",
      "type": "constructor"
    },
    {
      "anonymous": false,
      "inputs": [
        {
          "indexed": true,
          "internalType": "address",
          "name": "owner",
          "type": "address"
        },
        {
          "indexed": true,
          "internalType": "address",
          "name": "approved",
          "type": "address"
        },
        {
          "indexed": true,
          "internalType": "uint256",
          "name": "tokenId",
          "type": "uint256"
        }
      ],
      "name": "Approval",
      "type": "event"
    },
    {
      "anonymous": false,
      "inputs": [
        {
          "indexed": true,
          "internalType": "address",
          "name": "owner",
          "type": "address"
        },
        {
          "indexed": true,
          "internalType": "address",
          "name": "operator",
          "type": "address"
        },
        {
          "indexed": false,
          "internalType": "bool",
          "name": "approved",
          "type": "bool"
        }
      ],
      "name": "ApprovalForAll",
      "type": "event"
    },
    {
      "anonymous": false,
      "inputs": [
        {
          "indexed": true,
          "internalType": "address",
          "name": "previousOwner",
          "type": "address"
        },
        {
          "indexed": true,
          "internalType": "address",
          "name": "newOwner",
          "type": "address"
        }
      ],
      "name": "OwnershipTransferred",
      "type": "event"
    },
    {
      "anonymous": false,
      "inputs": [
        {
          "indexed": true,
          "internalType": "address",
          "name": "from",
          "type": "address"
        },
        {
          "indexed": true,
          "internalType": "address",
          "name": "to",
          "type": "address"
        },
        {
          "indexed": true,
          "internalType": "uint256",
          "name": "tokenId",
          "type": "uint256"
        }
      ],
      "name": "Transfer",
      "type": "event"
    },
    {
      "anonymous": false,
      "inputs": [
        {
          "indexed": false,
          "internalType": "uint256",
          "name": "id",
          "type": "uint256"
        },
        {
          "indexed": false,
          "internalType": "uint256",
          "name": "tokenId",
          "type": "uint256"
        },
        {
          "indexed": false,
          "internalType": "address",
          "name": "tokenAddress",
          "type": "address"
        },
        {
          "indexed": false,
          "internalType": "uint256",
          "name": "askingPrice",
          "type": "uint256"
        },
        {
          "indexed": false,
          "internalType": "string",
          "name": "collection",
          "type": "string"
        },
        {
          "indexed": false,
          "internalType": "bool",
          "name": "isSold",
          "type": "bool"
        },
        {
          "indexed": false,
          "internalType": "string",
          "name": "uri",
          "type": "string"
        },
        {
          "indexed": false,
          "internalType": "address",
          "name": "ownerOf",
          "type": "address"
        },
        {
          "indexed": false,
          "internalType": "bool",
          "name": "isOnSale",
          "type": "bool"
        }
      ],
      "name": "itemAdded",
      "type": "event"
    },
    {
      "anonymous": false,
      "inputs": [
        {
          "indexed": false,
          "internalType": "uint256",
          "name": "id",
          "type": "uint256"
        },
        {
          "indexed": false,
          "internalType": "address",
          "name": "buyer",
          "type": "address"
        },
        {
          "indexed": false,
          "internalType": "address",
          "name": "seller",
          "type": "address"
        },
        {
          "indexed": false,
          "internalType": "uint256",
          "name": "tokenId",
          "type": "uint256"
        },
        {
          "indexed": false,
          "internalType": "uint256",
          "name": "askingPrice",
          "type": "uint256"
        }
      ],
      "name": "itemSold",
      "type": "event"
    },
    {
      "inputs": [
        {
          "internalType": "uint256",
          "name": "tokenId",
          "type": "uint256"
        },
        {
          "internalType": "address",
          "name": "tokenAddress",
          "type": "address"
        },
        {
          "internalType": "uint256",
          "name": "askingPrice",
          "type": "uint256"
        },
        {
          "internalType": "string",
          "name": "collection",
          "type": "string"
        },
        {
          "internalType": "string",
          "name": "uri",
          "type": "string"
        }
      ],
      "name": "addItemToMarket",
      "outputs": [
        {
          "internalType": "uint256",
          "name": "",
          "type": "uint256"
        }
      ],
      "stateMutability": "nonpayable",
      "type": "function"
    },
    {
      "inputs": [
        {
          "internalType": "address",
          "name": "to",
          "type": "address"
        },
        {
          "internalType": "uint256",
          "name": "tokenId",
          "type": "uint256"
        }
      ],
      "name": "approve",
      "outputs": [],
      "stateMutability": "nonpayable",
      "type": "function"
    },
    {
      "inputs": [
        {
          "internalType": "address",
          "name": "owner",
          "type": "address"
        }
      ],
      "name": "balanceOf",
      "outputs": [
        {
          "internalType": "uint256",
          "name": "",
          "type": "uint256"
        }
      ],
      "stateMutability": "view",
      "type": "function"
    },
    {
      "inputs": [
        {
          "internalType": "uint256",
          "name": "id",
          "type": "uint256"
        },
        {
          "internalType": "address",
          "name": "creator",
          "type": "address"
        },
        {
          "internalType": "uint256",
          "name": "royalty",
          "type": "uint256"
        }
      ],
      "name": "buyItem",
      "outputs": [],
      "stateMutability": "payable",
      "type": "function"
    },
    {
      "inputs": [
        {
          "internalType": "uint256",
          "name": "id",
          "type": "uint256"
        },
        {
          "internalType": "address",
          "name": "creator",
          "type": "address"
        },
        {
          "internalType": "uint256",
          "name": "royalty",
          "type": "uint256"
        },
        {
          "internalType": "address",
          "name": "payToken",
          "type": "address"
        }
      ],
      "name": "buyItemWithTokens",
      "outputs": [],
      "stateMutability": "payable",
      "type": "function"
    },
    {
      "inputs": [
        {
          "internalType": "uint256",
          "name": "id",
          "type": "uint256"
        },
        {
          "internalType": "uint256",
          "name": "tokenId",
          "type": "uint256"
        },
        {
          "internalType": "address",
          "name": "tokenAddress",
          "type": "address"
        },
        {
          "internalType": "uint256",
          "name": "newPrice",
          "type": "uint256"
        }
      ],
      "name": "changePrice",
      "outputs": [
        {
          "internalType": "uint256",
          "name": "",
          "type": "uint256"
        }
      ],
      "stateMutability": "nonpayable",
      "type": "function"
    },
    {
      "inputs": [
        {
          "internalType": "uint256",
          "name": "tokenId",
          "type": "uint256"
        }
      ],
      "name": "getApproved",
      "outputs": [
        {
          "internalType": "address",
          "name": "",
          "type": "address"
        }
      ],
      "stateMutability": "view",
      "type": "function"
    },
    {
      "inputs": [],
      "name": "getServiceFee",
      "outputs": [
        {
          "internalType": "uint96",
          "name": "",
          "type": "uint96"
        }
      ],
      "stateMutability": "view",
      "type": "function"
    },
    {
      "inputs": [
        {
          "internalType": "address",
          "name": "owner",
          "type": "address"
        },
        {
          "internalType": "address",
          "name": "operator",
          "type": "address"
        }
      ],
      "name": "isApprovedForAll",
      "outputs": [
        {
          "internalType": "bool",
          "name": "",
          "type": "bool"
        }
      ],
      "stateMutability": "view",
      "type": "function"
    },
    {
      "inputs": [
        {
          "internalType": "uint256",
          "name": "",
          "type": "uint256"
        }
      ],
      "name": "itemsForSale",
      "outputs": [
        {
          "internalType": "uint256",
          "name": "id",
          "type": "uint256"
        },
        {
          "internalType": "address",
          "name": "tokenAddress",
          "type": "address"
        },
        {
          "internalType": "uint256",
          "name": "tokenId",
          "type": "uint256"
        },
        {
          "internalType": "address payable",
          "name": "seller",
          "type": "address"
        },
        {
          "internalType": "uint256",
          "name": "askingPrice",
          "type": "uint256"
        },
        {
          "internalType": "string",
          "name": "collection",
          "type": "string"
        },
        {
          "internalType": "bool",
          "name": "isSold",
          "type": "bool"
        }
      ],
      "stateMutability": "view",
      "type": "function"
    },
    {
      "inputs": [],
      "name": "name",
      "outputs": [
        {
          "internalType": "string",
          "name": "",
          "type": "string"
        }
      ],
      "stateMutability": "view",
      "type": "function"
    },
    {
      "inputs": [],
      "name": "owner",
      "outputs": [
        {
          "internalType": "address",
          "name": "",
          "type": "address"
        }
      ],
      "stateMutability": "view",
      "type": "function"
    },
    {
      "inputs": [
        {
          "internalType": "uint256",
          "name": "tokenId",
          "type": "uint256"
        }
      ],
      "name": "ownerOf",
      "outputs": [
        {
          "internalType": "address",
          "name": "",
          "type": "address"
        }
      ],
      "stateMutability": "view",
      "type": "function"
    },
    {
      "inputs": [],
      "name": "renounceOwnership",
      "outputs": [],
      "stateMutability": "nonpayable",
      "type": "function"
    },
    {
      "inputs": [
        {
          "internalType": "address",
          "name": "from",
          "type": "address"
        },
        {
          "internalType": "address",
          "name": "to",
          "type": "address"
        },
        {
          "internalType": "uint256",
          "name": "tokenId",
          "type": "uint256"
        }
      ],
      "name": "safeTransferFrom",
      "outputs": [],
      "stateMutability": "nonpayable",
      "type": "function"
    },
    {
      "inputs": [
        {
          "internalType": "address",
          "name": "from",
          "type": "address"
        },
        {
          "internalType": "address",
          "name": "to",
          "type": "address"
        },
        {
          "internalType": "uint256",
          "name": "tokenId",
          "type": "uint256"
        },
        {
          "internalType": "bytes",
          "name": "data",
          "type": "bytes"
        }
      ],
      "name": "safeTransferFrom",
      "outputs": [],
      "stateMutability": "nonpayable",
      "type": "function"
    },
    {
      "inputs": [
        {
          "internalType": "address",
          "name": "operator",
          "type": "address"
        },
        {
          "internalType": "bool",
          "name": "approved",
          "type": "bool"
        }
      ],
      "name": "setApprovalForAll",
      "outputs": [],
      "stateMutability": "nonpayable",
      "type": "function"
    },
    {
      "inputs": [
        {
          "internalType": "uint96",
          "name": "_serviceFee",
          "type": "uint96"
        }
      ],
      "name": "setServiceFee",
      "outputs": [],
      "stateMutability": "nonpayable",
      "type": "function"
    },
    {
      "inputs": [
        {
          "internalType": "bytes4",
          "name": "interfaceId",
          "type": "bytes4"
        }
      ],
      "name": "supportsInterface",
      "outputs": [
        {
          "internalType": "bool",
          "name": "",
          "type": "bool"
        }
      ],
      "stateMutability": "view",
      "type": "function"
    },
    {
      "inputs": [],
      "name": "symbol",
      "outputs": [
        {
          "internalType": "string",
          "name": "",
          "type": "string"
        }
      ],
      "stateMutability": "view",
      "type": "function"
    },
    {
      "inputs": [
        {
          "internalType": "uint256",
          "name": "tokenId",
          "type": "uint256"
        }
      ],
      "name": "tokenURI",
      "outputs": [
        {
          "internalType": "string",
          "name": "",
          "type": "string"
        }
      ],
      "stateMutability": "view",
      "type": "function"
    },
    {
      "inputs": [
        {
          "internalType": "address",
          "name": "from",
          "type": "address"
        },
        {
          "internalType": "address",
          "name": "to",
          "type": "address"
        },
        {
          "internalType": "uint256",
          "name": "tokenId",
          "type": "uint256"
        }
      ],
      "name": "transferFrom",
      "outputs": [],
      "stateMutability": "nonpayable",
      "type": "function"
    },
    {
      "inputs": [
        {
          "internalType": "address",
          "name": "newOwner",
          "type": "address"
        }
      ],
      "name": "transferOwnership",
      "outputs": [],
      "stateMutability": "nonpayable",
      "type": "function"
    }
  ],
  "bytecode": "0x60806040526101f4600660146101000a8154816bffffffffffffffffffffffff02191690836bffffffffffffffffffffffff1602179055503480156200004457600080fd5b506040518060400160405280601181526020017f43726561746976655661756c74203732310000000000000000000000000000008152506040518060400160405280600381526020017f564c5400000000000000000000000000000000000000000000000000000000008152508160009080519060200190620000c9929190620001d9565b508060019080519060200190620000e2929190620001d9565b50505062000105620000f96200010b60201b60201c565b6200011360201b60201c565b620002ee565b600033905090565b6000600660009054906101000a900473ffffffffffffffffffffffffffffffffffffffff16905081600660006101000a81548173ffffffffffffffffffffffffffffffffffffffff021916908373ffffffffffffffffffffffffffffffffffffffff1602179055508173ffffffffffffffffffffffffffffffffffffffff168173ffffffffffffffffffffffffffffffffffffffff167f8be0079c531659141344cd1fd0a4f28419497f9722a3daafe3b4186f6b6457e060405160405180910390a35050565b828054620001e790620002b8565b90600052602060002090601f0160209004810192826200020b576000855562000257565b82601f106200022657805160ff191683800117855562000257565b8280016001018555821562000257579182015b828111156200025657825182559160200191906001019062000239565b5b5090506200026691906200026a565b5090565b5b80821115620002855760008160009055506001016200026b565b5090565b7f4e487b7100000000000000000000000000000000000000000000000000000000600052602260045260246000fd5b60006002820490506001821680620002d157607f821691505b60208210811415620002e857620002e762000289565b5b50919050565b614b7a80620002fe6000396000f3fe6080604052600436106101405760003560e01c8063715018a6116100b6578063b88d4fde1161006f578063b88d4fde14610479578063c87b56dd146104a2578063e985e9c5146104df578063ef827c1c1461051c578063f2fde38b14610538578063fc53e9551461056157610140565b8063715018a61461038a5780637de64797146103a15780638da5cb5b146103de57806395d89b4114610409578063a22cb46514610434578063ac56c43d1461045d57610140565b806311a1933c1161010857806311a1933c1461025657806323b872dd1461028157806342842e0e146102aa5780635d4d3bf7146102d35780636352211e1461031057806370a082311461034d57610140565b806301ffc9a71461014557806306fdde0314610182578063081812fc146101ad578063092d0afc146101ea578063095ea7b31461022d575b600080fd5b34801561015157600080fd5b5061016c600480360381019061016791906132e4565b61058a565b604051610179919061332c565b60405180910390f35b34801561018e57600080fd5b5061019761066c565b6040516101a491906133e0565b60405180910390f35b3480156101b957600080fd5b506101d460048036038101906101cf9190613438565b6106fe565b6040516101e191906134a6565b60405180910390f35b3480156101f657600080fd5b50610211600480360381019061020c9190613438565b610744565b60405161022497969594939291906134f1565b60405180910390f35b34801561023957600080fd5b50610254600480360381019061024f9190613593565b61086b565b005b34801561026257600080fd5b5061026b610983565b60405161027891906135fa565b60405180910390f35b34801561028d57600080fd5b506102a860048036038101906102a39190613615565b6109a5565b005b3480156102b657600080fd5b506102d160048036038101906102cc9190613615565b610a05565b005b3480156102df57600080fd5b506102fa60048036038101906102f59190613668565b610a25565b60405161030791906136cf565b60405180910390f35b34801561031c57600080fd5b5061033760048036038101906103329190613438565b610c25565b60405161034491906134a6565b60405180910390f35b34801561035957600080fd5b50610374600480360381019061036f91906136ea565b610cd7565b60405161038191906136cf565b60405180910390f35b34801561039657600080fd5b5061039f610d8f565b005b3480156103ad57600080fd5b506103c860048036038101906103c3919061384c565b610da3565b6040516103d591906136cf565b60405180910390f35b3480156103ea57600080fd5b506103f36112bf565b60405161040091906134a6565b60405180910390f35b34801561041557600080fd5b5061041e6112e9565b60405161042b91906133e0565b60405180910390f35b34801561044057600080fd5b5061045b6004803603810190610456919061392b565b61137b565b005b6104776004803603810190610472919061396b565b611391565b005b34801561048557600080fd5b506104a0600480360381019061049b9190613a5f565b611ce4565b005b3480156104ae57600080fd5b506104c960048036038101906104c49190613438565b611d46565b6040516104d691906133e0565b60405180910390f35b3480156104eb57600080fd5b5061050660048036038101906105019190613ae2565b611dae565b604051610513919061332c565b60405180910390f35b61053660048036038101906105319190613b22565b611e42565b005b34801561054457600080fd5b5061055f600480360381019061055a91906136ea565b6125ee565b005b34801561056d57600080fd5b5061058860048036038101906105839190613bb5565b612672565b005b60007f80ac58cd000000000000000000000000000000000000000000000000000000007bffffffffffffffffffffffffffffffffffffffffffffffffffffffff1916827bffffffffffffffffffffffffffffffffffffffffffffffffffffffff1916148061065557507f5b5e139f000000000000000000000000000000000000000000000000000000007bffffffffffffffffffffffffffffffffffffffffffffffffffffffff1916827bffffffffffffffffffffffffffffffffffffffffffffffffffffffff1916145b806106655750610664826126ae565b5b9050919050565b60606000805461067b90613c11565b80601f01602080910402602001604051908101604052809291908181526020018280546106a790613c11565b80156106f45780601f106106c9576101008083540402835291602001916106f4565b820191906000526020600020905b8154815290600101906020018083116106d757829003601f168201915b5050505050905090565b600061070982612718565b6004600083815260200190815260200160002060009054906101000a900473ffffffffffffffffffffffffffffffffffffffff169050919050565b6007818154811061075457600080fd5b90600052602060002090600702016000915090508060000154908060010160009054906101000a900473ffffffffffffffffffffffffffffffffffffffff16908060020154908060030160009054906101000a900473ffffffffffffffffffffffffffffffffffffffff16908060040154908060050180546107d590613c11565b80601f016020809104026020016040519081016040528092919081815260200182805461080190613c11565b801561084e5780601f106108235761010080835404028352916020019161084e565b820191906000526020600020905b81548152906001019060200180831161083157829003601f168201915b5050505050908060060160009054906101000a900460ff16905087565b600061087682610c25565b90508073ffffffffffffffffffffffffffffffffffffffff168373ffffffffffffffffffffffffffffffffffffffff1614156108e7576040517f08c379a00000000000000000000000000000000000000000000000000000000081526004016108de90613cb5565b60405180910390fd5b8073ffffffffffffffffffffffffffffffffffffffff16610906612763565b73ffffffffffffffffffffffffffffffffffffffff16148061093557506109348161092f612763565b611dae565b5b610974576040517f08c379a000000000000000000000000000000000000000000000000000000000815260040161096b90613d47565b60405180910390fd5b61097e838361276b565b505050565b6000600660149054906101000a90046bffffffffffffffffffffffff16905090565b6109b66109b0612763565b82612824565b6109f5576040517f08c379a00000000000000000000000000000000000000000000000000000000081526004016109ec90613dd9565b60405180910390fd5b610a008383836128b9565b505050565b610a2083838360405180602001604052806000815250611ce4565b505050565b6000828460008290503373ffffffffffffffffffffffffffffffffffffffff168173ffffffffffffffffffffffffffffffffffffffff16636352211e846040518263ffffffff1660e01b8152600401610a7e91906136cf565b60206040518083038186803b158015610a9657600080fd5b505afa158015610aaa573d6000803e3d6000fd5b505050506040513d601f19601f82011682018060405250810190610ace9190613e0e565b73ffffffffffffffffffffffffffffffffffffffff1614610b24576040517f08c379a0000000000000000000000000000000000000000000000000000000008152600401610b1b90613e87565b60405180910390fd5b60011515600860008873ffffffffffffffffffffffffffffffffffffffff1673ffffffffffffffffffffffffffffffffffffffff168152602001908152602001600020600089815260200190815260200160002060009054906101000a900460ff16151514610bc8576040517f08c379a0000000000000000000000000000000000000000000000000000000008152600401610bbf90613ef3565b60405180910390fd5b8460078981548110610bdd57610bdc613f13565b5b90600052602060002090600702016004018190555060078881548110610c0657610c05613f13565b5b9060005260206000209060070201600401549350505050949350505050565b6000806002600084815260200190815260200160002060009054906101000a900473ffffffffffffffffffffffffffffffffffffffff169050600073ffffffffffffffffffffffffffffffffffffffff168173ffffffffffffffffffffffffffffffffffffffff161415610cce576040517f08c379a0000000000000000000000000000000000000000000000000000000008152600401610cc590613f8e565b60405180910390fd5b80915050919050565b60008073ffffffffffffffffffffffffffffffffffffffff168273ffffffffffffffffffffffffffffffffffffffff161415610d48576040517f08c379a0000000000000000000000000000000000000000000000000000000008152600401610d3f90614020565b60405180910390fd5b600360008373ffffffffffffffffffffffffffffffffffffffff1673ffffffffffffffffffffffffffffffffffffffff168152602001908152602001600020549050919050565b610d97612b20565b610da16000612b9e565b565b6000848660008290503373ffffffffffffffffffffffffffffffffffffffff168173ffffffffffffffffffffffffffffffffffffffff16636352211e846040518263ffffffff1660e01b8152600401610dfc91906136cf565b60206040518083038186803b158015610e1457600080fd5b505afa158015610e28573d6000803e3d6000fd5b505050506040513d601f19601f82011682018060405250810190610e4c9190613e0e565b73ffffffffffffffffffffffffffffffffffffffff1614610ea2576040517f08c379a0000000000000000000000000000000000000000000000000000000008152600401610e9990613e87565b60405180910390fd5b878960008290503073ffffffffffffffffffffffffffffffffffffffff168173ffffffffffffffffffffffffffffffffffffffff1663081812fc846040518263ffffffff1660e01b8152600401610ef991906136cf565b60206040518083038186803b158015610f1157600080fd5b505afa158015610f25573d6000803e3d6000fd5b505050506040513d601f19601f82011682018060405250810190610f499190613e0e565b73ffffffffffffffffffffffffffffffffffffffff1614610f9f576040517f08c379a0000000000000000000000000000000000000000000000000000000008152600401610f969061408c565b60405180910390fd5b60001515600860008d73ffffffffffffffffffffffffffffffffffffffff1673ffffffffffffffffffffffffffffffffffffffff16815260200190815260200160002060008e815260200190815260200160002060009054906101000a900460ff16151514611043576040517f08c379a000000000000000000000000000000000000000000000000000000000815260040161103a906140f8565b60405180910390fd5b6000600780549050905060076040518060e001604052808381526020018e73ffffffffffffffffffffffffffffffffffffffff1681526020018f81526020013373ffffffffffffffffffffffffffffffffffffffff1681526020018d81526020018c81526020016000151581525090806001815401808255809150506001900390600052602060002090600702016000909190919091506000820151816000015560208201518160010160006101000a81548173ffffffffffffffffffffffffffffffffffffffff021916908373ffffffffffffffffffffffffffffffffffffffff1602179055506040820151816002015560608201518160030160006101000a81548173ffffffffffffffffffffffffffffffffffffffff021916908373ffffffffffffffffffffffffffffffffffffffff1602179055506080820151816004015560a08201518160050190805190602001906111a29291906131d5565b5060c08201518160060160006101000a81548160ff02191690831515021790555050506001600860008e73ffffffffffffffffffffffffffffffffffffffff1673ffffffffffffffffffffffffffffffffffffffff16815260200190815260200160002060008f815260200190815260200160002060006101000a81548160ff021916908315150217905550806007828154811061124357611242613f13565b5b9060005260206000209060070201600001541461126357611262614118565b5b7fcb038c51450f7f6d95a8fe3aeb013ccc8ab689422a5e56a67a44b622556d6176818e8e8e8e60008f3360016040516112a499989796959493929190614147565b60405180910390a18097505050505050505095945050505050565b6000600660009054906101000a900473ffffffffffffffffffffffffffffffffffffffff16905090565b6060600180546112f890613c11565b80601f016020809104026020016040519081016040528092919081815260200182805461132490613c11565b80156113715780601f1061134657610100808354040283529160200191611371565b820191906000526020600020905b81548152906001019060200180831161135457829003601f168201915b5050505050905090565b61138d611386612763565b8383612c64565b5050565b82600780549050811080156113ca575080600782815481106113b6576113b5613f13565b5b906000526020600020906007020160000154145b611409576040517f08c379a00000000000000000000000000000000000000000000000000000000081526004016114009061422e565b60405180910390fd5b83600015156007828154811061142257611421613f13565b5b906000526020600020906007020160060160009054906101000a900460ff16151514611483576040517f08c379a000000000000000000000000000000000000000000000000000000000815260040161147a9061429a565b60405180910390fd5b6007858154811061149757611496613f13565b5b906000526020600020906007020160010160009054906101000a900473ffffffffffffffffffffffffffffffffffffffff16600786815481106114dd576114dc613f13565b5b90600052602060002090600702016002015460008290503073ffffffffffffffffffffffffffffffffffffffff168173ffffffffffffffffffffffffffffffffffffffff1663081812fc846040518263ffffffff1660e01b815260040161154491906136cf565b60206040518083038186803b15801561155c57600080fd5b505afa158015611570573d6000803e3d6000fd5b505050506040513d601f19601f820116820180604052508101906115949190613e0e565b73ffffffffffffffffffffffffffffffffffffffff16146115ea576040517f08c379a00000000000000000000000000000000000000000000000000000000081526004016115e19061408c565b60405180910390fd5b600788815481106115fe576115fd613f13565b5b906000526020600020906007020160040154341015611652576040517f08c379a000000000000000000000000000000000000000000000000000000000815260040161164990614306565b60405180910390fd5b6007888154811061166657611665613f13565b5b906000526020600020906007020160030160009054906101000a900473ffffffffffffffffffffffffffffffffffffffff1673ffffffffffffffffffffffffffffffffffffffff163373ffffffffffffffffffffffffffffffffffffffff161415611706576040517f08c379a00000000000000000000000000000000000000000000000000000000081526004016116fd90614372565b60405180910390fd5b60006117106112bf565b90506000889050600160078b8154811061172d5761172c613f13565b5b906000526020600020906007020160060160006101000a81548160ff02191690831515021790555060006008600060078d8154811061176f5761176e613f13565b5b906000526020600020906007020160010160009054906101000a900473ffffffffffffffffffffffffffffffffffffffff1673ffffffffffffffffffffffffffffffffffffffff1673ffffffffffffffffffffffffffffffffffffffff168152602001908152602001600020600060078d815481106117f1576117f0613f13565b5b906000526020600020906007020160020154815260200190815260200160002060006101000a81548160ff02191690831515021790555060078a8154811061183c5761183b613f13565b5b906000526020600020906007020160030160009054906101000a900473ffffffffffffffffffffffffffffffffffffffff1673ffffffffffffffffffffffffffffffffffffffff166108fc89612710600660149054906101000a90046bffffffffffffffffffffffff166bffffffffffffffffffffffff1660078f815481106118c8576118c7613f13565b5b9060005260206000209060070201600401546118e491906143c1565b6118ee919061444a565b6118f8919061447b565b60078d8154811061190c5761190b613f13565b5b90600052602060002090600702016004015461192891906144d1565b9081150290604051600060405180830381858888f19350505050158015611953573d6000803e3d6000fd5b508173ffffffffffffffffffffffffffffffffffffffff166108fc612710600660149054906101000a90046bffffffffffffffffffffffff166bffffffffffffffffffffffff1660078e815481106119ae576119ad613f13565b5b9060005260206000209060070201600401546119ca91906143c1565b6119d4919061444a565b9081150290604051600060405180830381858888f193505050501580156119ff573d6000803e3d6000fd5b508073ffffffffffffffffffffffffffffffffffffffff166108fc899081150290604051600060405180830381858888f19350505050158015611a46573d6000803e3d6000fd5b5060078a81548110611a5b57611a5a613f13565b5b906000526020600020906007020160040154341115611aec573373ffffffffffffffffffffffffffffffffffffffff166108fc60078c81548110611aa257611aa1613f13565b5b90600052602060002090600702016004015434611abf91906144d1565b9081150290604051600060405180830381858888f19350505050158015611aea573d6000803e3d6000fd5b505b60078a81548110611b0057611aff613f13565b5b906000526020600020906007020160010160009054906101000a900473ffffffffffffffffffffffffffffffffffffffff1673ffffffffffffffffffffffffffffffffffffffff166342842e0e60078c81548110611b6157611b60613f13565b5b906000526020600020906007020160030160009054906101000a900473ffffffffffffffffffffffffffffffffffffffff163360078e81548110611ba857611ba7613f13565b5b9060005260206000209060070201600201546040518463ffffffff1660e01b8152600401611bd893929190614564565b600060405180830381600087803b158015611bf257600080fd5b505af1158015611c06573d6000803e3d6000fd5b505050507f1a418a8480f414a0fd218b4919de1eccba8b8853cb3aafd03003ede4f67951a48a3360078d81548110611c4157611c40613f13565b5b906000526020600020906007020160030160009054906101000a900473ffffffffffffffffffffffffffffffffffffffff1660078e81548110611c8757611c86613f13565b5b90600052602060002090600702016002015460078f81548110611cad57611cac613f13565b5b906000526020600020906007020160040154604051611cd095949392919061459b565b60405180910390a150505050505050505050565b611cf5611cef612763565b83612824565b611d34576040517f08c379a0000000000000000000000000000000000000000000000000000000008152600401611d2b90613dd9565b60405180910390fd5b611d4084848484612dd1565b50505050565b6060611d5182612718565b6000611d5b612e2d565b90506000815111611d7b5760405180602001604052806000815250611da6565b80611d8584612e44565b604051602001611d9692919061462a565b6040516020818303038152906040525b915050919050565b6000600560008473ffffffffffffffffffffffffffffffffffffffff1673ffffffffffffffffffffffffffffffffffffffff16815260200190815260200160002060008373ffffffffffffffffffffffffffffffffffffffff1673ffffffffffffffffffffffffffffffffffffffff16815260200190815260200160002060009054906101000a900460ff16905092915050565b8360078054905081108015611e7b57508060078281548110611e6757611e66613f13565b5b906000526020600020906007020160000154145b611eba576040517f08c379a0000000000000000000000000000000000000000000000000000000008152600401611eb19061422e565b60405180910390fd5b846000151560078281548110611ed357611ed2613f13565b5b906000526020600020906007020160060160009054906101000a900460ff16151514611f34576040517f08c379a0000000000000000000000000000000000000000000000000000000008152600401611f2b9061429a565b60405180910390fd5b60078681548110611f4857611f47613f13565b5b906000526020600020906007020160010160009054906101000a900473ffffffffffffffffffffffffffffffffffffffff1660078781548110611f8e57611f8d613f13565b5b90600052602060002090600702016002015460008290503073ffffffffffffffffffffffffffffffffffffffff168173ffffffffffffffffffffffffffffffffffffffff1663081812fc846040518263ffffffff1660e01b8152600401611ff591906136cf565b60206040518083038186803b15801561200d57600080fd5b505afa158015612021573d6000803e3d6000fd5b505050506040513d601f19601f820116820180604052508101906120459190613e0e565b73ffffffffffffffffffffffffffffffffffffffff161461209b576040517f08c379a00000000000000000000000000000000000000000000000000000000081526004016120929061408c565b60405180910390fd5b600789815481106120af576120ae613f13565b5b906000526020600020906007020160030160009054906101000a900473ffffffffffffffffffffffffffffffffffffffff1673ffffffffffffffffffffffffffffffffffffffff163373ffffffffffffffffffffffffffffffffffffffff16141561214f576040517f08c379a000000000000000000000000000000000000000000000000000000000815260040161214690614372565b60405180910390fd5b6000869050600060078b8154811061216a57612169613f13565b5b9060005260206000209060070201600401549050600060078c8154811061219457612193613f13565b5b906000526020600020906007020160030160009054906101000a900473ffffffffffffffffffffffffffffffffffffffff169050600060078d815481106121de576121dd613f13565b5b9060005260206000209060070201600201549050600060078e8154811061220857612207613f13565b5b906000526020600020906007020160010160009054906101000a900473ffffffffffffffffffffffffffffffffffffffff169050600160078f8154811061225257612251613f13565b5b906000526020600020906007020160060160006101000a81548160ff0219169083151502179055506000600860008373ffffffffffffffffffffffffffffffffffffffff1673ffffffffffffffffffffffffffffffffffffffff168152602001908152602001600020600084815260200190815260200160002060006101000a81548160ff0219169083151502179055508473ffffffffffffffffffffffffffffffffffffffff166323b872dd33858f612710600660149054906101000a90046bffffffffffffffffffffffff166bffffffffffffffffffffffff168a61233991906143c1565b612343919061444a565b61234d919061447b565b8861235891906144d1565b6040518463ffffffff1660e01b81526004016123769392919061464e565b602060405180830381600087803b15801561239057600080fd5b505af11580156123a4573d6000803e3d6000fd5b505050506040513d601f19601f820116820180604052508101906123c8919061469a565b508473ffffffffffffffffffffffffffffffffffffffff166323b872dd336123ee6112bf565b612710600660149054906101000a90046bffffffffffffffffffffffff166bffffffffffffffffffffffff168961242591906143c1565b61242f919061444a565b6040518463ffffffff1660e01b815260040161244d9392919061464e565b602060405180830381600087803b15801561246757600080fd5b505af115801561247b573d6000803e3d6000fd5b505050506040513d601f19601f8201168201806040525081019061249f919061469a565b508473ffffffffffffffffffffffffffffffffffffffff166323b872dd338f8f6040518463ffffffff1660e01b81526004016124dd9392919061464e565b602060405180830381600087803b1580156124f757600080fd5b505af115801561250b573d6000803e3d6000fd5b505050506040513d601f19601f8201168201806040525081019061252f919061469a565b508073ffffffffffffffffffffffffffffffffffffffff166342842e0e8433856040518463ffffffff1660e01b815260040161256d93929190614564565b600060405180830381600087803b15801561258757600080fd5b505af115801561259b573d6000803e3d6000fd5b505050507f1a418a8480f414a0fd218b4919de1eccba8b8853cb3aafd03003ede4f67951a48e338585886040516125d695949392919061459b565b60405180910390a15050505050505050505050505050565b6125f6612b20565b600073ffffffffffffffffffffffffffffffffffffffff168173ffffffffffffffffffffffffffffffffffffffff161415612666576040517f08c379a000000000000000000000000000000000000000000000000000000000815260040161265d90614739565b60405180910390fd5b61266f81612b9e565b50565b61267a612b20565b80600660146101000a8154816bffffffffffffffffffffffff02191690836bffffffffffffffffffffffff16021790555050565b60007f01ffc9a7000000000000000000000000000000000000000000000000000000007bffffffffffffffffffffffffffffffffffffffffffffffffffffffff1916827bffffffffffffffffffffffffffffffffffffffffffffffffffffffff1916149050919050565b61272181612fa5565b612760576040517f08c379a000000000000000000000000000000000000000000000000000000000815260040161275790613f8e565b60405180910390fd5b50565b600033905090565b816004600083815260200190815260200160002060006101000a81548173ffffffffffffffffffffffffffffffffffffffff021916908373ffffffffffffffffffffffffffffffffffffffff160217905550808273ffffffffffffffffffffffffffffffffffffffff166127de83610c25565b73ffffffffffffffffffffffffffffffffffffffff167f8c5be1e5ebec7d5bd14f71427d1e84f3dd0314c0f7b2291e5b200ac8c7c3b92560405160405180910390a45050565b60008061283083610c25565b90508073ffffffffffffffffffffffffffffffffffffffff168473ffffffffffffffffffffffffffffffffffffffff16148061287257506128718185611dae565b5b806128b057508373ffffffffffffffffffffffffffffffffffffffff16612898846106fe565b73ffffffffffffffffffffffffffffffffffffffff16145b91505092915050565b8273ffffffffffffffffffffffffffffffffffffffff166128d982610c25565b73ffffffffffffffffffffffffffffffffffffffff161461292f576040517f08c379a0000000000000000000000000000000000000000000000000000000008152600401612926906147cb565b60405180910390fd5b600073ffffffffffffffffffffffffffffffffffffffff168273ffffffffffffffffffffffffffffffffffffffff16141561299f576040517f08c379a00000000000000000000000000000000000000000000000000000000081526004016129969061485d565b60405180910390fd5b6129aa838383613011565b6129b560008261276b565b6001600360008573ffffffffffffffffffffffffffffffffffffffff1673ffffffffffffffffffffffffffffffffffffffff1681526020019081526020016000206000828254612a0591906144d1565b925050819055506001600360008473ffffffffffffffffffffffffffffffffffffffff1673ffffffffffffffffffffffffffffffffffffffff1681526020019081526020016000206000828254612a5c919061447b565b92505081905550816002600083815260200190815260200160002060006101000a81548173ffffffffffffffffffffffffffffffffffffffff021916908373ffffffffffffffffffffffffffffffffffffffff160217905550808273ffffffffffffffffffffffffffffffffffffffff168473ffffffffffffffffffffffffffffffffffffffff167fddf252ad1be2c89b69c2b068fc378daa952ba7f163c4a11628f55a4df523b3ef60405160405180910390a4612b1b838383613016565b505050565b612b28612763565b73ffffffffffffffffffffffffffffffffffffffff16612b466112bf565b73ffffffffffffffffffffffffffffffffffffffff1614612b9c576040517f08c379a0000000000000000000000000000000000000000000000000000000008152600401612b93906148c9565b60405180910390fd5b565b6000600660009054906101000a900473ffffffffffffffffffffffffffffffffffffffff16905081600660006101000a81548173ffffffffffffffffffffffffffffffffffffffff021916908373ffffffffffffffffffffffffffffffffffffffff1602179055508173ffffffffffffffffffffffffffffffffffffffff168173ffffffffffffffffffffffffffffffffffffffff167f8be0079c531659141344cd1fd0a4f28419497f9722a3daafe3b4186f6b6457e060405160405180910390a35050565b8173ffffffffffffffffffffffffffffffffffffffff168373ffffffffffffffffffffffffffffffffffffffff161415612cd3576040517f08c379a0000000000000000000000000000000000000000000000000000000008152600401612cca90614935565b60405180910390fd5b80600560008573ffffffffffffffffffffffffffffffffffffffff1673ffffffffffffffffffffffffffffffffffffffff16815260200190815260200160002060008473ffffffffffffffffffffffffffffffffffffffff1673ffffffffffffffffffffffffffffffffffffffff16815260200190815260200160002060006101000a81548160ff0219169083151502179055508173ffffffffffffffffffffffffffffffffffffffff168373ffffffffffffffffffffffffffffffffffffffff167f17307eab39ab6107e8899845ad3d59bd9653f200f220920489ca2b5937696c3183604051612dc4919061332c565b60405180910390a3505050565b612ddc8484846128b9565b612de88484848461301b565b612e27576040517f08c379a0000000000000000000000000000000000000000000000000000000008152600401612e1e906149c7565b60405180910390fd5b50505050565b606060405180602001604052806000815250905090565b60606000821415612e8c576040518060400160405280600181526020017f30000000000000000000000000000000000000000000000000000000000000008152509050612fa0565b600082905060005b60008214612ebe578080612ea7906149e7565b915050600a82612eb7919061444a565b9150612e94565b60008167ffffffffffffffff811115612eda57612ed9613721565b5b6040519080825280601f01601f191660200182016040528015612f0c5781602001600182028036833780820191505090505b5090505b60008514612f9957600182612f2591906144d1565b9150600a85612f349190614a30565b6030612f40919061447b565b60f81b818381518110612f5657612f55613f13565b5b60200101907effffffffffffffffffffffffffffffffffffffffffffffffffffffffffffff1916908160001a905350600a85612f92919061444a565b9450612f10565b8093505050505b919050565b60008073ffffffffffffffffffffffffffffffffffffffff166002600084815260200190815260200160002060009054906101000a900473ffffffffffffffffffffffffffffffffffffffff1673ffffffffffffffffffffffffffffffffffffffff1614159050919050565b505050565b505050565b600061303c8473ffffffffffffffffffffffffffffffffffffffff166131b2565b156131a5578373ffffffffffffffffffffffffffffffffffffffff1663150b7a02613065612763565b8786866040518563ffffffff1660e01b81526004016130879493929190614ab6565b602060405180830381600087803b1580156130a157600080fd5b505af19250505080156130d257506040513d601f19601f820116820180604052508101906130cf9190614b17565b60015b613155573d8060008114613102576040519150601f19603f3d011682016040523d82523d6000602084013e613107565b606091505b5060008151141561314d576040517f08c379a0000000000000000000000000000000000000000000000000000000008152600401613144906149c7565b60405180910390fd5b805181602001fd5b63150b7a0260e01b7bffffffffffffffffffffffffffffffffffffffffffffffffffffffff1916817bffffffffffffffffffffffffffffffffffffffffffffffffffffffff1916149150506131aa565b600190505b949350505050565b6000808273ffffffffffffffffffffffffffffffffffffffff163b119050919050565b8280546131e190613c11565b90600052602060002090601f016020900481019282613203576000855561324a565b82601f1061321c57805160ff191683800117855561324a565b8280016001018555821561324a579182015b8281111561324957825182559160200191906001019061322e565b5b509050613257919061325b565b5090565b5b8082111561327457600081600090555060010161325c565b5090565b6000604051905090565b600080fd5b600080fd5b60007fffffffff0000000000000000000000000000000000000000000000000000000082169050919050565b6132c18161328c565b81146132cc57600080fd5b50565b6000813590506132de816132b8565b92915050565b6000602082840312156132fa576132f9613282565b5b6000613308848285016132cf565b91505092915050565b60008115159050919050565b61332681613311565b82525050565b6000602082019050613341600083018461331d565b92915050565b600081519050919050565b600082825260208201905092915050565b60005b83811015613381578082015181840152602081019050613366565b83811115613390576000848401525b50505050565b6000601f19601f8301169050919050565b60006133b282613347565b6133bc8185613352565b93506133cc818560208601613363565b6133d581613396565b840191505092915050565b600060208201905081810360008301526133fa81846133a7565b905092915050565b6000819050919050565b61341581613402565b811461342057600080fd5b50565b6000813590506134328161340c565b92915050565b60006020828403121561344e5761344d613282565b5b600061345c84828501613423565b91505092915050565b600073ffffffffffffffffffffffffffffffffffffffff82169050919050565b600061349082613465565b9050919050565b6134a081613485565b82525050565b60006020820190506134bb6000830184613497565b92915050565b6134ca81613402565b82525050565b60006134db82613465565b9050919050565b6134eb816134d0565b82525050565b600060e082019050613506600083018a6134c1565b6135136020830189613497565b61352060408301886134c1565b61352d60608301876134e2565b61353a60808301866134c1565b81810360a083015261354c81856133a7565b905061355b60c083018461331d565b98975050505050505050565b61357081613485565b811461357b57600080fd5b50565b60008135905061358d81613567565b92915050565b600080604083850312156135aa576135a9613282565b5b60006135b88582860161357e565b92505060206135c985828601613423565b9150509250929050565b60006bffffffffffffffffffffffff82169050919050565b6135f4816135d3565b82525050565b600060208201905061360f60008301846135eb565b92915050565b60008060006060848603121561362e5761362d613282565b5b600061363c8682870161357e565b935050602061364d8682870161357e565b925050604061365e86828701613423565b9150509250925092565b6000806000806080858703121561368257613681613282565b5b600061369087828801613423565b94505060206136a187828801613423565b93505060406136b28782880161357e565b92505060606136c387828801613423565b91505092959194509250565b60006020820190506136e460008301846134c1565b92915050565b600060208284031215613700576136ff613282565b5b600061370e8482850161357e565b91505092915050565b600080fd5b600080fd5b7f4e487b7100000000000000000000000000000000000000000000000000000000600052604160045260246000fd5b61375982613396565b810181811067ffffffffffffffff8211171561377857613777613721565b5b80604052505050565b600061378b613278565b90506137978282613750565b919050565b600067ffffffffffffffff8211156137b7576137b6613721565b5b6137c082613396565b9050602081019050919050565b82818337600083830152505050565b60006137ef6137ea8461379c565b613781565b90508281526020810184848401111561380b5761380a61371c565b5b6138168482856137cd565b509392505050565b600082601f83011261383357613832613717565b5b81356138438482602086016137dc565b91505092915050565b600080600080600060a0868803121561386857613867613282565b5b600061387688828901613423565b95505060206138878882890161357e565b945050604061389888828901613423565b935050606086013567ffffffffffffffff8111156138b9576138b8613287565b5b6138c58882890161381e565b925050608086013567ffffffffffffffff8111156138e6576138e5613287565b5b6138f28882890161381e565b9150509295509295909350565b61390881613311565b811461391357600080fd5b50565b600081359050613925816138ff565b92915050565b6000806040838503121561394257613941613282565b5b60006139508582860161357e565b925050602061396185828601613916565b9150509250929050565b60008060006060848603121561398457613983613282565b5b600061399286828701613423565b93505060206139a38682870161357e565b92505060406139b486828701613423565b9150509250925092565b600067ffffffffffffffff8211156139d9576139d8613721565b5b6139e282613396565b9050602081019050919050565b6000613a026139fd846139be565b613781565b905082815260208101848484011115613a1e57613a1d61371c565b5b613a298482856137cd565b509392505050565b600082601f830112613a4657613a45613717565b5b8135613a568482602086016139ef565b91505092915050565b60008060008060808587031215613a7957613a78613282565b5b6000613a878782880161357e565b9450506020613a988782880161357e565b9350506040613aa987828801613423565b925050606085013567ffffffffffffffff811115613aca57613ac9613287565b5b613ad687828801613a31565b91505092959194509250565b60008060408385031215613af957613af8613282565b5b6000613b078582860161357e565b9250506020613b188582860161357e565b9150509250929050565b60008060008060808587031215613b3c57613b3b613282565b5b6000613b4a87828801613423565b9450506020613b5b8782880161357e565b9350506040613b6c87828801613423565b9250506060613b7d8782880161357e565b91505092959194509250565b613b92816135d3565b8114613b9d57600080fd5b50565b600081359050613baf81613b89565b92915050565b600060208284031215613bcb57613bca613282565b5b6000613bd984828501613ba0565b91505092915050565b7f4e487b7100000000000000000000000000000000000000000000000000000000600052602260045260246000fd5b60006002820490506001821680613c2957607f821691505b60208210811415613c3d57613c3c613be2565b5b50919050565b7f4552433732313a20617070726f76616c20746f2063757272656e74206f776e6560008201527f7200000000000000000000000000000000000000000000000000000000000000602082015250565b6000613c9f602183613352565b9150613caa82613c43565b604082019050919050565b60006020820190508181036000830152613cce81613c92565b9050919050565b7f4552433732313a20617070726f76652063616c6c6572206973206e6f7420746f60008201527f6b656e206f776e6572206e6f7220617070726f76656420666f7220616c6c0000602082015250565b6000613d31603e83613352565b9150613d3c82613cd5565b604082019050919050565b60006020820190508181036000830152613d6081613d24565b9050919050565b7f4552433732313a2063616c6c6572206973206e6f7420746f6b656e206f776e6560008201527f72206e6f7220617070726f766564000000000000000000000000000000000000602082015250565b6000613dc3602e83613352565b9150613dce82613d67565b604082019050919050565b60006020820190508181036000830152613df281613db6565b9050919050565b600081519050613e0881613567565b92915050565b600060208284031215613e2457613e23613282565b5b6000613e3284828501613df9565b91505092915050565b7f596f7520617265206e6f7420746865206974656d206f776e6572000000000000600082015250565b6000613e71601a83613352565b9150613e7c82613e3b565b602082019050919050565b60006020820190508181036000830152613ea081613e64565b9050919050565b7f4974656d206973206e6f742075702073616c6520796574000000000000000000600082015250565b6000613edd601783613352565b9150613ee882613ea7565b602082019050919050565b60006020820190508181036000830152613f0c81613ed0565b9050919050565b7f4e487b7100000000000000000000000000000000000000000000000000000000600052603260045260246000fd5b7f4552433732313a20696e76616c696420746f6b656e2049440000000000000000600082015250565b6000613f78601883613352565b9150613f8382613f42565b602082019050919050565b60006020820190508181036000830152613fa781613f6b565b9050919050565b7f4552433732313a2061646472657373207a65726f206973206e6f74206120766160008201527f6c6964206f776e65720000000000000000000000000000000000000000000000602082015250565b600061400a602983613352565b915061401582613fae565b604082019050919050565b6000602082019050818103600083015261403981613ffd565b9050919050565b7f446f65736e27742068617665207472616e7366657220617070726f76616c0000600082015250565b6000614076601e83613352565b915061408182614040565b602082019050919050565b600060208201905081810360008301526140a581614069565b9050919050565b7f4974656d20697320616c72656164792075702073616c65000000000000000000600082015250565b60006140e2601783613352565b91506140ed826140ac565b602082019050919050565b60006020820190508181036000830152614111816140d5565b9050919050565b7f4e487b7100000000000000000000000000000000000000000000000000000000600052600160045260246000fd5b60006101208201905061415d600083018c6134c1565b61416a602083018b6134c1565b614177604083018a613497565b61418460608301896134c1565b818103608083015261419681886133a7565b90506141a560a083018761331d565b81810360c08301526141b781866133a7565b90506141c660e0830185613497565b6141d461010083018461331d565b9a9950505050505050505050565b7f436f756c64206e6f742066696e6420746865206974656d000000000000000000600082015250565b6000614218601783613352565b9150614223826141e2565b602082019050919050565b600060208201905081810360008301526142478161420b565b9050919050565b7f4974656d20697320616c726561647920736f6c64000000000000000000000000600082015250565b6000614284601483613352565b915061428f8261424e565b602082019050919050565b600060208201905081810360008301526142b381614277565b9050919050565b7f4e6f7420656e6f7567682066756e64732073656e740000000000000000000000600082015250565b60006142f0601583613352565b91506142fb826142ba565b602082019050919050565b6000602082019050818103600083015261431f816142e3565b9050919050565b7f4f776e65722063616e27742062757920746865206974656d0000000000000000600082015250565b600061435c601883613352565b915061436782614326565b602082019050919050565b6000602082019050818103600083015261438b8161434f565b9050919050565b7f4e487b7100000000000000000000000000000000000000000000000000000000600052601160045260246000fd5b60006143cc82613402565b91506143d783613402565b9250817fffffffffffffffffffffffffffffffffffffffffffffffffffffffffffffffff04831182151516156144105761440f614392565b5b828202905092915050565b7f4e487b7100000000000000000000000000000000000000000000000000000000600052601260045260246000fd5b600061445582613402565b915061446083613402565b9250826144705761446f61441b565b5b828204905092915050565b600061448682613402565b915061449183613402565b9250827fffffffffffffffffffffffffffffffffffffffffffffffffffffffffffffffff038211156144c6576144c5614392565b5b828201905092915050565b60006144dc82613402565b91506144e783613402565b9250828210156144fa576144f9614392565b5b828203905092915050565b6000819050919050565b600061452a61452561452084613465565b614505565b613465565b9050919050565b600061453c8261450f565b9050919050565b600061454e82614531565b9050919050565b61455e81614543565b82525050565b60006060820190506145796000830186614555565b6145866020830185613497565b61459360408301846134c1565b949350505050565b600060a0820190506145b060008301886134c1565b6145bd6020830187613497565b6145ca6040830186614555565b6145d760608301856134c1565b6145e460808301846134c1565b9695505050505050565b600081905092915050565b600061460482613347565b61460e81856145ee565b935061461e818560208601613363565b80840191505092915050565b600061463682856145f9565b915061464282846145f9565b91508190509392505050565b60006060820190506146636000830186613497565b6146706020830185614555565b61467d60408301846134c1565b949350505050565b600081519050614694816138ff565b92915050565b6000602082840312156146b0576146af613282565b5b60006146be84828501614685565b91505092915050565b7f4f776e61626c653a206e6577206f776e657220697320746865207a65726f206160008201527f6464726573730000000000000000000000000000000000000000000000000000602082015250565b6000614723602683613352565b915061472e826146c7565b604082019050919050565b6000602082019050818103600083015261475281614716565b9050919050565b7f4552433732313a207472616e736665722066726f6d20696e636f72726563742060008201527f6f776e6572000000000000000000000000000000000000000000000000000000602082015250565b60006147b5602583613352565b91506147c082614759565b604082019050919050565b600060208201905081810360008301526147e4816147a8565b9050919050565b7f4552433732313a207472616e7366657220746f20746865207a65726f2061646460008201527f7265737300000000000000000000000000000000000000000000000000000000602082015250565b6000614847602483613352565b9150614852826147eb565b604082019050919050565b600060208201905081810360008301526148768161483a565b9050919050565b7f4f776e61626c653a2063616c6c6572206973206e6f7420746865206f776e6572600082015250565b60006148b3602083613352565b91506148be8261487d565b602082019050919050565b600060208201905081810360008301526148e2816148a6565b9050919050565b7f4552433732313a20617070726f766520746f2063616c6c657200000000000000600082015250565b600061491f601983613352565b915061492a826148e9565b602082019050919050565b6000602082019050818103600083015261494e81614912565b9050919050565b7f4552433732313a207472616e7366657220746f206e6f6e20455243373231526560008201527f63656976657220696d706c656d656e7465720000000000000000000000000000602082015250565b60006149b1603283613352565b91506149bc82614955565b604082019050919050565b600060208201905081810360008301526149e0816149a4565b9050919050565b60006149f282613402565b91507fffffffffffffffffffffffffffffffffffffffffffffffffffffffffffffffff821415614a2557614a24614392565b5b600182019050919050565b6000614a3b82613402565b9150614a4683613402565b925082614a5657614a5561441b565b5b828206905092915050565b600081519050919050565b600082825260208201905092915050565b6000614a8882614a61565b614a928185614a6c565b9350614aa2818560208601613363565b614aab81613396565b840191505092915050565b6000608082019050614acb6000830187613497565b614ad86020830186613497565b614ae560408301856134c1565b8181036060830152614af78184614a7d565b905095945050505050565b600081519050614b11816132b8565b92915050565b600060208284031215614b2d57614b2c613282565b5b6000614b3b84828501614b02565b9150509291505056fea2646970667358221220fc9a301b0cb15ea072fb7de2d07ffff6c55d98cc52952daa5a7bd50775819f0064736f6c63430008090033",
  "linkReferences": {},
  "deployedLinkReferences": {}
}